:100000000C94F7000C9492210C946B210C945723C0
:100010000C9457230C9457230C9415220C94B9215B
:100020000C942B010C942B010C942B010C942B01A0
:100030000C942B010C942B010C942B010C942B0190
:100040000C9421210C942B010C942B010C942B016A
:100050000C942B010C942B010C942B010C942B0170
:100060000C942C220C942B0100407A10F35A00A01F
:10007000724E18090010A5D4E80000E87648170071
:1000800000E40B54020000CA9A3B000000E1F505B1
:10009000000080969800000040420F000000A086FB
:1000A00001000000102700000000E803000000002D
:1000B0006400000000000A000000000001000000D1
:1000C00000002C76D888DC674F0823DFC1DFAE59EB
:1000D000E1B1B796E5E3E453C63AE651997696E87E
:1000E000E6C28426EB898C9B62ED407C6FFCEFBC02
:1000F0009C9F40F2BAA56FA5F490055A2AF75C932D
:100100006B6CF9676DC11BFCE0E40D47FEF520E662
:10011000B500D0ED902E0300943577050080841E45
:10012000080000204E0A000000C80C333333330FA0
:10013000986E12831141EF8D2114893BE65516CF3D
:10014000FEE6DB18D1844B381BF77C1D901DA4BB49
:10015000E424203284725E228100C9F124ECA1E5FE
:100160003D27555054494D453A256C75004D4F5328
:100170004645543A2575004D4F534645543A313261
:100180002D4155544F0000000000240027002A0094
:100190000000000900030200000405080000000040
:1001A0000000000000000002000000002300260004
:1001B000290000000000250028002B00040404048E
:1001C0000404040402020202020203030303030301
:1001D00002020301020408102040800102040810FA
:1001E00020010204081020408040CF23462A112419
:1001F0001FBECFEFD8E0DEBFCDBF14BE0FB6F89460
:10020000A8958091600088618093600010926000E2
:100210000FBE15E0A0E0B1E0EAE3FBE602C0059006
:100220000D92A235B107D9F726E0A2E5B5E001C0ED
:100230001D92A23FB207E1F710E0C6EFD0E004C084
:100240002197FE010E943333C53FD107C9F70E94B1
:100250007B240C9490350C940000DC01E1E9F6E07D
:100260002D913D914C9112972083318342832D91A2
:100270003D914C9112972383348345838D919D91B9
:10028000AC9186839783A0870895282F90917F064D
:1002900081E0913208F042C080915B068111FCCF71
:1002A00080917E0632E030935B0620935A062FEF52
:1002B000209359062EE536E03093580620935706D2
:1002C000109256069093550610925406909154063B
:1002D000880F892B8093540680915306813029F52D
:1002E00010925306809154068093BB008091BC000D
:1002F00083FDF8CF85EC8093BC0080915B06823053
:10030000E1F3809159068F3F91F080915906803238
:1003100081F080915906803371F084E010925D067F
:1003200010927F0610925C06089585EEE4CF80E07F
:10033000F5CF82E0F3CF83E0F1CF9B01AC011092C7
:10034000EA061092E9061092E8061092E70610926B
:10035000E6061092E50660E079E08DE390E00E9409
:100360007631B901C90103972430310510F481E0D9
:1003700090E09093EC068093EB068091DB0687314A
:1003800008F063C0F901F695E795E431F10508F44A
:100390008CC07397F093E606E093E506663071052E
:1003A00008F486C0B901655071097093E80660933E
:1003B000E706B901660F771F260F371F3695279579
:1003C000369527952D30310508F475C02C5031092C
:1003D0003093EA062093E9062091680094E0883083
:1003E00054F091E08E303CF092E0843124F091E0C2
:1003F000863109F490E0922B909368002DE630E06E
:10040000883074F08E300CF459C084313CF0863161
:100410000CF454C030E020E0863111F42CE630E0DA
:100420003093E3062093E20688300CF04AC091E056
:1004300001C0990F8A95EAF7892F8093E40680918D
:10044000EB069091EC060197F1F78091E906909107
:10045000EA06892B49F1E0915106F091520686E0B7
:10046000EF3CF80709F1309739F0A389B4899C91E2
:100470008589809589238C938091ED068E7F80936A
:10048000ED061092500610924F068FEC96E0909376
:10049000520680935106E091E206F091E3068081D6
:1004A0009091E406892B80830895E1E0F0E072CF1B
:1004B00061E070E07ACF21E030E08ACF2BE630E0D7
:1004C000AFCF8E3014F48850B2CF863114F48E50F2
:1004D000AECF863111F480E4B0CF80E0AECF84306F
:1004E00081F028F48230E9F08330F9F00895883003
:1004F00071F0893091F08530B9F4809180008F7D62
:1005000003C0809180008F77809380000895809150
:10051000B0008F778093B00008958091B0008F7DF8
:10052000F9CF84B58F7784BD089584B58F7DFBCFD7
:10053000CF93DF93282F30E0F901E057FE4F8491ED
:10054000F901ED52FE4FD491F901E454FE4FC491EC
:10055000CC23A1F081110E946F02EC2FF0E0EE0F8E
:10056000FF1FE855FE4FA591B491EC91ED2381E07A
:1005700090E009F480E0DF91CF91089580E090E071
:10058000FACF1F93CF93DF93282F30E0F901E05784
:10059000FE4F8491F901ED52FE4FD491F901E454DC
:1005A000FE4FC491CC23A9F0162F81110E946F0237
:1005B000EC2FF0E0EE0FFF1FEE54FE4FA591B4912B
:1005C0008FB7F894EC91111108C0D095DE23DC931D
:1005D0008FBFDF91CF911F910895DE2BF8CFCF937E
:1005E000DF9390E0FC01ED52FE4F249184549E4F26
:1005F000FC0184918823C9F090E0880F991FFC01C9
:10060000EA57FE4FA591B491FC01EE54FE4FC591FF
:10061000D49161110DC09FB7F8948C9120958223DD
:100620008C938881282328839FBFDF91CF910895E1
:10063000623051F49FB7F8943C91822F80958323C8
:100640008C93E8812E2BEFCF8FB7F894EC912E2B63
:100650002C938FBFEACF4F925F926F927F928F92CF
:100660009F92AF92BF92CF92DF92EF92FF920F9341
:100670001F93CF93DF9300D000D01F92CDB7DEB78A
:100680008C012A013B0180910A018630C9F08F3F1D
:1006900009F4B6C00F900F900F900F900F90DF915C
:1006A000CF911F910F91FF90EF90DF90CF90BF906F
:1006B000AF909F908F907F906F905F904F90089534
:1006C000E7EAF1E084918D8387FDE4CF61E086E085
:1006D0000E94EF028D81882321F09D81923009F0E4
:1006E0004FC14801B12CA12C60E072E18AE790E093
:1006F000A50198010E94763129833A834B835C835C
:1007000069017A0181E0C81AD108E108F1089FEF78
:10071000C916D104E104F10409F00CF412C160E43B
:1007200072E48FE090E0A50198010E9476316901A2
:100730007A0181E0C81AD108E108F1089D81923060
:1007400009F07BC18FEFC816D104E104F10409F070
:100750000CF4D0C160E970ED83E090E0A501980150
:100760000E94763169017A0191E0C91AD108E10845
:10077000F1088FEFC816D104E104F10409F00CF47C
:10078000BBC168E478EE81E090E0A50198010E9489
:10079000763169017A0191E0C91AD108E108F108BE
:1007A0008FEFC816D104E104F10411F00CF099C0E8
:1007B00084E09091B100987F892B8093B1002FEF56
:1007C0003FEFA901411451046104710409F0CAC04A
:1007D0009D81913009F4FEC0923009F41EC191113F
:1007E00059CFC7BC20938D0630938E0640938F0659
:1007F0005093900680916E00826080936E004ACF85
:1008000086E080930A01E7EAF1E094919D839F3F9F
:1008100009F440CF913029F158F0923009F43FC0EB
:100820008D8187FD37CF61E086E00E94EF0255CFD2
:1008300014BC15BC84B5826084BD85B5816085BD5E
:10084000E2ECF1E0E491F0E0EE0FFF1FEE54FE4F1A
:1008500085919491E9EDF1E0E491E09384061D82A5
:1008600035CF1092800010928100809181008860C5
:100870008093810080918100816080938100E2EC0F
:10088000F1E0E491F0E0EE0FFF1FEE54FE4F859192
:100890009491E9EDF1E0E491E093830617CF109293
:1008A000B0001092B1008091B00082608093B000DF
:1008B0008091B10081608093B100E2ECF1E0E491BD
:1008C000F0E0EE0FFF1FEE54FE4F85919491909350
:1008D000820680938106E9EDF1E0E491E0938006E1
:1008E000F5CE64E274EF80E090E0A50198010E94EB
:1008F000763169017A0191E0C91AD108E108F1085D
:100900008FEFC816D104E104F10409F008F4F6C031
:1009100062E17AE780E090E0A50198010E947631DB
:1009200069017A0191E0C91AD108E108F1088FEF55
:10093000C816D104E104F10411F008F0C9C086E042
:1009400038CF81E09D81911134CF95B5987F892B67
:1009500085BD2FEF3FEFA9014114510461047104DB
:1009600009F43FCFD801AA0FBB1FA30192010E9437
:10097000953128EE33E040E050E00E94DF3128CF8F
:10098000B12CA12C60E072E18AE790E0A50198010A
:100990000E94763169017A0181E0C81AD108E10824
:1009A000F108C114D10491E0E906F1042CF591E0BD
:1009B0008D81813009F003CF80918100887F892B60
:1009C000809381002FEF3FEFA9014114510461048E
:1009D000710441F6D0928900C09288002093890664
:1009E00030938A0640938B0650938C0680916F005B
:1009F000826080936F004ECE68E478EE81E090E0F4
:100A0000A50198010E94763169017A0181E0C81A36
:100A1000D108E108F10893E0CBCFC092B300209356
:100A2000850630938606409387065093880680910A
:100A300070008260809370002DCE82E09FEFC91617
:100A4000D104E104F10409F00CF47CCF68E478EE01
:100A500081E090E0A50194010E94763169017A015C
:100A600091E0C91AD108E108F1088FEFC816D10446
:100A7000E104F10409F014F483E064CF62E17AE761
:100A800080E090E0A50194010E94763169017A012D
:100A900081E0C81AD108E108F10884E09FEFC91687
:100AA000D104E104F10409F008F44CCFC980DA80E4
:100AB000EB80FC808AE0F594E794D794C7948A95FC
:100AC000D1F791E0C91AD108E108F10885E03ACFE1
:100AD000C980DA80EB80FC809AE0F594E794D794A3
:100AE000C7949A95D1F781E0C81AD108E108F108B6
:100AF00087E05FCE82E05DCE83E05BCE85E059CEBD
:100B00008E50806480937C0080917A008064809312
:100B10007A0080917A0086FDFCCF809178009091D8
:100B2000790008958230910538F0880F991F880F59
:100B3000991F05970197F1F708953FB7F8948091B1
:100B40004B0690914C06A0914D06B0914E0626B5ED
:100B5000A89B05C02F3F19F00196A11DB11D3FBFF5
:100B6000BA2FA92F982F8827BC01CD01620F711DC4
:100B7000811D911D42E0660F771F881F991F4A95BE
:100B8000D1F708958F929F92AF92BF92CF92DF924A
:100B9000EF92FF926B017C010E949D054B015C016D
:100BA000C114D104E104F104B9F00E949D05681953
:100BB00079098A099B09683E73408105910580F394
:100BC00021E0C21AD108E108F10888EE880E83E01E
:100BD000981EA11CB11CE4CFFF90EF90DF90CF9046
:100BE000BF90AF909F908F9008952FB7F894609129
:100BF0004706709148068091490690914A062FBF9A
:100C000008954F925F926F927F929F92AF92BF92A0
:100C1000CF92DF92EF92FF920F931F93CF93DF93C8
:100C200000D01F92CDB7DEB7D090A6068091A9065E
:100C30009091AA06A091AB06B091AC06892B8A2BA5
:100C40008B2BD9F00E949D050091A2061091A3065E
:100C50002091A4063091A506601B710B820B930BAB
:100C60000091A9061091AA062091AB063091AC061E
:100C70006017710782079307C8F20E949D05609371
:100C8000A2067093A3068093A4069093A506E09114
:100C9000B106F091B206309759F04091AD065091EF
:100CA000AE066091AF067091B0068D2D0995D82ED5
:100CB000E090A006F090A1064D2C512C712C612CD7
:100CC000E114F10409F459C0D7011C96CC901C978B
:100CD0008091A7069091A8068436910510F41C9681
:100CE0001C92D701ED91FC91A280B38019821A82E7
:100CF0001B82DD2079F1F701369610E000E02191AA
:100D0000222319F19280992001F130E050E040E077
:100D10002F5F3F4F4F4F5F4FC301B2010E94F4322C
:100D20009B01AC01892D90E0B0E0A0E0BC01CD01B9
:100D30006F5F7F4F8F4F9F4F0E94F432A1E0B0E072
:100D4000AC0FBD1FA00FB11F8C930F5F1F4F03305F
:100D50001105A9F609811A812B81F7014585568570
:100D600062817381C701F5010995D7011C96CC9268
:100D70001C971496ED90FC90A3CF80919E069091C5
:100D80009F068C010F5F1F4F10939F0600939E06D6
:100D90004997B4F10E94F505C0909A06D0909B0641
:100DA000E0909C06F0909D069B01AC012C193D093A
:100DB0004E095F0921F421E030E040E050E088EE88
:100DC00093E0089FB001099F700D189F700D1124CA
:100DD000072E000C880B990B0E94DF313093A80678
:100DE0002093A70610929F0610929E060E94F5057A
:100DF00060939A0670939B0680939C0690939D0641
:100E00000F900F900F90DF91CF911F910F91FF9056
:100E1000EF90DF90CF90BF90AF909F907F906F90BA
:100E20005F904F90089581E080934406089581E09B
:100E300080934106089508950895089580E991E00A
:100E4000089590910A0189130BC0E7EAF1E0E4915B
:100E50009FEF90930A01E13049F028F0E23061F011
:100E600060E00C94C10210926E00FACF90916F0076
:100E70009D7F90936F00F4CF909170009D7F909331
:100E8000700091E09093B0009091B100987F9460D1
:100E90009093B1001092B300E3CFAF92BF92CF9284
:100EA000DF92EF92FF920F931F93CF93DF936C012A
:100EB0007B018B01040F151FEB015E01AE18BF080B
:100EC000C017D10759F06991D601ED91FC910190BD
:100ED000F081E02DC6010995892B79F7C501DF91D5
:100EE000CF911F910F91FF90EF90DF90CF90BF9027
:100EF000AF900895FC0183858F3F19F061E00C9459
:100F0000C1020895FC0180819181892B39F0A28171
:100F1000B3819C9111968C919CBD8DBD83858F3F33
:100F200019F060E00C94C1020895AF92BF92CF9285
:100F3000DF92EF92FF920F931F93CF93DF93EC0119
:100F400088819981892B89F06EBD0DB407FEFDCF94
:100F5000BEB48B2DDF91CF911F910F91FF90EF9039
:100F6000DF90CF90BF90AF9008958885998511E06C
:100F7000892B09F010E8AA24A394862F812309F075
:100F8000A12C062F2C813D814E815F8160E271EAA8
:100F900087E090E00E94DF31F22EB02EE12CC22ECD
:100FA000D12CFF2019F0C6010E9492058A85877F07
:100FB00009F042C08D858F3F89F0902F912381E009
:100FC00009F480E08A1551F0EF85F8898F8999231B
:100FD00069F19081892B8083AA24A394E989FA89F5
:100FE0008081998D892B8083FF2019F0C6010E9492
:100FF00092058E858F3F39F0EB89FC898081988D31
:10100000892309F0E12AE989FA899081898D8095FF
:10101000892380838E858F3F09F0BE2C8885998532
:10102000892BB9F5110F1111BCCF93CF9081809509
:1010300089238083A12CD2CFE989FA898081998D77
:10104000892B8083FF2019F0C6010E9492058D85AF
:101050008F3F49F0EF85F8898F89902F9123A9F070
:101060009081892B8083E989FA899081898D809587
:10107000892380838E858F3F69F2EB89FC8980818B
:10108000988D892339F2E12AC5CF908180958923F3
:10109000E9CF1695C8CF8F929F92AF92BF92CF9211
:1010A000DF92EF92FF920F931F93CF93DF937C0118
:1010B0004B016A01B22EA32E0E948207E401C80CE4
:1010C000D91CCC15DD0569F4CB2DDA2D0C0F1D1FB5
:1010D000C017D10759F06FEFC7010E949507899398
:1010E000F7CF6991C7010E949507EBCFC7010E9416
:1010F0007A0781E0DF91CF911F910F91FF90EF90E0
:10110000DF90CF90BF90AF909F908F9008958F9277
:101110009F92AF92BF92CF92DF92EF92FF920F9386
:101120001F93CF93DF937C01B62EA72E6A0149014E
:101130000E948207E401080D191DC017D10761F450
:10114000CB2DDA2DCC0EDD1ECC15DD0551F06991CD
:10115000C7010E949507F8CF6991C7010E949507C2
:10116000ECCFC7010E947A0781E0DF91CF911F91F8
:101170000F91FF90EF90DF90CF90BF90AF909F9036
:101180008F9008951F93CF93DF93EA01122FDC0114
:1011900011968D919C91DC01ED91FC910280F3817F
:1011A000E02D0995C817D90729F4812F0E94450120
:1011B00091E0811190E0892FDF91CF911F910895E7
:1011C000AF92BF92CF92DF92EF92FF920F931F9355
:1011D000CF93DF9300D0CDB7DEB7DC01211103C080
:1011E00018962C911897253008F043C01F964D9300
:1011F0005D936D937C93529790E080E0E22EF12C0A
:101200008E159F05B4F41A962C911A9721110AC0D5
:10121000FD01E80FF91F4387452F562F672F7727CA
:101220000196EECFF701E81BF90BEA0FFB1F42878F
:10123000F3CF6D018BE0C80ED11C16969C911697CA
:1012400017968C91179799838A83AD90BC901197CC
:10125000A114B10409F441C019960C9110E0980151
:101260002E0D3F1DD50114968D919C9182179307E9
:1012700010F480E016C0F50181819281208131E077
:1012800030935C0620937E0610925D0610927F06D6
:101290000115110599F421E0A701B601C5010E94CD
:1012A000C2080F900F90DF91CF911F910F91FF9087
:1012B000EF90DF90CF90BF90AF900895DC01ED915B
:1012C000FC910280F381E02DA801BE016F5F7F4F8A
:1012D00009950817190769F6DECF1296ED91FC9172
:1012E0001397309731F214962D913C9115971996DA
:1012F0000C9110E02330310571F48E7F89839A833D
:101300000F5F1F4F9E012F5F3F4FA701B601CF0117
:101310000E948708C6CF2115310519F49F7799835C
:10132000F1CF2230310511F49068F9CF2130310529
:1013300049F79F779064F3CF85ED8093BC0080914F
:10134000BC0084FDFCCF10925B0608952091C3057C
:10135000260F3327331F21323105ECF420915B0631
:10136000FC0190E080E0243069F082E00895A091D3
:10137000C3052191AC014D555A4FA40FB52FB11D96
:101380002C930196861798F38091C305680F60939C
:10139000C30580E0089581E0089510925B0681E026
:1013A00080935A061092530661E082E10E94C102C6
:1013B00061E083E10E94C102E9EBF0E080818E7F71
:1013C000808380818D7F808388E48093B80085E46A
:1013D0008093BC000895CF93DF93EC018B81882329
:1013E000A1F0888191E090935C0680937E06109234
:1013F0005D0610927F0681E00E94450191E0811117
:1014000090E0892FDF91CF910895109226061092D7
:10141000250610925D0610927F060E94CD098CE190
:1014200097E090932406809323068DE197E09093B4
:1014300022068093210681E08B83CE010E94EB0976
:10144000982F8111CECFDDCF0895E09126068091AF
:101450002506E81730F4F0E0EA51FA4F808190E079
:1014600008958FEF9FEF08959091260680912506AD
:101470002FEF3FEF981748F4E92FF0E0EA51FA4FC9
:10148000208130E09F5F90932606C90108958091E6
:10149000250690912606891B990B0895CF92DF921D
:1014A000EF92FF920F931F93CF93DF937C01CB01B9
:1014B0008A0120915C06222389F0EB016B01C40EA6
:1014C000D51ECC15DD0569F06991D701ED91FC9130
:1014D0000190F081E02DC7010995F3CF642F0E94A0
:1014E000A609C801DF91CF911F910F91FF90EF9056
:1014F000DF90CF900895CF93DF931F92CDB7DEB7E3
:10150000698320915C062223F9F020917F06203226
:1015100058F021E030E0FC013383228390E080E04A
:101520000F90DF91CF91089580915D06E82FF0E054
:10153000E25AF94F998190838F5F80935D06809383
:101540007F0681E090E0ECCF61E0CE0101960E9441
:10155000A609F7CF20915106309152062817390776
:1015600071F490914F0680915006981741F0E091E8
:101570004F06F0E0ED59FA4F808190E008958FEF2B
:101580009FEF08950F931F930E94F5056093D70670
:101590007093D8068093D9069093DA068FEC96E084
:1015A0000E94AA0A97FF1DC00E94F5050091D70668
:1015B0001091D8062091D9063091DA06601B710B84
:1015C000820B930B0091D3061091D4062091D5067F
:1015D0003091D6066017710782079307F8F28FEFF4
:1015E0009FEF1F910F910895EF92FF920F931F931A
:1015F000CF93DF93DC015C96ED90FC905D97E11456
:10160000F10479F481E090E013969C938E93129705
:1016100090E080E0DF91CF911F910F91FF90EF90CC
:1016200008955196ED91FC91529750968C91509758
:10163000982F90950FB75E962C915E97122F12708F
:1016400021FD6095F8942081112319F1282B208326
:10165000E7012197F1F728E0462F50E0308160FF45
:101660001AC0382B3083E7012197F1F7BA0175953D
:101670006795215089F7112381F080818923808328
:101680000FBF5C968D919C910197F1F781E090E0FE
:10169000C1CF2923DCCF3923E5CF9081892BEFCF30
:1016A00020915106309152062817390761F4809134
:1016B000500620914F0690E0805C9F4F821B91095D
:1016C0008F739927089590E080E008952091510646
:1016D0003091520628173907B9F490914F0680913E
:1016E0005006981789F0E0914F06F0E0ED59FA4F57
:1016F000808120914F0630E02F5F3F4F2F733327BB
:1017000020934F0690E008958FEF9FEF08950F9379
:101710001F930E94F5056093D7067093D8068093B7
:10172000D9069093DA068FEC96E00E94660B97FF3D
:101730001DC00E94F5050091D7061091D806209192
:10174000D9063091DA06601B710B820B930B009166
:10175000D3061091D4062091D5063091D606601795
:10176000710782079307F8F28FEF9FEF1F910F9198
:10177000089590E080E008950F931F93CF93DF9337
:10178000209162052F5F322F37703093620520FF62
:101790002BC020E831FD2064347009F02062205F06
:1017A000FC01EC01239600E011E06485662329F03A
:1017B00070E0C8010E9404336F5F6187322F369F4B
:1017C000030E30E0311D1124311110C01682662342
:1017D00011F0615061873196EC17FD0731F7DF9109
:1017E000CF911F910F91089520E0D4CF31503683CF
:1017F000EECF4F925F927F928F929F92AF92BF9265
:10180000CF92DF92EF92FF920F931F93CF93DF93CC
:101810002C01EB010E949D05F20127853089621B96
:10182000730B6A307105B0F3F8948A819B811816A6
:1018300019060CF0CBC1E881F98105B1086075B1DA
:10184000777F75B9BA848F812B2D281B822F2F8328
:101850004F85042E000C550BAA81BB81ED84DC84DE
:10186000CE84E394D394C3949E81388599848B84E9
:10187000118120E0F32E622F322F318111278894BD
:101880003111380F08F43FEF81958894E0FC130F75
:1018900017958894E1FC130F17958894E2FC130FB9
:1018A00017958894E3FC130F17958894E4FC130FA5
:1018B00017958894E5FC130F17958894E6FC130F91
:1018C00017958894E7FC130F17958894232FE11040
:1018D000212F8B0D122F002C05B900C017FF75B9F1
:1018E00030812227889400C000C0002C75B93111C6
:1018F000390F00C0002C05B900C016FF75B908F4F7
:101900003FEF9195889400C000C0002C75B9D0FCC1
:10191000230F00C0002C05B900C015FF75B927952D
:101920008894D1FC230F00C000C0002C75B9279506
:10193000889400C0002C05B900C014FF75B9D2FC12
:10194000230F2795889400C000C0002C75B9D3FCE4
:10195000230F00C0002C05B900C013FF75B92795EF
:101960008894D4FC230F00C000C0002C75B92795C3
:10197000889400C0002C05B900C012FF75B9D5FCD1
:10198000230F2795889400C000C0002C75B9D6FCA1
:10199000230F00C0002C05B900C011FF75B92795B1
:1019A0008894D7FC230F00C000C0002C75B9279580
:1019B000889400C0002C05B900C010FF75B9132F22
:1019C000D110122F990D00C000C0002C75B900C0B5
:1019D00000C0002C05B900C017FF75B9328122275D
:1019E000889400C000C0002C75B931113F0D00C0B3
:1019F000002C05B900C016FF75B908F43FEFE40FDD
:101A0000F51F00C000C0002C75B9C0FC230F00C03A
:101A1000002C05B900C015FF75B927958894C1FC45
:101A2000230F00C000C0002C75B92795889400C012
:101A3000002C05B900C014FF75B9C2FC230F27950F
:101A4000889400C000C0002C75B9C3FC230F00C0EF
:101A5000002C05B900C013FF75B927958894C4FC04
:101A6000230F00C000C0002C75B92795889400C0D2
:101A7000002C05B900C012FF75B9C5FC230F2795CE
:101A8000889400C000C0002C75B9C6FC230F00C0AC
:101A9000002C05B900C011FF75B927958894C7FCC3
:101AA000230F00C000C0002C75B92795889400C092
:101AB000002C05B900C010FF75B9132FC110122FEB
:101AC000F19400C000C0002C75B9F80C00C000C033
:101AD00005B900C017FF75B931812227889400C06D
:101AE00000C0002C75B93111380F00C0002C05B9A9
:101AF00000C016FF75B908F43FEF8195889400C0C7
:101B000000C0002C75B9E0FC230F00C0002C05B903
:101B100000C015FF75B927958894E1FC230F00C01C
:101B200000C0002C75B92795889400C0002C05B919
:101B300000C014FF75B9E2FC230F2795889400C0FC
:101B400000C0002C75B9E3FC230F00C0002C05B9C0
:101B500000C013FF75B927958894E4FC230F00C0DB
:101B600000C0002C75B92795889400C0002C05B9D9
:101B700000C012FF75B9E5FC230F2795889400C0BB
:101B800000C0002C75B9E6FC230F00C0002C05B97D
:101B900000C011FF75B927958894E7FC230F00C09A
:101BA00000C0002C75B92795889400C0002C05B999
:101BB00000C010FF75B9132FE110122F8B0D00C05C
:101BC00000C0002C75B9119709F086CE4A815B815F
:101BD00020EE31E0DA010E941833DC01CB01F4E0A1
:101BE000B695A79597958795FA95D1F730E020E0BF
:101BF000B901EAE94E9F040E611D5E9F600D711DE3
:101C00001124650F711D860F971FA11DB11D893EFF
:101C100043E09407A105B10508F434C0885E934001
:101C2000A109B10942E0B695A795979587954A9580
:101C3000D1F747E0849F080E211D949F200D311D90
:101C40001124290F311D6091610570E0860F971FE7
:101C5000820F931F409147065091480660914906B4
:101C600070914A06292F3327420F531F611D711DA2
:101C700040934706509348066093490670934A067E
:101C80008093610578940E949D05F201708B6787AF
:101C9000DF91CF911F910F91FF90EF90DF90CF9048
:101CA000BF90AF909F908F907F905F904F900895DE
:101CB00081E090E00895239A08956F927F928F9229
:101CC000CF92DF92EF92FF920F931F93CF93DF9308
:101CD000CDB7DEB762970FB6F894DEBF0FBECDBFAB
:101CE0006C017A013801822EDC011C962C91CA010C
:101CF00057FF04C088279927841B950B7A83698333
:101D00009C838B839E838D836D867E868F86213018
:101D100049F5CE0101960E94BC0B83E0888B1A8A9C
:101D2000198AF7FE02C08DEF888BD601ED91FC91E8
:101D30000684F785E02DBE016F5F7F4FC6010995D0
:101D400062960FB6F894DEBF0FBECDBFDF91CF9184
:101D50001F910F91FF90EF90DF90CF908F907F9029
:101D60006F9008951C861B861A86198618861F8216
:101D7000D4CFEF92FF920F931F93CF93DF93CDB702
:101D8000DEB762970FB6F894DEBF0FBECDBF7C0101
:101D9000DC011C968C917A8369835C834B835E8320
:101DA0004D830D871E872F878130F9F4CE01019670
:101DB0000E94BC0B188A1A8A198AD701ED91FC91EE
:101DC0000684F785E02DBE016F5F7F4FC70109953F
:101DD00062960FB6F894DEBF0FBECDBFDF91CF91F4
:101DE0001F910F91FF90EF9008951C861B861A8615
:101DF000198618861F82DECFCF92DF92EF92FF9274
:101E00000F931F93CF93DF93CDB7DEB72F970FB606
:101E1000F894DEBF0FBECDBF80914206882309F43F
:101E200054C08091150190911601A09117018983EA
:101E30009A83AB838E010F5F1F4F6E0184E0C80E43
:101E4000D11CF801F1908F0161E08F2D0E94C10239
:101E50006EE571E080E090E00E94C20560E08F2DA9
:101E60000E94C102C016D10661F7F98061E08F2D92
:101E70000E94C1020A8161E0802F0E94C1021B8181
:101E800061E0812F0E94C1026EE571E080E090E088
:101E90000E94C20560E08F2D0E94C10260E0802F89
:101EA0000E94C10260E0812F0E94C1022F960FB6EE
:101EB000F894DEBF0FBECDBFDF91CF911F910F9180
:101EC000FF90EF90DF90CF9008958FEF89831A8273
:101ED0001B821C8290E89D831E821F821886898740
:101EE0008A878B878C878E010F5F1F4F7E01FDE0F5
:101EF000EF0EF11CC8010E942D010E9401066EE543
:101F000071E080E090E00E94C2050D5F1F4F0E154A
:101F10001F0581F71D861E861F86C8010E942D01A0
:101F20000E940106C3CF8F929F92AF92BF92CF9231
:101F3000DF92EF92FF920F931F936B017C010E943F
:101F4000F50500915C0510915D0520915E053091CD
:101F50005F050115110521053105C9F0809058056F
:101F600090905905A0905A05B0905B058C149D0483
:101F7000AE04BF0461F4AB01BC01401B510B620B0A
:101F8000730B81E0403A5F406105710508F080E025
:101F90001F910F91FF90EF90DF90CF90BF90AF9087
:101FA0009F908F900895CF9390910301C09102016B
:101FB000882349F061E0892F0E94C10260E08C2FE4
:101FC000CF910C94C10260E0892F0E94C10261E0B0
:101FD000F6CF60E0809103010E94C10260E0809131
:101FE00002010C94C102CF93DF93EB010E94D30F47
:101FF000BE0190E080E00E94C205DF91CF910C9479
:10200000E90FEF92FF920F931F93CF93DF9306E5B3
:1020100011E080E4E82E81E0F82EF80181919191A1
:102020008F01F701C191D1917F01009729F0AE0195
:1020300070E060E00E942B036496BE0190E080E0B7
:102040000E94C205F1E00C361F0739F786E0DF91E8
:10205000CF911F910F91FF90EF900C942107CF9398
:10206000C0914206CC23C9F0FC012081211108C097
:102070002181211105C0C1E08281811101C0C0E030
:102080006C2F87E00E94C1026C2F88E00E94C10281
:102090006C2F89E0CF910C94C1020E942D01CF9149
:1020A0000C940106AF92BF92CF92DF92EF92FF9213
:1020B0000F931F93CF93DF9300D01F92CDB7DEB75E
:1020C0005C01062F10E06A01F12CE12CC5010E9491
:1020D0002F10C701B6010E94C20519821A821B8205
:1020E000CE0101960E942F1060E570E080E090E044
:1020F0000E94C2051F5F0113E9CF0F900F900F9050
:10210000DF91CF911F910F91FF90EF90DF90CF90D3
:10211000BF90AF900895CF92DF92EF92FF926C0143
:10212000CB01F12CE12CB701A6010E942B03C701C2
:10213000B6010E94C20586E0FF90EF90DF90CF903D
:102140000C94210790E080E00895FC018585968538
:1021500008950F931F93CF93DF9300D01F92CDB7B5
:10216000DEB7AB0119821A821B82DC01ED91FC9172
:102170000190F081E02D00E010E020E0BE016F5FF3
:102180007F4F09950F900F900F90DF91CF911F9186
:102190000F9108952F923F924F925F926F927F928C
:1021A0008F929F92AF92BF92CF92DF92EF92FF9267
:1021B0000F931F93CF93DF9300D0CDB7DEB7FC0111
:1021C0004B01042F9681878199838A83C080D180B7
:1021D000C114D10409F4B8C0418550E0D601149669
:1021E0008D919C9184179507B8F4312C832D0F9015
:1021F0000F90DF91CF911F910F91FF90EF90DF90A3
:10220000CF90BF90AF909F908F907F906F905F9096
:102210004F903F902F900895F601808191E0909328
:102220005C0680937E0610925D0610927F0620E089
:10223000BE016F5F7F4FC6010E94C208382E8823FF
:10224000A1F210E0B12CA12C22242394A016B106F7
:1022500068F680915B068111FCCFD60114968D91B2
:102260009C917801EA18FB088E159F0508F47C0103
:10227000F60190818E2D813208F080E220925B067B
:1022800041E098012E193F09A216B30608F440E078
:1022900040935A06FFEFF093590626EE35E030934F
:1022A000580620935706109256062FEF280F2093BA
:1022B00055062092540620915406990F922B909324
:1022C0005406909153069130C1F5109253069091A7
:1022D00054069093BB009091BC0093FDF8CF35EC71
:1022E0003093BC0090915B069130E1F390915606DB
:1022F000981710F4809156061092260680932506B2
:102300008E151F0409F071CF34016A0C7B1C230168
:10231000C201861997098E159F0598F4D60111966A
:102320008D919C91DC01ED91FC910284F385E02D6F
:102330000995F20181932F01EBCF95EE9093BC00AC
:10234000D1CFAE0CBF1C82CFA281B381109709F40C
:102350004CCF2481358110E0418550E02330310598
:1023600071F4816089839A834F5F5F4F9401BE014E
:102370006F5F7F4FCD010E944B08382E37CF21155C
:10238000310519F490689983F1CF2230310511F4A9
:102390009F77F9CF2130310549F7906CF4CFEF9258
:1023A000FF920F931F93CF93DF93CDB7DEB7A6971E
:1023B0000FB6F894DEBF0FBECDBF8091BF069091DF
:1023C000C0061BA21CA21DA21EA29D8B8C8B1F8A65
:1023D0001E8A11E01D8F85E090E09B8F8A8F1E8FF3
:1023E00002E00C8F4091C3065091C4066091C5066F
:1023F0007091C60622E0CE0144960E94E0088091CA
:10240000BF069091C006188A198A1A8A1B8A9A8375
:1024100089831C821B821A8784E090E098878F83CF
:102420001B87098742E0BE01645F7F4FCE010196A2
:102430000E94CA10882341F0EC84FD849B85992377
:1024400019F0FE24EF24FE248093C106C701A6964E
:102450000FB6F894DEBF0FBECDBFDF91CF911F91B5
:102460000F91FF90EF9008958F929F92AF92BF923D
:10247000EF92FF920F931F93CF93DF93EC014A01EA
:102480005B01E880F980B701655F7F4FF701408508
:10249000C7010E94CA10882309F1F701608570E026
:1024A00030E020E080E090E0DC0126173707CCF434
:1024B000BA2FA92F982F8827F701428541110AC00A
:1024C000FB01E21BF30BEE0DFF1D4285842B2F5FFA
:1024D0003F4FEBCFE20FF31F4385F8CF8FEF9FEF16
:1024E000DC012A8101E010E002C0000F111F2A95D3
:1024F000E2F701501109012E000C220B330BEB8186
:10250000B901A8010E2E04C0440F551F661F771F86
:102510000A94D2F740955095609570958423952341
:10252000A623B7230990D881C02DB901A80148215D
:1025300059216A217B2104C0440F551F661F771F54
:10254000EA95D2F7482B592B6A2B7B2B2885CE0195
:10255000DF91CF911F910F91FF90EF90BF90AF90BF
:102560009F908F900C94E008CF93DF93CDB7DEB7A8
:1025700067970FB6F894DEBF0FBECDBF2091BF06A0
:102580003091C006188A198A1A8A1B8A3A832983CD
:102590001C821B8291E09A8718861F829B8792E09B
:1025A00099879E012F5F3F4F3D8B2C8B93E09E8B35
:1025B0001F8A40E050E0BA01811104C047E050E0BA
:1025C00060E070E0CE0144960E9434128093C10610
:1025D00067960FB6F894DEBF0FBECDBFDF91CF91E7
:1025E00008954F925F926F927F928F929F92AF92D7
:1025F000BF92CF92DF92EF92FF92CF93DF93C82FDB
:1026000080912A0681111FC068EE73E08C2F0E9412
:10261000F30F60E570E080E090E00E94C20564E89E
:1026200073E081E08C27DF91CF91FF90EF90DF90F6
:10263000CF90BF90AF909F908F907F906F905F9062
:102640004F900C94F30F80E00E94B4128C2F0E94E4
:10265000D30F0E94F5056B017C010E94F5056C19F2
:102660007D098E099F09603177428105910530F01F
:102670000E94E90F81E00E94B412CBCFD9E1812CF6
:10268000912C54010E94CF11BC01990F880B990B1A
:102690000E9440302B013C016091C7067091C80632
:1026A0008091C9069091CA060E943E309B01AC0100
:1026B000C301B2010E947D329B01AC01C501B4018E
:1026C0000E9411324B015C01D150E1F60E94F505E8
:1026D0006C197D098E099F096D3271408105910544
:1026E00008F4BBCF20E030E048EC51E4C501B40170
:1026F0000E947D329F7720E030E046E953E40E945B
:10270000EF3218160CF0A9CFB3CF0E941B35CF9330
:10271000DF93DC0114962D913C911597232B79F0D2
:10272000FB01CD91DC9160817181CE010E94463523
:10273000009729F08C1B9D0BDF91CF9108958FEFAF
:102740009FEFFACFFB0144815581FC012481358143
:102750002417350778F080819181009759F0FB01AB
:10276000608171816115710529F00E94383521E081
:10277000892B09F020E0822F08950F931F93CF93A8
:10278000DF93EC0188819981009759F02A813B8180
:102790002617370730F081E0DF91CF911F910F911D
:1027A00008958B016F5F7F4F0E945E34009759F050
:1027B000998388831B830A832C813D81232B59F7BE
:1027C000FC011082E8CF80E0E7CFFC01808191819D
:1027D000009711F00C94D5330895FB01019000206F
:1027E000E9F73197AF01461B570BDC01ED91FC91E6
:1027F0000280F381E02D0994BC0180910001909149
:1028000001010E94ED138091000190910101DC0112
:10281000ED91FC910190F081E02D6AE009958091A5
:10282000000190910101DC01ED91FC910680F7819E
:10283000E02D09956CE070E080E090E00C94C2051A
:102840008AEC91E00E94FC1366E970E080E090E081
:102850000E94C2058AEC91E00C94FC13CF92DF92A7
:10286000EF92FF92CF93C4E08FEC96E00E94500B62
:10287000892B29F08FEC96E00E94660BF5CF6DEC6A
:1028800071E08FEC96E00E94ED130E94F5056B015C
:102890007C010E94F5056C197D098E099F096A3F2C
:1028A00071058105910540F48FEC96E00E94500B74
:1028B000892B79F381E003C0C150B1F680E0CF915C
:1028C000FF90EF90DF90CF9008950F931F93CF93D9
:1028D000DF938C01EB0183E00E9498020197D1F015
:1028E000B8018FEC96E00E94ED136DE08FEC96E05E
:1028F0000E94F40ABE0190E080E00E94C2058FECC5
:1029000096E00E94500B892B29F08FEC96E00E94F4
:10291000660BF5CFDF91CF911F910F9108950F9323
:102920001F93CF93DF93CDB7DEB72C970FB6F894F4
:10293000DEBF0FBECDBF7F936F939F938F9381EDCB
:1029400091E09F938F931F928CE08F938E010F5F86
:102950001F4F1F930F930E94603566E970E0C80116
:102960000E9465140FB6F894DEBF0FBECDBF2C9643
:102970000FB6F894DEBF0FBECDBFDF91CF911F9190
:102980000F9108954F925F926F927F92BF92CF9274
:10299000DF92EF92FF920F931F93CF93DF93CDB708
:1029A000DEB7C054D1090FB6F894DEBF0FBECDBF5D
:1029B00080914206882309F44AC0809108018C3036
:1029C00009F460C081EE91E066E970E00E94651450
:1029D00066E970E08AEE91E00E94651484E396E077
:1029E00020913406222309F491C09F938F9383EFA3
:1029F00091E09F938F931F9288E18F936E0129E25C
:102A0000C20ED11CDF92CF920E9460350FB6F894AF
:102A1000DEBF0FBECDBF03E088E2B82EFE013196C7
:102A20007F0168EC70E0C6010E94651483E00E949B
:102A30009802019709F46AC08FEC96E00E94500B4F
:102A4000892B19F18FEC96E00E94660BF5CF83E09D
:102A50000E949802019709F0B0CFC05CDF4F0FB61B
:102A6000F894DEBF0FBECDBFDF91CF911F910F91C4
:102A7000FF90EF90DF90CF90BF907F906F905F902E
:102A80004F90089588ED91E09FCF6DEF71E08FEC4E
:102A900096E00E94ED13F7012B2D11922A95E9F78C
:102AA0000E94F5052B013C0110E00E94F505641918
:102AB000750986099709603971408105910590F47F
:102AC0008FEC96E00E94500B892B79F3173268F750
:102AD0008FEC96E00E94660BF701E10FF11D8083F9
:102AE0001F5FE3CF112391F067E072E0C7010E94FE
:102AF0004635BC0140E0892B09F086C064E376E0EE
:102B0000C7010E944635892B09F4B8C066E970E018
:102B10008CE092E00E94651466E970E085E192E045
:102B20000E94651466E970E08EE192E00E946514EF
:102B300066E970E087E292E00E94651480914206A7
:102B4000882309F471C066E970E080E392E00E9496
:102B5000651466E970E089E392E00E94651466E915
:102B600070E082E492E00E94651466E970E08BE414
:102B700092E00E94651466E970E084E592E00E94AC
:102B8000651466E970E08DE592E00E94651466E9DF
:102B900070E088E692E00E94651466E970E083E8E0
:102BA00092E00E94651480912806813009F455CF87
:102BB000809129068150833008F04FCF80914206E2
:102BC000811105C08091080190E08C3011F486E0FD
:102BD00090E09F938F938CE892E09F938F931F9246
:102BE0008EE08F938E010F5F1F4F1F930F930E94F4
:102BF000603566E970E0C8010E9465140FB6F8946C
:102C0000DEBF0FBECDBF29CF242F30E0F901EC5C31
:102C1000F94F8081260F371FF9019481882329F10C
:102C200089132CC04F5FF0CF8091080100E210E0C3
:102C30008C3079F09DEF980F10E000E09A3048F466
:102C40008350990B01E010E002C0000F111F8A951C
:102C5000E2F7B80183E792E00E948F14B801686040
:102C60008BE792E00E948F1498CF992309F44ECFFE
:102C70009D3009F44BCF9A3009F448CF015009F048
:102C8000D0CE44CFEF92FF920F931F93CF93DF9359
:102C9000EC017B01198218821B821A821D821C8220
:102CA000FB0101900020E9F731978F01061B170BFC
:102CB000B8010E94BD1328813981811113C02115EB
:102CC000310519F0C9010E94D533198218821D827D
:102CD0001C821B821A82DF91CF911F910F91FF906E
:102CE000EF9008951D830C83B701C901DF91CF9147
:102CF0001F910F91FF90EF900C943135CF92DF929E
:102D0000EF92FF920F931F93CF93DF93EB017B0121
:102D100024E0E20EF11C8B016C01C61AD70AC60131
:102D2000800F911F0E946031F80181938F01EE1591
:102D3000FF05A9F7CE01DF91CF911F910F91FF9071
:102D4000EF90DF90CF9008950C9460311F93CF9354
:102D5000DF93EC01162F0E946031181739F0612FB4
:102D6000CE01DF91CF911F910C946831DF91CF910B
:102D70001F9108954F925F926F927F928F929F92D0
:102D8000AF92BF92CF92DF92EF92FF921F93CF93B9
:102D9000DF9300D01F92CDB7DEB76EE170E080E028
:102DA00090E00E94C20582E00E949802892B09F0FF
:102DB00095C00E94F5052B013C01812C912C5401FA
:102DC00016E982E00E949802892B09F069C00E94EE
:102DD000F5056419750986099709603127E27207BC
:102DE0008105910598F160E173E088E790E00E9429
:102DF0008B1063E972E088E790E00E948B106BE033
:102E000072E088E790E00E948B1068E871E088E744
:102E100090E00E948B108FEF89831A821B8248E713
:102E200050E063E0CE0101960E94521060E08EE80F
:102E300093E00E94A61688E198E00FB6F894A89552
:102E4000809360000FBE90936000FFCF28EE33E0C8
:102E500040E050E00E94DF3169017A0183E0C8164A
:102E6000D104E104F104C8F0C814D904EA04FB0455
:102E700059F0129FB001139F700D112460557B4FC4
:102E800088E290E00E948B106AE070E080E090E0C1
:102E90000E94C2054601570194CF75016401F4CF29
:102EA0000E94F50564197509860997096032734017
:102EB0008105910530F5F090600581E0F826F092EB
:102EC000600568E077E0FF2011F060E679E082E3DA
:102ED00090E00E948B108F2D0E94F1120F900F90A6
:102EE0000F90DF91CF911F91FF90EF90DF90CF90E7
:102EF000BF90AF909F908F907F906F905F904F901A
:102F0000089564EF71E088E790E00E948B10E6CFAF
:102F1000CF93C82F80933306682F83E090E00E9400
:102F2000A61661E084E090E00E94A61668E27AE0CE
:102F30008CE390E00E948B1068EE73E080E090E0FC
:102F40000E94C2058AEC91E00E94FC1366E970E0E1
:102F500080E090E00E94C2058BEC91E0CC2311F060
:102F60008BED92E00E94FC1380E00E94F112CC23D2
:102F700049F06CE271E080E090E00E94C20581E0DF
:102F80000E94F11260ED77E080E590E00E948B10E6
:102F900060E679E080E590E0CF910C948B10EF92A1
:102FA000FF920F931F93CF93DF93CDB7DEB7689750
:102FB0000FB6F894DEBF0FBECDBF8FE00E94800534
:102FC0007E0121E1E20EF11CBC01990F880B990BE7
:102FD0000E94403020E030E040EA5BE30E949F30F6
:102FE000870122E040E00E94682AFF92EF9288E980
:102FF00092E09F938F931F9280E18F93005111096C
:103000001F930F930E946035C8010E94FC130FB6F6
:10301000F894DEBF0FBECDBF68960FB6F894DEBF42
:103020000FBECDBFDF91CF911F910F91FF90EF9019
:1030300008952F923F924F925F926F927F928F925C
:103040009F92AF92BF92CF92DF92EF92FF920F9337
:103050001F93CF93DF93CDB7DEB76E970FB6F8947B
:10306000DEBF0FBECDBF182F1B0180912A0688231B
:1030700009F498C080E00E94B412812F0E94D30FFF
:1030800068E770E080E090E00E94C2050E94F505CC
:103090002B013C0110E000E0C12CD12C76010E94F4
:1030A000F50564197509860997096A347140810527
:1030B000910530F50E94CF11BC01990F880B990B37
:1030C0000E9440304B015C016091C7067091C806B8
:1030D0008091C9069091CA060E943E309B01AC01C6
:1030E000C501B4010E947D329B01AC015F77C7012D
:1030F000B6010E9411326B017C010F5F1F4FCFCFD1
:103100000E94E90F81E00E94B41260E070E0CB0100
:103110000115110559F0B80190E080E00E943E30A1
:103120009B01AC01C701B6010E947D327E0125E101
:10313000E20EF11C870120E040E00E94682AFF9225
:10314000EF928FE992E09F938F931F9284E18F9388
:10315000045111091F930F930E946035C8010E940A
:10316000FC130FB6F894DEBF0FBECDBFC1010E94A5
:10317000FC136E960FB6F894DEBF0FBECDBFDF9185
:10318000CF911F910F91FF90EF90DF90CF90BF9064
:10319000AF909F908F907F906F905F904F903F90F7
:1031A0002F90089562EC71E0812F0E94F30F8DEA59
:1031B00092E00E94FC13DACF0F931F93CF93DF931B
:1031C000CDB7DEB760970FB6F894DEBF0FBECDBFA8
:1031D000182F8FE00E948005BC01990F880B990B76
:1031E0000E94403020E030E040EA5BE30E949F30E4
:1031F0009B01AC0160E070E08AEF94E4112321F0C0
:1032000060E070E08AE794E40E9411328E010F5F63
:103210001F4F22E040E00E94682AC8010E94FC1370
:1032200060960FB6F894DEBF0FBECDBFDF91CF9191
:103230001F910F910895CF92DF92EF92FF921F930B
:10324000CF93DF9300D01F92CDB7DEB76B017C0127
:103250008091330611E091E0C916D104E104F10434
:1032600021F4813021F010E002C08111FCCFC701B0
:10327000B6010E94930F882371F0812F0E94DC1801
:103280000F900F900F90DF91CF911F91FF90EF90D3
:10329000DF90CF9008950E94F50560935C057093D0
:1032A0005D0580935E0590935F05C0925805D092AE
:1032B0005905E0925A05F0925B05812F0E94DC18B7
:1032C0006CE370E080E090E00E94C205812F0E94D4
:1032D000F1120E94F50560935C0570935D05809383
:1032E0005E0590935F0568E770E080E090E00E94E3
:1032F000C205812F0E94DC180E940110198280E80B
:103300008A831B8248E750E063E0CE0101960E9469
:103310005210B6CF2F923F924F925F926F927F9250
:103320008F929F92AF92BF92CF92DF92EF92FF92D5
:103330000F931F93CF93DF93CDB7DEB7EE970FB602
:10334000F894DEBF0FBECDBF8FEC96E090930101E5
:103350008093000186E990E0A0E0B0E08093D3067E
:103360009093D406A093D506B093D6060E94F50597
:103370004B015C010E94F5056BAB7CAB8DAB9EAB4A
:1033800050E2252E5EE4352E412C512C8E010F5F2C
:103390001F4F0E94F505681979098A099B09621572
:1033A00073058405950508F0BBC40E94F5052BA99B
:1033B0003CA94DA95EA9621B730B840B950B603C65
:1033C00077428940910508F0ABC482E00E949802E0
:1033D000892B31F40E94BA160E94F5054B015C015D
:1033E00083E00E949802019721F40E94F5054B01A9
:1033F0005C018FEC96E00E94500B181619064CF6F3
:103400008FEC96E00E94AA0A8D30910549F0803237
:10341000910531F09C01295031092230310528F401
:103420008FEC96E00E94660BB4CF8F7D815491099A
:103430004A9708F019C564EF72E0CE0189960E94A0
:1034400042160E94870B97FD1AC089831A82EDA449
:10345000FEA44FEFE41AF40AB701CE0189960E9448
:10346000BD13882371F329A53AA58DA59EA5B801A2
:10347000820F931F0E943135FEA6EDA6E2CFC9A4AC
:10348000DAA4C114D10431F0EDA4FEA43601E11494
:10349000F104B9F4E9A4FAA4E114F10409F44AC06E
:1034A000F70181917F01882309F444C0082E000CA4
:1034B000990B0E942035F70131978083F1CF6FA4DB
:1034C00078A8C301019698AB8FA7F3018081082EDD
:1034D000000C990B0E94912F892B89F7F1E0EF1ACC
:1034E000F108EC0CFD1CF7018081082E000C990BF3
:1034F0000E94912F892B39F0E614F70420F0F1E0B7
:10350000EF1AF108F0CF2FEFE21AF20AA7014619DD
:1035100057095EA74DA7C614D70420F4B301C6010E
:103520000E942835E9A5FAA58DA59EA5E80FF91FEB
:103530001082B0CF69EF72E0C8010E944216B80154
:10354000CE0189960E94A213F82EC8010E94E513AD
:10355000FF2011F180914006811119C0F1E0F09334
:10356000400660E173E086E490E00E948B1067E122
:1035700074E082E890E00E948B10198280E88A83D0
:103580001B824AE550E062E0C8010E945210CE0161
:1035900089960E94E513FDCE61E073E0C8010E94A8
:1035A0004216B801CE0189960E94A213F82EC801D6
:1035B0000E94E513FF2019F010924006E8CF69E061
:1035C00073E0C8010E944216B801CE0189960E949C
:1035D000A213F82EC8010E94E513FF2009F486C348
:1035E0000E94F5054B015C016EE073E0C8010E948A
:1035F0004216B801CE0189960E94A213F82EC80186
:103600000E94E513FF2079F087E193E00E94FC130C
:1036100066E970E080E090E00E94C20587E193E0F7
:103620000E94FC1359C06CE173E0C8010E9442166D
:10363000B801CE0189960E94A213F82EC8010E94FB
:10364000E513FF20A9F06CED75E088E790E00E949B
:103650008B1060ED77E088E790E00E948B1064ECBF
:1036600079E084EB90E00E948B1084E293E0D8CF65
:103670006BE273E0C8010E944216B801CE01899640
:103680000E94A213F82EC8010E94E513FF2029F022
:103690000E94FC0E83E393E0C3CF6AE373E0C801AA
:1036A0000E944216B801CE0189960E94A213F82EFC
:1036B000C8010E94E513FF20B1F083E493E00E946B
:1036C000FC1364E170E080E090E00E94C2056BE4CE
:1036D00073E081E00E94191880E6282E8AEE382EC9
:1036E000412C512C54CF64E573E0C8010E9442166E
:1036F000B801CE0189960E94A213F82EC8010E943B
:10370000E513FF2071F08DE593E00E94FC1364E166
:1037100070E080E090E00E94C20565E673E080E022
:10372000D9CF6EE673E0C8010E944216B801CE01FF
:1037300089960E94A213F82EC8010E94E513FF206B
:1037400019F00E94CF17C8CF66E773E0C8010E9446
:103750004216B801CE0189960E94A213F82EC80124
:103760000E94E513FF2009F44CC1809134068823A0
:1037700009F420C184E396E09F938F932FE733E011
:103780003F932F931F9240E2F42EFF921F930F93CB
:103790000E946035C8010E94FC13809133061F927D
:1037A0008F9386E893E09F938F931F92FF921F93CE
:1037B0000F930E946035C8010E94FC130FB6F89465
:1037C000DEBF0FBECDBF80912F0690913006A09135
:1037D0003106B0913206892B8A2B8B2B09F4EDC070
:1037E00080912B0690912C06A0912D06B0912E066B
:1037F000892B8A2B8B2B09F4E0C088EC92E09F93F5
:103800008F938DE893E09F938F931F9280E28F9325
:103810001F930F930E946035C8010E94FC130FB6DE
:10382000F894DEBF0FBECDBF80912706882309F430
:10383000C7C088EC92E09F938F9386E993E09F93B3
:103840008F931F9280E28F931F930F930E94603596
:10385000C8010E94FC13809128060FB6F894DEBFC1
:103860000FBECDBF823009F4AEC0813009F0AEC0CA
:103870008DED92E09F938F938DE993E09F938F93CB
:103880001F9280E28F931F930F930E946035C801AF
:103890000E94FC130FB6F894DEBF0FBECDBF80911F
:1038A0002A06882309F495C088EC92E09F938F93B1
:1038B00085EA93E09F938F931F9280E28F931F93EB
:1038C0000F930E946035C8010E94FC130FB6F89454
:1038D000DEBF0FBECDBF80914206882309F47CC0B5
:1038E00088EE92E09F938F938CEA93E09F938F935F
:1038F0001F9230E2F32EFF921F930F930E946035C8
:10390000C8010E94FC13809108010FB6F894DEBF35
:103910000FBECDBF8C3009F062C087E791E09F9366
:103920008F931F92FF921F930F930E94502B0F9023
:103930000F900F900F900F900F90C8010E94FC13F2
:10394000809129061F928F9385EB93E09F938F932D
:103950001F9220E2F22EFF921F930F930E94603578
:10396000C8010E94FC130E94F50528EE33E040E0F8
:1039700050E00E94DF315F934F933F932F9382E695
:1039800091E09F938F931F92FF921F930F930E943A
:10399000502BC8010E94FC1380EC93E00E94FC13A2
:1039A0008BEC93E00E94FC130FB6F894DEBF0FBEC1
:1039B000CDBF92CE8EEB92E0DFCE8BEC92E01FCFAC
:1039C00082ED92E038CF89ED92E054CF82EE92E022
:1039D00051CF84EE92E06ACF8CEE92E083CF1F92BB
:1039E0008F938DE691E09F938F931F92FF921F9389
:1039F0000F930E94502B0FB6F894DEBF0FBECDBFC1
:103A00009CCF64ED73E0C8010E944216B801CE015C
:103A100089960E94A213F82EC8010E94E513FF2088
:103A200029F00E9401108EED93E0FACD67EE73E06D
:103A3000C8010E944216B801CE0189960E94A213C5
:103A4000F82EC8010E94E513FF2041F1F12CE12C72
:103A50009CE1D92EFF92EF9280EF93E09F938F939A
:103A60001F92DF921F930F930E946035C8010E943E
:103A7000FC1366E970E080E090E00E94C205FFEF71
:103A8000EF1AFF0A0FB6F894DEBF0FBECDBF35E0C8
:103A9000E316F104F9F688E094E0C2CD61E174E048
:103AA000C8010E944216B801CE0189960E94A21355
:103AB000F82EC8010E94E513FF2091F089A59AA570
:103AC00007969F938F9349E154E05F934F931F9222
:103AD00088E28F931F930F930E946035C80162CFD5
:103AE00060E274E0C8010E944216B801CE018996D6
:103AF0000E94A213F82EC8010E94E513FF2059F07E
:103B000061E081E993E00E94A616F1E0F09343069C
:103B10008BE294E085CD65E374E0C8010E94421613
:103B2000B801CE0189960E94A213F82EC8010E9406
:103B3000E513FF2051F060E081E993E00E94A616B2
:103B40001092430681E494E06BCD6CE474E0C8010C
:103B50000E944216B801CE0189960E94A213F82E47
:103B6000C8010E94E513FF2009F468C08091080194
:103B70008C3019F484E594E053CD8DE594E00E94F7
:103B8000FC1360E971E080E090E00E94C20564EF00
:103B900071E084E694E00E94651464EF71E080E0D7
:103BA00090E00E94C20583E00E949802019719F4F8
:103BB0008CE694E035CD70E060E083E792E00E940F
:103BC0008F1468EC70E083E892E00E94651461E075
:103BD0008FE893E00E94A616809108011F928F93B0
:103BE0002CE734E03F932F931F928CE08F931F9329
:103BF0000F930E9460356CE370E0C8010E94651469
:103C000068EB7BE080E090E00E94C20560E08FE816
:103C100093E00E94A61660E971E080EA90E00E94BD
:103C20008B1060E971E080EA90E00E948B1060E9FF
:103C300071E080EA90E00E948B10B6CE66E874E0F6
:103C4000C8010E944216B801CE0189960E94A213B3
:103C5000F82EC8010E94E51389EB94E0FF2009F4D7
:103C6000DFCC8EE894E00E94FC136CED75E088E7F1
:103C700090E00E948B1060ED77E088E790E00E9472
:103C80008B1064EC79E084EB90E00E948B1084E26E
:103C900093E00E94FC130E94FC0E83E393E00E94D9
:103CA000FC1389E994E00E94FC1362EC71E081E06E
:103CB0000E94F30F83E493E00E94FC1360E971E03B
:103CC00080E090E00E94C20585EA94E00E94FC1327
:103CD00062EC71E080E00E94F30F8DE593E00E94BA
:103CE000FC130E94CF1781EB94E09ACC61EC74E056
:103CF000C8010E944216B801CE0189960E94A21303
:103D0000F82EC8010E94E513FF2019F161E070E070
:103D100080E090E00E941B19CE0189960E94E51375
:103D2000EE960FB6F894DEBF0FBECDBFDF91CF91F8
:103D30001F910F91FF90EF90DF90CF90BF90AF90C9
:103D40009F908F907F906F905F904F903F902F90BB
:103D5000089567EC74E0C8010E944216B801CE01D4
:103D600089960E94A213F82EC8010E94E513FF2035
:103D700029F062E070E080E090E0CCCF6EEC74E07F
:103D8000C8010E944216B801CE0189960E9487138D
:103D90007C01C8010E94E513F7FC04C081E00E9489
:103DA0008817BACF6BED74E0C8010E944216B801C3
:103DB000CE0189960E9487137C01C8010E94E513F9
:103DC000F7FC02C080E0EBCF69EE74E0C8010E940E
:103DD0004216B801CE0189960E9487137C01C80162
:103DE0000E94E513F7FC16C00E94F5054B015C012B
:103DF00068E978E08CE390E00E948B1081E00E94FB
:103E0000F11268E770E080E090E00E94C2050E9435
:103E10002014BDCB64EF74E0C8010E944216B801C3
:103E2000CE0189960E9487137C01C8010E94E51388
:103E3000F7FCADCB0E94F5054B015C0168E978E029
:103E40008CE390E00E948B106EE774E080E090E0DD
:103E50000E94C2050E94201481E00E94F11297CBBB
:103E60008FEC96E00E94660B0E94C20AFC0197FD4F
:103E70005FC08D32910519F0C0970A9788F7C12C61
:103E8000D12C7601712CE130F105D9F0ED32F1053C
:103E900009F44BC0CF01C0970A9798F4AAE0B0E0AC
:103EA000A70196010E9495316F01FF0FEE08FF08F0
:103EB000C60ED71EE81EF91E90E3C91AD108E10804
:103EC000F1088FEC96E00E94660B0E94C20AFC018A
:103ED000C0970A97C0F2E130F105A9F2772041F0CE
:103EE000F094E094D094C094C11CD11CE11CF11C4E
:103EF000C114D104E104F10409F44BCAD701C6018D
:103F00000197A109B1090297A105B10508F03FC0C9
:103F10008091330611E0E1E0CE16D104E104F10412
:103F200059F4813059F010E009C077247394C9CF57
:103F3000C12CD12C7601DCCF8111F5CF812F0E94CD
:103F4000DC18C701B6010E94930F8111E9CE0E94CF
:103F5000F50560935C0570935D0580935E05909315
:103F60005F05C0925805D0925905E0925A05F0922B
:103F70005B05812F0E94F1120E94F50560935C059C
:103F800070935D0580935E0590935F05C9CEC11463
:103F9000F9EEDF06F2E0EF06F104C9F40E94F50540
:103FA0004B015C0168E978E08CE390E00E948B10A3
:103FB00068E27AE08CE390E00E948B106EE774E098
:103FC00080E090E00E94C2050E942014E2C921E234
:103FD000C2162BE0D20620E2E206F10408F0D9C9AD
:103FE0000E94F5054B015C010E94D22A6FAB78AFAD
:103FF00089AF9AAF0E94D22A2EE037E240E050E02B
:104000000E9476319B01AC012F5F3F4F4F4F5F4FB6
:104010002FA738AB49AB5AAB80912F069091300651
:10402000A0913106B0913206A7019601280F391FE1
:104030004A1F5B1F2BAF3CAF4DAF5EAF6FA978AD92
:1040400089AD9AAD2EE037E240E050E00E94763133
:10405000DC01CB010196A11DB11D2BAD3CAD4DADD9
:104060005EAD820F931FA41FB51F20912906233038
:1040700009F04DC020EF32E0BF93AF939F938F9331
:104080003F932F931F9280E18F931F930F930E9472
:104090006035C8010E94FC1366E970E080E090E0A2
:1040A0000E94C20580912B0690912C06A0912D06AE
:1040B000B0912E068C0D9D1DAE1DBF1DCFA4D8A89E
:1040C000E9A8FAA8C80ED91EEA1EFB1E0FB6F8947E
:1040D000DEBF0FBECDBF809129068330D9F480EFBB
:1040E00092E0FF92EF92DF92CF929F938F931F9275
:1040F00080E18F931F930F930E946035C8010E9447
:10410000FC130FB6F894DEBF0FBECDBF42C925EF3A
:1041100032E0B2CF85EF92E0E4CF8F929F92AF92E0
:10412000BF92DF92EF92FF920F931F93CF93DF9393
:10413000CDB7DEB7E0970FB6F894DEBF0FBECDBFA8
:1041400083E0E82E90E3D92E8E010F5F1F4F8FEC96
:1041500096E00E94500B892B29F08FEC96E00E948C
:10416000660BF5CF62E075E08FEC96E00E94ED13F0
:10417000F8012D2D11922A95E9F70E94F5054B01C2
:104180005C01F12C0E94F505681979098A099B09DF
:10419000623C71408105910598F48FEC96E00E9495
:1041A000500B892B79F3FEE2FF1560F38FEC96E05C
:1041B0000E94660BF801EF0DF11D8083F394E2CFAE
:1041C0006CE075E0C8010E9446355C01892B29F43A
:1041D000EA94E110BCCF10E01FC069ED72E0C801A5
:1041E0000E944635892B59F581E080932806C50148
:1041F00004960E942A2B182F811101C011E0109300
:104200002906612F80E093E00E94A616609128069F
:1042100083E993E00E94A616812FE0960FB6F894EA
:10422000DEBF0FBECDBFDF91CF911F910F91FF90E9
:10423000EF90DF90BF90AF909F908F90089582E0B5
:10424000D4CF1F920F920FB60F9211242F933F934A
:104250008F939F93AF93BF938091470690914806A9
:10426000A0914906B0914A063091460623E0230FFB
:104270002D3768F126E8230F0296A11DB11D20936A
:1042800046068093470690934806A0934906B0934C
:104290004A0680914B0690914C06A0914D06B09134
:1042A0004E060196A11DB11D80934B0690934C06BE
:1042B000A0934D06B0934E06BF91AF919F918F9101
:1042C0003F912F910F900FBE0F901F901895019660
:1042D000A11DB11DD4CF1F920F920FB60F921124C2
:1042E0002F933F934F935F936F937F938F939F93FE
:1042F000AF93BF93EF93FF93E0910601F091070115
:104300000995FF91EF91BF91AF919F918F917F910F
:104310006F915F914F913F912F910F900FBE0F9032
:104320001F9018951F920F920FB60F9211242F9382
:104330003F934F935F936F937F938F939F93AF932D
:10434000BF93EF93FF93E0910401F091050109956C
:10435000FF91EF91BF91AF919F918F917F916F915D
:104360005F914F913F912F910F900FBE0F901F9033
:1043700018951F920F920FB60F9211242F933F930F
:104380004F935F936F937F938F939F93AF93BF935D
:10439000EF93FF938091850690918606A091870602
:1043A000B0918806892B8A2B8B2BD1F190918006B6
:1043B000E0918106F0918206808189278083809137
:1043C000850690918606A0918706B09188061816FA
:1043D00019061A061B069CF48091850690918606A4
:1043E000A0918706B09188060197A109B109809331
:1043F000850690938606A0938706B0938806FF9162
:10440000EF91BF91AF919F918F917F916F915F914C
:104410004F913F912F910F900FBE0F901F901895C5
:1044200080910A010E942107EACF1F920F920FB6D6
:104430000F9211248F930FB6F894A8958091600085
:10444000886180936000109260000FBE8F910F9082
:104450000FBE0F901F9018951F920F920FB60F92DC
:1044600011242F933F934F935F936F937F938F9379
:104470009F93AF93BF93EF93FF938091B900887F91
:10448000803609F44AC0F0F5883209F4A7C018F55F
:10449000803109F49BC0B8F4882309F405C1883041
:1044A00009F494C0FF91EF91BF91AF919F918F91CB
:1044B0007F916F915F914F913F912F910F900FBE20
:1044C0000F901F901895883109F488C0803251F7F9
:1044D0008093590614C0803409F4A5C040F4803399
:1044E000B9F38833F9F68093590685ECBCC0803562
:1044F00009F489C0883509F49EC0883499F60E9471
:104500009C09D0CF883909F494C038F5883729F050
:1045100050F4883611F0803729F683E080935B06EB
:104520001092E50557C0883809F483C0803919F026
:10453000803809F0B7CF8091E505803208F079C066
:10454000E091E50581E08E0F8093E5058091BB0049
:10455000F0E0EB53FA4F80833DC0803B39F0E0F44C
:10456000803A09F485C0883A09F09CCF84E08093B2
:104570005B061092C4051092C305E0912306F091EA
:10458000240609958091C30581110FC081E08093B5
:10459000C3051092A30509C0803C09F4A6CF883C4E
:1045A00009F4A3CF883B09F07DCFE091C40581E0F9
:1045B0008E0F8093C405F0E0ED55FA4F8081809313
:1045C000BB009091C4058091C30531C08091540611
:1045D0008093BB0085EC8093BC0064CF909156061D
:1045E000809155069817B8F5809157069091580616
:1045F000E091560621E02E0F20935606E80FF92F82
:10460000F11D8081E5CF2091570630915806E09149
:10461000560681E08E0F809356068091BB00E20F14
:10462000F32FF11D808390915606809155069817BF
:1046300088F285E8D0CF2091570630915806E09156
:10464000560681E08E0F809356068091BB00E20FE4
:10465000F32FF11D808380915A06811150CF81E0A4
:104660008093530684EA8093BC0010925B061ACFB5
:1046700085EC8093BC0010925B068091E50580324A
:1046800030F4E091E505F0E0EB53FA4F10826091D1
:10469000E50570E0E0912106F091220685EC95E0B9
:1046A00009951092E505FECE1092590628CF1F926B
:1046B0000F920FB60F9211242F933F934F935F9356
:1046C0006F937F938F939F93AF93BF93EF93FF93DA
:1046D000E0915106F0915206309749F0A685B785D2
:1046E0008585968D91FF14C09C918923A1F4FF913B
:1046F000EF91BF91AF919F918F917F916F915F915A
:104700004F913F912F910F900FBE0F901F901895D2
:104710009C91892361F7A389B4899C9185898095AF
:1047200089238C93868997890197F1F7608D718D24
:10473000A685B785558538E020E0CB010197F1F7D4
:10474000822F90E095958795282F4C91452309F06D
:104750002068315091F7868D81FD2095809150061B
:1047600090E001968F73992730914F06381799F092
:10477000A0915006B0E0AD59BA4F2C9380935006EB
:10478000828D938D0197F1F7A389B4898C919589D6
:10479000892B8C93ACCF868D8160868FF1CF8FEF84
:1047A0008093A6061092A8061092A7061092B20651
:1047B0001092B1068FEF9FEFDC018093AD069093CE
:1047C000AE06A093AF06B093B0061092B606109254
:1047D000B50688EE93E0A0E0B0E08093B706909332
:1047E000B806A093B906B093BA062AEA31E030932E
:1047F000B4062093B3061092D2061092D10680938D
:10480000D3069093D406A093D506B093D6068CEB2E
:1048100091E09093D0068093CF061092E606109216
:10482000E5061092E8061092E7061092EA0610924A
:10483000E9061092EC061092EB066091ED066E7F91
:104840006D7F6093ED066695617081E0682784E076
:104850000E94C10261E084E00E94EF02E7EDF1E016
:10486000E491E093DF06E0ECF1E0E491F0E0EE0F9C
:10487000FF1FEE54FE4F859194919093E106809333
:10488000E00660E085E00E94EF028091ED0681FD88
:1048900004C061E085E00E94C10285E08093DB06F0
:1048A000E8EDF1E0E491E093DC06E1ECF1E0E49185
:1048B000F0E0EE0FFF1FE855FE4F85919491909325
:1048C000DE068093DD061092C0061092BF0685E4D6
:1048D0008093C2061092C7061092C8061092C906AD
:1048E0001092CA061092CB061092CC061092CD06FA
:1048F0001092CE060895CF93DF93CDB7DEB7E19740
:104900000FB6F894DEBF0FBECDBF789484B5836038
:1049100084BD85B5836085BD80916E008160809384
:104920006E0082E08093810080918100816080939D
:104930008100809180008160809380008091B1002F
:1049400084608093B1008091B00081608093B0005A
:1049500087E880937A001092C10080E993E00E947A
:10496000A41691E0813009F090E0909342068130E6
:1049700031F48AE0809303018BE08093020161E0CF
:1049800086E00E94EF0261E0809103010E94EF0245
:1049900061E0809102010E94EF0262E082E00E94E9
:1049A000EF0260E083E00E94EF020E94E90F809135
:1049B000640084608093640080B7806880BF8091C9
:1049C0004206811110C08DB1807F8DB98EB18F608C
:1049D0008EB980916400806180936400809165004D
:1049E0008D638093650068E27AE086E490E00E943F
:1049F0008B108EE00E9480056C01990FEE08FF0875
:104A00000E949D058B019C01C701B601602771279B
:104A100082279327C016D106E206F30611F00E9402
:104A2000212B62E08EE00E94EF02809142068823F3
:104A300009F4DBC161E087E00E94EF0260E087E0FB
:104A40000E94C10261E088E00E94EF0260E088E01D
:104A50000E94C10261E089E00E94EF0260E089E00B
:104A60000E94C10214E3E12E16E0F12E10E000E0F6
:104A7000C8018F5F9C4F0E94A4169FEF980F9E3F26
:104A800008F430C2F801EC5CF94F108283E090E04A
:104A90000E94A41680933306823010F010923306E1
:104AA0006FE276E085E090E00E947E166BE276E0B1
:104AB0008FE090E00E947E168091BF069091C00624
:104AC000892BA9F486E090E00E943933FC018091A3
:104AD000C206808383EB96E092838183138280E217
:104AE00090E095838483F093C006E093BF06E09046
:104AF000BF06F090C006109226061092250610926E
:104B00005D0610927F060E94CD098CE197E090939C
:104B10002406809323068DE197E0909322068093EC
:104B2000210611E0F7011383C7010E94EB098111EF
:104B3000E4C110922A0680E093E00E94A4168093BC
:104B40002906893210F01092290683E993E00E9429
:104B5000A41680932806833010F01092280682E96C
:104B600093E00E94A416809308019CEF980F963062
:104B700028F08C3019F088E0809308018FE893E0EA
:104B80000E94A41691E0813009F090E090934506D0
:104B9000813029F460E08FE893E00E94A6168091AE
:104BA00008018C3041F483E00E949802019719F4C7
:104BB00081E08093450681E993E00E94A41691E08C
:104BC000813009F090E09093430660E875E280E060
:104BD00090E00E949D018091450681118BC383E086
:104BE0000E949802019709F459C30E94C2140E94BE
:104BF0008D2091E0811101C090E0909327068EE80E
:104C000093E00E94A41689AB85E993E00E94A41664
:104C1000782EFFEF8F1301C0712CE2E06E2E670C2F
:104C2000F6EA8F2EF1E09F2EA4E3CA2EA6E0DA2E3C
:104C3000B3EFAB2EB1E0BB2E8E01075E1F4F80910C
:104C40002706811126C329A9293C09F427C382E03C
:104C5000871508F423C3761409F420C383E00E9467
:104C60009802892B09F01AC37394672D85E993E0A4
:104C70000E94A61660EB74E082E390E00E948B1025
:104C800060EB74E082E390E00E948B10809142061A
:104C9000882309F453C072E9E72E71E0F72EF7017B
:104CA00061917191819191917F010E949D016EE1CD
:104CB00070E080E090E00E94C20566E0562E68E257
:104CC00070E086ED92E00E9465145A945110F7CF7F
:104CD00068E770E081EE91E00E9465146CE370E09B
:104CE00080E392E00E9465146CE370E089E392E057
:104CF0000E9465146CE370E082E492E00E94651407
:104D00006CE370E08BE492E00E9465146CE370E069
:104D100084E592E00E94651460E570E08DE592E024
:104D20000E94651460E570E088E692E00E946514D8
:104D3000F6EAEF16F1E0FF0609F0B1CF52E9E52EF1
:104D400051E0F52EF70161917191819191917F016F
:104D50000E949D016EE170E080E090E00E94C2053B
:104D600068E270E086ED92E00E94651468E270E00F
:104D700086ED92E00E94651468E270E086ED92E0B4
:104D80000E94651468E770E081EE91E00E9465146E
:104D90006AEF70E081E195E00E94651466E970E0D9
:104DA0008AE195E00E94651468E572E080E090E099
:104DB0000E94C2058E149F0429F660E875E280E027
:104DC00090E00E949D016CED75E080E090E00E9413
:104DD000C2058FEC96E00E94500B892B09F4F0C0BD
:104DE0008FEC96E00E94660BF4CF8091190681113A
:104DF00045C010920B0610920A068FEF80930E06A4
:104E000080930F06809310068093110680931206FC
:104E10008093130681E08093140610921606109278
:104E2000150610920D0610920C068091A006909126
:104E3000A106892B31F488E096E09093A106809337
:104E4000A006E0910606F0910706309721F088E071
:104E500096E09583848388E096E09093070680939C
:104E60000606109218061092170682E891E09093B9
:104E700009068093080681E080931906239A81E948
:104E800096E090930B0680930A0683E090E090935F
:104E90001606809315068091A9069091AA06A09106
:104EA000AB06B091AC06843C29E09207A105B105A0
:104EB00020F484EC99E0A0E0B0E08093A906909300
:104EC000AA06A093AB06B093AC0682E38093A60635
:104ED00019821A821B82CE0101960E942D010E9426
:104EE0000106C0CDF70181937F0110820F5F1F4F34
:104EF0000B30110509F0BCCDC9CD80E090E1A0E0F8
:104F0000B0E08093C3069093C406A093C506B09307
:104F1000C6068AE090E0A0E0B0E08093C7069093D8
:104F2000C806A093C906B093CA0680E090E0A0E04E
:104F3000B0E48093CB069093CC06A093CD06B093BB
:104F4000CE068091BF069091C00618A619A61AA693
:104F50001BA69A8F898F1C8E1B8E1AA385E090E06A
:104F600098A38F8F1BA302E009A322E040E050E149
:104F700060E070E0CE0149960E94E0088091BF0693
:104F80009091C006188A198A1A8A1B8A9A83898383
:104F90001C821B821A8718861F821B87098722E0C2
:104FA0004FE959E360E070E0CE0101960E94E0080D
:104FB0008093C10610932A0681E00E94B412BBCDF3
:104FC00066E970E083E295E00E94651466E970E0AE
:104FD00081E195E00E94651466E970E081EE91E060
:104FE0000E94651466E970E085E192E00E94651414
:104FF00066E970E08EE295E00E94651466E970E073
:1050000087E395E00E94651466E970E080E495E02E
:105010000E9465140E948D2080913406882309F433
:105020004AC0DF92CF92BF92AF921F92F8E1FF93F6
:105030001F930F930E946035E8E1F1E0DE011196C5
:1050400088E101900D928A95E1F7CE0101967C01ED
:105050000FB6F894DEBF0FBECDBFF701619171911D
:10506000819191917F010E949D016EE170E080E04D
:1050700090E00E94C20562E370E086ED92E00E943B
:10508000651464E670E081EE91E00E94651464EBC3
:1050900070E0C8010E9465140E151F05F1F660E866
:1050A00075E280E090E00E949D0164E670E080E09F
:1050B00090E00E94C2050E94C21466E970E089E493
:1050C00095E00E94651483E00E949802019751F1D7
:1050D0000E942E14811126C08FEC96E00E94500B86
:1050E000892B29F08FEC96E00E94660BF5CF62E0E9
:1050F00075E08FEC96E00E94ED130E94F5051B0110
:105100002C010E94F5056219730984099509623C16
:1051100071408105910558F48FEC96E00E94500B88
:10512000892B79F369EC8EE893E00E94A61666E974
:1051300070E08AE195E00E9465146CED75E080E016
:1051400090E00E94C2058FEC96E00E94500B892BE4
:1051500029F08FEC96E00E94660BF5CF0E94C214F6
:105160000E948D2091E0811101C090E0909327066C
:1051700066CD60E971E080EA90E00E948B101150EA
:10518000C1F78FEF89831A821B8248EC50E062E0FE
:10519000CE0101960E94521080E1E0E3F1E0DE01D1
:1051A000119601900D928A95E1F78E010F5F1F4FC6
:1051B000F12CF80161917191819191918F010E947F
:1051C0009D016EE170E080E090E00E94C2050E94C7
:1051D0002E14882369F164EF71E080E090E00E9472
:1051E000C20510E068E27AE08CE890E00E948B1043
:1051F00064EB70E080E090E00E94C2051F5FF11652
:1052000088F7F1100EC00E94C21468EC70E080E0D4
:1052100090E00E94C20560E87CE08AE590E00E9490
:105220008B1060E875E280E090E00E949D0162C012
:105230000E948D208111CFCFF394F4E0FF12B9CFFB
:10524000F0CF809169008C7F826080936900E89A3A
:105250009092070180920601809169008C60809392
:105260006900E99A83B7817F83BFF89483B781602F
:1052700083BF7894889583B78E7F83BFE898109317
:10528000050100930401E9981093070100930601BA
:10529000EFC060E085E993E00E94A61616E08091D9
:1052A0002706811111C01150A1F06AEF70E080E073
:1052B00090E00E94C2050E948D2091E0811101C002
:1052C00090E090932706EBCF69EC8EE893E00E9484
:1052D000A6168091270614E0882309F44ACF198284
:1052E00080E88A831B8248E750E062E0CE010196A5
:1052F0000E9452108CE7E82E84E0F82E9CE0592E94
:10530000CE0101966C0120E0622E20E0722E33E186
:10531000A32E37E0B32E47E1842E47E0942E0BE115
:1053200017E04424439480910901811104C08091C5
:105330004506882331F010920901109245060E941B
:105340008A190E94E90F809143068823A9F1809170
:105350004206811131C0809108018C3069F183E0EF
:105360000E949802892B41F568EC70E084E694E095
:105370000E94651464E670E083E892E00E94651480
:10538000809108011F928F93FF92EF921F925F927C
:10539000DF92CF920E9460356CE370E0C6010E94FC
:1053A000651466E970E080E090E00E94C2050FB6E7
:1053B000F894DEBF0FBECDBF109241061092440696
:1053C0001092400683E00E949802B0920501A092DC
:1053D0000401892B09F035CF809169008C7F80937F
:1053E0006900E89A809168008460809368008091E9
:1053F0006D00886080936D0030907A0080917A0013
:105400008F7780937A0083B7817F846083BFF8941D
:1054100083E00E949802892BB9F48091440681119F
:1054200013C08FEC96E00E94500B892B69F483B770
:10543000816083BF85B7806685BF8F7D85BF789487
:10544000889583B78E7F83BF789430927A0080915D
:105450006D00877F80936D00E8981093050100939D
:10546000040183E00E949802019711F440924106E2
:105470008091440681110E94BA160E948A19611413
:10548000710409F450CF0E9400004BCF8091BF06F9
:105490009091C0060E94D5338CEB91E09093D0069A
:1054A0008093CF0680915106909152068F5C964072
:1054B00071F4E091E206F091E30690818091E406B8
:1054C0008095892380831092520610925106089588
:1054D000EF920F931F93CF93DF93E80134E047FDE2
:1054E00034E1042E000C550B57FF03C05195419534
:1054F0005109E32E022F242FAE010E945A2DCE0116
:10550000DF91CF911F910F91EF9008958F929F920D
:10551000AF92BF92CF92DF92EF92FF92CF93DF9341
:10552000EC01688179818A819B8161157105810512
:10553000910521F464E279ED8BE597E02DE133EFFD
:1055400041E050E00E94763149015A019B01AC01D3
:10555000A7EAB1E40E9495316B017C01ACEEB4EF97
:10556000A50194010E94A331C60ED71EE81EF91EA4
:10557000F7FE06C081E0C81AD108E10880E8F80A01
:10558000C882D982EA82FB82C701B6019F77DF9188
:10559000CF91FF90EF90DF90CF90BF90AF909F9012
:1055A0008F9008958F929F92AF92BF92CF92DF9289
:1055B000EF92FF9260910B0170910C0180910D01AF
:1055C00090910E01611571058105910521F464E248
:1055D00079ED8BE597E02DE133EF41E050E00E945B
:1055E000763149015A019B01AC01A7EAB1E40E945E
:1055F00095316B017C01ACEEB4EFA50194010E94E2
:10560000A331C60ED71EE81EF91EF7FE06C081E0C4
:10561000C81AD108E10880E8F80AC0920B01D092BC
:105620000C01E0920D01F0920E01C701B6019F77C7
:10563000FF90EF90DF90CF90BF90AF909F908F90B2
:10564000089560930B0170930C0180930D0190936A
:105650000E010895FC0188279927E89421912032B2
:10566000E9F3293010F02E30C8F32B3241F02D32FF
:1056700039F4689404C00E94482B820F911D219137
:1056800020532A30C0F31EF4909581959F4F0895C2
:105690007AE0979F902D879F802D910D112408957A
:1056A000AEE0B0E0E6E5FBE20C94B6310D891E8970
:1056B0008F89988D2EE02C831A83098397FF02C06F
:1056C00080E090E801979E838D83AE01455E5F4F39
:1056D000698D7A8DCE0101960E94802B4D815E816D
:1056E00057FD0AC02F813885421753070CF49A01E1
:1056F000020F131FF80110822E96E4E00C94D231B1
:10570000ABE0B0E0E6E8FBE20C94A8317C013B01A1
:105710008A01FC0117821682838181FFC8C1CE01F4
:1057200001965C01F7019381F30193FD859193FF4D
:1057300081913F01882309F453C1853239F493FDE7
:10574000859193FF81913F01853229F4B70190E063
:105750000E94B02FE7CF912C212C312CFFE1F315C3
:1057600038F08B3211F190F4803209F1833229F153
:1057700037FC3CC020ED280F2A3050F536FE20C003
:105780008AE0989E200D1124922E06C08D3291F051
:10579000803371F7689430F8F30193FD859193FF9E
:1057A00081913F018111DACF21C0689431F868946A
:1057B00032F8F2CF689433F8EFCF689434F8ECCF36
:1057C000EAE02E9E200D1124222E689435F8E4CFB5
:1057D0008E3229F436FC04C1689436F8DDCF8C365D
:1057E00019F4689437F8D8CF8836B1F2982F9F7D96
:1057F00095549330E0F08336A1F18337C1F18335BE
:1058000009F063C02801F2E04F0E511CF801C0807E
:10581000D180692D70E036FC02C06FEF7FEFC601CA
:105820000E949A2F4C01689437F882010AC00C5FDD
:105830001F4FFFE3F98388248394912C6501E8943A
:1058400037F833FE2DC0522C8114910471F5552088
:1058500009F468CFB70180E290E00E94B02F5A941B
:10586000F6CFF801808189830E5F1F4FE4CF2801B6
:10587000F2E04F0E511CF801C080D180692D70E01C
:1058800036FC02C06FEF7FEFC6010E94A52F4C01CE
:105890008201D5CFB70180E290E00E94B02F2A9418
:1058A0002814190409F0B0F7CECFF60137FC859122
:1058B00037FE81916F01B70190E00E94B02F511027
:1058C0005A94F1E08F1A9108BFCF843619F08936C7
:1058D00009F077C0F80137FE6BC060817181828169
:1058E00093810C5F1F4FF32DFF763F2E97FF09C06A
:1058F00090958095709561957F4F8F4F9F4F6894DD
:1059000037F82AE030E0A5010E94E02FC82ECA181F
:105910008C2C432C36FE0CC0E89440F8C91440F49B
:1059200034FE05C032FC03C0F32DFE7E4F2E892CC1
:1059300044FE95C0FE01EC0DF11D8081803309F01D
:1059400087C0242D297E422E842D8870582E43FC3A
:1059500095C040FE8FC09C2C821418F42C0C922C05
:10596000981844FE91C0B70180E390E00E94B02FE8
:1059700042FE09C088E790E041FE02C088E590E061
:10598000B7010E94B02FC91408F48AC0CA94D12C60
:105990009FEFC91AD90ACA0CDB1CF60182916F016C
:1059A000B70190E00E94B02FAC14BD04B1F74FCF07
:1059B00060817181072E000C880B990B0E5F1F4FC1
:1059C00092CFD32CE894D4F82AE030E0853739F12F
:1059D000232D297FD22E8F3601F148F48835A9F086
:1059E000F701868197812B96E2E10C94C4318037D0
:1059F00049F08837A9F7D4FE02C06894D2F820E1B4
:105A000030E00DC06894D4F8F6CF34FE03C0822F86
:105A10008660D82E20E132E002C028E030E0F801B4
:105A2000D7FE0FC060817181828193810C5F1F4F0F
:105A3000A5010E94E02FC82ECA183D2CE89437F823
:105A400067CF6081718190E080E00E5F1F4FF0CFE3
:105A500042FC02C0839478CF8394839475CF842DC5
:105A6000867809F471CFF6CFB70180E290E00E940A
:105A7000B02F83948214C0F3512C73CF522C58183A
:105A8000821408F46ECFF8CF842D867809F47BCF8A
:105A90008BE241FE80E247FC8DE2B70190E071CFDE
:105AA000B70180E390E00E94B02F9A946CCF8FEF03
:105AB0009FEF99CFA9E0B0E0E0E6FDE20C94AE31B3
:105AC0006A01F22EB02E102FFBE3AF2EA01608F4C1
:105AD0001BE31F5F012F27E0AE014F5F5F4F0E9466
