:100000000C94F7000C94AD210C9486210C9472236F
:100010000C9472230C9472230C9430220C94D421EF
:100020000C942B010C942B010C942B010C942B01A0
:100030000C942B010C942B010C942B010C942B0190
:100040000C943C210C942B010C942B010C942B014F
:100050000C942B010C942B010C942B010C942B0170
:100060000C9447220C942B0100407A10F35A00A004
:10007000724E18090010A5D4E80000E87648170071
:1000800000E40B54020000CA9A3B000000E1F505B1
:10009000000080969800000040420F000000A086FB
:1000A00001000000102700000000E803000000002D
:1000B0006400000000000A000000000001000000D1
:1000C00000002C76D888DC674F0823DFC1DFAE59EB
:1000D000E1B1B796E5E3E453C63AE651997696E87E
:1000E000E6C28426EB898C9B62ED407C6FFCEFBC02
:1000F0009C9F40F2BAA56FA5F490055A2AF75C932D
:100100006B6CF9676DC11BFCE0E40D47FEF520E662
:10011000B500D0ED902E0300943577050080841E45
:10012000080000204E0A000000C80C333333330FA0
:10013000986E12831141EF8D2114893BE65516CF3D
:10014000FEE6DB18D1844B381BF77C1D901DA4BB49
:10015000E424203284725E228100C9F124ECA1E5FE
:100160003D27555054494D453A256C75004D4F5328
:100170004645543A2575004D4F534645543A313261
:100180002D4155544F0000000000240027002A0094
:100190000000000900030200000405080000000040
:1001A0000000000000000002000000002300260004
:1001B000290000000000250028002B00040404048E
:1001C0000404040402020202020203030303030301
:1001D00002020301020408102040800102040810FA
:1001E00020010204081020408040EA23AA2A11249A
:1001F0001FBECFEFD8E0DEBFCDBF14BE0FB6F89460
:10020000A8958091600088618093600010926000E2
:100210000FBE15E0A0E0B1E0E2E0FCE602C0059010
:100220000D92AE34B107D9F726E0AEE4B5E001C0D7
:100230001D92AE3EB207E1F710E0C6EFD0E004C079
:100240002197FE010E949733C53FD107C9F70E944D
:1002500096240C94F4350C940000DC01EDE8F6E0F3
:100260002D913D914C9112972083318342832D91A2
:100270003D914C9112972383348345838D919D91B9
:10028000AC9186839783A0870895282F90917B0651
:1002900081E0913208F042C0809157068111FCCF75
:1002A00080917A0632E030935706209356062FEF5E
:1002B000209355062AE536E03093540620935306E2
:1002C000109252069093510610925006909150064B
:1002D000880F892B8093500680914F06813029F535
:1002E00010924F06809150068093BB008091BC0015
:1002F00083FDF8CF85EC8093BC0080915706823057
:10030000E1F3809155068F3F91F080915506803240
:1003100081F080915506803371F084E01092590687
:1003200010927B0610925806089585EEE4CF80E087
:10033000F5CF82E0F3CF83E0F1CF9B01AC011092C7
:10034000E6061092E5061092E4061092E30610927B
:10035000E2061092E10660E079E08DE390E00E9411
:10036000DA31B901C90103972430310510F481E075
:1003700090E09093E8068093E7068091D706873156
:1003800008F063C0F901F695E795E431F10508F44A
:100390008CC07397F093E206E093E1066630710536
:1003A00008F486C0B901655071097093E406609342
:1003B000E306B901660F771F260F371F369527957D
:1003C000369527952D30310508F475C02C5031092C
:1003D0003093E6062093E5062091680094E088308B
:1003E00054F091E08E303CF092E0843124F091E0C2
:1003F000863109F490E0922B909368002DE630E06E
:10040000883074F08E300CF459C084313CF0863161
:100410000CF454C030E020E0863111F42CE630E0DA
:100420003093DF062093DE0688300CF04AC091E05E
:1004300001C0990F8A95EAF7892F8093E006809191
:10044000E7069091E8060197F1F78091E506909113
:10045000E606892B49F1E0914D06F0914E0686E0C3
:10046000EB3CF80709F1309739F0A389B4899C91E6
:100470008589809589238C938091E9068E7F80936E
:10048000E90610924C0610924B068BEC96E0909386
:100490004E0680934D06E091DE06F091DF068081E6
:1004A0009091E006892B80830895E1E0F0E072CF1F
:1004B00061E070E07ACF21E030E08ACF2BE630E0D7
:1004C000AFCF8E3014F48850B2CF863114F48E50F2
:1004D000AECF863111F480E4B0CF80E0AECF84306F
:1004E00081F028F48230E9F08330F9F00895883003
:1004F00071F0893091F08530B9F4809180008F7D62
:1005000003C0809180008F77809380000895809150
:10051000B0008F778093B00008958091B0008F7DF8
:10052000F9CF84B58F7784BD089584B58F7DFBCFD7
:10053000CF93DF93282F30E0F901E057FE4F8491ED
:10054000F901ED52FE4FD491F901E454FE4FC491EC
:10055000CC23A1F081110E946F02EC2FF0E0EE0F8E
:10056000FF1FE855FE4FA591B491EC91ED2381E07A
:1005700090E009F480E0DF91CF91089580E090E071
:10058000FACF1F93CF93DF93282F30E0F901E05784
:10059000FE4F8491F901ED52FE4FD491F901E454DC
:1005A000FE4FC491CC23A9F0162F81110E946F0237
:1005B000EC2FF0E0EE0FFF1FEE54FE4FA591B4912B
:1005C0008FB7F894EC91111108C0D095DE23DC931D
:1005D0008FBFDF91CF911F910895DE2BF8CFCF937E
:1005E000DF9390E0FC01ED52FE4F249184549E4F26
:1005F000FC0184918823C9F090E0880F991FFC01C9
:10060000EA57FE4FA591B491FC01EE54FE4FC591FF
:10061000D49161110DC09FB7F8948C9120958223DD
:100620008C938881282328839FBFDF91CF910895E1
:10063000623051F49FB7F8943C91822F80958323C8
:100640008C93E8812E2BEFCF8FB7F894EC912E2B63
:100650002C938FBFEACF4F925F926F927F928F92CF
:100660009F92AF92BF92CF92DF92EF92FF920F9341
:100670001F93CF93DF9300D000D01F92CDB7DEB78A
:100680008C012A013B0180910A018630C9F08F3F1D
:1006900009F4B6C00F900F900F900F900F90DF915C
:1006A000CF911F910F91FF90EF90DF90CF90BF906F
:1006B000AF909F908F907F906F905F904F90089534
:1006C000E7EAF1E084918D8387FDE4CF61E086E085
:1006D0000E94EF028D81882321F09D81923009F0E4
:1006E0004FC14801B12CA12C60E072E18AE790E093
:1006F000A50198010E94DA3129833A834B835C83F8
:1007000069017A0181E0C81AD108E108F1089FEF78
:10071000C916D104E104F10409F00CF412C160E43B
:1007200072E48FE090E0A50198010E94DA3169013E
:100730007A0181E0C81AD108E108F1089D81923060
:1007400009F07BC18FEFC816D104E104F10409F070
:100750000CF4D0C160E970ED83E090E0A501980150
:100760000E94DA3169017A0191E0C91AD108E108E1
:10077000F1088FEFC816D104E104F10409F00CF47C
:10078000BBC168E478EE81E090E0A50198010E9489
:10079000DA3169017A0191E0C91AD108E108F1085A
:1007A0008FEFC816D104E104F10411F00CF099C0E8
:1007B00084E09091B100987F892B8093B1002FEF56
:1007C0003FEFA901411451046104710409F0CAC04A
:1007D0009D81913009F4FEC0923009F41EC191113F
:1007E00059CFC7BC2093890630938A0640938B0665
:1007F00050938C0680916E00826080936E004ACF89
:1008000086E080930A01E7EAF1E094919D839F3F9F
:1008100009F440CF913029F158F0923009F43FC0EB
:100820008D8187FD37CF61E086E00E94EF0255CFD2
:1008300014BC15BC84B5826084BD85B5816085BD5E
:10084000E2ECF1E0E491F0E0EE0FFF1FEE54FE4F1A
:1008500085919491E9EDF1E0E491E09380061D82A9
:1008600035CF1092800010928100809181008860C5
:100870008093810080918100816080938100E2EC0F
:10088000F1E0E491F0E0EE0FFF1FEE54FE4F859192
:100890009491E9EDF1E0E491E0937F0617CF109297
:1008A000B0001092B1008091B00082608093B000DF
:1008B0008091B10081608093B100E2ECF1E0E491BD
:1008C000F0E0EE0FFF1FEE54FE4F85919491909350
:1008D0007E0680937D06E9EDF1E0E491E0937C06ED
:1008E000F5CE64E274EF80E090E0A50198010E94EB
:1008F000DA3169017A0191E0C91AD108E108F108F9
:100900008FEFC816D104E104F10409F008F4F6C031
:1009100062E17AE780E090E0A50198010E94DA3177
:1009200069017A0191E0C91AD108E108F1088FEF55
:10093000C816D104E104F10411F008F0C9C086E042
:1009400038CF81E09D81911134CF95B5987F892B67
:1009500085BD2FEF3FEFA9014114510461047104DB
:1009600009F43FCFD801AA0FBB1FA30192010E9437
:10097000F93128EE33E040E050E00E94433228CFC6
:10098000B12CA12C60E072E18AE790E0A50198010A
:100990000E94DA3169017A0181E0C81AD108E108C0
:1009A000F108C114D10491E0E906F1042CF591E0BD
:1009B0008D81813009F003CF80918100887F892B60
:1009C000809381002FEF3FEFA9014114510461048E
:1009D000710441F6D0928900C09288002093850668
:1009E00030938606409387065093880680916F0067
:1009F000826080936F004ECE68E478EE81E090E0F4
:100A0000A50198010E94DA3169017A0181E0C81AD2
:100A1000D108E108F10893E0CBCFC092B300209356
:100A2000810630938206409383065093840680911A
:100A300070008260809370002DCE82E09FEFC91617
:100A4000D104E104F10409F00CF47CCF68E478EE01
:100A500081E090E0A50194010E94DA3169017A01F8
:100A600091E0C91AD108E108F1088FEFC816D10446
:100A7000E104F10409F014F483E064CF62E17AE761
:100A800080E090E0A50194010E94DA3169017A01C9
:100A900081E0C81AD108E108F10884E09FEFC91687
:100AA000D104E104F10409F008F44CCFC980DA80E4
:100AB000EB80FC808AE0F594E794D794C7948A95FC
:100AC000D1F791E0C91AD108E108F10885E03ACFE1
:100AD000C980DA80EB80FC809AE0F594E794D794A3
:100AE000C7949A95D1F781E0C81AD108E108F108B6
:100AF00087E05FCE82E05DCE83E05BCE85E059CEBD
:100B00008E50806480937C0080917A008064809312
:100B10007A0080917A0086FDFCCF809178009091D8
:100B2000790008958230910538F0880F991F880F59
:100B3000991F05970197F1F708953FB7F8948091B1
:100B4000470690914806A0914906B0914A0626B5FD
:100B5000A89B05C02F3F19F00196A11DB11D3FBFF5
:100B6000BA2FA92F982F8827BC01CD01620F711DC4
:100B7000811D911D42E0660F771F881F991F4A95BE
:100B8000D1F708958F929F92AF92BF92CF92DF924A
:100B9000EF92FF926B017C010E949D054B015C016D
:100BA000C114D104E104F104B9F00E949D05681953
:100BB00079098A099B09683E73408105910580F394
:100BC00021E0C21AD108E108F10888EE880E83E01E
:100BD000981EA11CB11CE4CFFF90EF90DF90CF9046
:100BE000BF90AF909F908F9008952FB7F894609129
:100BF00043067091440680914506909146062FBFAA
:100C000008954F925F926F927F929F92AF92BF92A0
:100C1000CF92DF92EF92FF920F931F93CF93DF93C8
:100C200000D01F92CDB7DEB7D090A2068091A50666
:100C30009091A606A091A706B091A806892B8A2BB1
:100C40008B2BD9F00E949D0500919E0610919F0666
:100C50002091A0063091A106601B710B820B930BB3
:100C60000091A5061091A6062091A7063091A8062E
:100C70006017710782079307C8F20E949D05609371
:100C80009E0670939F068093A0069093A106E09124
:100C9000AD06F091AE06309759F04091A9065091FB
:100CA000AA066091AB067091AC068D2D0995D82EE1
:100CB000E0909C06F0909D064D2C512C712C612CDF
:100CC000E114F10409F459C0D7011C96CC901C978B
:100CD0008091A3069091A4068436910510F41C9689
:100CE0001C92D701ED91FC91A280B38019821A82E7
:100CF0001B82DD2079F1F701369610E000E02191AA
:100D0000222319F19280992001F130E050E040E077
:100D10002F5F3F4F4F4F5F4FC301B2010E945833C7
:100D20009B01AC01892D90E0B0E0A0E0BC01CD01B9
:100D30006F5F7F4F8F4F9F4F0E945833A1E0B0E00D
:100D4000AC0FBD1FA00FB11F8C930F5F1F4F03305F
:100D50001105A9F609811A812B81F7014585568570
:100D600062817381C701F5010995D7011C96CC9268
:100D70001C971496ED90FC90A3CF80919A069091C9
:100D80009B068C010F5F1F4F10939B0600939A06E2
:100D90004997B4F10E94F505C0909606D090970649
:100DA000E0909806F09099069B01AC012C193D0942
:100DB0004E095F0921F421E030E040E050E088EE88
:100DC00093E0089FB001099F700D189F700D1124CA
:100DD000072E000C880B990B0E9443323093A40617
:100DE0002093A30610929B0610929A060E94F50586
:100DF0006093960670939706809398069093990651
:100E00000F900F900F90DF91CF911F910F91FF9056
:100E1000EF90DF90CF90BF90AF909F907F906F90BA
:100E20005F904F90089581E080934006089581E09F
:100E300080933D06089508950895089580E991E00E
:100E4000089590910A0189130BC0E7EAF1E0E4915B
:100E50009FEF90930A01E13049F028F0E23061F011
:100E600060E00C94C10210926E00FACF90916F0076
:100E70009D7F90936F00F4CF909170009D7F909331
:100E8000700091E09093B0009091B100987F9460D1
:100E90009093B1001092B300E3CFAF92BF92CF9284
:100EA000DF92EF92FF920F931F93CF93DF936C012A
:100EB0007B018B01040F151FEB015E01AE18BF080B
:100EC000C017D10759F06991D601ED91FC910190BD
:100ED000F081E02DC6010995892B79F7C501DF91D5
:100EE000CF911F910F91FF90EF90DF90CF90BF9027
:100EF000AF900895FC0183858F3F19F061E00C9459
:100F0000C1020895FC0180819181892B39F0A28171
:100F1000B3819C9111968C919CBD8DBD83858F3F33
:100F200019F060E00C94C1020895AF92BF92CF9285
:100F3000DF92EF92FF920F931F93CF93DF93EC0119
:100F400088819981892B89F06EBD0DB407FEFDCF94
:100F5000BEB48B2DDF91CF911F910F91FF90EF9039
:100F6000DF90CF90BF90AF9008958885998511E06C
:100F7000892B09F010E8AA24A394862F812309F075
:100F8000A12C062F2C813D814E815F8160E271EAA8
:100F900087E090E00E944332F22EB02EE12CC22E68
:100FA000D12CFF2019F0C6010E9492058A85877F07
:100FB00009F042C08D858F3F89F0902F912381E009
:100FC00009F480E08A1551F0EF85F8898F8999231B
:100FD00069F19081892B8083AA24A394E989FA89F5
:100FE0008081998D892B8083FF2019F0C6010E9492
:100FF00092058E858F3F39F0EB89FC898081988D31
:10100000892309F0E12AE989FA899081898D8095FF
:10101000892380838E858F3F09F0BE2C8885998532
:10102000892BB9F5110F1111BCCF93CF9081809509
:1010300089238083A12CD2CFE989FA898081998D77
:10104000892B8083FF2019F0C6010E9492058D85AF
:101050008F3F49F0EF85F8898F89902F9123A9F070
:101060009081892B8083E989FA899081898D809587
:10107000892380838E858F3F69F2EB89FC8980818B
:10108000988D892339F2E12AC5CF908180958923F3
:10109000E9CF1695C8CF8F929F92AF92BF92CF9211
:1010A000DF92EF92FF920F931F93CF93DF937C0118
:1010B0004B016A01B22EA32E0E948207E401C80CE4
:1010C000D91CCC15DD0569F4CB2DDA2D0C0F1D1FB5
:1010D000C017D10759F06FEFC7010E949507899398
:1010E000F7CF6991C7010E949507EBCFC7010E9416
:1010F0007A0781E0DF91CF911F910F91FF90EF90E0
:10110000DF90CF90BF90AF909F908F9008958F9277
:101110009F92AF92BF92CF92DF92EF92FF920F9386
:101120001F93CF93DF937C01B62EA72E6A0149014E
:101130000E948207E401080D191DC017D10761F450
:10114000CB2DDA2DCC0EDD1ECC15DD0551F06991CD
:10115000C7010E949507F8CF6991C7010E949507C2
:10116000ECCFC7010E947A0781E0DF91CF911F91F8
:101170000F91FF90EF90DF90CF90BF90AF909F9036
:101180008F9008951F93CF93DF93EA01122FDC0114
:1011900011968D919C91DC01ED91FC910280F3817F
:1011A000E02D0995C817D90729F4812F0E94450120
:1011B00091E0811190E0892FDF91CF911F910895E7
:1011C000AF92BF92CF92DF92EF92FF920F931F9355
:1011D000CF93DF9300D0CDB7DEB7DC01211103C080
:1011E00018962C911897253008F043C01F964D9300
:1011F0005D936D937C93529790E080E0E22EF12C0A
:101200008E159F05B4F41A962C911A9721110AC0D5
:10121000FD01E80FF91F4387452F562F672F7727CA
:101220000196EECFF701E81BF90BEA0FFB1F42878F
:10123000F3CF6D018BE0C80ED11C16969C911697CA
:1012400017968C91179799838A83AD90BC901197CC
:10125000A114B10409F441C019960C9110E0980151
:101260002E0D3F1DD50114968D919C9182179307E9
:1012700010F480E016C0F50181819281208131E077
:101280003093580620937A061092590610927B06E6
:101290000115110599F421E0A701B601C5010E94CD
:1012A000C2080F900F90DF91CF911F910F91FF9087
:1012B000EF90DF90CF90BF90AF900895DC01ED915B
:1012C000FC910280F381E02DA801BE016F5F7F4F8A
:1012D00009950817190769F6DECF1296ED91FC9172
:1012E0001397309731F214962D913C9115971996DA
:1012F0000C9110E02330310571F48E7F89839A833D
:101300000F5F1F4F9E012F5F3F4FA701B601CF0117
:101310000E948708C6CF2115310519F49F7799835C
:10132000F1CF2230310511F49068F9CF2130310529
:1013300049F79F779064F3CF85ED8093BC0080914F
:10134000BC0084FDFCCF1092570608952091BF0584
:10135000260F3327331F21323105ECF42091570635
:10136000FC0190E080E0243069F082E00895A091D3
:10137000BF052191AC0141565A4FA40FB52FB11DA5
:101380002C930196861798F38091BF05680F6093A0
:10139000BF0580E0089581E008951092570681E02E
:1013A0008093560610924F0661E082E10E94C102CE
:1013B00061E083E10E94C102E9EBF0E080818E7F71
:1013C000808380818D7F808388E48093B80085E46A
:1013D0008093BC000895CF93DF93EC018B81882329
:1013E000A1F0888191E09093580680937A0610923C
:1013F000590610927B0681E00E94450191E081111F
:1014000090E0892FDF91CF910895109222061092DB
:1014100021061092590610927B060E94CD098CE19C
:1014200097E09093200680931F068DE197E09093BC
:101430001E0680931D0681E08B83CE010E94EB097E
:10144000982F8111CECFDDCF0895E09122068091B3
:101450002106E81730F4F0E0EE51FA4F808190E079
:1014600008958FEF9FEF08959091220680912106B5
:101470002FEF3FEF981748F4E92FF0E0EE51FA4FC5
:10148000208130E09F5F90932206C90108958091EA
:10149000210690912206891B990B0895CF92DF9225
:1014A000EF92FF920F931F93CF93DF937C01CB01B9
:1014B0008A0120915806222389F0EB016B01C40EAA
:1014C000D51ECC15DD0569F06991D701ED91FC9130
:1014D0000190F081E02DC7010995F3CF642F0E94A0
:1014E000A609C801DF91CF911F910F91FF90EF9056
:1014F000DF90CF900895CF93DF931F92CDB7DEB7E3
:101500006983209158062223F9F020917B0620322E
:1015100058F021E030E0FC013383228390E080E04A
:101520000F90DF91CF91089580915906E82FF0E058
:10153000E65AF94F998190838F5F80935906809383
:101540007B0681E090E0ECCF61E0CE0101960E9445
:10155000A609F7CF20914D0630914E06281739077E
:1015600071F490914B0680914C06981741F0E091F0
:101570004B06F0E0E15AFA4F808190E008958FEF3A
:101580009FEF08950F931F930E94F5056093D30674
:101590007093D4068093D5069093D6068BEC96E094
:1015A0000E94AA0A97FF1DC00E94F5050091D3066C
:1015B0001091D4062091D5063091D606601B710B90
:1015C000820B930B0091CF061091D0062091D1068B
:1015D0003091D2066017710782079307F8F28FEFF8
:1015E0009FEF1F910F910895EF92FF920F931F931A
:1015F000CF93DF93DC015C96ED90FC905D97E11456
:10160000F10479F481E090E013969C938E93129705
:1016100090E080E0DF91CF911F910F91FF90EF90CC
:1016200008955196ED91FC91529750968C91509758
:10163000982F90950FB75E962C915E97122F12708F
:1016400021FD6095F8942081112319F1282B208326
:10165000E7012197F1F728E0462F50E0308160FF45
:101660001AC0382B3083E7012197F1F7BA0175953D
:101670006795215089F7112381F080818923808328
:101680000FBF5C968D919C910197F1F781E090E0FE
:10169000C1CF2923DCCF3923E5CF9081892BEFCF30
:1016A00020914D0630914E062817390761F480913C
:1016B0004C0620914B0690E0805C9F4F821B910965
:1016C0008F739927089590E080E0089520914D064A
:1016D00030914E0628173907B9F490914B06809146
:1016E0004C06981789F0E0914B06F0E0E15AFA4F6A
:1016F000808120914B0630E02F5F3F4F2F733327BF
:1017000020934B0690E008958FEF9FEF08950F937D
:101710001F930E94F5056093D3067093D4068093BF
:10172000D5069093D6068BEC96E00E94660B97FF49
:101730001DC00E94F5050091D3061091D40620919A
:10174000D5063091D606601B710B820B930B00916E
:10175000CF061091D0062091D1063091D2066017A5
:10176000710782079307F8F28FEF9FEF1F910F9198
:10177000089590E080E008950F931F93CF93DF9337
:1017800020915E052F5F322F377030935E0520FF6A
:101790002BC020E831FD2064347009F02062205F06
:1017A000FC01EC01239600E011E06485662329F03A
:1017B00070E0C8010E9468336F5F6187322F369FE7
:1017C000030E30E0311D1124311110C01682662342
:1017D00011F0615061873196EC17FD0731F7DF9109
:1017E000CF911F910F91089520E0D4CF31503683CF
:1017F000EECF4F925F927F928F929F92AF92BF9265
:10180000CF92DF92EF92FF920F931F93CF93DF93CC
:101810002C01EB010E949D05F20127853089621B96
:10182000730B6A307105B0F3F8948A819B811816A6
:1018300019060CF0CBC1E881F98105B1086075B1DA
:10184000777F75B9BA848F812B2D281B822F2F8328
:101850004F85042E000C550BAA81BB81ED84DC84DE
:10186000CE84E394D394C3949E81388599848B84E9
:10187000118120E0F32E622F322F318111278894BD
:101880003111380F08F43FEF81958894E0FC130F75
:1018900017958894E1FC130F17958894E2FC130FB9
:1018A00017958894E3FC130F17958894E4FC130FA5
:1018B00017958894E5FC130F17958894E6FC130F91
:1018C00017958894E7FC130F17958894232FE11040
:1018D000212F8B0D122F002C05B900C017FF75B9F1
:1018E00030812227889400C000C0002C75B93111C6
:1018F000390F00C0002C05B900C016FF75B908F4F7
:101900003FEF9195889400C000C0002C75B9D0FCC1
:10191000230F00C0002C05B900C015FF75B927952D
:101920008894D1FC230F00C000C0002C75B9279506
:10193000889400C0002C05B900C014FF75B9D2FC12
:10194000230F2795889400C000C0002C75B9D3FCE4
:10195000230F00C0002C05B900C013FF75B92795EF
:101960008894D4FC230F00C000C0002C75B92795C3
:10197000889400C0002C05B900C012FF75B9D5FCD1
:10198000230F2795889400C000C0002C75B9D6FCA1
:10199000230F00C0002C05B900C011FF75B92795B1
:1019A0008894D7FC230F00C000C0002C75B9279580
:1019B000889400C0002C05B900C010FF75B9132F22
:1019C000D110122F990D00C000C0002C75B900C0B5
:1019D00000C0002C05B900C017FF75B9328122275D
:1019E000889400C000C0002C75B931113F0D00C0B3
:1019F000002C05B900C016FF75B908F43FEFE40FDD
:101A0000F51F00C000C0002C75B9C0FC230F00C03A
:101A1000002C05B900C015FF75B927958894C1FC45
:101A2000230F00C000C0002C75B92795889400C012
:101A3000002C05B900C014FF75B9C2FC230F27950F
:101A4000889400C000C0002C75B9C3FC230F00C0EF
:101A5000002C05B900C013FF75B927958894C4FC04
:101A6000230F00C000C0002C75B92795889400C0D2
:101A7000002C05B900C012FF75B9C5FC230F2795CE
:101A8000889400C000C0002C75B9C6FC230F00C0AC
:101A9000002C05B900C011FF75B927958894C7FCC3
:101AA000230F00C000C0002C75B92795889400C092
:101AB000002C05B900C010FF75B9132FC110122FEB
:101AC000F19400C000C0002C75B9F80C00C000C033
:101AD00005B900C017FF75B931812227889400C06D
:101AE00000C0002C75B93111380F00C0002C05B9A9
:101AF00000C016FF75B908F43FEF8195889400C0C7
:101B000000C0002C75B9E0FC230F00C0002C05B903
:101B100000C015FF75B927958894E1FC230F00C01C
:101B200000C0002C75B92795889400C0002C05B919
:101B300000C014FF75B9E2FC230F2795889400C0FC
:101B400000C0002C75B9E3FC230F00C0002C05B9C0
:101B500000C013FF75B927958894E4FC230F00C0DB
:101B600000C0002C75B92795889400C0002C05B9D9
:101B700000C012FF75B9E5FC230F2795889400C0BB
:101B800000C0002C75B9E6FC230F00C0002C05B97D
:101B900000C011FF75B927958894E7FC230F00C09A
:101BA00000C0002C75B92795889400C0002C05B999
:101BB00000C010FF75B9132FE110122F8B0D00C05C
:101BC00000C0002C75B9119709F086CE4A815B815F
:101BD00020EE31E0DA010E947C33DC01CB01F4E03D
:101BE000B695A79597958795FA95D1F730E020E0BF
:101BF000B901EAE94E9F040E611D5E9F600D711DE3
:101C00001124650F711D860F971FA11DB11D893EFF
:101C100043E09407A105B10508F434C0885E934001
:101C2000A109B10942E0B695A795979587954A9580
:101C3000D1F747E0849F080E211D949F200D311D90
:101C40001124290F311D60915D0570E0860F971FEB
:101C5000820F931F409143065091440660914506C0
:101C600070914606292F3327420F531F611D711DA6
:101C7000409343065093440660934506709346068E
:101C800080935D0578940E949D05F201708B6787B3
:101C9000DF91CF911F910F91FF90EF90DF90CF9048
:101CA000BF90AF909F908F907F905F904F900895DE
:101CB00081E090E00895239A08956F927F928F9229
:101CC000CF92DF92EF92FF920F931F93CF93DF9308
:101CD000CDB7DEB762970FB6F894DEBF0FBECDBFAB
:101CE0006C017A013801822EDC011C962C91CA010C
:101CF00057FF04C088279927841B950B7A83698333
:101D00009C838B839E838D836D867E868F86213018
:101D100049F5CE0101960E94BC0B83E0888B1A8A9C
:101D2000198AF7FE02C08DEF888BD601ED91FC91E8
:101D30000684F785E02DBE016F5F7F4FC6010995D0
:101D400062960FB6F894DEBF0FBECDBFDF91CF9184
:101D50001F910F91FF90EF90DF90CF908F907F9029
:101D60006F9008951C861B861A86198618861F8216
:101D7000D4CFEF92FF920F931F93CF93DF93CDB702
:101D8000DEB762970FB6F894DEBF0FBECDBF7C0101
:101D9000DC011C968C917A8369835C834B835E8320
:101DA0004D830D871E872F878130F9F4CE01019670
:101DB0000E94BC0B188A1A8A198AD701ED91FC91EE
:101DC0000684F785E02DBE016F5F7F4FC70109953F
:101DD00062960FB6F894DEBF0FBECDBFDF91CF91F4
:101DE0001F910F91FF90EF9008951C861B861A8615
:101DF000198618861F82DECF8EE480937C0063E014
:101E000070E080E090E00E94C20580917A008064DA
:101E100080937A0080917A0086FDFCCF80917800D3
:101E200090917900009751F09C0150E040E064EB04
:101E30007BE281E190E00E944332C9010895CF9294
:101E4000DF92EF92FF920F931F93CF93DF93CDB763
:101E5000DEB72F970FB6F894DEBF0FBECDBF8091CF
:101E60003E06882309F454C0809115019091160113
:101E7000A091170189839A83AB838E010F5F1F4F57
:101E80006E0184E0C80ED11CF801F1908F0161E071
:101E90008F2D0E94C1026EE571E080E090E00E940B
:101EA000C20560E08F2D0E94C102C016D10661F705
:101EB000F98061E08F2D0E94C1020A8161E0802FCC
:101EC0000E94C1021B8161E0812F0E94C1026EE568
:101ED00071E080E090E00E94C20560E08F2D0E94DA
:101EE000C10260E0802F0E94C10260E0812F0E9449
:101EF000C1022F960FB6F894DEBF0FBECDBFDF91A3
:101F0000CF911F910F91FF90EF90DF90CF900895A8
:101F10008FEF89831A821B821C8290E89D831E8228
:101F20001F82188689878A878B878C878E010F5F2F
:101F30001F4F7E01FDE0EF0EF11CC8010E942D0134
:101F40000E9401066EE571E080E090E00E94C2050B
:101F50000D5F1F4F0E151F0581F71D861E861F86FC
:101F6000C8010E942D010E940106C3CF8F929F924B
:101F7000AF92BF92CF92DF92EF92FF920F931F9397
:101F80006B017C010E94F5050091580510915905DF
:101F900020915A0530915B05011511052105310588
:101FA000C9F08090540590905505A0905605B090CA
:101FB00057058C149D04AE04BF0461F4AB01BC0151
:101FC000401B510B620B730B81E0403A5F4061058F
:101FD000710508F080E01F910F91FF90EF90DF9066
:101FE000CF90BF90AF909F908F900895CF93909196
:101FF0000301C0910201882349F061E0892F0E940A
:10200000C10260E08C2FCF910C94C10260E0892F57
:102010000E94C10261E0F6CF60E0809103010E945E
:10202000C10260E0809102010C94C102CF93DF9362
:10203000EB010E94F60FBE0190E080E00E94C20515
:10204000DF91CF910C940C10EF92FF920F931F939E
:10205000CF93DF9302E511E08CE3E82E81E0F82EC8
:10206000F801819191918F01F701C191D1917F0187
:10207000009729F0AE0170E060E00E942B036496A7
:10208000BE0190E080E00E94C205F1E008361F0723
:1020900039F786E0DF91CF911F910F91FF90EF907C
:1020A0000C942107CF93C0913E06CC23C9F0FC01CC
:1020B0002081211108C02181211105C0C1E0828148
:1020C000811101C0C0E06C2F87E00E94C1026C2F1B
:1020D00088E00E94C1026C2F89E0CF910C94C1026C
:1020E0000E942D01CF910C940106AF92BF92CF9226
:1020F000DF92EF92FF920F931F93CF93DF9300D065
:102100001F92CDB7DEB75C01062F10E06A01F12CFB
:10211000E12CC5010E945210C701B6010E94C20500
:1021200019821A821B82CE0101960E94521060E52C
:1021300070E080E090E00E94C2051F5F0113E9CFCC
:102140000F900F900F90DF91CF911F910F91FF9003
:10215000EF90DF90CF90BF90AF900895CF92DF9235
:10216000EF92FF926C01CB01F12CE12CB701A6019B
:102170000E942B03C701B6010E94C20586E0FF90B2
:10218000EF90DF90CF900C94210790E080E00895CD
:10219000FC018585968508950F931F93CF93DF9358
:1021A00000D01F92CDB7DEB7AB0119821A821B8215
:1021B000DC01ED91FC910190F081E02D00E010E058
:1021C00020E0BE016F5F7F4F09950F900F900F9039
:1021D000DF91CF911F910F9108952F923F924F92CF
:1021E0005F926F927F928F929F92AF92BF92CF92A7
:1021F000DF92EF92FF920F931F93CF93DF9300D064
:10220000CDB7DEB7FC014B01042F968187819983FE
:102210008A83C080D180C114D10409F4B8C041853B
:1022200050E0D60114968D919C9184179507B8F4CF
:10223000312C832D0F900F90DF91CF911F910F9133
:10224000FF90EF90DF90CF90BF90AF909F908F90D6
:102250007F906F905F904F903F902F900895F60180
:10226000808191E09093580680937A0610925906E7
:1022700010927B0620E0BE016F5F7F4FC6010E9477
:10228000C208382E8823A1F210E0B12CA12C222400
:102290002394A016B10668F6809157068111FCCFF1
:1022A000D60114968D919C917801EA18FB088E1541
:1022B0009F0508F47C01F60190818E2D813208F093
:1022C00080E22092570641E098012E193F09A2169C
:1022D000B30608F440E040935606FFEFF09355062E
:1022E00022EE35E0309354062093530610925206A6
:1022F0002FEF280F20935106209250062091500670
:10230000990F922B9093500690914F069130C1F502
:1023100010924F06909150069093BB009091BC0094
:1023200093FDF8CF35EC3093BC0090915706913077
:10233000E1F390915206981710F480915206109292
:102340002206809321068E151F0409F071CF3401F7
:102350006A0C7B1C2301C201861997098E159F0503
:1023600098F4D60111968D919C91DC01ED91FC9130
:102370000284F385E02D0995F20181932F01EBCFC3
:1023800095EE9093BC00D1CFAE0CBF1C82CFA28142
:10239000B381109709F44CCF2481358110E0418539
:1023A00050E02330310571F4816089839A834F5F57
:1023B0005F4F9401BE016F5F7F4FCD010E944B08BC
:1023C000382E37CF2115310519F490689983F1CF54
:1023D0002230310511F49F77F9CF2130310549F7CB
:1023E000906CF4CFEF92FF920F931F93CF93DF93F4
:1023F000CDB7DEB7A6970FB6F894DEBF0FBECDBF40
:102400008091BB069091BC061BA21CA21DA21EA21D
:102410009D8B8C8B1F8A1E8A11E01D8F85E090E0BA
:102420009B8F8A8F1E8F02E00C8F4091BF065091C8
:10243000C0066091C1067091C20622E0CE014496AA
:102440000E94E0088091BB069091BC06188A198A08
:102450001A8A1B8A9A8389831C821B821A8784E0CA
:1024600090E098878F831B87098742E0BE01645FF5
:102470007F4FCE0101960E94ED10882341F0EC843D
:10248000FD849B85992319F0FE24EF24FE2480937C
:10249000BD06C701A6960FB6F894DEBF0FBECDBF2E
:1024A000DF91CF911F910F91FF90EF9008958F9240
:1024B0009F92AF92BF92EF92FF920F931F93CF9391
:1024C000DF93EC014A015B01E880F980B701655FA9
:1024D0007F4FF7014085C7010E94ED10882309F165
:1024E000F701608570E030E020E080E090E0DC0102
:1024F00026173707CCF4BA2FA92F982F8827F70172
:10250000428541110AC0FB01E21BF30BEE0DFF1DDA
:102510004285842B2F5F3F4FEBCFE20FF31F4385A4
:10252000F8CF8FEF9FEFDC012A8101E010E002C0BD
:10253000000F111F2A95E2F701501109012E000C1E
:10254000220B330BEB81B901A8010E2E04C0440FFE
:10255000551F661F771F0A94D2F7409550956095D6
:10256000709584239523A623B7230990D881C02D85
:10257000B901A801482159216A217B2104C0440FD7
:10258000551F661F771FEA95D2F7482B592B6A2BE8
:102590007B2B2885CE01DF91CF911F910F91FF906A
:1025A000EF90BF90AF909F908F900C94E008CF93E6
:1025B000DF93CDB7DEB767970FB6F894DEBF0FBED7
:1025C000CDBF2091BB063091BC06188A198A1A8AA1
:1025D0001B8A3A8329831C821B8291E09A87188682
:1025E0001F829B8792E099879E012F5F3F4F3D8B13
:1025F0002C8B93E09E8B1F8A40E050E0BA01811142
:1026000004C047E050E060E070E0CE0144960E94D4
:1026100057128093BD0667960FB6F894DEBF0FBEC3
:10262000CDBFDF91CF9108954F925F926F927F92CD
:102630008F929F92AF92BF92CF92DF92EF92FF92D2
:10264000CF93DF93C82F8091260681111FC068EEBB
:1026500073E08C2F0E94161060E570E080E090E03F
:102660000E94C20564E873E081E08C27DF91CF917E
:10267000FF90EF90DF90CF90BF90AF909F908F90A2
:102680007F906F905F904F900C94161080E00E94A6
:10269000D7128C2F0E94F60F0E94F5056B017C016A
:1026A0000E94F5056C197D098E099F0960317742FA
:1026B0008105910530F00E940C1081E00E94D71234
:1026C000CBCFD9E1812C912C54010E94F211BC0195
:1026D000990F880B990B0E94A4302B013C0160914B
:1026E000C3067091C4068091C5069091C6060E94EB
:1026F000A2309B01AC01C301B2010E94E1329B01F7
:10270000AC01C501B4010E9475324B015C01D1508E
:10271000E1F60E94F5056C197D098E099F096D325D
:1027200071408105910508F4BBCF20E030E048EC12
:1027300051E4C501B4010E94E1329F7720E030E00E
:1027400046E953E40E94533318160CF0A9CFB3CFD7
:102750000E947F35CF93DF93DC0114962D913C913D
:102760001597232B79F0FB01CD91DC91608171816C
:10277000CE010E94AA35009729F08C1B9D0BDF919A
:10278000CF9108958FEF9FEFFACFFB0144815581E0
:10279000FC01248135812417350778F080819181EF
:1027A000009759F0FB01608171816115710529F075
:1027B0000E949C3521E0892B09F020E0822F0895AA
:1027C0000F931F93CF93DF93EC018881998100973A
:1027D00059F02A813B812617370730F081E0DF91DD
:1027E000CF911F910F9108958B016F5F7F4F0E94D2
:1027F000C234009759F0998388831B830A832C8104
:102800003D81232B59F7FC011082E8CF80E0E7CF10
:10281000FC0180819181009711F00C943934089566
:10282000FB0101900020E9F73197AF01461B570BE0
:10283000DC01ED91FC910280F381E02D0994BC0153
:1028400080910001909101010E941014809100017B
:1028500090910101DC01ED91FC910190F081E02D5E
:102860006AE009958091000190910101DC01ED91F0
:10287000FC910680F781E02D09956CE070E080E026
:1028800090E00C94C20586EC91E00E941F1466E96A
:1028900070E080E090E00E94C20586EC91E00C942C
:1028A0001F14CF92DF92EF92FF92CF93C4E08BEC94
:1028B00096E00E94500B892B29F08BEC96E00E9449
:1028C000660BF5CF69EC71E08BEC96E00E9410147A
:1028D0000E94F5056B017C010E94F5056C197D09CC
:1028E0008E099F096A3F71058105910540F48BECC3
:1028F00096E00E94500B892B79F381E003C0C15010
:10290000B1F680E0CF91FF90EF90DF90CF900895E7
:102910000F931F93CF93DF938C01EB0183E00E9411
:1029200098020197D1F0B8018BEC96E00E94101448
:102930006DE08BEC96E00E94F40ABE0190E080E02E
:102940000E94C2058BEC96E00E94500B892B29F067
:102950008BEC96E00E94660BF5CFDF91CF911F9133
:102960000F9108950F931F93CF93DF93CDB7DEB7E9
:102970002C970FB6F894DEBF0FBECDBF7F936F9339
:102980009F938F938DEC91E09F938F931F928CE098
:102990008F938E010F5F1F4F1F930F930E94C435BB
:1029A00066E970E0C8010E9488140FB6F894DEBF93
:1029B0000FBECDBF2C960FB6F894DEBF0FBECDBFB5
:1029C000DF91CF911F910F9108954F925F926F9277
:1029D0007F92BF92CF92DF92EF92FF920F931F935D
:1029E000CF93DF93CDB7DEB7C054D1090FB6F894BB
:1029F000DEBF0FBECDBF80913E06882309F445C0DF
:102A000066E970E084ED91E00E94881466E970E068
:102A10008DED91E00E94881480E396E020913006CD
:102A2000222309F48EC09F938F9386EE91E09F93AB
:102A30008F931F9288E18F936E0129E2C20ED11C01
:102A4000DF92CF920E94C4350FB6F894DEBF0FBE5E
:102A5000CDBF03E088E2B82EFE0131967F0168EC1D
:102A600070E0C6010E94881483E00E9498020197DA
:102A700009F467C08BEC96E00E94500B892B01F1A2
:102A80008BEC96E00E94660BF5CF83E00E949802E3
:102A9000019709F0B5CFC05CDF4F0FB6F894DEBFE9
:102AA0000FBECDBFDF91CF911F910F91FF90EF909F
:102AB000DF90CF90BF907F906F905F904F90089580
:102AC00060EF71E08BEC96E00E941014F7012B2D63
:102AD00011922A95E9F70E94F5052B013C0110E0BF
:102AE0000E94F505641975098609970960397140D6
:102AF0008105910590F48BEC96E00E94500B892B98
:102B000079F3173268F78BEC96E00E94660BF701B9
:102B1000E10FF11D80831F5FE3CF112391F06AEF76
:102B200071E0C7010E94AA35BC0140E0892B09F081
:102B300086C060E376E0C7010E94AA35892B09F4BC
:102B4000B8C066E970E08FEF91E00E94881466E9F2
:102B500070E088E092E00E94881466E970E081E10C
:102B600092E00E94881466E970E08AE192E00E9497
:102B7000881480913E06882309F471C066E970E0EC
:102B800083E292E00E94881466E970E08CE292E0B1
:102B90000E94881466E970E085E392E00E94881440
:102BA00066E970E08EE392E00E94881466E970E0C6
:102BB00087E492E00E94881466E970E080E592E084
:102BC0000E94881466E970E08BE592E00E94881408
:102BD00066E970E086E792E00E94881480912406FE
:102BE000813009F458CF809125068150833008F058
:102BF00052CF80913E06811105C08091080190E07E
:102C00008C3011F486E090E09F938F938FE792E0F1
:102C10009F938F931F928EE08F938E010F5F1F4FB4
:102C20001F930F930E94C43566E970E0C8010E94AB
:102C300088140FB6F894DEBF0FBECDBF2CCF242F63
:102C400030E0F901E05DF94F8081260F371FF9016F
:102C50009481882329F189132CC04F5FF0CF809194
:102C6000080100E210E08C3079F09DEF980F10E041
:102C700000E09A3048F48350990B01E010E002C064
:102C8000000F111F8A95E2F7B80186E692E00E94D4
:102C9000B214B80168608EE692E00E94B21498CF38
:102CA000992309F44ECF9D3009F44BCF9A3009F4A3
:102CB00048CF015009F0D3CE44CFEF92FF920F934B
:102CC0001F93CF93DF93EC017B01198218821B8243
:102CD0001A821D821C82FB0101900020E9F73197C6
:102CE0008F01061B170BB8010E94E0132881398160
:102CF000811113C02115310519F0C9010E94393421
:102D0000198218821D821C821B821A82DF91CF9148
:102D10001F910F91FF90EF9008951D830C83B701D1
:102D2000C901DF91CF911F910F91FF90EF900C940B
:102D30009535CF92DF92EF92FF920F931F93CF932F
:102D4000DF93EB017B0124E0E20EF11C8B016C01AF
:102D5000C61AD70AC601800F911F0E94C431F8011C
:102D600081938F01EE15FF05A9F7CE01DF91CF9179
:102D70001F910F91FF90EF90DF90CF9008950C94EA
:102D8000C4311F93CF93DF93EC01162F0E94C431FF
:102D9000181739F0612FCE01DF91CF911F910C945C
:102DA000CC31DF91CF911F9108954F925F926F9236
:102DB0007F928F929F92AF92BF92CF92DF92EF92CB
:102DC000FF921F93CF93DF9300D01F92CDB7DEB752
:102DD0006EE170E080E090E00E94C20582E00E9417
:102DE0009802892B09F095C00E94F5052B013C0142
:102DF000812C912C540116E982E00E949802892BC3
:102E000009F069C00E94F5056419750986099709DA
:102E1000603127E272078105910598F160E173E066
:102E200088E790E00E94AE1063E972E088E790E0E6
:102E30000E94AE106BE072E088E790E00E94AE1056
:102E400068E871E088E790E00E94AE108FEF898318
:102E50001A821B8248E750E063E0CE0101960E948F
:102E6000751060E08EE893E00E94C11688E198E05A
:102E70000FB6F894A895809360000FBE9093600001
:102E8000FFCF28EE33E040E050E00E94433269017A
:102E90007A0183E0C816D104E104F104C8F0C81433
:102EA000D904EA04FB0459F0129FB001139F700D7E
:102EB000112460557B4F88E290E00E94AE106AE0DA
:102EC00070E080E090E00E94C2054601570194CF77
:102ED00075016401F4CF0E94F5056419750986092E
:102EE0009709603273408105910530F5F0905C05DB
:102EF00081E0F826F0925C0568E077E0FF2011F0B1
:102F000060E679E082E390E00E94AE108F2D0E948F
:102F100014130F900F900F90DF91CF911F91FF909E
:102F2000EF90DF90CF90BF90AF909F908F907F9069
:102F30006F905F904F90089564EF71E088E790E0A4
:102F40000E94AE10E6CFCF93C82F80932F06682F34
:102F500083E090E00E94C11661E084E090E00E946E
:102F6000C11668E27AE08CE390E00E94AE1068EE51
:102F700073E080E090E00E94C20586EC91E00E9440
:102F80001F1466E970E080E090E00E94C20587ECC3
:102F900091E0CC2311F08EEC92E00E941F1480E0AF
:102FA0000E941413CC2349F06CE271E080E090E0C1
:102FB0000E94C20581E00E94141360ED77E080E575
:102FC00090E00E94AE1060E679E080E590E0CF915D
:102FD0000C94AE10EF92FF920F931F93CF93DF9359
:102FE000CDB7DEB768970FB6F894DEBF0FBECDBF82
:102FF0008FE00E9480057E0121E1E20EF11CBC0100
:10300000990F880B990B0E94A43020E030E040EA31
:103010005BE30E940331870122E040E00E94CC2A5A
:10302000FF92EF928BE892E09F938F931F9280E143
:103030008F93005111091F930F930E94C435C8014B
:103040000E941F140FB6F894DEBF0FBECDBF689666
:103050000FB6F894DEBF0FBECDBFDF91CF911F91A9
:103060000F91FF90EF9008952F923F924F925F92B1
:103070006F927F928F929F92AF92BF92CF92DF9288
:10308000EF92FF920F931F93CF93DF93CDB7DEB7ED
:103090006E970FB6F894DEBF0FBECDBF182F1B0181
:1030A00080912606882309F498C080E00E94D712F8
:1030B000812F0E94F60F68E770E080E090E00E94A8
:1030C000C2050E94F5052B013C0110E000E0C12C77
:1030D000D12C76010E94F5056419750986099709B6
:1030E0006A3471408105910530F50E94F211BC01EE
:1030F000990F880B990B0E94A4304B015C016091E1
:10310000C3067091C4068091C5069091C6060E94C0
:10311000A2309B01AC01C501B4010E94E1329B01C8
:10312000AC015F77C701B6010E9475326B017C016B
:103130000F5F1F4FCFCF0E940C1081E00E94D7126B
:1031400060E070E0CB010115110559F0B80190E085
:1031500080E00E94A2309B01AC01C701B6010E9431
:10316000E1327E0125E1E20EF11C870120E040E022
:103170000E94CC2AFF92EF9282E992E09F938F9374
:103180001F9284E18F93045111091F930F930E94A2
:10319000C435C8010E941F140FB6F894DEBF0FBEDD
:1031A000CDBFC1010E941F146E960FB6F894DEBF0A
:1031B0000FBECDBFDF91CF911F910F91FF90EF9088
:1031C000DF90CF90BF90AF909F908F907F906F9047
:1031D0005F904F903F902F90089562EC71E0812FA7
:1031E0000E94161080EA92E00E941F14DACF0F931B
:1031F0001F93CF93DF93CDB7DEB760970FB6F894E8
:10320000DEBF0FBECDBF182F8FE00E948005BC012E
:10321000990F880B990B0E94A43020E030E040EA1F
:103220005BE30E9403319B01AC0160E070E08AEF38
:1032300094E4112321F060E070E08AE794E40E94B6
:1032400075328E010F5F1F4F22E040E00E94CC2AB2
:10325000C8010E941F1460960FB6F894DEBF0FBE1F
:10326000CDBFDF91CF911F910F910895CF92DF9243
:10327000EF92FF921F93CF93DF9300D01F92CDB7B1
:10328000DEB76B017C0180912F0611E091E0C91639
:10329000D104E104F10421F4813021F010E002C0F6
:1032A0008111FCCFC701B6010E94B60F882371F0CF
:1032B000812F0E94F7180F900F900F90DF91CF9100
:1032C0001F91FF90EF90DF90CF9008950E94F50539
:1032D000609358057093590580935A0590935B0548
:1032E000C0925405D0925505E0925605F0925705CC
:1032F000812F0E94F7186CE370E080E090E00E945C
:10330000C205812F0E9414130E94F5056093580591
:103310007093590580935A0590935B0568E770E0B8
:1033200080E090E00E94C205812F0E94F7180E9461
:103330002410198280E88A831B8248E750E063E00A
:10334000CE0101960E947510B6CF2F923F924F92F8
:103350005F926F927F928F929F92AF92BF92CF9225
:10336000DF92EF92FF920F931F93CF93DF93CDB72E
:10337000DEB7EE970FB6F894DEBF0FBECDBF8BEC75
:1033800096E0909301018093000186E990E0A0E02F
:10339000B0E08093CF069093D006A093D106B0936F
:1033A000D2060E94F5054B015C010E94F5056BAB4E
:1033B0007CAB8DAB9EAB50E2252E5EE4352E412CCE
:1033C000512C8E010F5F1F4F0E94F5056819790976
:1033D0008A099B09621573058405950508F0BBC42D
:1033E0000E94F5052BA93CA94DA95EA9621B730B90
:1033F000840B950B603C77428940910508F0ABC483
:1034000082E00E949802892B31F40E94D5160E9416
:10341000F5054B015C0183E00E949802019721F4BD
:103420000E94F5054B015C018BEC96E00E94500B6D
:10343000181619064CF68BEC96E00E94AA0A8D30FD
:10344000910549F08032910531F09C0129503109F4
:103450002230310528F48BEC96E00E94660BB4CF45
:103460008F7D815491094A9708F019C567EE72E083
:10347000CE0189960E945D160E94870B97FD1AC0A7
:1034800089831A82EDA4FEA44FEFE41AF40AB7016F
:10349000CE0189960E94E013882371F329A53AA5ED
:1034A0008DA59EA5B801820F931F0E949535FEA69B
:1034B000EDA6E2CFC9A4DAA4C114D10431F0EDA481
:1034C000FEA43601E114F104B9F4E9A4FAA4E1146C
:1034D000F10409F44AC0F70181917F01882309F4BE
:1034E00044C0082E000C990B0E948435F7013197D7
:1034F0008083F1CF6FA478A8C301019698AB8FA702
:10350000F3018081082E000C990B0E94F52F892B66
:1035100089F7F1E0EF1AF108EC0CFD1CF70180814E
:10352000082E000C990B0E94F52F892B39F0E61418
:10353000F70420F0F1E0EF1AF108F0CF2FEFE21AD4
:10354000F20AA701461957095EA74DA7C614D7046A
:1035500020F4B301C6010E948C35E9A5FAA58DA51A
:103560009EA5E80FF91F1082B0CF6CEE72E0C80183
:103570000E945D16B801CE0189960E94C513F82EEF
:10358000C8010E940814FF2011F180913C068111AE
:1035900019C0F1E0F0933C0660E173E086E490E04E
:1035A0000E94AE1067E174E082E890E00E94AE10E5
:1035B000198280E88A831B824AE550E062E0C801F4
:1035C0000E947510CE0189960E940814FDCE64EF0A
:1035D00072E0C8010E945D16B801CE0189960E9472
:1035E000C513F82EC8010E940814FF2019F010928C
:1035F0003C06E8CF6CEF72E0C8010E945D16B8018E
:10360000CE0189960E94C513F82EC8010E940814A5
:10361000FF2009F486C30E94F5054B015C0161E0BF
:1036200073E0C8010E945D16B801CE0189960E9420
:10363000C513F82EC8010E940814FF2079F08AE013
:1036400093E00E941F1466E970E080E090E00E9421
:10365000C2058AE093E00E941F1459C06FE073E036
:10366000C8010E945D16B801CE0189960E94C5135B
:10367000F82EC8010E940814FF20A9F06CED75E037
:1036800088E790E00E94AE1060ED77E088E790E078
:103690000E94AE1064EC79E084EB90E00E94AE10E2
:1036A00087E193E0D8CF6EE173E0C8010E945D1618
:1036B000B801CE0189960E94C513F82EC8010E9458
:1036C0000814FF2029F00E941F0F86E293E0C3CF69
:1036D0006DE273E0C8010E945D16B801CE018996C3
:1036E0000E94C513F82EC8010E940814FF20B1F0F3
:1036F00086E393E00E941F1464E170E080E090E0B4
:103700000E94C2056EE373E081E00E94341880E6F7
:10371000282E8AEE382E412C512C54CF67E473E0CA
:10372000C8010E945D16B801CE0189960E94C5139A
:10373000F82EC8010E940814FF2071F080E593E084
:103740000E941F1464E170E080E090E00E94C205D6
:1037500068E573E080E0D9CF61E673E0C8010E94BC
:103760005D16B801CE0189960E94C513F82EC801D6
:103770000E940814FF2019F00E94EA17C8CF69E6DA
:1037800073E0C8010E945D16B801CE0189960E94BF
:10379000C513F82EC8010E940814FF2009F44CC17B
:1037A00080913006882309F420C180E396E09F933E
:1037B0008F9322E733E03F932F931F9240E2F42E42
:1037C000FF921F930F930E94C435C8010E941F14DB
:1037D00080912F061F928F9389E793E09F938F9399
:1037E0001F92FF921F930F930E94C435C8010E943D
:1037F0001F140FB6F894DEBF0FBECDBF80912B060D
:1038000090912C06A0912D06B0912E06892B8A2B23
:103810008B2B09F4EDC08091270690912806A0918A
:103820002906B0912A06892B8A2B8B2B09F4E0C03C
:103830008BEB92E09F938F9380E893E09F938F931D
:103840001F9280E28F931F930F930E94C435C8018B
:103850000E941F140FB6F894DEBF0FBECDBF80913B
:103860002306882309F4C7C08BEB92E09F938F93C4
:1038700089E893E09F938F931F9280E28F931F9329
:103880000F930E94C435C8010E941F148091240622
:103890000FB6F894DEBF0FBECDBF823009F4AEC0C4
:1038A000813009F0AEC080ED92E09F938F9380E964
:1038B00093E09F938F931F9280E28F931F930F93B8
:1038C0000E94C435C8010E941F140FB6F894DEBFD1
:1038D0000FBECDBF80912606882309F495C08BEBDF
:1038E00092E09F938F9388E993E09F938F931F9229
:1038F00080E28F931F930F930E94C435C8010E94EA
:103900001F140FB6F894DEBF0FBECDBF80913E06E8
:10391000882309F47CC08BED92E09F938F938FE90D
:1039200093E09F938F931F9230E2F32EFF921F93A9
:103930000F930E94C435C8010E941F148091080192
:103940000FB6F894DEBF0FBECDBF8C3009F062C059
:1039500087E791E09F938F931F92FF921F930F939E
:103960000E94B42B0F900F900F900F900F900F901C
:10397000C8010E941F14809125061F928F9388EA28
:1039800093E09F938F931F9220E2F22EFF921F935A
:103990000F930E94C435C8010E941F140E94F505B0
:1039A00028EE33E040E050E00E9443325F934F93B3
:1039B0003F932F9382E691E09F938F931F92FF9204
:1039C0001F930F930E94B42BC8010E941F1483EB16
:1039D00093E00E941F148EEB93E00E941F140FB619
:1039E000F894DEBF0FBECDBF92CE81EB92E0DFCE6A
:1039F0008EEB92E01FCF85EC92E038CF8CEC92E01A
:103A000054CF85ED92E051CF87ED92E06ACF8FEDF4
:103A100092E083CF1F928F938DE691E09F938F93D7
:103A20001F92FF921F930F930E94B42B0FB6F8942E
:103A3000DEBF0FBECDBF9CCF67EC73E0C8010E9414
:103A40005D16B801CE0189960E94C513F82EC801F3
:103A50000E940814FF2029F00E94241081ED93E0B9
:103A6000FACD6AED73E0C8010E945D16B801CE017F
:103A700089960E94C513F82EC8010E940814FF20E1
:103A800041F1F12CE12C9CE1D92EFF92EF9283EED3
:103A900093E09F938F931F92DF921F930F930E9447
:103AA000C435C8010E941F1466E970E080E090E010
:103AB0000E94C205FFEFEF1AFF0A0FB6F894DEBFAF
:103AC0000FBECDBF35E0E316F104F9F68BEF93E0BE
:103AD000C2CD64E074E0C8010E945D16B801CE0159
:103AE00089960E94C513F82EC8010E940814FF2071
:103AF00091F089A59AA507969F938F934CE054E087
:103B00005F934F931F9288E28F931F930F930E94AE
:103B1000C435C80162CF63E174E0C8010E945D163C
:103B2000B801CE0189960E94C513F82EC8010E94E3
:103B30000814FF2059F061E081E993E00E94C1166A
:103B4000F1E0F0933F068EE194E085CD68E274E009
:103B5000C8010E945D16B801CE0189960E94C51366
:103B6000F82EC8010E940814FF2051F060E081E99E
:103B700093E00E94C11610923F0684E394E06BCD5F
:103B80006FE374E0C8010E945D16B801CE0189960A
:103B90000E94C513F82EC8010E940814FF2009F4E2
:103BA00068C0809108018C3019F487E494E053CD0B
:103BB00080E594E00E941F1460E971E080E090E0ED
:103BC0000E94C20564EF71E087E594E00E948814CA
:103BD00064EF71E080E090E00E94C20583E00E9403
:103BE0009802019719F48FE594E035CD70E060E01C
:103BF00086E692E00E94B21468EC70E086E792E0FC
:103C00000E94881461E08FE893E00E94C1168091C1
:103C100008011F928F932FE634E03F932F931F925A
:103C20008CE08F931F930F930E94C4356CE370E078
:103C3000C8010E94881468EB7BE080E090E00E945D
:103C4000C20560E08FE893E00E94C11660E971E070
:103C500080EA90E00E94AE1060E971E080EA90E0B6
:103C60000E94AE1060E971E080EA90E00E94AE1020
:103C7000B6CE69E774E0C8010E945D16B801CE01B6
:103C800089960E94C513F82EC8010E9408148CEA78
:103C900094E0FF2009F4DFCC81E894E00E941F1437
:103CA0006CED75E088E790E00E94AE1060ED77E083
:103CB00088E790E00E94AE1064EC79E084EB90E03D
:103CC0000E94AE1087E193E00E941F140E941F0F14
:103CD00086E293E00E941F148CE894E00E941F1477
:103CE00062EC71E081E00E94161086E393E00E948E
:103CF0001F1460E971E080E090E00E94C20588E94D
:103D000094E00E941F1462EC71E080E00E941610A3
:103D100080E593E00E941F140E94EA1784EA94E071
:103D20009ACC64EB74E0C8010E945D16B801CE0124
:103D300089960E94C513F82EC8010E940814FF201E
:103D400019F161E070E080E090E00E943619CE0148
:103D500089960E940814EE960FB6F894DEBF0FBE47
:103D6000CDBFDF91CF911F910F91FF90EF90DF902A
:103D7000CF90BF90AF909F908F907F906F905F900B
:103D80004F903F902F9008956AEB74E0C8010E9415
:103D90005D16B801CE0189960E94C513F82EC801A0
:103DA0000E940814FF2029F062E070E080E090E0BB
:103DB000CCCF61EC74E0C8010E945D16B801CE0161
:103DC00089960E94AA137C01C8010E940814F7FC7E
:103DD00004C081E00E94A317BACF6EEC74E0C80162
:103DE0000E945D16B801CE0189960E94AA137C013B
:103DF000C8010E940814F7FC02C080E0EBCF6CED14
:103E000074E0C8010E945D16B801CE0189960E9437
:103E1000AA137C01C8010E940814F7FC16C00E9476
:103E2000F5054B015C0168E978E08CE390E00E94C5
:103E3000AE1081E00E94141368E770E080E090E02B
:103E40000E94C2050E944314BDCB67EE74E0C80116
:103E50000E945D16B801CE0189960E94AA137C01CA
:103E6000C8010E940814F7FCADCB0E94F5054B0178
:103E70005C0168E978E08CE390E00E94AE106EE7A8
:103E800074E080E090E00E94C2050E94431481E04B
:103E90000E94141397CB8BEC96E00E94660B0E9455
:103EA000C20AFC0197FD5FC08D32910519F0C097E1
:103EB0000A9788F7C12CD12C7601712CE130F105DD
:103EC000D9F0ED32F10509F44BC0CF01C0970A9744
:103ED00098F4AAE0B0E0A70196010E94F9316F01C1
:103EE000FF0FEE08FF08C60ED71EE81EF91E90E36E
:103EF000C91AD108E108F1088BEC96E00E94660B24
:103F00000E94C20AFC01C0970A97C0F2E130F10595
:103F1000A9F2772041F0F094E094D094C094C11CB1
:103F2000D11CE11CF11CC114D104E104F10409F419
:103F30004BCAD701C6010197A109B1090297A10592
:103F4000B10508F03FC080912F0611E0E1E0CE16E8
:103F5000D104E104F10459F4813059F010E009C0B2
:103F600077247394C9CFC12CD12C7601DCCF811179
:103F7000F5CF812F0E94F718C701B6010E94B60F36
:103F80008111E9CE0E94F50560935805709359059B
:103F900080935A0590935B05C0925405D0925505C5
:103FA000E0925605F0925705812F0E9414130E944B
:103FB000F505609358057093590580935A059093C1
:103FC0005B05C9CEC114F9EEDF06F2E0EF06F1049D
:103FD000C9F40E94F5054B015C0168E978E08CE3C7
:103FE00090E00E94AE1068E27AE08CE390E00E94DC
:103FF000AE106EE774E080E090E00E94C2050E947F
:104000004314E2C921E2C2162BE0D20620E2E20606
:10401000F10408F0D9C90E94F5054B015C010E942A
:10402000362B6FAB78AF89AF9AAF0E94362B2EE05C
:1040300037E240E050E00E94DA319B01AC012F5F93
:104040003F4F4F4F5F4F2FA738AB49AB5AAB8091D3
:104050002B0690912C06A0912D06B0912E06A7015B
:104060009601280F391F4A1F5B1F2BAF3CAF4DAF86
:104070005EAF6FA978AD89AD9AAD2EE037E240E032
:1040800050E00E94DA31DC01CB010196A11DB11D87
:104090002BAD3CAD4DAD5EAD820F931FA41FB51F80
:1040A00020912506233009F04DC023EE32E0BF9366
:1040B000AF939F938F933F932F931F9280E18F93A2
:1040C0001F930F930E94C435C8010E941F1466E914
:1040D00070E080E090E00E94C205809127069091F8
:1040E0002806A0912906B0912A068C0D9D1DAE1DB3
:1040F000BF1DCFA4D8A8E9A8FAA8C80ED91EEA1EE9
:10410000FB1E0FB6F894DEBF0FBECDBF8091250613
:104110008330D9F483EE92E0FF92EF92DF92CF9258
:104120009F938F931F9280E18F931F930F930E9411
:10413000C435C8010E941F140FB6F894DEBF0FBE2D
:10414000CDBF42C928EE32E0B2CF88EE92E0E4CF94
:104150008F929F92AF92BF92DF92EF92FF920F9356
:104160001F93CF93DF93CDB7DEB7E0970FB6F894E8
:10417000DEBF0FBECDBF83E0E82E90E3D92E8E01C7
:104180000F5F1F4F8BEC96E00E94500B892B29F09C
:104190008BEC96E00E94660BF5CF65EF74E08BEC3C
:1041A00096E00E941014F8012D2D11922A95E9F73E
:1041B0000E94F5054B015C01F12C0E94F505681980
:1041C00079098A099B09623C71408105910598F43F
:1041D0008BEC96E00E94500B892B79F3FEE2FF15E1
:1041E00060F38BEC96E00E94660BF801EF0DF11D79
:1041F0008083F394E2CF6FEF74E0C8010E94AA3588
:104200005C01892B29F4EA94E110BCCF10E01FC0B7
:104210006CEC72E0C8010E94AA35892B59F581E047
:1042200080932406C50104960E948E2B182F8111BD
:1042300001C011E010932506612F80E093E00E94F9
:10424000C1166091240683E993E00E94C116812F74
:10425000E0960FB6F894DEBF0FBECDBFDF91CF91D1
:104260001F910F91FF90EF90DF90BF90AF909F90C4
:104270008F90089582E0D4CF1F920F920FB60F92C5
:1042800011242F933F938F939F93AF93BF9380916C
:10429000430690914406A0914506B09146063091A0
:1042A000420623E0230F2D3768F126E8230F0296FC
:1042B000A11DB11D209342068093430690934406AE
:1042C000A0934506B0934606809147069091480614
:1042D000A0914906B0914A060196A11DB11D809397
:1042E000470690934806A0934906B0934A06BF91AB
:1042F000AF919F918F913F912F910F900FBE0F9093
:104300001F9018950196A11DB11DD4CF1F920F9239
:104310000FB60F9211242F933F934F935F936F9398
:104320007F938F939F93AF93BF93EF93FF93E0910E
:104330000601F09107010995FF91EF91BF91AF91AF
:104340009F918F917F916F915F914F913F912F91AD
:104350000F900FBE0F901F9018951F920F920FB6DF
:104360000F9211242F933F934F935F936F937F93FB
:104370008F939F93AF93BF93EF93FF93E0910401CB
:10438000F09105010995FF91EF91BF91AF919F9138
:104390008F917F916F915F914F913F912F910F90EE
:1043A0000FBE0F901F9018951F920F920FB60F928D
:1043B00011242F933F934F935F936F937F938F932A
:1043C0009F93AF93BF93EF93FF938091810690915A
:1043D0008206A0918306B0918406892B8A2B8B2BB1
:1043E000D1F190917C06E0917D06F0917E0680816E
:1043F000892780838091810690918206A09183060F
:10440000B0918406181619061A061B069CF48091B2
:10441000810690918206A0918306B091840601974F
:10442000A109B1098093810690938206A093830627
:10443000B0938406FF91EF91BF91AF919F918F91BF
:104440007F916F915F914F913F912F910F900FBE90
:104450000F901F90189580910A010E942107EACFC2
:104460001F920F920FB60F9211248F930FB6F894EC
:10447000A895809160008861809360001092600030
:104480000FBE8F910F900FBE0F901F9018951F9227
:104490000F920FB60F9211242F933F934F935F9378
:1044A0006F937F938F939F93AF93BF93EF93FF93FC
:1044B0008091B900887F803609F44AC0F0F58832CF
:1044C00009F4A7C018F5803109F49BC0B8F488231B
:1044D00009F405C1883009F494C0FF91EF91BF91B0
:1044E000AF919F918F917F916F915F914F913F918C
:1044F0002F910F900FBE0F901F901895883109F4DF
:1045000088C0803251F78093550614C0803409F476
:10451000A5C040F48033B9F38833F9F6809355068B
:1045200085ECBCC0803509F489C0883509F49EC08B
:10453000883499F60E949C09D0CF883909F494C038
:1045400038F5883729F050F4883611F0803729F68D
:1045500083E0809357061092E10557C0883809F42C
:1045600083C0803919F0803809F0B7CF8091E10518
:10457000803208F079C0E091E10581E08E0F8093F0
:10458000E1058091BB00F0E0EF53FA4F80833DC01E
:10459000803B39F0E0F4803A09F485C0883A09F0AC
:1045A0009CCF84E0809357061092C0051092BF05FF
:1045B000E0911F06F091200609958091BF058111B9
:1045C0000FC081E08093BF0510929F0509C0803C19
:1045D00009F4A6CF883C09F4A3CF883B09F07DCF2E
:1045E000E091C00581E08E0F8093C005F0E0E156B8
:1045F000FA4F80818093BB009091C0058091BF05E8
:1046000031C0809150068093BB0085EC8093BC0044
:1046100064CF90915206809151069817B8F5809119
:10462000530690915406E091520621E02E0F2093FC
:104630005206E80FF92FF11D8081E5CF2091530636
:1046400030915406E091520681E08E0F809352061D
:104650008091BB00E20FF32FF11D808390915206F1
:1046600080915106981788F285E8D0CF20915306A3
:1046700030915406E091520681E08E0F80935206ED
:104680008091BB00E20FF32FF11D808380915606CD
:10469000811150CF81E080934F0684EA8093BC0063
:1046A000109257061ACF85EC8093BC0010925706E3
:1046B0008091E105803230F4E091E105F0E0EF53C4
:1046C000FA4F10826091E10570E0E0911D06F091D3
:1046D0001E0681EC95E009951092E105FECE109240
:1046E000550628CF1F920F920FB60F9211242F93C9
:1046F0003F934F935F936F937F938F939F93AF936A
:10470000BF93EF93FF93E0914D06F0914E063097E3
:1047100049F0A685B7858585968D91FF14C09C913B
:104720008923A1F4FF91EF91BF91AF919F918F9158
:104730007F916F915F914F913F912F910F900FBE9D
:104740000F901F9018959C91892361F7A389B489D4
:104750009C918589809589238C9386899789019777
:10476000F1F7608D718DA685B785558538E020E01D
:10477000CB010197F1F7822F90E095958795282F2F
:104780004C91452309F02068315091F7868D81FDC9
:10479000209580914C0690E001968F739927309177
:1047A0004B06381799F0A0914C06B0E0A15ABA4FC9
:1047B0002C9380934C06828D938D0197F1F7A389FA
:1047C000B4898C919589892B8C93ACCF868D81602F
:1047D000868FF1CF8FEF8093A2061092A4061092DD
:1047E000A3061092AE061092AD068FEF9FEFDC018C
:1047F0008093A9069093AA06A093AB06B093AC064B
:104800001092B2061092B10688EE93E0A0E0B0E0FC
:104810008093B3069093B406A093B506B093B60602
:1048200026EA31E03093B0062093AF061092CE0610
:104830001092CD068093CF069093D006A093D10618
:10484000B093D20688EB91E09093CC068093CB0690
:104850001092E2061092E1061092E4061092E3062E
:104860001092E6061092E5061092E8061092E7060E
:104870006091E9066E7F6D7F6093E90666956170D1
:1048800081E0682784E00E94C10261E084E00E9428
:10489000EF02E7EDF1E0E491E093DB06E0ECF1E01C
:1048A000E491F0E0EE0FFF1FEE54FE4F85919491DE
:1048B0009093DD068093DC0660E085E00E94EF02C5
:1048C0008091E90681FD04C061E085E00E94C1029B
:1048D00085E08093D706E8EDF1E0E491E093D80617
:1048E000E1ECF1E0E491F0E0EE0FFF1FE855FE4F40
:1048F000859194919093DA068093D9061092BC0624
:104900001092BB0685E48093BE061092C3061092F7
:10491000C4061092C5061092C6061092C7061092E1
:10492000C8061092C9061092CA060895CF93DF9365
:10493000CDB7DEB7AD970FB6F894DEBF0FBECDBFD3
:10494000789484B5836084BD85B5836085BD80918E
:104950006E00816080936E0082E080938100809180
:1049600081008160809381008091800081608093CC
:1049700080008091B10084608093B1008091B0008C
:1049800081608093B00087E880937A001092C10024
:1049900080E993E00E94BF1691E0813009F090E039
:1049A00090933E06813031F48AE0809303018BE0DE
:1049B0008093020161E086E00E94EF0261E0809155
:1049C00003010E94EF0261E0809102010E94EF0268
:1049D00062E082E00E94EF0260E083E00E94EF026A
:1049E0000E940C108091640084608093640080B702
:1049F000806880BF80913E06811110C08DB1807F9C
:104A00008DB98EB18F608EB9809164008061809382
:104A10006400809165008D638093650081E993E077
:104A20000E94BF16813021F50E94FC0E0197873647
:104A30009041F0F462E370E080E090E00E94C205F3
:104A40000E94FC0E01978736904190F480917A0085
:104A50008F7780937A0083B7817F846083BF83B729
:104A6000816083BF85B7806685BF8F7D85BF889550
:104A700068E27AE086E490E00E94AE108EE00E9448
:104A800080056C01990FEE08FF080E949D058B01BF
:104A90009C01C701B6016027712782279327C016A2
:104AA000D106E206F30611F00E94852B62E08EE04B
:104AB0000E94EF0280913E06882309F4F2C061E073
:104AC00087E00E94EF0260E087E00E94C10261E09F
:104AD00088E00E94EF0260E088E00E94C10261E08D
:104AE00089E00E94EF0260E089E00E94C102A0E339
:104AF000EA2EA6E0FA2E10E000E0C8018F5F9C4F7E
:104B00000E94BF169FEF980F9E3F08F447C1F8011F
:104B1000E05DF94F108283E090E00E94BF16809321
:104B20002F06823010F010922F066BE276E085E0BF
:104B300090E00E94991667E276E08FE090E00E9494
:104B400099168091BB069091BC06892BA9F486E04A
:104B500090E00E949D33FC018091BE0680838FEA25
:104B600096E092838183138280E290E09583848330
:104B7000F093BC06E093BB06E090BB06F090BC0649
:104B800010922206109221061092590610927B066E
:104B90000E94CD098CE197E09093200680931F0638
:104BA0008DE197E090931E0680931D0611E0F701BA
:104BB0001383C7010E94EB098111FBC010922606E6
:104BC00080E093E00E94BF1680932506893210F0A2
:104BD0001092250683E993E00E94BF168093240675
:104BE000833010F01092240682E993E00E94BF16F1
:104BF000809308019CEF980F963028F08C3019F0C4
:104C000088E0809308018FE893E00E94BF1691E04E
:104C1000813009F090E090934106813029F460E002
:104C20008FE893E00E94C11683E00E9498020197EA
:104C300019F481E08093410681E993E00E94BF1658
:104C400091E0813009F090E090933F0660E679E0D2
:104C500080E090E00E949D018091410681119AC3FD
:104C60008EE893E00E94BF16893C09F005C181E0FF
:104C70008093230616E080912306811176C311509C
:104C800009F478C36AEF70E080E090E00E94C2050A
:104C90000E94A82091E0811101C090E0909323062A
:104CA000EACF80911506811145C010920706109237
:104CB00006068FEF80930A0680930B0680930C06FE
:104CC00080930D0680930E0680930F0681E08093FB
:104CD00010061092120610921106109209061092F8
:104CE000080680919C0690919D06892B31F484E002
:104CF00096E090939D0680939C06E0910206F091C9
:104D00000306309721F084E096E09583848384E065
:104D100096E0909303068093020610921406109278
:104D200013068EE791E0909305068093040681E0D8
:104D300080931506239A8DE896E09093070680935A
:104D4000060683E090E0909312068093110680910E
:104D5000A5069091A606A091A706B091A806843C4E
:104D6000F9E09F07A105B10520F484EC99E0A0E0EB
:104D7000B0E08093A5069093A606A093A706B093F3
:104D8000A80682E38093A20619821A821B82CE01B2
:104D900001960E942D010E940106A9CEF701819380
:104DA0007F0110820F5F1F4F0B30110509F0A5CE58
:104DB000B2CE80E090E1A0E0B0E08093BF06909397
:104DC000C006A093C106B093C2068AE090E0A0E0BE
:104DD000B0E08093C3069093C406A093C506B09339
:104DE000C60680E090E0A0E0B0E48093C706909310
:104DF000C806A093C906B093CA068091BB069091DD
:104E0000BC0618A619A61AA61BA69A8F898F1C8EF7
:104E10001B8E1AA385E090E098A38F8F1BA302E05E
:104E200009A322E040E050E160E070E0CE01499645
:104E30000E94E0088091BB069091BC06188A198AEE
:104E40001A8A1B8A9A8389831C821B821A87188676
:104E50001F821B87098722E04FE959E360E070E079
:104E6000CE0101960E94E0088093BD0610932606AD
:104E700081E00E94D712A4CE83E00E94980201979D
:104E800009F4F8CE0E94E5140E94A82091E0811157
:104E900001C090E0909323068EE893E00E94BF1635
:104EA0008DA785E993E00E94BF16782EFFEF8F1340
:104EB00001C0712C72E0672E670CE0E3EE2EE6E095
:104EC000FE2EF6EECF2EF1E0DF2ECE0101965C0134
:104ED0004E019DE2890E911C8091230681113FC2F3
:104EE000EDA5E93C09F4C6CEF2E0F71508F4C2CE10
:104EF000761409F4BFCE83E00E949802892B09F052
:104F0000B9CE7394672D85E993E00E94C11660EBDA
:104F100074E082E390E00E94AE1060EB74E082E304
:104F200090E00E94AE1080913E06882309F450C0A4
:104F30000EE811E0F80161917191819191918F01D9
:104F40000E949D016EE170E080E090E00E94C20549
:104F500066E0562E68E270E089EC92E00E948814C8
:104F60005A945110F7CF68E770E084E095E00E9412
:104F700088146CE370E083E292E00E9488146CE392
:104F800070E08CE292E00E9488146CE370E085E3AC
:104F900092E00E9488146CE370E08EE392E00E943D
:104FA00088146CE370E087E492E00E94881460E566
:104FB00070E080E592E00E94881460E570E08BE587
:104FC00092E00E948814F1E0023A1F0709F0B2CF84
:104FD0000EE811E0F80161917191819191918F0139
:104FE0000E949D016EE170E080E090E00E94C205A9
:104FF00068E270E089EC92E00E94881468E270E058
:1050000089EC92E00E94881468E270E089EC92E0FA
:105010000E94881468E770E084E095E00E9488149C
:105020006AEF70E08DE095E00E94881466E970E018
:1050300086E195E00E94881468E572E080E090E0E7
:105040000E94C20582EA91E08017910719F660E696
:1050500079E080E090E00E949D016CED75E080E0D9
:1050600090E00E94C2058BEC96E00E94500B892BC9
:1050700029F08BEC96E00E94660BF5CF66E970E0B4
:105080008FE195E00E94881466E970E08DE095E07C
:105090000E94881466E970E084ED91E00E94881413
:1050A00066E970E088E092E00E94881466E970E0AA
:1050B0008AE295E00E94881466E970E083E395E057
:1050C0000E94881466E970E08CE395E00E948814E1
:1050D0000E94A82080913006882309F44AC0FF92DC
:1050E000EF92DF92CF921F9298E19F93BF92AF927F
:1050F0000E94C43584E1E8E1F1E0DE0159960190B7
:105100000D928A95E1F78E01075E1F4F0FB6F89456
:10511000DEBF0FBECDBFF801619171918191919178
:105120008F010E949D016EE170E080E090E00E949E
:10513000C20562E370E089EC92E00E94881464E6A4
:1051400070E084E095E00E94881464EB70E0C50193
:105150000E94881480169106F1F660E679E080E0FE
:1051600090E00E949D0164E670E080E090E00E9483
:10517000C2050E94E51466E970E085E495E00E94AE
:10518000881483E00E949802019751F10E94511403
:10519000811126C08BEC96E00E94500B892B29F0E0
:1051A0008BEC96E00E94660BF5CF65EF74E08BEC1C
:1051B00096E00E9410140E94F5051B012C010E942C
:1051C000F5056219730984099509623C71408105EE
:1051D000910558F48BEC96E00E94500B892B79F3E3
:1051E00069EC8EE893E00E94C11666E970E086E102
:1051F00095E00E9488146CED75E080E090E00E94DC
:10520000C2058BEC96E00E94500B892B29F08BECA9
:1052100096E00E94660BF5CF0E94E5140E94A8203C
:1052200091E0811101C090E09093230655CE8EE865
:1052300093E00E94BF1614E0893C09F4A0C060E925
:1052400071E080EA90E00E94AE101150C1F78FEF3C
:1052500089831A821B8248EC50E062E0CE010196FD
:105260000E94751080E1ECE2F1E0DE011196019000
:105270000D928A95E1F78E010F5F1F4FF12CF80117
:1052800061917191819191918F010E949D016EE1D7
:1052900070E080E090E00E94C2050E9451148823D3
:1052A00069F164EF71E080E090E00E94C20510E0D7
:1052B00068E27AE08CE890E00E94AE1064EB70E067
:1052C00080E090E00E94C2051F5FF11688F7F110A0
:1052D0000EC00E94E51468EC70E080E090E00E944F
:1052E000C20560E87CE08AE590E00E94AE1060E6CE
:1052F00079E080E090E00E949D014CC00E94A820CF
:105300008111CFCFF394F4E0FF12B9CFF0CF8091A9
:1053100069008C7F826080936900E89A909207010F
:1053200080920601809169008C6080936900E99AFF
:1053300083B7817F83BFF89483B7816083BF7894FC
:10534000889583B78E7F83BFE898F0920501E0923D
:105350000401E998F0920701E0920601EDC060E0D7
:1053600085E993E00E94C11685CC69EC8EE893E054
:105370000E94C11680912306882309F458CF198210
:1053800080E88A831B8248E750E062E0CE01019604
:105390000E9475108FE6C82E84E0D82E9CE0592E0E
:1053A0008E010F5F1F4F20E0622E20E0722E33E14E
:1053B000A32E37E0B32E47E1842E47E0942E5BE125
:1053C000E52E57E0F52E4424439480910901811184
:1053D00004C080914106882331F010920901109297
:1053E00041060E94A5190E940C1080913F06882357
:1053F00009F446C080913E06811142C080910801A7
:105400008C30F1F183E00E949802892BC9F568EC99
:1054100070E087E594E00E94881460E971E080E024
:1054200090E00E94C20564E670E086E792E00E9488
:105430008814809108011F928F93DF92CF921F9260
:105440005F921F930F930E94C4356CE370E0C80114
:105450000E94881468EC70E080E090E00E94C20531
:105460006CE370E0C8010E94881468EC70E080E092
:1054700090E00E94C2050FB6F894DEBF0FBECDBF0C
:1054800010923D061092400610923C0683E00E9466
:105490009802B0920501A0920401892B09F037CF40
:1054A000809169008C7F80936900E89A8091680000
:1054B00084608093680080916D00886080936D00A7
:1054C00030907A0080917A008F7780937A0083B74A
:1054D000817F846083BFF89483E00E949802892BC7
:1054E000B9F480914006811113C08BEC96E00E94C4
:1054F000500B892B69F483B7816083BF85B78066C1
:1055000085BF8F7D85BF7894889583B78E7F83BF55
:10551000789430927A0080916D00877F80936D003F
:10552000E898F0920501E092040183E00E9498025D
:10553000019711F440923D068091400681110E942E
:10554000D5160E94A5196114710409F43ECF0E947A
:10555000000039CF8091BB069091BC060E9439347F
:1055600088EB91E09093CC068093CB0680914D061A
:1055700090914E068B5C964071F4E091DE06F091BE
:10558000DF0690818091E0068095892380831092C8
:105590004E0610924D060895EF920F931F93CF93EE
:1055A000DF93E80134E047FD34E1042E000C550B95
:1055B00057FF03C0519541955109E32E022F242F27
:1055C000AE010E94BE2DCE01DF91CF911F910F91B0
:1055D000EF9008958F929F92AF92BF92CF92DF92F9
:1055E000EF92FF92CF93DF93EC01688179818A81FA
:1055F0009B81611571058105910521F464E279EDC6
:105600008BE597E02DE133EF41E050E00E94DA3185
:1056100049015A019B01AC01A7EAB1E40E94F931AA
:105620006B017C01ACEEB4EFA50194010E9407323E
:10563000C60ED71EE81EF91EF7FE06C081E0C81A86
:10564000D108E10880E8F80AC882D982EA82FB82A0
:10565000C701B6019F77DF91CF91FF90EF90DF9068
:10566000CF90BF90AF909F908F9008958F929F9210
:10567000AF92BF92CF92DF92EF92FF9260910B01B7
:1056800070910C0180910D0190910E0161157105D1
:105690008105910521F464E279ED8BE597E02DE138
:1056A00033EF41E050E00E94DA3149015A019B0199
:1056B000AC01A7EAB1E40E94F9316B017C01ACEEC8
:1056C000B4EFA50194010E940732C60ED71EE81E52
:1056D000F91EF7FE06C081E0C81AD108E10880E88B
:1056E000F80AC0920B01D0920C01E0920D01F092E9
:1056F0000E01C701B6019F77FF90EF90DF90CF902A
:10570000BF90AF909F908F90089560930B0170931E
:105710000C0180930D0190930E010895FC018827E0
:105720009927E89421912032E9F3293010F02E30A6
:10573000C8F32B3241F02D3239F4689404C00E9432
:10574000AC2B820F911D219120532A30C0F31EF4FF
:10575000909581959F4F08957AE0979F902D879F10
:10576000802D910D11240895AEE0B0E0EAEBFBE24C
:105770000C941A320D891E898F89988D2EE02C8306
:105780001A83098397FF02C080E090E801979E8307
:105790008D83AE01455E5F4F698D7A8DCE01019696
:1057A0000E94E42B4D815E8157FD0AC02F81388510
:1057B000421753070CF49A01020F131FF8011082CD
:1057C0002E96E4E00C943632ABE0B0E0EAEEFBE279
:1057D0000C940C327C013B018A01FC011782168279
:1057E000838181FFC8C1CE0101965C01F7019381DD
:1057F000F30193FD859193FF81913F01882309F483
:1058000053C1853239F493FD859193FF81913F0116
:10581000853229F4B70190E00E941430E7CF912C33
:10582000212C312CFFE1F31538F08B3211F190F47B
:10583000803209F1833229F137FC3CC020ED280F7A
:105840002A3050F536FE20C08AE0989E200D1124A3
:10585000922E06C08D3291F0803371F7689430F843
:10586000F30193FD859193FF81913F018111DACF7F
:1058700021C0689431F8689432F8F2CF689433F814
:10588000EFCF689434F8ECCFEAE02E9E200D11247F
:10589000222E689435F8E4CF8E3229F436FC04C108
:1058A000689436F8DDCF8C3619F4689437F8D8CF81
:1058B0008836B1F2982F9F7D95549330E0F083366F
:1058C000A1F18337C1F1833509F063C02801F2E00B
:1058D0004F0E511CF801C080D180692D70E036FC5C
:1058E00002C06FEF7FEFC6010E94FE2F4C0168944B
:1058F00037F882010AC00C5F1F4FFFE3F983882449
:105900008394912C6501E89437F833FE2DC0522C16
:105910008114910471F5552009F468CFB70180E234
:1059200090E00E9414305A94F6CFF8018081898368
:105930000E5F1F4FE4CF2801F2E04F0E511CF8011B
:10594000C080D180692D70E036FC02C06FEF7FEF20
:10595000C6010E9409304C018201D5CFB70180E217
:1059600090E00E9414302A942814190409F0B0F72A
:10597000CECFF60137FC859137FE81916F01B701DB
:1059800090E00E94143051105A94F1E08F1A91085F
:10599000BFCF843619F0893609F077C0F80137FE99
:1059A0006BC060817181828193810C5F1F4FF32DE9
:1059B000FF763F2E97FF09C0909580957095619571
:1059C0007F4F8F4F9F4F689437F82AE030E0A50152
:1059D0000E944430C82ECA188C2C432C36FE0CC0B2
:1059E000E89440F8C91440F434FE05C032FC03C00A
:1059F000F32DFE7E4F2E892C44FE95C0FE01EC0D4A
:105A0000F11D8081803309F087C0242D297E422E2C
:105A1000842D8870582E43FC95C040FE8FC09C2C6E
:105A2000821418F42C0C922C981844FE91C0B701E3
:105A300080E390E00E94143042FE09C088E790E0C5
:105A400041FE02C088E590E0B7010E941430C914FD
:105A500008F48AC0CA94D12C9FEFC91AD90ACA0C7B
:105A6000DB1CF60182916F01B70190E00E941430B7
:105A7000AC14BD04B1F74FCF60817181072E000CCB
:105A8000880B990B0E5F1F4F92CFD32CE894D4F85C
:105A90002AE030E0853739F1232D297FD22E8F3649
:105AA00001F148F48835A9F0F701868197812B969A
:105AB000E2E10C942832803749F08837A9F7D4FE08
:105AC00002C06894D2F820E130E00DC06894D4F8A8
:105AD000F6CF34FE03C0822F8660D82E20E132E05C
