:100000000C9410010C94D9230C94B2230C949E25CB
:100010000C949E250C949E250C945C240C94002436
:100020000C9448010C9448010C9448010C9448012C
:100030000C9448010C9448010C9448010C9448011C
:100040000C9468230C9448010C9448010C944801CA
:100050000C9448010C9448010C9448010C944801FC
:100060000C9473240C94480100407A10F35A00A0B9
:10007000724E18090010A5D4E80000E87648170071
:1000800000E40B54020000CA9A3B000000E1F505B1
:10009000000080969800000040420F000000A086FB
:1000A00001000000102700000000E803000000002D
:1000B0006400000000000A000000000001000000D1
:1000C00000002C76D888DC674F0823DFC1DFAE59EB
:1000D000E1B1B796E5E3E453C63AE651997696E87E
:1000E000E6C28426EB898C9B62ED407C6FFCEFBC02
:1000F0009C9F40F2BAA56FA5F490055A2AF75C932D
:100100006B6CF9676DC11BFCE0E40D47FEF520E662
:10011000B500D0ED902E0300943577050080841E45
:10012000080000204E0A000000C80C333333330FA0
:10013000986E12831141EF8D2114893BE65516CF3D
:10014000FEE6DB18D1844B381BF77C1D901DA4BB49
:10015000E424203284725E228100C9F124ECA1E5FE
:100160003D275643434D494E3A2575005643433A81
:10017000257500435554533A257500424F44533A70
:10018000257500424F4F54533A2575005253543A47
:10019000256300555054494D453A256C75004D4F27
:1001A000534645543A2575004D4F534645543A3110
:1001B000322D4155544F0000000000240027002A32
:1001C0000000000009000302000004050800000010
:1001D00000000000000000000200000000230026D4
:1001E00000290000000000250028002B0004040462
:1001F00004040404040202020202020303030303D0
:1002000003020203010204081020408001020408D6
:100210001020010204081020408040001626102DF6
:1002200011241FBECFEFD8E0DEBFCDBF84B78093CF
:10023000040714BE14BE0FB6F894A8958091600010
:10024000886180936000109260000FBE15E0A0E00E
:10025000B1E0EEECF0E702C005900D92A036B107D8
:10026000D9F727E0A0E6B5E001C01D92A430B2079F
:10027000E1F711E0CFE0D1E004C02197FE010E9438
:10028000FD35CE30D107C9F70E94C2260C945A38EA
:100290000C940000DC01E3EAF6E02D913D914C91D5
:1002A00012972083318342832D913D914C91129777
:1002B0002383348345838D919D91AC91868397836D
:1002C000A0870895282F9091910681E0913208F03F
:1002D00042C080916D068111FCCF8091900632E082
:1002E00030936D0620936C062FEF20936B0620E76A
:1002F00036E030936A062093690610926806909360
:1003000067061092660690916606880F892B809387
:10031000660680916506813029F510926506809108
:1003200066068093BB008091BC0083FDF8CF85EC0E
:100330008093BC0080916D068230E1F380916B0662
:100340008F3F91F080916B06803281F080916B0637
:10035000803371F084E010926F0610929106109233
:100360006E06089585EEE4CF80E0F5CF82E0F3CF0E
:1003700083E0F1CF9B01AC011092FC061092FB06CA
:100380001092FA061092F9061092F8061092F706EB
:1003900060E079E08DE390E00E944034B901C9014A
:1003A00003972430310510F481E090E09093FE062D
:1003B0008093FD068091ED06873108F063C0F90156
:1003C000F695E795E431F10508F48CC07397F09346
:1003D000F806E093F7066630710508F486C0B901A7
:1003E000655071097093FA066093F906B901660FBA
:1003F000771F260F371F36952795369527952D3071
:10040000310508F475C02C5031093093FC06209357
:10041000FB062091680094E0883054F091E08E3023
:100420003CF092E0843124F091E0863109F490E0D0
:10043000922B909368002DE630E0883074F08E3077
:100440000CF459C084313CF086310CF454C030E0D7
:1004500020E0863111F42CE630E03093F50620934D
:10046000F40688300CF04AC091E001C0990F8A95DB
:10047000EAF7892F8093F6068091FD069091FE069B
:100480000197F1F78091FB069091FC06892B49F1C9
:10049000E0916306F091640686E0E13EF80709F119
:1004A000309739F0A389B4899C91858980958923F7
:1004B0008C938091FF068E7F8093FF0610926206D8
:1004C0001092610681EE96E0909364068093630635
:1004D000E091F406F091F50680819091F606892B63
:1004E00080830895E1E0F0E072CF61E070E07ACFC0
:1004F00021E030E08ACF2BE630E0AFCF8E3014F42D
:100500008850B2CF863114F48E50AECF863111F4BC
:1005100080E4B0CF80E0AECF843081F028F4823028
:10052000E9F08330F9F00895883071F0893091F066
:100530008530B9F4809180008F7D03C08091800068
:100540008F778093800008958091B0008F7780939B
:10055000B00008958091B0008F7DF9CF84B58F777A
:1005600084BD089584B58F7DFBCFCF93DF93282F73
:1005700030E0F901EF53FE4F8491F901EC5FFD4F3C
:10058000D491F901E351FE4FC491CC23A1F0811124
:100590000E948C02EC2FF0E0EE0FFF1FE752FE4F9F
:1005A000A591B491EC91ED2381E090E009F480E015
:1005B000DF91CF91089580E090E0FACF1F93CF9321
:1005C000DF93282F30E0F901EF53FE4F8491F901BA
:1005D000EC5FFD4FD491F901E351FE4FC491CC2360
:1005E000A9F0162F81110E948C02EC2FF0E0EE0F83
:1005F000FF1FED51FE4FA591B4918FB7F894EC9188
:10060000111108C0D095DE23DC938FBFDF91CF910D
:100610001F910895DE2BF8CFCF93DF9390E0FC017C
:10062000EC5FFD4F249183519E4FFC018491882300
:10063000C9F090E0880F991FFC01E954FE4FA59185
:10064000B491FC01ED51FE4FC591D49161110DC0E3
:100650009FB7F8948C91209582238C9388812823CE
:1006600028839FBFDF91CF910895623051F49FB7E7
:10067000F8943C91822F809583238C93E8812E2BD4
:10068000EFCF8FB7F894EC912E2B2C938FBFEACF3E
:100690004F925F926F927F928F929F92AF92BF9292
:1006A000CF92DF92EF92FF920F931F93CF93DF933E
:1006B00000D000D01F92CDB7DEB78C012A013B01DC
:1006C00080910A018630C9F08F3F09F4B6C00F90BF
:1006D0000F900F900F900F90DF91CF911F910F917E
:1006E000FF90EF90DF90CF90BF90AF909F908F9052
:1006F0007F906F905F904F900895E8EDF1E08491C6
:100700008D8387FDE4CF61E086E00E940C038D813C
:10071000882321F09D81923009F04FC14801B12C0E
:10072000A12C60E072E18AE790E0A50198010E94A7
:10073000403429833A834B835C8369017A0181E0E9
:10074000C81AD108E108F1089FEFC916D104E104E5
:10075000F10409F00CF412C160E472E48FE090E05F
:10076000A50198010E94403469017A0181E0C81A0C
:10077000D108E108F1089D81923009F07BC18FEF2B
:10078000C816D104E104F10409F00CF4D0C160E909
:1007900070ED83E090E0A50198010E94403469016A
:1007A0007A0191E0C91AD108E108F1088FEFC81663
:1007B000D104E104F10409F00CF4BBC168E478EE63
:1007C00081E090E0A50198010E94403469017A011E
:1007D00091E0C91AD108E108F1088FEFC816D104D9
:1007E000E104F10411F00CF099C084E09091B100A3
:1007F000987F892B8093B1002FEF3FEFA90141141F
:1008000051046104710409F0CAC09D81913009F45A
:10081000FEC0923009F41EC1911159CFC7BC20937C
:100820009F063093A0064093A1065093A2068091A4
:100830006E00826080936E004ACF86E080930A014A
:10084000E8EDF1E094919D839F3F09F440CF913012
:1008500029F158F0923009F43FC08D8187FD37CFE0
:1008600061E086E00E940C0355CF14BC15BC84B532
:10087000826084BD85B5816085BDE3EFF1E0E491E0
:10088000F0E0EE0FFF1FED51FE4F85919491EAE0ED
:10089000F2E0E491E09396061D8235CF109280003D
:1008A0001092810080918100886080938100809106
:1008B0008100816080938100E3EFF1E0E491F0E05A
:1008C000EE0FFF1FED51FE4F85919491EAE0F2E0AB
:1008D000E491E093950617CF1092B0001092B1000A
:1008E0008091B00082608093B0008091B1008160FF
:1008F0008093B100E3EFF1E0E491F0E0EE0FFF1F31
:10090000ED51FE4F859194919093940680939306B8
:10091000EAE0F2E0E491E0939206F5CE64E274EF4F
:1009200080E090E0A50198010E94403469017A01BD
:1009300091E0C91AD108E108F1088FEFC816D10477
:10094000E104F10409F008F4F6C062E17AE780E01E
:1009500090E0A50198010E94403469017A0191E07C
:10096000C91AD108E108F1088FEFC816D104E104D3
:10097000F10411F008F0C9C086E038CF81E09D8114
:10098000911134CF95B5987F892B85BD2FEF3FEF1F
:10099000A901411451046104710409F43FCFD80145
:1009A000AA0FBB1FA30192010E945F3428EE33E01F
:1009B00040E050E00E94A93428CFB12CA12C60E087
:1009C00072E18AE790E0A50198010E944034690134
:1009D0007A0181E0C81AD108E108F108C114D104F4
:1009E00091E0E906F1042CF591E08D81813009F068
:1009F00003CF80918100887F892B809381002FEF26
:100A00003FEFA901411451046104710441F6D092F1
:100A10008900C092880020939B0630939C064093E7
:100A20009D0650939E0680916F00826080936F00B8
:100A30004ECE68E478EE81E090E0A50198010E9436
:100A4000403469017A0181E0C81AD108E108F1084F
:100A500093E0CBCFC092B3002093970630939806D3
:100A60004093990650939A0680917000826080931B
:100A700070002DCE82E09FEFC916D104E104F1048D
:100A800009F00CF47CCF68E478EE81E090E0A501F9
:100A900094010E94403469017A0191E0C91AD10899
:100AA000E108F1088FEFC816D104E104F10409F060
:100AB00014F483E064CF62E17AE780E090E0A5017E
:100AC00094010E94403469017A0181E0C81AD1087A
:100AD000E108F10884E09FEFC916D104E104F104B4
:100AE00009F008F44CCFC980DA80EB80FC808AE002
:100AF000F594E794D794C7948A95D1F791E0C91AF1
:100B0000D108E108F10885E03ACFC980DA80EB80AE
:100B1000FC809AE0F594E794D794C7949A95D1F71E
:100B200081E0C81AD108E108F10887E05FCE82E0D1
:100B30005DCE83E05BCE85E059CE8E50806480939D
:100B40007C0080917A00806480937A0080917A00A2
:100B500086FDFCCF809178009091790008958230D5
:100B6000910538F0880F991F880F991F05970197F5
:100B7000F1F708953FB7F89480915D0690915E0675
:100B8000A0915F06B091600626B5A89B05C02F3FD7
:100B900019F00196A11DB11D3FBFBA2FA92F982FA3
:100BA0008827BC01CD01620F711D811D911D42E09E
:100BB000660F771F881F991F4A95D1F708958F9266
:100BC0009F92AF92BF92CF92DF92EF92FF926B0112
:100BD0007C010E94BA054B015C01C114D104E104FF
:100BE000F104B9F00E94BA05681979098A099B09CC
:100BF000683E73408105910580F321E0C21AD10857
:100C0000E108F10888EE880E83E0981EA11CB11C53
:100C1000E4CFFF90EF90DF90CF90BF90AF909F9088
:100C20008F9008952FB7F8946091590670915A06E5
:100C300080915B0690915C062FBF08954F925F9262
:100C40006F927F929F92AF92BF92CF92DF92EF927C
:100C5000FF920F931F93CF93DF9300D01F92CDB7D6
:100C6000DEB7D090B8068091BB069091BC06A091EB
:100C7000BD06B091BE06892B8A2B8B2BD9F00E9422
:100C8000BA050091B4061091B5062091B6063091D0
:100C9000B706601B710B820B930B0091BB06109182
:100CA000BC062091BD063091BE0660177107820711
:100CB0009307C8F20E94BA056093B4067093B50614
:100CC0008093B6069093B706E091C306F091C406F0
:100CD000309759F04091BF065091C0066091C1060F
:100CE0007091C2068D2D0995D82EE090B206F09035
:100CF000B3064D2C512C712C612CE114F10409F434
:100D000059C0D7011C96CC901C978091B906909140
:100D1000BA068436910510F41C961C92D701ED9109
:100D2000FC91A280B38019821A821B82DD2079F1A6
:100D3000F701369610E000E02191222319F192800C
:100D4000992001F130E050E040E02F5F3F4F4F4FDE
:100D50005F4FC301B2010E94BE359B01AC01892DDA
:100D600090E0B0E0A0E0BC01CD016F5F7F4F8F4FFE
:100D70009F4F0E94BE35A1E0B0E0AC0FBD1FA00F99
:100D8000B11F8C930F5F1F4F03301105A9F6098126
:100D90001A812B81F7014585568562817381C701D0
:100DA000F5010995D7011C96CC921C971496ED90ED
:100DB000FC90A3CF8091B0069091B1068C010F5F9B
:100DC0001F4F1093B1060093B0064997B4F10E94EB
:100DD0001206C090AC06D090AD06E090AE06F09042
:100DE000AF069B01AC012C193D094E095F0921F4A6
:100DF00021E030E040E050E088EE93E0089FB00151
:100E0000099F700D189F700D1124072E000C880B80
:100E1000990B0E94A9343093BA062093B906109218
:100E2000B1061092B0060E9412066093AC06709351
:100E3000AD068093AE069093AF060F900F900F9083
:100E4000DF91CF911F910F91FF90EF90DF90CF90A6
:100E5000BF90AF909F907F906F905F904F9008955C
:100E600081E080935606089581E0809353060895AB
:100E700008950895089580E991E0089590910A01F8
:100E800089130BC0E8EDF1E0E4919FEF90930A0124
:100E9000E13049F028F0E23061F060E00C94DE02CD
:100EA00010926E00FACF90916F009D7F90936F002B
:100EB000F4CF909170009D7F9093700091E090939B
:100EC000B0009091B100987F94609093B10010921F
:100ED000B300E3CFAF92BF92CF92DF92EF92FF9237
:100EE0000F931F93CF93DF936C017B018B01040F52
:100EF000151FEB015E01AE18BF08C017D10759F0EE
:100F00006991D601ED91FC910190F081E02DC6012F
:100F10000995892B79F7C501DF91CF911F910F9129
:100F2000FF90EF90DF90CF90BF90AF900895411564
:100F3000510529F4EAE7F0E080818F7780836A30F9
:100F40007105B9F0CB01880F991F880F991F807226
:100F500067706860682B88E10FB6F894A895809355
:100F600060000FBE60936000E0E6F0E08081806486
:100F70008083232BD9F483B7817F846083BFF89467
:100F800083B7816083BF85B7806685BF8F7D85BF4E
:100F90007894889583B78E7F83BF7894452B29F406
:100FA000EAE7F0E0808180688083089583B7817FDD
:100FB000846083BFF89483B7816083BF78948895F9
:100FC00083B78E7F83BF7894E9CFFC0183858F3F01
:100FD00019F061E00C94DE020895FC01808191819A
:100FE000892B39F0A281B3819C9111968C919CBD83
:100FF0008DBD83858F3F19F060E00C94DE0208956B
:10100000AF92BF92CF92DF92EF92FF920F931F9316
:10101000CF93DF93EC0188819981892B89F06EBD94
:101020000DB407FEFDCFBEB48B2DDF91CF911F9184
:101030000F91FF90EF90DF90CF90BF90AF90089509
:101040008885998511E0892B09F010E8AA24A394DA
:10105000862F812309F0A12C062F2C813D814E8102
:101060005F8160E271EA87E090E00E94A934F22E8D
:10107000B02EE12CC22ED12CFF2019F0C6010E9407
:10108000AF058A85877F09F042C08D858F3F89F043
:10109000902F912381E009F480E08A1551F0EF85CB
:1010A000F8898F89992369F19081892B8083AA24FB
:1010B000A394E989FA898081998D892B8083FF2007
:1010C00019F0C6010E94AF058E858F3F39F0EB897C
:1010D000FC898081988D892309F0E12AE989FA89C0
:1010E0009081898D8095892380838E858F3F09F03B
:1010F000BE2C88859985892BB9F5110F1111BCCFAC
:1011000093CF9081809589238083A12CD2CFE989C8
:10111000FA898081998D892B8083FF2019F0C6017F
:101120000E94AF058D858F3F49F0EF85F8898F8943
:10113000902F9123A9F09081892B8083E989FA89E6
:101140009081898D8095892380838E858F3F69F278
:10115000EB89FC898081988D892339F2E12AC5CFFA
:10116000908180958923E9CF1695C8CF8F929F9261
:10117000AF92BF92CF92DF92EF92FF920F931F93A5
:10118000CF93DF937C014B016A01B22EA32E0E9404
:10119000ED07E401C80CD91CCC15DD0569F4CB2D95
:1011A000DA2D0C0F1D1FC017D10759F06FEFC701C3
:1011B0000E9400088993F7CF6991C7010E94000837
:1011C000EBCFC7010E94E50781E0DF91CF911F912E
:1011D0000F91FF90EF90DF90CF90BF90AF909F90D6
:1011E0008F9008958F929F92AF92BF92CF92DF928D
:1011F000EF92FF920F931F93CF93DF937C01B62E54
:10120000A72E6A0149010E94ED07E401080D191D8E
:10121000C017D10761F4CB2DDA2DCC0EDD1ECC1515
:10122000DD0551F06991C7010E940008F8CF69916E
:10123000C7010E940008ECCFC7010E94E50781E0CA
:10124000DF91CF911F910F91FF90EF90DF90CF90A2
:10125000BF90AF909F908F9008951F93CF93DF938F
:10126000EA01122FDC0111968D919C91DC01ED9128
:10127000FC910280F381E02D0995C817D90729F464
:10128000812F0E94620191E0811190E0892FDF910E
:10129000CF911F910895AF92BF92CF92DF92EF92BC
:1012A000FF920F931F93CF93DF9300D0CDB7DEB79C
:1012B000DC01211103C018962C911897253008F0F5
:1012C00043C01F964D935D936D937C93529790E02E
:1012D00080E0E22EF12C8E159F05B4F41A962C9125
:1012E0001A9721110AC0FD01E80FF91F4387452F06
:1012F000562F672F77270196EECFF701E81BF90BE2
:10130000EA0FFB1F4287F3CF6D018BE0C80ED11CA3
:1013100016969C91169717968C91179799838A83A6
:10132000AD90BC901197A114B10409F441C0199675
:101330000C9110E098012E0D3F1DD50114968D9152
:101340009C918217930710F480E016C0F50181810B
:101350009281208131E030936E06209390061092A6
:101360006F06109291060115110599F421E0A7016D
:10137000B601C5010E942D090F900F90DF91CF910A
:101380001F910F91FF90EF90DF90CF90BF90AF90A3
:101390000895DC01ED91FC910280F381E02DA8011C
:1013A000BE016F5F7F4F09950817190769F6DECFF9
:1013B0001296ED91FC911397309731F214962D917E
:1013C0003C91159719960C9110E02330310571F47A
:1013D0008E7F89839A830F5F1F4F9E012F5F3F4F40
:1013E000A701B601CF010E94F208C6CF2115310531
:1013F00019F49F779983F1CF2230310511F4906869
:10140000F9CF2130310549F79F779064F3CF85ED0F
:101410008093BC008091BC0084FDFCCF10926D06CF
:1014200008952091D405260F3327331F213231052B
:10143000ECF420916D06FC0190E080E0243069F02E
:1014400082E00895A091D4052191AC014C545A4FEB
:10145000A40FB52FB11D2C930196861798F3809198
:10146000D405680F6093D40580E0089581E0089565
:1014700010926D0681E080936C061092650661E023
:1014800082E10E94DE0261E083E10E94DE02E9EB7C
:10149000F0E080818E7F808380818D7F808388E4EF
:1014A0008093B80085E48093BC000895CF93DF93C8
:1014B000EC018B818823A1F0888191E090936E06E6
:1014C0008093900610926F061092910681E00E9420
:1014D000620191E0811190E0892FDF91CF91089511
:1014E000109238061092370610926F0610929106ED
:1014F0000E94380A89E397E0909336068093350678
:101500008AE397E0909334068093330681E08B83DF
:10151000CE010E94560A982F8111CECFDDCF0895BB
:10152000E091380680913706E81730F4F0E0E95092
:10153000FA4F808190E008958FEF9FEF089590918A
:101540003806809137062FEF3FEF981748F4E92FC0
:10155000F0E0E950FA4F208130E09F5F9093380629
:10156000C90108958091370690913806891B990B1F
:101570000895CF92DF92EF92FF920F931F93CF9334
:10158000DF937C01CB018A0120916E06222389F032
:10159000EB016B01C40ED51ECC15DD0569F0699118
:1015A000D701ED91FC910190F081E02DC7010995E3
:1015B000F3CF642F0E94110AC801DF91CF911F91D0
:1015C0000F91FF90EF90DF90CF900895CF93DF932E
:1015D0001F92CDB7DEB7698320916E062223F9F002
:1015E00020919106203258F021E030E0FC01338355
:1015F000228390E080E00F90DF91CF910895809159
:101600006F06E82FF0E0E059F94F998190838F5FE2
:1016100080936F068093910681E090E0ECCF61E0CB
:10162000CE0101960E94110AF7CF209163063091F6
:1016300064062817390771F490916106809162065B
:10164000981741F0E0916106F0E0EC58FA4F808184
:1016500090E008958FEF9FEF08950F931F930E94DE
:1016600012066093E9067093EA068093EB06909366
:10167000EC0681EE96E00E94150B97FF1DC00E94BC
:1016800012060091E9061091EA062091EB063091CE
:10169000EC06601B710B820B930B0091E506109119
:1016A000E6062091E7063091E80660177107820789
:1016B0009307F8F28FEF9FEF1F910F910895EF922C
:1016C000FF920F931F93CF93DF93DC015C96ED9015
:1016D000FC905D97E114F10479F481E090E01396B9
:1016E0009C938E93129790E080E0DF91CF911F91B1
:1016F0000F91FF90EF9008955196ED91FC915297C4
:1017000050968C915097982F90950FB75E962C918C
:101710005E97122F127021FD6095F894208111239D
:1017200019F1282B2083E7012197F1F728E0462FB4
:1017300050E0308160FF1AC0382B3083E7012197D9
:10174000F1F7BA0175956795215089F7112381F05A
:101750008081892380830FBF5C968D919C91019736
:10176000F1F781E090E0C1CF2923DCCF3923E5CF29
:101770009081892BEFCF2091630630916406281762
:10178000390761F4809162062091610690E0805CE7
:101790009F4F821B91098F739927089590E080E0F5
:1017A0000895209163063091640628173907B9F42B
:1017B0009091610680916206981789F0E091610628
:1017C000F0E0EC58FA4F80812091610630E02F5F05
:1017D0003F4F2F7333272093610690E008958FEFDA
:1017E0009FEF08950F931F930E9412066093E906DE
:1017F0007093EA068093EB069093EC0681EE96E0F8
:101800000E94D10B97FF1DC00E9412060091E906AD
:101810001091EA062091EB063091EC06601B710BEB
:10182000820B930B0091E5061091E6062091E706E6
:101830003091E8066017710782079307F8F28FEF7F
:101840009FEF1F910F91089590E080E008950F930E
:101850001F93CF93DF93209173052F5F322F377043
:101860003093730520FF2BC020E831FD20643470D5
:1018700009F02062205FFC01EC01239600E011E0FA
:101880006485662329F070E0C8010E94CE356F5F41
:101890006187322F369F030E30E0311D1124311144
:1018A00010C01682662311F0615061873196EC17E3
:1018B000FD0731F7DF91CF911F910F91089520E03F
:1018C000D4CF31503683EECF4F925F927F928F927A
:1018D0009F92AF92BF92CF92DF92EF92FF920F93BF
:1018E0001F93CF93DF932C01EB010E94BA05F20105
:1018F00027853089621B730B6A307105B0F3F89449
:101900008A819B81181619060CF0CBC1E881F981F8
:1019100005B1086075B1777F75B9BA848F812B2DB9
:10192000281B822F2F834F85042E000C550BAA8174
:10193000BB81ED84DC84CE84E394D394C3949E81F4
:10194000388599848B84118120E0F32E622F322F09
:101950003181112788943111380F08F43FEF8195B8
:101960008894E0FC130F17958894E1FC130F1795EA
:101970008894E2FC130F17958894E3FC130F1795D6
:101980008894E4FC130F17958894E5FC130F1795C2
:101990008894E6FC130F17958894E7FC130F1795AE
:1019A0008894232FE110212F8B0D122F002C05B9C5
:1019B00000C017FF75B930812227889400C000C08D
:1019C000002C75B93111390F00C0002C05B900C0C9
:1019D00016FF75B908F43FEF9195889400C000C0D8
:1019E000002C75B9D0FC230F00C0002C05B900C035
:1019F00015FF75B927958894D1FC230F00C000C04E
:101A0000002C75B92795889400C0002C05B900C03A
:101A100014FF75B9D2FC230F2795889400C000C02D
:101A2000002C75B9D3FC230F00C0002C05B900C0F1
:101A300013FF75B927958894D4FC230F00C000C00C
:101A4000002C75B92795889400C0002C05B900C0FA
:101A500012FF75B9D5FC230F2795889400C000C0EC
:101A6000002C75B9D6FC230F00C0002C05B900C0AE
:101A700011FF75B927958894D7FC230F00C000C0CB
:101A8000002C75B92795889400C0002C05B900C0BA
:101A900010FF75B9132FD110122F990D00C000C07F
:101AA000002C75B900C000C0002C05B900C017FF9C
:101AB00075B932812227889400C000C0002C75B906
:101AC00031113F0D00C0002C05B900C016FF75B9DB
:101AD00008F43FEFE40FF51F00C000C0002C75B9FB
:101AE000C0FC230F00C0002C05B900C015FF75B95C
:101AF00027958894C1FC230F00C000C0002C75B945
:101B00002795889400C0002C05B900C014FF75B952
:101B1000C2FC230F2795889400C000C0002C75B923
:101B2000C3FC230F00C0002C05B900C013FF75B91A
:101B300027958894C4FC230F00C000C0002C75B901
:101B40002795889400C0002C05B900C012FF75B914
:101B5000C5FC230F2795889400C000C0002C75B9E0
:101B6000C6FC230F00C0002C05B900C011FF75B9D9
:101B700027958894C7FC230F00C000C0002C75B9BE
:101B80002795889400C0002C05B900C010FF75B9D6
:101B9000132FC110122FF19400C000C0002C75B992
:101BA000F80C00C000C005B900C017FF75B931813D
:101BB0002227889400C000C0002C75B93111380F5D
:101BC00000C0002C05B900C016FF75B908F43FEF3E
:101BD0008195889400C000C0002C75B9E0FC230FEB
:101BE00000C0002C05B900C015FF75B92795889471
:101BF000E1FC230F00C000C0002C75B92795889424
:101C000000C0002C05B900C014FF75B9E2FC230F19
:101C10002795889400C000C0002C75B9E3FC230F01
:101C200000C0002C05B900C013FF75B92795889432
:101C3000E4FC230F00C000C0002C75B927958894E0
:101C400000C0002C05B900C012FF75B9E5FC230FD8
:101C50002795889400C000C0002C75B9E6FC230FBE
:101C600000C0002C05B900C011FF75B927958894F4
:101C7000E7FC230F00C000C0002C75B9279588949D
:101C800000C0002C05B900C010FF75B9132FE1107A
:101C9000122F8B0D00C000C0002C75B9119709F0F0
:101CA00086CE4A815B8120EE31E0DA010E94E23586
:101CB000DC01CB01F4E0B695A79597958795FA9549
:101CC000D1F730E020E0B901EAE94E9F040E611D32
:101CD0005E9F600D711D1124650F711D860F971F8A
:101CE000A11DB11D893E43E09407A105B10508F48B
:101CF00034C0885E9340A109B10942E0B695A7952A
:101D0000979587954A95D1F747E0849F080E211D46
:101D1000949F200D311D1124290F311D60917205F2
:101D200070E0860F971F820F931F409159065091C4
:101D30005A0660915B0670915C06292F3327420F8B
:101D4000531F611D711D4093590650935A066093AD
:101D50005B0670935C068093720578940E94BA05C6
:101D6000F201708B6787DF91CF911F910F91FF90E8
:101D7000EF90DF90CF90BF90AF909F908F907F902B
:101D80005F904F90089581E090E00895239A089520
:101D90006F927F928F92CF92DF92EF92FF920F938A
:101DA0001F93CF93DF93CDB7DEB762970FB6F8944A
:101DB000DEBF0FBECDBF6C017A013801822EDC017F
:101DC0001C962C91CA0157FF04C088279927841BB1
:101DD000950B7A8369839C838B839E838D836D8629
:101DE0007E868F86213049F5CE0101960E94270C10
:101DF00083E0888B1A8A198AF7FE02C08DEF888BE0
:101E0000D601ED91FC910684F785E02DBE016F5F50
:101E10007F4FC601099562960FB6F894DEBF0FBEDC
:101E2000CDBFDF91CF911F910F91FF90EF90DF9089
:101E3000CF908F907F906F9008951C861B861A8696
:101E4000198618861F82D4CFEF92FF920F931F93AB
:101E5000CF93DF93CDB7DEB762970FB6F894DEBFAE
:101E60000FBECDBF7C01DC011C968C917A83698307
:101E70005C834B835E834D830D871E872F87813064
:101E8000F9F4CE0101960E94270C188A1A8A198A41
:101E9000D701ED91FC910684F785E02DBE016F5FBF
:101EA0007F4FC701099562960FB6F894DEBF0FBE4B
:101EB000CDBFDF91CF911F910F91FF90EF900895CB
:101EC0001C861B861A86198618861F82DECFEF9223
:101ED000FF920F931F93CF93DF9300D000D000D0D9
:101EE000CDB7DEB78EE480937C0065E070E080E0E3
:101EF00090E00E94DF0580917A00806480937A00F0
:101F000080917A0086FDFCCF8091780090917900D5
:101F100080917A00806480937A0080917A0086FDB7
:101F2000FCCF80917800909179008E010F5F1F4F58
:101F30007E0147E0E40EF11C80917A00806480937A
:101F40007A0080917A0086FDFCCF80917800909194
:101F50007900F801819391938F0188EC90E00E94C1
:101F6000AF05E016F10641F749815A812B813C818A
:101F70008D819E812417350718F58217930728F065
:101F80009A018217930708F49C01C901C2978E3CFD
:101F90009340D8F450E040E064EB7BE281E190E0D4
:101FA0000E94A934C90126960FB6F894DEBF0FBE71
:101FB000CDBFDF91CF911F910F91FF90EF900895CA
:101FC00084179507F0F69A01E0CF90E080E0EBCF20
:101FD000CF92DF92EF92FF920F931F93CF93DF93F5
:101FE000CDB7DEB72F970FB6F894DEBF0FBECDBFCB
:101FF00080915406882309F454C080911501909172
:102000001601A091170189839A83AB838E010F5F1C
:102010001F4F6E0184E0C80ED11CF801F1908F01B2
:1020200061E08F2D0E94DE026EE571E080E090E0BD
:102030000E94DF0560E08F2D0E94DE02C016D106EF
:1020400061F7F98061E08F2D0E94DE020A8161E074
:10205000802F0E94DE021B8161E0812F0E94DE0240
:102060006EE571E080E090E00E94DF0560E08F2D7A
:102070000E94DE0260E0802F0E94DE0260E0812F7D
:102080000E94DE022F960FB6F894DEBF0FBECDBFC2
:10209000DF91CF911F910F91FF90EF90DF90CF9044
:1020A00008958FEF89831A821B821C8290E89D839A
:1020B0001E821F82188689878A878B878C878E016C
:1020C0000F5F1F4F7E01FDE0EF0EF11CC8010E9463
:1020D0004A010E941E066EE571E080E090E00E94D9
:1020E000DF050D5F1F4F0E151F0581F71D861E862C
:1020F0001F86C8010E944A010E941E06C3CF8F920C
:102100009F92AF92BF92CF92DF92EF92FF920F9386
:102110001F936B017C010E94120600916D051091C6
:102120006E0520916F05309170050115110521058F
:102130003105C9F08090690590906A05A0906B0503
:10214000B0906C058C149D04AE04BF0461F4AB0127
:10215000BC01401B510B620B730B81E0403A5F40A6
:102160006105710508F080E01F910F91FF90EF90DD
:10217000DF90CF90BF90AF909F908F900895CF93B6
:1021800090910301C0910201882349F061E0892FF9
:102190000E94DE0260E08C2FCF910C94DE0260E0A2
:1021A000892F0E94DE0261E0F6CF60E0809103019A
:1021B0000E94DE0260E0809102010C94DE02CF9367
:1021C000DF93EB010E94BF10BE0190E080E00E940F
:1021D000DF05DF91CF910C94D510EF92FF920F9312
:1021E0001F93CF93DF9302E511E08CE3E82E81E0AB
:1021F000F82EF801819191918F01F701C191D19150
:102200007F01009729F0AE0170E060E00E94480372
:102210006496BE0190E080E00E94DF05F1E00836A0
:102220001F0739F786E0DF91CF911F910F91FF9043
:10223000EF900C943E07CF93C0915406CC23C9F085
:10224000FC012081211108C02181211105C0C1E0BC
:102250008281811101C0C0E06C2F87E00E94DE0204
:102260006C2F88E00E94DE026C2F89E0CF910C94E5
:10227000DE020E944A01CF910C941E06AF92BF92DB
:10228000CF92DF92EF92FF920F931F93CF93DF9342
:1022900000D01F92CDB7DEB75C01062F10E06A01B7
:1022A000F12CE12CC5010E941B11C701B6010E944F
:1022B000DF0519821A821B82CE0101960E941B1132
:1022C00060E570E080E090E00E94DF051F5F011391
:1022D000E9CF0F900F900F90DF91CF911F910F9149
:1022E000FF90EF90DF90CF90BF90AF900895CF9286
:1022F000DF92EF92FF926C01CB01F12CE12CB70140
:10230000A6010E944803C701B6010E94DF0586E0CE
:10231000FF90EF90DF90CF900C943E0790E080E02C
:102320000895FC018585968508950F931F93CF939B
:10233000DF9300D01F92CDB7DEB7AB0119821A82AE
:102340001B82DC01ED91FC910190F081E02D00E019
:1023500010E020E0BE016F5F7F4F09950F900F9056
:102360000F90DF91CF911F910F9108952F923F927F
:102370004F925F926F927F928F929F92AF92BF9295
:10238000CF92DF92EF92FF920F931F93CF93DF9341
:1023900000D0CDB7DEB7FC014B01042F96818781B9
:1023A00099838A83C080D180C114D10409F4B8C054
:1023B000418550E0D60114968D919C918417950724
:1023C000B8F4312C832D0F900F90DF91CF911F9196
:1023D0000F91FF90EF90DF90CF90BF90AF909F90C4
:1023E0008F907F906F905F904F903F902F900895C7
:1023F000F601808191E090936E0680939006109292
:102400006F061092910620E0BE016F5F7F4FC601FC
:102410000E942D09382E8823A1F210E0B12CA12CA6
:1024200022242394A016B10668F680916D068111CE
:10243000FCCFD60114968D919C917801EA18FB0887
:102440008E159F0508F47C01F60190818E2D813256
:1024500008F080E220926D0641E098012E193F09B4
:10246000A216B30608F440E040936C06FFEFF09329
:102470006B0627EF35E030936A06209369061092C9
:1024800068062FEF280F209367062092660620919A
:102490006606990F922B909366069091650691308F
:1024A000C1F510926506909166069093BB009091DD
:1024B000BC0093FDF8CF35EC3093BC0090916D06D5
:1024C0009130E1F390916806981710F480916806B6
:1024D00010923806809337068E151F0409F071CFCD
:1024E00034016A0C7B1C2301C201861997098E15E1
:1024F0009F0598F4D60111968D919C91DC01ED9188
:10250000FC910284F385E02D0995F20181932F015E
:10251000EBCF95EE9093BC00D1CFAE0CBF1C82CF19
:10252000A281B381109709F44CCF2481358110E04A
:10253000418550E02330310571F4816089839A83AD
:102540004F5F5F4F9401BE016F5F7F4FCD010E94CF
:10255000B608382E37CF2115310519F490689983C4
:10256000F1CF2230310511F49F77F9CF21303105B9
:1025700049F7906CF4CFEF92FF920F931F93CF9394
:10258000DF93CDB7DEB7A6970FB6F894DEBF0FBEC8
:10259000CDBF8091D1069091D2061BA21CA21DA294
:1025A0001EA29D8B8C8B1F8A1E8A11E01D8F85E0D9
:1025B00090E09B8F8A8F1E8F02E00C8F4091D50692
:1025C0005091D6066091D7067091D80622E0CE01D0
:1025D00044960E944B098091D1069091D206188AA8
:1025E000198A1A8A1B8A9A8389831C821B821A87FA
:1025F00084E090E098878F831B87098742E0BE01C3
:10260000645F7F4FCE0101960E94B611882341F08E
:10261000EC84FD849B85992319F0FE24EF24FE248D
:102620008093D306C701A6960FB6F894DEBF0FBEFF
:10263000CDBFDF91CF911F910F91FF90EF90089543
:102640008F929F92AF92BF92EF92FF920F931F9340
:10265000CF93DF93EC014A015B01E880F980B70179
:10266000655F7F4FF7014085C7010E94B61188233F
:1026700009F1F701608570E030E020E080E090E053
:10268000DC0126173707CCF4BA2FA92F982F8827FB
:10269000F701428541110AC0FB01E21BF30BEE0D6D
:1026A000FF1D4285842B2F5F3F4FEBCFE20FF31FBF
:1026B0004385F8CF8FEF9FEFDC012A8101E010E026
:1026C00002C0000F111F2A95E2F701501109012ED7
:1026D000000C220B330BEB81B901A8010E2E04C0B4
:1026E000440F551F661F771F0A94D2F740955095E7
:1026F0006095709584239523A623B7230990D881EC
:10270000C02DB901A801482159216A217B2104C0AB
:10271000440F551F661F771FEA95D2F7482B592B98
:102720006A2B7B2B2885CE01DF91CF911F910F91D2
:10273000FF90EF90BF90AF909F908F900C944B09BB
:10274000CF93DF93CDB7DEB767970FB6F894DEBFB0
:102750000FBECDBF2091D1063091D206188A198ABA
:102760001A8A1B8A3A8329831C821B8291E09A87EA
:1027700018861F829B8792E099879E012F5F3F4FAB
:102780003D8B2C8B93E09E8B1F8A40E050E0BA017A
:10279000811104C047E050E060E070E0CE01449653
:1027A0000E9420138093D30667960FB6F894DEBF7D
:1027B0000FBECDBFDF91CF9108954F925F926F9280
:1027C0007F928F929F92AF92BF92CF92DF92EF92C1
:1027D000FF92CF93DF93C82F109266051092680581
:1027E0001092670580913C06811128C068EE73E065
:1027F0008C2F0E94DF1080916605882309F4A4C005
:1028000068E572E080E090E00E94DF050E94670FBB
:1028100001976AEF70E08B3C904108F0A4C0DF9113
:10282000CF91FF90EF90DF90CF90BF90AF909F90AF
:102830008F907F906F905F904F90089580E00E94FE
:10284000A0138C2F0E94BF100E9412066B017C0106
:102850000E9412066C197D098E099F09603177422A
:102860008105910508F06AC0D9E1812C912C5401B1
:102870000E94BB12BC01990F880B990B0E940A336E
:102880002B013C016091D9067091DA068091DB063C
:102890009091DC060E9408339B01AC01C301B20198
:1028A0000E9447359B01AC01C501B4010E94DB3495
:1028B0004B015C01D150E1F60E9412066C197D09B2
:1028C0008E099F096D3271408105910588F020E0E5
:1028D00030E048EC51E4C501B4010E9447359F77D0
:1028E00020E030E046E953E40E94B935181634F18F
:1028F0000E9412066C197D098E099F096D32714084
:102900008105910508F4A4CF0E94670F009771F02C
:1029100020916705309168052115310519F082175E
:10292000930720F4909368058093670501978B3C8B
:10293000904108F08DCF81E0809366050E94D5100C
:1029400081E00E94A01357CF6EE571E080E090E037
:102950000E94DF050E94670F01978B3C904108F4AD
:102960005ECF64E873E081E08C27DF91CF91FF9028
:10297000EF90DF90CF90BF90AF909F908F907F901F
:102980006F905F904F900C94DF100E94E537CF93CB
:10299000DF93DC0114962D913C911597232B79F050
:1029A000FB01CD91DC9160817181CE010E941038D4
:1029B000009729F08C1B9D0BDF91CF9108958FEF2D
:1029C0009FEFFACFFB0144815581FC0124813581C1
:1029D0002417350778F080819181009759F0FB0129
:1029E000608171816115710529F00E94023821E032
:1029F000892B09F020E0822F08950F931F93CF9326
:102A0000DF93EC0188819981009759F02A813B81FD
:102A10002617370730F081E0DF91CF911F910F919A
:102A200008958B016F5F7F4F0E942837009759F000
:102A3000998388831B830A832C813D81232B59F73B
:102A4000FC011082E8CF80E0E7CFFC01808191811A
:102A5000009711F00C949F360895FB01019000201F
:102A6000E9F73197AF01461B570BDC01ED91FC9163
:102A70000280F381E02D0994BC01809100019091C6
:102A800001010E942D158091000190910101DC014E
:102A9000ED91FC910190F081E02D6AE00995809123
:102AA000000190910101DC01ED91FC910680F7811C
:102AB000E02D09956CE070E080E090E00C94DF057B
:102AC00086EC91E00E943C1566E970E080E090E0C1
:102AD0000E94DF0586EC91E00C943C15CF92DF92CA
:102AE000EF92FF92CF93C4E081EE96E00E94BB0B81
:102AF000892B29F081EE96E00E94D10BF5CF69EC8D
:102B000071E081EE96E00E942D150E9412066B0185
:102B10007C010E9412066C197D098E099F096A3F8B
:102B200071058105910540F481EE96E00E94BB0B92
:102B3000892B79F381E003C0C150B1F680E0CF91D9
:102B4000FF90EF90DF90CF9008950F931F93CF9356
:102B5000DF938C01EB0183E00E94B5020197D1F075
:102B6000B80181EE96E00E942D156DE081EE96E0B1
:102B70000E945F0BBE0190E080E00E94DF0581EEC5
:102B800096E00E94BB0B892B29F081EE96E00E9413
:102B9000D10BF5CFDF91CF911F910F9108950F9336
:102BA0001F93CF93DF93CDB7DEB72C970FB6F89472
:102BB000DEBF0FBECDBF7F936F939F938F938DEC3E
:102BC00091E09F938F931F928CE08F938E010F5F04
:102BD0001F4F1F930F930E942A3866E970E0C801C7
:102BE0000E94A5150FB6F894DEBF0FBECDBF2C9680
:102BF0000FB6F894DEBF0FBECDBFDF91CF911F910E
:102C00000F9108954F925F926F927F92BF92CF92F1
:102C1000DF92EF92FF920F931F93CF93DF93CDB785
:102C2000DEB7C054D1090FB6F894DEBF0FBECDBFDA
:102C300080915406882309F445C066E970E084ED6C
:102C400091E00E94A51566E970E08DED91E00E948B
:102C5000A51586E496E020914606222309F48EC04D
:102C60009F938F9386EE91E09F938F931F9288E1BD
:102C70008F936E0129E2C20ED11CDF92CF920E9487
:102C80002A380FB6F894DEBF0FBECDBF03E088E24E
:102C9000B82EFE0131967F0168EC70E0C6010E94FB
:102CA000A51583E00E94B502019709F467C081EE83
:102CB00096E00E94BB0B892B01F181EE96E00E9409
:102CC000D10BF5CF83E00E94B502019709F0B5CF93
:102CD000C05CDF4F0FB6F894DEBF0FBECDBFDF91F3
:102CE000CF911F910F91FF90EF90DF90CF90BF9009
:102CF0007F906F905F904F90089560EF71E081EE4C
:102D000096E00E942D15F7012B2D11922A95E9F7D7
:102D10000E9412062B013C0110E00E941206641969
:102D2000750986099709603971408105910590F40C
:102D300081EE96E00E94BB0B892B79F3173268F77E
:102D400081EE96E00E94D10BF701E10FF11D808327
:102D50001F5FE3CF112391F06AEF71E0C7010E947A
:102D60001038BC0140E0892B09F086C066E476E0AB
:102D7000C7010E941038892B09F4B8C066E970E0D9
:102D80008FEF91E00E94A51566E970E088E092E07F
:102D90000E94A51566E970E081E192E00E94A51508
:102DA00066E970E08AE192E00E94A51580915406E0
:102DB000882309F471C066E970E083E292E00E9422
:102DC000A51566E970E08CE292E00E94A51566E91F
:102DD00070E085E392E00E94A51566E970E08EE35D
:102DE00092E00E94A51566E970E087E492E00E94F7
:102DF000A51566E970E080E592E00E94A51566E9F8
:102E000070E08BE592E00E94A51566E970E086E728
:102E100092E00E94A51580913A06813009F458CFBE
:102E200080913B068150833008F052CF8091540648
:102E3000811105C08091080190E08C3011F486E08A
:102E400090E09F938F938FE792E09F938F931F92D1
:102E50008EE08F938E010F5F1F4F1F930F930E9481
:102E60002A3866E970E0C8010E94A5150FB6F894EB
:102E7000DEBF0FBECDBF2CCF242F30E0F901EA5BBF
:102E8000F94F8081260F371FF9019481882329F19A
:102E900089132CC04F5FF0CF8091080100E210E051
:102EA0008C3079F09DEF980F10E000E09A3048F4F4
:102EB0008350990B01E010E002C0000F111F8A95AA
:102EC000E2F7B80186E692E00E94CF15B80168608B
:102ED0008EE692E00E94CF1598CF992309F44ECF49
:102EE0009D3009F44BCF9A3009F448CF015009F0D6
:102EF000D3CE44CFEF92FF920F931F93CF93DF93E4
:102F0000EC017B01198218821B821A821D821C82AD
:102F1000FB0101900020E9F731978F01061B170B89
:102F2000B8010E94FD1428813981811113C0211537
:102F3000310519F0C9010E949F36198218821D823D
:102F40001C821B821A82DF91CF911F910F91FF90FB
:102F5000EF9008951D830C83B701C901DF91CF91D4
:102F60001F910F91FF90EF900C94FB37CF92DF925F
:102F7000EF92FF920F931F93CF93DF93EB017B01AF
:102F800024E0E20EF11C8B016C01C61AD70AC601BF
:102F9000800F911F0E942A34F80181938F01EE1552
:102FA000FF05A9F7CE01DF91CF911F910F91FF90FF
:102FB000EF90DF90CF9008950F931F93CF93DF93FF
:102FC0008C01EB010E942A348883C80101960E947B
:102FD0002A348983CE01DF91CF911F910F910895FB
:102FE0000C942A341F93CF93DF93EC01162F0E9489
:102FF0002A34181739F0612FCE01DF91CF911F913C
:103000000C943234DF91CF911F9108954F925F92CB
:103010006F927F928F929F92AF92BF92CF92DF92E8
:10302000EF92FF921F93CF93DF9300D01F92CDB703
:10303000DEB76EE170E080E090E00E94DF0582E0A4
:103040000E94B502892B09F095C00E9412062B013F
:103050003C01812C912C540116E982E00E94B502BA
:10306000892B09F069C00E94120664197509860946
:103070009709603127E272078105910598F160E1B7
:1030800073E088E790E00E94771163E972E088E7D7
:1030900090E00E9477116BE072E088E790E00E9478
:1030A000771168E871E088E790E00E9477118FEF70
:1030B00089831A821B8248E750E063E0CE010196C3
:1030C0000E943E1160E08EE893E00E94F21788E1D2
:1030D00098E00FB6F894A895809360000FBE909387
:1030E0006000FFCF28EE33E040E050E00E94A934BA
:1030F00069017A0183E0C816D104E104F104C8F043
:10310000C814D904EA04FB0459F0129FB001139FBC
:10311000700D112460557B4F88E290E00E9477117A
:103120006AE070E080E090E00E94DF054601570110
:1031300094CF75016401F4CF0E94120664197509D9
:1031400086099709603273408105910530F5F0904A
:10315000710581E0F826F092710568E077E0FF20C4
:1031600011F060E679E082E390E00E9477118F2D04
:103170000E94DD130F900F900F90DF91CF911F9160
:10318000FF90EF90DF90CF90BF90AF909F908F9087
:103190007F906F905F904F90089564EF71E088E7A3
:1031A00090E00E947711E6CFCF93C82F8093450619
:1031B000682F83E090E00E94F21761E084E090E0E5
:1031C0000E94F21768E27AE08CE390E00E947711A7
:1031D00068EE73E080E090E00E94DF0586EC91E00D
:1031E0000E943C1566E970E080E090E00E94DF05F7
:1031F00087EC91E0CC2311F08EEC92E00E943C151C
:1032000080E00E94DD13CC2349F06CE271E080E0A5
:1032100090E00E94DF0581E00E94DD1360ED77E021
:1032200080E590E00E94771160E679E080E590E02B
:10323000CF910C947711FF920F931F93CF93DF934D
:10324000EC018B01FB01F0800E942A34F81621F07A
:103250006F2DCE010E943234F801F1802196CE010B
:103260000E942A34F81621F06F2DCE010E943234CC
:10327000C801DF91CF911F910F91FF900895EF92B8
:10328000FF920F931F93CF93DF93CDB7DEB768976D
:103290000FB6F894DEBF0FBECDBF8FE00E949D0534
:1032A0007E0121E1E20EF11CBC01990F880B990B04
:1032B0000E940A3320E030E040EA5BE30E94693379
:1032C000870122E040E00E94322DFF92EF928BE8CE
:1032D00092E09F938F931F9280E18F930051110989
:1032E0001F930F930E942A38C8010E943C150FB605
:1032F000F894DEBF0FBECDBF68960FB6F894DEBF60
:103300000FBECDBFDF91CF911F910F91FF90EF9036
:1033100008952F923F924F925F926F927F928F9279
:103320009F92AF92BF92CF92DF92EF92FF920F9354
:103330001F93CF93DF93CDB7DEB76E970FB6F89498
:10334000DEBF0FBECDBF182F1B0180913C06882326
:1033500009F498C080E00E94A013812F0E94BF1042
:1033600068E770E080E090E00E94DF050E941206AE
:103370002B013C0110E000E0C12CD12C76010E9411
:10338000120664197509860997096A347140810526
:10339000910530F50E94BB12BC01990F880B990B67
:1033A0000E940A334B015C016091D9067091DA06E4
:1033B0008091DB069091DC060E9408339B01AC01F2
:1033C000C501B4010E9447359B01AC015F77C7017D
:1033D000B6010E94DB346B017C010F5F1F4FCFCF22
:1033E0000E94D51081E00E94A01360E070E0CB0144
:1033F0000115110559F0B80190E080E00E940833F2
:103400009B01AC01C701B6010E9447357E0125E151
:10341000E20EF11C870120E040E00E94322DFF9275
:10342000EF9282E992E09F938F931F9284E18F93B2
:10343000045111091F930F930E942A38C8010E945A
:103440003C150FB6F894DEBF0FBECDBFC1010E9480
:103450003C156E960FB6F894DEBF0FBECDBFDF9160
:10346000CF911F910F91FF90EF90DF90CF90BF9081
:10347000AF909F908F907F906F905F904F903F9014
:103480002F90089562EC71E0812F0E94DF1080EA96
:1034900092E00E943C15DACF0F931F93CF93DF93F6
:1034A000CDB7DEB760970FB6F894DEBF0FBECDBFC5
:1034B000182F8FE00E949D05BC01990F880B990B76
:1034C0000E940A3320E030E040EA5BE30E94693367
:1034D0009B01AC0160E070E08AEF94E4112321F0DD
:1034E00060E070E08AE794E40E94DB348E010F5FB5
:1034F0001F4F22E040E00E94322DC8010E943C157F
:1035000060960FB6F894DEBF0FBECDBFDF91CF91AE
:103510001F910F910895CF92DF92EF92FF921F9328
:10352000CF93DF9300D01F92CDB7DEB76B017C0144
:103530008091450611E091E0C916D104E104F1043F
:1035400021F4813021F010E002C08111FCCFC701CD
:10355000B6010E947F10882371F0812F0E944C1ABF
:103560000F900F900F90DF91CF911F91FF90EF90F0
:10357000DF90CF9008950E94120660936D057093BE
:103580006E0580936F0590937005C0926905D09287
:103590006A05E0926B05F0926C05812F0E944C1A2F
:1035A0006CE370E080E090E00E94DF05812F0E94D4
:1035B000DD130E94120660936D0570936E05809373
:1035C0006F059093700568E770E080E090E00E94DE
:1035D000DF05812F0E944C1A0E94ED10198280E8AD
:1035E0008A831B8248E750E063E0CE0101960E9487
:1035F0003E11B6CF2F923F924F925F926F927F9281
:103600008F929F92AF92BF92CF92DF92EF92FF92F2
:103610000F931F93CF93DF93CDB7DEB7C454D10977
:103620000FB6F894DEBF0FBECDBF81EE96E090934B
:1036300001018093000186E990E0A0E0B0E0809372
:10364000E5069093E606A093E706B093E8060E948D
:1036500012064B015C010E94120669AF7AAF8BAF74
:103660009CAF70E2272E7EE4372E412C512C8E0128
:103670000F5F1F4F0E941206681979098A099B097A
:10368000621573058405950508F088C50E94120629
:1036900029AD3AAD4BAD5CAD621B730B840B950B42
:1036A000603C77428940910508F078C582E00E942D
:1036B000B502892B31F40E9406180E9412064B01B4
:1036C0005C0183E00E94B502019721F40E9412067A
:1036D0004B015C0181EE96E00E94BB0B18161906A7
:1036E0004CF681EE96E00E94150B8D30910549F065
:1036F0008032910531F09C01295031092230310589
:1037000028F481EE96E00E94D10BB4CF8F7D8154D6
:1037100091094A9708F0E7C567EE72E0CE018996F5
:103720000E947A170E94F20B97FD1AC089831A82B1
:10373000EDA4FEA44FEFE41AF40AB701CE01899676
:103740000E94FD14882371F329A53AA58DA59EA595
:10375000B801820F931F0E94FB37FEA6EDA6E2CFB1
:10376000C9A4DAA4C114D10431F0EDA4FEA4360139
:10377000E114F104B9F4E9A4FAA4E114F10409F4A0
:1037800049C0F70181917F01882309F443C0082EC5
:10379000000C990B0E94EA37F70131978083F1CF33
:1037A0006DA87EA8C30101969EAB8DABF30180810D
:1037B000082E000C990B0E945B32892B89F7F1E0EF
:1037C000EF1AF108EC0CFD1CF7018081082E000CAB
:1037D000990B0E945B32892B39F0E614F70420F034
:1037E000F1E0EF1AF108F0CFA7014F5F5F4F4619E4
:1037F00057095EA74DA7C614D70420F4B301C6012C
:103800000E94F237E9A5FAA58DA59EA5E80FF91F3C
:103810001082B1CF6CEE72E0C8010E947A17B80135
:10382000CE0189960E94E214F82EC8010E94251547
:10383000FF2011F180915206811119C0F1E0F0933F
:10384000520660E173E086E490E00E94771167E140
:1038500074E082E890E00E947711198280E88A8300
:103860001B824AE550E062E0C8010E943E11CE0191
:1038700089960E942515FECE64EF72E0C8010E9471
:103880007A17B801CE0189960E94E214F82EC80179
:103890000E942515FF2019F010925206E8CF6CEF18
:1038A00072E0C8010E947A17B801CE0189960E9481
:1038B000E214F82EC8010E942515FF2009F454C413
:1038C0000E9412064B015C0161E073E0C8010E9496
:1038D0007A17B801CE0189960E94E214F82EC80129
:1038E0000E942515FF2079F08AE093E00E943C15A4
:1038F00066E970E080E090E00E94DF058AE093E0F6
:103900000E943C1559C06FE073E0C8010E947A170D
:10391000B801CE0189960E94E214F82EC8010E94D7
:103920002515FF20A9F06CED75E088E790E00E9476
:10393000771160ED77E088E790E00E94771164EC02
:1039400079E084EB90E00E94771187E193E0D8CF93
:103950006EE173E0C8010E947A17B801CE01899622
:103960000E94E214F82EC8010E942515FF2029F0BC
:103970000E94E80F86E293E0C3CF6DE273E0C801D6
:103980000E947A17B801CE0189960E94E214F82E9F
:10399000C8010E942515FF20B1F086E393E00E9444
:1039A0003C1564E170E080E090E00E94DF056EE38A
:1039B00073E081E00E94891980E6282E8AEE382E75
:1039C000412C512C54CF67E473E0C8010E947A1750
:1039D000B801CE0189960E94E214F82EC8010E9417
:1039E0002515FF2071F080E593E00E943C1564E10D
:1039F00070E080E090E00E94DF0568E573E080E021
:103A0000D9CF61E673E0C8010E947A17B801CE01F0
:103A100089960E94E214F82EC8010E942515FF2005
:103A200019F00E943F19C8CF69E673E0C8010E94EF
:103A30007A17B801CE0189960E94E214F82EC801C7
:103A40000E942515FF2009F4F4C1809146068823C1
:103A500009F4C2C186E496E09F938F9382E793E0D6
:103A60009F938F931F9260E2F62EFF921F930F9306
:103A70000E942A38C8010E943C15809145061F9279
:103A80008F9389E793E09F938F931F92FF921F93E9
:103A90000F930E942A38C8010E943C150FB6F89473
:103AA000DEBF0FBECDBF8091410690914206A0912E
:103AB0004306B0914406892B8A2B8B2B09F48FC1C6
:103AC00080913D0690913E06A0913F06B091400640
:103AD000892B8A2B8B2B09F482C18BEB92E09F936D
:103AE0008F9380E893E09F938F931F9280E28F9350
:103AF0001F930F930E942A38C8010E943C150FB6ED
:103B0000F894DEBF0FBECDBF80913906882309F43B
:103B100069C18BEB92E09F938F9389E893E09F9329
:103B20008F931F9280E28F931F930F930E942A38E6
:103B3000C8010E943C1580913A060FB6F894DEBF8A
:103B40000FBECDBF823009F450C1813009F050C1A1
:103B500080ED92E09F938F9380E993E09F938F9302
:103B60001F9280E28F931F930F930E942A38C801FF
:103B70000E943C150FB6F894DEBF0FBECDBF8091FA
:103B80003C06882309F437C18BEB92E09F938F9317
:103B900088E993E09F938F931F9280E28F931F9306
:103BA0000F930E942A38C8010E943C150FB6F89462
:103BB000DEBF0FBECDBF80915406882309F41EC11D
:103BC0008BED92E09F938F938FE993E09F938F9378
:103BD0001F9250E2F52EFF921F930F930E942A38F6
:103BE000C8010E943C15809108010FB6F894DEBF11
:103BF0000FBECDBF8C3009F004C188EA91E09F93DD
:103C00008F931F92FF921F930F930E941A2E0F9073
:103C10000F900F900F900F900F90C8010E943C15CD
:103C200080913B061F928F9388EA93E09F938F9336
:103C30001F9240E2F42EFF921F930F930E942A38A6
:103C4000C8010E943C150E94120628EE33E040E0B5
:103C500050E00E94A9345F934F933F932F9383E9E1
:103C600091E09F938F931F92FF921F930F930E9457
:103C70001A2EC8010E943C15BE016D5C7F4F86E97B
:103C800093E00E94DC17BE016F5C7F4F88E993E0F0
:103C90000E94DC17BE01615D7F4F8AE993E00E94BC
:103CA000DC170FB6F894DEBF0FBECDBF8BA99CA961
:103CB000019611F41CAA1BAA89A99AA9019611F4CC
:103CC0001AAA19AA8FA598A9019611F418AA1FA6D5
:103CD0008091040782FDA7C083FDA7C081FFA7C014
:103CE00085E41F928F938CE891E09F938F931F92AE
:103CF00030E2F32EFF921F930F930E941A2EC801F9
:103D00000E943C158CA98F938BA98F9383E891E037
:103D10009F938F931F92FF921F930F930E941A2ECF
:103D2000C8010E943C158AA98F9389A98F938BE7BC
:103D300091E09F938F931F92FF921F930F930E9486
:103D40001A2EC8010E943C1588A98F938FA58F93C6
:103D500083E791E09F938F931F92FF921F930F939E
:103D60000E941A2E0FB6F894DEBF0FBECDBFC80159
:103D70000E943C150E94670F9F938F938CE691E001
:103D80009F938F931F92FF921F930F930E941A2E5F
:103D9000C8010E943C15809168058F93809167054A
:103DA0008F9382E691E09F938F931F92FF921F93D0
:103DB0000F930E941A2EC8010E943C1583EB93E0DA
:103DC0000E943C158EEB93E00E943C150FB6F894D0
:103DD000DEBF0FBECDBFF0CD81EB92E03DCE8EEBCE
:103DE00092E07DCE85EC92E096CE8CEC92E0B2CE65
:103DF00085ED92E0AFCE87ED92E0C8CE8FED92E0F8
:103E0000E1CE1F928F938EE991E09F938F931F9243
:103E1000FF921F930F930E941A2E0FB6F894DEBFE5
:103E20000FBECDBFFACE82E45CCF87E55ACF80E5E6
:103E300058CF67EC73E0C8010E947A17B801CE0131
:103E400089960E94E214F82EC8010E942515FF20D1
:103E500029F00E94ED1081ED93E052CD6AED73E000
:103E6000C8010E947A17B801CE0189960E94E21417
:103E7000F82EC8010E942515FF2051F1D12CC12C2C
:103E800093EEE92E93E0F92E2CE1722EDF92CF9281
:103E9000FF92EF921F927F921F930F930E942A38F6
:103EA000C8010E943C1566E970E080E090E00E9445
:103EB000DF055FEFC51AD50A0FB6F894DEBF0FBE57
:103EC000CDBF95E0C916D10409F78BEF93E018CD6B
:103ED00064E074E0C8010E947A17B801CE018996A7
:103EE0000E94E214F82EC8010E942515FF2091F0CF
:103EF00089A59AA507969F938F938CE094E09F9352
:103F00008F931F9288E28F931F930F930E942A38FA
:103F1000C8015ACF63E174E0C8010E947A17B80162
:103F2000CE0189960E94E214F82EC8010E94251540
:103F3000FF2059F061E081E993E00E94F217F1E07F
:103F4000F09355068EE194E0DBCC68E274E0C801A2
:103F50000E947A17B801CE0189960E94E214F82EC9
:103F6000C8010E942515FF2051F060E081E993E02F
:103F70000E94F2171092550684E394E0C1CC6FE3DF
:103F800074E0C8010E947A17B801CE0189960E9498
:103F9000E214F82EC8010E942515FF2009F468C01C
:103FA000809108018C3019F487E494E0A9CC80E575
:103FB00094E00E943C1560E971E080E090E00E948E
:103FC000DF0564EF71E087E594E00E94A51564EFDA
:103FD00071E080E090E00E94DF0583E00E94B5027E
:103FE000019719F48FE594E08BCC70E060E086E6F1
:103FF00092E00E94CF1568EC70E086E792E00E94A4
:10400000A51561E08FE893E00E94F2178091080106
:104010001F928F932FE634E03F932F931F928CE0F3
:104020008F931F930F930E942A386CE370E0C801AE
:104030000E94A51568EB7BE080E090E00E94DF0520
:1040400060E08FE893E00E94F21760E971E080EA97
:1040500090E00E94771160E971E080EA90E00E94B0
:10406000771160E971E080EA90E00E947711AECEAE
:1040700069E774E0C8010E947A17B801CE018996F9
:104080000E94E214F82EC8010E942515FF20A1F01D
:104090001A821982B80186E993E00E941B19B801BF
:1040A00088E993E00E941B19B8018AE993E00E9415
:1040B0001B1982E894E024CC6AE874E0C8010E94ED
:1040C0007A17B801CE0189960E94E214F82EC80131
:1040D0000E9425158DEB94E0FF2009F411CC82E9B4
:1040E00094E00E943C156CED75E088E790E00E943A
:1040F000771160ED77E088E790E00E94771164EC3B
:1041000079E084EB90E00E94771187E193E00E94D0
:104110003C150E94E80F86E293E00E943C158DE971
:1041200094E00E943C1562EC71E081E00E94DF1097
:1041300086E393E00E943C1560E971E080E090E046
:104140000E94DF0589EA94E00E943C1562EC71E070
:1041500080E00E94DF1080E593E00E943C150E9401
:104160003F1985EB94E0CCCB65EC74E0C8010E946C
:104170007A17B801CE0189960E94E214F82EC80180
:104180000E942515FF2021F161E070E080E090E0C1
:104190000E948B1ACE0189960E942515CC5BDF4FB9
:1041A0000FB6F894DEBF0FBECDBFDF91CF911F9148
:1041B0000F91FF90EF90DF90CF90BF90AF909F90C6
:1041C0008F907F906F905F904F903F902F900895C9
:1041D0006BEC74E0C8010E947A17B801CE01899691
:1041E0000E94E214F82EC8010E942515FF2029F034
:1041F00062E070E080E090E0CBCF62ED74E0C80157
:104200000E947A17B801CE0189960E94C7147C01DA
:10421000C8010E942515F7FC04C081E00E94D41853
:10422000B9CF6FED74E0C8010E947A17B801CE01D2
:1042300089960E94C7147C01C8010E942515F7FCCD
:1042400002C080E0EBCF6DEE74E0C8010E947A17E7
:10425000B801CE0189960E94C7147C01C8010E9452
:104260002515F7FC16C00E9412064B015C0168E997
:1042700078E08CE390E00E94771181E00E94DD13EA
:1042800068E770E080E090E00E94DF050E94601522
:10429000EECA68EF74E0C8010E947A17B801CE0137
:1042A00089960E94C7147C01C8010E942515F7FC5D
:1042B000DECA0E9412064B015C0168E978E08CE3DB
:1042C00090E00E9477116EE774E080E090E00E9439
:1042D000DF050E94601581E00E94DD13C8CA81EEEF
:1042E00096E00E94D10B0E942D0BFC0197FD5FC050
:1042F0008D32910519F0C0970A9788F7C12CD12CFF
:104300007601712CE130F105D9F0ED32F10509F4B7
:104310004BC0CF01C0970A9798F4AAE0B0E0A7017C
:1043200096010E945F346F01FF0FEE08FF08C60E72
:10433000D71EE81EF91E90E3C91AD108E108F1085A
:1043400081EE96E00E94D10B0E942D0BFC01C097DC
:104350000A97C0F2E130F105A9F2772041F0F0941C
:10436000E094D094C094C11CD11CE11CF11CC11478
:10437000D104E104F10409F47DC9D701C601019714
:10438000A109B1090297A105B10508F03FC08091CC
:10439000450611E0E1E0CE16D104E104F10459F440
:1043A000813059F010E009C077247394C9CFC12C33
:1043B000D12C7601DCCF8111F5CF812F0E944C1AD0
:1043C000C701B6010E947F108111E8CE0E9412063B
:1043D00060936D0570936E0580936F0590937005E3
:1043E000C0926905D0926A05E0926B05F0926C0567
:1043F000812F0E94DD130E94120660936D05709359
:104400006E0580936F0590937005C8CEC114F9EEC8
:10441000DF06F2E0EF06F104C9F40E9412064B0138
:104420005C0168E978E08CE390E00E94771168E233
:104430007AE08CE390E00E9477116EE774E080E010
:1044400090E00E94DF050E94601514C921E2C216A7
:104450002BE0D20620E2E206F10408F00BC90E942C
:1044600012064B015C010E949C2D21966CAF7DAF22
:104470008EAF9FAF21970E949C2D2EE037E240E047
:1044800050E00E9440349B01AC012F5F3F4F4F4FE3
:104490005F4F2DAB3EAB4FAB58AF80914106909133
:1044A0004206A0914306B0914406A7019601280F49
:1044B000391F4A1F5B1F25962CAF3DAF4EAF5FAF34
:1044C000259721966CAD7DAD8EAD9FAD21972EE0E9
:1044D00037E240E050E00E944034DC01CB0101961D
:1044E000A11DB11D25962CAD3DAD4EAD5FAD2597FF
:1044F000820F931FA41FB51F20913B06233009F0A4
:104500004DC023EE32E0BF93AF939F938F933F93C1
:104510002F931F9280E18F931F930F930E942A384D
:10452000C8010E943C1566E970E080E090E00E94BE
:10453000DF0580913D0690913E06A0913F06B09127
:1045400040068C0D9D1DAE1DBF1DCDA8DEA8EFA899
:10455000F8ACC80ED91EEA1EFB1E0FB6F894DEBFDB
:104560000FBECDBF80913B068330D9F483EE92E03D
:10457000FF92EF92DF92CF929F938F931F9280E1F1
:104580008F931F930F930E942A38C8010E943C15F5
:104590000FB6F894DEBF0FBECDBF6CC828EE32E078
:1045A000B2CF88EE92E0E4CF8F929F92AF92BF920B
:1045B000DF92EF92FF920F931F93CF93DF93CDB7CC
:1045C000DEB7E0970FB6F894DEBF0FBECDBF83E035
:1045D000E82E90E3D92E8E010F5F1F4F81EE96E0FB
:1045E0000E94BB0B892B29F081EE96E00E94D10B33
:1045F000F5CF66E075E081EE96E00E942D15F8019A
:104600002D2D11922A95E9F70E9412064B015C01AB
:10461000F12C0E941206681979098A099B09623CEB
:1046200071408105910598F481EE96E00E94BB0BE4
:10463000892B79F3FEE2FF1560F381EE96E00E948C
:10464000D10BF801EF0DF11D8083F394E2CF60E10F
:1046500075E0C8010E9410385C01892B29F4EA94A6
:10466000E110BCCF10E01FC06CEC72E0C8010E94EA
:104670001038892B59F581E080933A06C5010496DC
:104680000E94F42D182F811101C011E010933B06F8
:10469000612F80E093E00E94F21760913A0683E96F
:1046A00093E00E94F217812FE0960FB6F894DEBFD8
:1046B0000FBECDBFDF91CF911F910F91FF90EF9073
:1046C000DF90BF90AF909F908F90089582E0D4CFFD
:1046D0001F920F920FB60F9211242F933F938F9337
:1046E0009F93AF93BF938091590690915A06A091E2
:1046F0005B06B0915C063091580623E0230F2D37FE
:1047000068F126E8230F0296A11DB11D20935806DB
:104710008093590690935A06A0935B06B0935C066B
:1047200080915D0690915E06A0915F06B091600653
:104730000196A11DB11D80935D0690935E06A09326
:104740005F06B0936006BF91AF919F918F913F91AB
:104750002F910F900FBE0F901F9018950196A11DDD
:10476000B11DD4CF1F920F920FB60F9211242F9329
:104770003F934F935F936F937F938F939F93AF93E9
:10478000BF93EF93FF93E0910601F0910701099524
:10479000FF91EF91BF91AF919F918F917F916F9119
:1047A0005F914F913F912F910F900FBE0F901F90EF
:1047B00018951F920F920FB60F9211242F933F93CB
:1047C0004F935F936F937F938F939F93AF93BF9319
:1047D000EF93FF93E0910401F09105010995FF919A
:1047E000EF91BF91AF919F918F917F916F915F9169
:1047F0004F913F912F910F900FBE0F901F901895E2
:104800001F920F920FB60F9211242F933F934F9345
:104810005F936F937F938F939F93AF93BF93EF9328
:10482000FF938091970690919806A0919906B09178
:104830009A06892B8A2B8B2BD1F190919206E091CD
:104840009306F09194068081892780838091970652
:1048500090919806A0919906B0919A06181619069B
:104860001A061B069CF48091970690919806A091D9
:104870009906B0919A060197A109B109809397060C
:1048800090939806A0939906B0939A06FF91EF91A2
:10489000BF91AF919F918F917F916F915F914F9158
:1048A0003F912F910F900FBE0F901F901895809100
:1048B0000A010E943E07EACF1F920F920FB60F9295
:1048C00011248F930FB6F894A895809160008861A9
:1048D00080936000109260000FBE8F910F900FBE0A
:1048E0000F901F9018951F920F920FB60F921124E0
:1048F0002F933F934F935F936F937F938F939F93E8
:10490000AF93BF93EF93FF938091B900887F803678
:1049100009F44AC0F0F5883209F4A7C018F58031CF
:1049200009F49BC0B8F4882309F405C1883009F460
:1049300094C0FF91EF91BF91AF919F918F917F9123
:104940006F915F914F913F912F910F900FBE0F90FC
:104950001F901895883109F488C0803251F78093F0
:104960006B0614C0803409F4A5C040F48033B9F359
:104970008833F9F680936B0685ECBCC0803509F46A
:1049800089C0883509F49EC0883499F60E94070AC8
:10499000D0CF883909F494C038F5883729F050F41D
:1049A000883611F0803729F683E080936D061092E7
:1049B000F60557C0883809F483C0803919F080386B
:1049C00009F0B7CF8091F605803208F079C0E09108
:1049D000F60581E08E0F8093F6058091BB00F0E034
:1049E000EA52FA4F80833DC0803B39F0E0F4803AD0
:1049F00009F485C0883A09F09CCF84E080936D0665
:104A00001092D5051092D405E0913506F091360646
:104A100009958091D40581110FC081E08093D40560
:104A20001092B40509C0803C09F4A6CF883C09F473
:104A3000A3CF883B09F07DCFE091D50581E08E0FB3
:104A40008093D505F0E0EC54FA4F80818093BB0051
:104A50009091D5058091D40531C0809166068093F0
:104A6000BB0085EC8093BC0064CF90916806809178
:104A700067069817B8F58091690690916A06E091EB
:104A8000680621E02E0F20936806E80FF92FF11D2C
:104A90008081E5CF2091690630916A06E091680631
:104AA00081E08E0F809368068091BB00E20FF32FA8
:104AB000F11D80839091680680916706981788F2AF
:104AC00085E8D0CF2091690630916A06E0916806AA
:104AD00081E08E0F809368068091BB00E20FF32F78
:104AE000F11D808380916C06811150CF81E080930D
:104AF000650684EA8093BC0010926D061ACF85EC9F
:104B00008093BC0010926D068091F605803230F4DF
:104B1000E091F605F0E0EA52FA4F10826091F60556
:104B200070E0E0913306F091340686ED95E009954A
:104B30001092F605FECE10926B0628CF1F920F92B0
:104B40000FB60F9211242F933F934F935F936F9360
:104B50007F938F939F93AF93BF93EF93FF93E091D6
:104B60006306F0916406309749F0A685B785858580
:104B7000968D91FF14C09C918923A1F4FF91EF9130
:104B8000BF91AF919F918F917F916F915F914F9165
:104B90003F912F910F900FBE0F901F9018959C91F1
:104BA000892361F7A389B4899C918589809589239C
:104BB0008C93868997890197F1F7608D718DA68511
:104BC000B785558538E020E0CB010197F1F7822FBA
:104BD00090E095958795282F4C91452309F0206802
:104BE000315091F7868D81FD20958091620690E08D
:104BF00001968F73992730916106381799F0A0912B
:104C00006206B0E0AC58BA4F2C9380936206828D56
:104C1000938D0197F1F7A389B4898C919589892B9C
:104C20008C93ACCF868D8160868FF1CF8FEF809390
:104C3000B8061092BA061092B9061092C4061092E5
:104C4000C3068FEF9FEFDC018093BF069093C006F1
:104C5000A093C106B093C2061092C8061092C70670
:104C600088EE93E0A0E0B0E08093C9069093CA0676
:104C7000A093CB06B093CC0626EA31E03093C6066B
:104C80002093C5061092E4061092E3068093E50691
:104C90009093E606A093E706B093E80688EB91E0D0
:104CA0009093E2068093E1061092F8061092F706C0
:104CB0001092FA061092F9061092FC061092FB066A
:104CC0001092FE061092FD066091FF066E7F6D7FCA
:104CD0006093FF066695617081E0682784E00E941A
:104CE000DE0261E084E00E940C03E8E0F2E0E4917F
:104CF000E093F106E1EFF1E0E491F0E0EE0FFF1F49
:104D0000ED51FE4F859194919093F3068093F206B6
:104D100060E085E00E940C038091FF0681FD04C0E5
:104D200061E085E00E94DE0285E08093ED06E9E027
:104D3000F2E0E491E093EE06E2EFF1E0E491F0E0DE
:104D4000EE0FFF1FE752FE4F859194919093F0066E
:104D50008093EF061092D2061092D10685E48093DC
:104D6000D4061092D9061092DA061092DB06109241
:104D7000DC061092DD061092DE061092DF0610921D
:104D8000E0060895CF93DF93CDB7DEB7AD970FB6AA
:104D9000F894DEBF0FBECDBF789484B5836084BD28
:104DA00085B5836085BD80916E00816080936E00C3
:104DB00082E08093810080918100816080938100F6
:104DC000809180008160809380008091B100846038
:104DD0008093B1008091B00081608093B00087E83B
:104DE00080937A001092C10080E993E00E94F0174E
:104DF00091E0813009F090E090935406813031F4D5
:104E00008AE0809303018BE08093020161E086E0F9
:104E10000E940C0361E0809103010E940C0361E099
:104E2000809102010E940C0362E082E00E940C0368
:104E300060E083E00E940C030E94D5108091640022
:104E400084608093640080B7806880BF809154063E
:104E5000811110C08DB1807F8DB98EB18F608EB9F8
:104E600080916400806180936400809165008D630F
:104E70008093650081E993E00E94F0178130A9F4E6
:104E80000CE211E00E94670F01978736904168F4A9
:104E900030E020E050E040E066E070E087E196E03E
:104EA0000E9497070150110969F78E010F5F1F4F8C
:104EB000B80186E993E00E94DC1789819A81019606
:104EC00011F41A82198289819A8101969A838983C1
:104ED000B80186E993E00E941B198091040782FFC4
:104EE00015C0B80188E993E00E94DC1789819A8196
:104EF000019611F41A82198289819A8101969A8306
:104F00008983B80188E993E00E941B1968E27AE07E
:104F100086E490E00E9477118EE00E949D056C016E
:104F2000990FEE08FF080E94BA054B015C01C7010A
:104F3000B601682579258A259B25C814D904EA0479
:104F4000FB0411F00E94EB2D62E08EE00E940C0346
:104F500080915406882309F4F5C061E087E00E943F
:104F60000C0360E087E00E94DE0261E088E00E94BE
:104F70000C0360E088E00E94DE0261E089E00E94AC
:104F80000C0360E089E00E94DE0226E4C22E26E0E7
:104F9000D22EF12CE12CC7018F5F9C4F0E94F0179D
:104FA0009FEF980F9E3F08F449C1F701EA5BF94F64
:104FB000108283E090E00E94F017809345068230D3
:104FC00010F01092450661E476E085E090E00E94E2
:104FD000B6176DE376E08FE090E00E94B6178091FF
:104FE000D1069091D206892BA9F486E090E00E9428
:104FF0000336FC018091D406808385EC96E0928391
:105000008183138280E290E095838483F093D206BB
:10501000E093D106C090D106D090D2061092380607
:105020001092370610926F06109291060E94380A6D
:1050300089E397E090933606809335068AE397E0FC
:105040009093340680933306FF24F394F601F382A1
:10505000C6010E94560A8111FEC010923C0680E0F3
:1050600093E00E94F01780933B06893210F0109273
:105070003B0683E993E00E94F01780933A06833061
:1050800010F010923A0682E993E00E94F0178093A4
:1050900008019CEF980F963028F08C3019F088E0CA
:1050A000809308018FE893E00E94F01791E081302F
:1050B00009F090E090935706813029F460E08FE882
:1050C00093E00E94F21783E00E94B502019719F461
:1050D00081E08093570681E993E00E94F01791E008
:1050E000813009F090E09093550660E679E080E029
:1050F00090E00E94BA018091570681119DC38EE80D
:1051000093E00E94F017893C09F008C181E0809388
:10511000390686E0F82E80913906811179C3FA9418
:10512000FF2009F47AC36AEF70E080E090E00E940B
:10513000DF050E94D42291E0811101C090E090939C
:105140003906E9CF80912B06811145C010921D06CA
:1051500010921C068FEF8093200680932106809387
:10516000220680932306809324068093250681E0FF
:1051700080932606109228061092270610921F068A
:1051800010921E068091B2069091B306892B31F4DD
:105190008AE196E09093B3068093B206E0911806F8
:1051A000F0911906309721F08AE196E09583848387
:1051B0008AE196E0909319068093180610922A06C9
:1051C000109229068EE791E090931B0680931A06B1
:1051D00081E080932B06239A83EA96E090931D0644
:1051E00080931C0683E090E0909328068093270626
:1051F0008091BB069091BC06A091BD06B091BE0601
:10520000843C29E09207A105B10520F484EC99E0E3
:10521000A0E0B0E08093BB069093BC06A093BD06CF
:10522000B093BE0682E38093B80619821A821B826D
:10523000C8010E944A010E941E06A7CEF601819372
:105240006F011082FFEFEF1AFF0A2BE0E216F10464
:1052500009F0A1CEAECE80E090E1A0E0B0E0809376
:10526000D5069093D606A093D706B093D8068AE0C9
:1052700090E0A0E0B0E08093D9069093DA06A09386
:10528000DB06B093DC0680E090E0A0E0B0E4809321
:10529000DD069093DE06A093DF06B093E0068091D2
:1052A000D1069091D20618A619A61AA61BA69A8F07
:1052B000898F1C8E1B8EFAA285E090E098A38F8FB9
:1052C000FBA292E0E92EE9A222E040E050E160E09A
:1052D00070E0CE0149960E944B098091D1069091D1
:1052E000D206188A198A1A8A1B8A9A8389831C8291
:1052F0001B82FA8618861F82FB86E98622E04FE928
:1053000059E360E070E0C8010E944B098093D30626
:10531000F0923C0681E00E94A013A1CE83E00E949F
:10532000B502019709F4F5CE0E9402160E94D4221C
:1053300091E0811101C090E0909339068EE893E0EE
:105340000E94F0178DA785E993E00E94F017782E50
:10535000FFEF8F1301C0712CA2E06A2E670CB6EE2E
:10536000CB2EB1E0DB2ECE0101965C014E019DE219
:10537000890E911C80913906811144C2EDA5E93C4A
:1053800009F4C7CEF2E0F71508F4C3CE761409F499
:10539000C0CE83E00E94B502892B09F0BACE739487
:1053A000672D85E993E00E94F21760EB74E082E3D9
:1053B00090E00E94771160EB74E082E390E00E943D
:1053C000771180915406882309F453C0FEE8EF2E2C
:1053D000F1E0FF2EF70161917191819191917F012F
:1053E0000E94BA016EE170E080E090E00E94DF056B
:1053F000E6E05E2E68E270E089EC92E00E94A5157E
:105400005A945110F7CF68E770E085E195E00E946B
:10541000A5156CE370E083E292E00E94A5156CE3B1
:1054200070E08CE292E00E94A5156CE370E085E3E9
:1054300092E00E94A5156CE370E08EE392E00E947A
:10544000A5156CE370E087E492E00E94A51560E585
:1054500070E080E592E00E94A51560E570E08BE5C4
:1054600092E00E94A515F2EAEF16F1E0FF0609F0BE
:10547000B1CF7EE8E72E71E0F72EF70161917191CF
:10548000819191917F010E94BA016EE170E080E00C
:1054900090E00E94DF0568E270E089EC92E00E94F3
:1054A000A51568E270E089EC92E00E94A51568E21B
:1054B00070E089EC92E00E94A51568E770E085E154
:1054C00095E00E94A5156AEF70E08EE195E00E94DC
:1054D000A51566E970E087E295E00E94A51568E5EC
:1054E00072E080E090E00E94DF05F2EAEF16F1E062
:1054F000FF0619F660E679E080E090E00E94BA01CC
:105500006CED75E080E090E00E94DF0581EE96E0B2
:105510000E94BB0B892B29F081EE96E00E94D10BF3
:10552000F5CF66E970E080E395E00E94A51566E995
:1055300070E08EE195E00E94A51566E970E084EDCB
:1055400091E00E94A51566E970E088E092E00E9473
:10555000A51566E970E08BE395E00E94A51566E964
:1055600070E084E495E00E94A51566E970E08DE4A2
:1055700095E00E94A5150E94D422809146068823BA
:1055800009F44DC086E496E09F938F93DF92CF920B
:105590001F92F8E1FF93BF92AF920E942A3884E1F4
:1055A000E8E1F1E0DE01599601900D928A95E1F76C
:1055B0007E0129E1E20EF11C0FB6F894DEBF0FBEAA
:1055C000CDBFF70161917191819191917F010E940D
:1055D000BA016EE170E080E090E00E94DF0562E3D6
:1055E00070E089EC92E00E94A51564E670E085E128
:1055F00095E00E94A51564EB70E0C5010E94A51519
:10560000E814F904F1F660E679E080E090E00E94A9
:10561000BA0164E670E080E090E00E94DF050E943D
:10562000021666E970E086E595E00E94A51583E024
:105630000E94B502019751F10E946E15811126C09A
:1056400081EE96E00E94BB0B892B29F081EE96E05B
:105650000E94D10BF5CF66E075E081EE96E00E94E6
:105660002D150E9412061B012C010E9412066219C0
:10567000730984099509623C71408105910558F4CC
:1056800081EE96E00E94BB0B892B79F369EC8EE8E2
:1056900093E00E94F21766E970E087E295E00E94CD
:1056A000A5156CED75E080E090E00E94DF0581EECD
:1056B00096E00E94BB0B892B29F081EE96E00E94B8
:1056C000D10BF5CF0E9402160E94D42291E08111E5
:1056D00001C090E0909339064DCE8EE893E00E9491
:1056E000F017893C09F49EC084E0F82E60E971E06F
:1056F00080EA90E00E947711FA94F110F7CF8FEFD3
:1057000089831A821B8248EC50E062E0C8010E9443
:105710003E1180E1ECE2F1E0D80101900D928A9512
:10572000E1F76801F60161917191819191916F01A9
:105730000E94BA016EE170E080E090E00E94DF0517
:105740000E946E15882369F164EF71E080E090E0BB
:105750000E94DF05E12C68E27AE08CE890E00E948C
:10576000771164EB70E080E090E00E94DF05E39445
:10577000FE1488F7F1100EC00E94021668EC70E06B
:1057800080E090E00E94DF0560E87CE08AE590E040
:105790000E94771160E679E080E090E00E94BA0113
:1057A0004BC00E94D4228111CFCFF394F4E0FF12BA
:1057B000B9CFF0CF809169008C7F826080936900BF
:1057C000E89A9092070180920601809169008C60AE
:1057D00080936900E99A83B7817F83BFF89483B788
:1057E000816083BF7894889583B78E7F83BFE89864
:1057F000F0920501E0920401E998F0920701E0922D
:10580000060100C160E085E993E00E94F21781CCB7
:1058100069EC8EE893E00E94F217809139068823A4
:1058200009F45BCF198280E88A831B8248E750E045
:1058300062E0C8010E943E119FE6C92E94E0D92E75
:105840002CE0522E30E0632E30E0732E40E3A42E85
:1058500047E0B42E54E3852E57E0952E68E3E62EFC
:1058600067E0F62E4424439480910901811104C01D
:1058700080915706882331F0109209011092570643
:105880000E94FA1A0E94D51080915506882309F4C7
:105890005DC080915406811159C0809108018C30FF
:1058A00009F454C083E00E94B502892B09F04EC070
:1058B000B8018AE993E00E94DC1789819A810196F8
:1058C00011F41A82198289819A8101969A838983B7
:1058D000B8018AE993E00E941B1968EC70E087E543
:1058E00094E00E94A51560E971E080E090E00E94DC
:1058F000DF0564E670E086E792E00E94A5158091DE
:1059000008011F928F93DF92CF921F925F921F9395
:105910000F930E942A386CE370E0C8010E94A5151D
:1059200068EC70E080E090E00E94DF056CE370E0DE
:10593000C8010E94A51568EC70E080E090E00E942C
:10594000DF050FB6F894DEBF0FBECDBF1092530631
:10595000109256061092520683E00E94B502B09251
:105960000501A0920401892B09F024CF80916900E0
:105970008C7F80936900E89A8091680084608093AE
:10598000680080916D00886080936D0030907A008F
:1059900080917A008F7780937A0083B7817F8460CB
:1059A00083BFF89483E00E94B502892BB9F48091FB
:1059B0005606811113C081EE96E00E94BB0B892B25
:1059C00069F483B7816083BF85B7806685BF8F7DAB
:1059D00085BF7894889583B78E7F83BF7894309203
:1059E0007A0080916D00877F80936D00E898F09237
:1059F0000501E092040183E00E94B502019711F4D1
:105A0000409253068091560681110E9406180E940A
:105A1000FA1A6114710409F427CF0E94000024CF00
:105A20008091D1069091D2060E949F3688EB91E03A
:105A30009093E2068093E10680916306909164065C
:105A4000815E964071F4E091F406F091F506908144
:105A50008091F606809589238083109264061092C7
:105A600063060895EF920F931F93CF93DF93E8019E
:105A700034E047FD34E1042E000C550B57FF03C002
:105A8000519541955109E32E022F242FAE010E941A
:105A90002430CE01DF91CF911F910F91EF900895A7
:105AA0008F929F92AF92BF92CF92DF92EF92FF922E
:105AB000CF93DF93EC01688179818A819B816115A5
:105AC00071058105910521F464E279ED8BE597E09C
:105AD0002DE133EF41E050E00E94403449015A018A
