:100000000C942E010C94E6260C94BF260C94AB287D
:100010000C94AB280C94AB280C9469270C940D27F6
:100020000C9465010C9465010C9465010C946501B8
:100030000C9465010C9465010C9465010C946501A8
:100040000C9475260C9465010C9465010C94650163
:100050000C9465010C9465010C9465010C94650188
:100060000C9480270C94650100407A10F35A00A08C
:10007000724E18090010A5D4E80000E87648170071
:1000800000E40B54020000CA9A3B000000E1F505B1
:10009000000080969800000040420F000000A086FB
:1000A00001000000102700000000E803000000002D
:1000B0006400000000000A000000000001000000D1
:1000C00000002C76D888DC674F0823DFC1DFAE59EB
:1000D000E1B1B796E5E3E453C63AE651997696E87E
:1000E000E6C28426EB898C9B62ED407C6FFCEFBC02
:1000F0009C9F40F2BAA56FA5F490055A2AF75C932D
:100100006B6CF9676DC11BFCE0E40D47FEF520E662
:10011000B500D0ED902E0300943577050080841E45
:10012000080000204E0A000000C80C333333330FA0
:10013000986E12831141EF8D2114893BE65516CF3D
:10014000FEE6DB18D1844B381BF77C1D901DA4BB49
:10015000E424203284725E228100C9F124ECA1E5FE
:100160003D27435554383A25630041544F4B3A25B7
:1001700075005643434D494E3A2575005643433A60
:10018000257500435554533A257500435554533A49
:100190004155544F00424F44533A257500424F4F4A
:1001A00054533A2575004D435553523A2530325831
:1001B000005253543A256300555054494D453A2551
:1001C0006C75004D4F534645543A2575004D4F53BD
:1001D0004645543A31322D4155544F004F4B2D5323
:1001E0004F414B2D4F4646004F4B2D534F414B2D0A
:1001F0004F4E0000000000240027002A00000000ED
:1002000009000302000004050800000000000000CF
:10021000000000000200000000230026002900006A
:10022000000000250028002B00040404040404043A
:100230000402020202020203030303030302020395
:10024000010204081020408001020408102001026D
:1002500004081020408040004329953011241FBE1F
:10026000CFEFD8E0DEBFCDBF84B780931B0714BEAD
:100270000FB6F894A8958091600088618093600023
:10028000109260000FBE15E0A0E0B1E0EAEEF7E7E3
:1002900002C005900D92AC36B107D9F727E0ACE665
:1002A000B5E001C01D92AB31B207E1F711E0CDE23C
:1002B000D1E004C02197FE010E948239CC32D107DF
:1002C000C9F70E94EF290C94E83B0C940000DC0174
:1002D000EAEBF6E02D913D914C911297208331830A
:1002E00042832D913D914C91129723833483458312
:1002F0008D919D91AC9186839783A0870895282F37
:100300009091A80681E0913208F042C08091840665
:100310008111FCCF8091A70632E0309384062093B0
:1003200083062FEF2093820627E836E0309381067C
:100330002093800610927F0690937E0610927D0691
:1003400090917D06880F892B80937D0680917C0695
:10035000813029F510927C0680917D068093BB0048
:100360008091BC0083FDF8CF85EC8093BC00809128
:1003700084068230E1F3809182068F3F91F0809174
:100380008206803281F080918206803371F084E0B1
:10039000109286061092A80610928506089585EEA2
:1003A000E4CF80E0F5CF82E0F3CF83E0F1CF9B0193
:1003B000AC011092130710921207109211071092BD
:1003C000100710920F0710920E0760E079E08DE39E
:1003D00090E00E94C537B901C90103972430310567
:1003E00010F481E090E090931507809314078091BA
:1003F0000407873108F063C0F901F695E795E43109
:10040000F10508F48CC07397F0930F07E0930E0783
:100410006630710508F486C0B901655071097093A2
:10042000110760931007B901660F771F260F371F5A
:1004300036952795369527952D30310508F475C0EA
:100440002C50310930931307209312072091680034
:1004500094E0883054F091E08E303CF092E08431AA
:1004600024F091E0863109F490E0922B909368009B
:100470002DE630E0883074F08E300CF459C08431B1
:100480003CF086310CF454C030E020E0863111F4A9
:100490002CE630E030930C0720930B0788300CF0EB
:1004A0004AC091E001C0990F8A95EAF7892F80939D
:1004B0000D0780911407909115070197F1F780912E
:1004C000120790911307892B49F1E0917A06F09178
:1004D0007B0686E0E83FF80709F1309739F0A389F9
:1004E000B4899C918589809589238C938091160786
:1004F0008E7F80931607109279061092780688EF07
:1005000096E090937B0680937A06E0910B07F0913A
:100510000C07808190910D07892B80830895E1E07D
:10052000F0E072CF61E070E07ACF21E030E08ACF76
:100530002BE630E0AFCF8E3014F48850B2CF863146
:1005400014F48E50AECF863111F480E4B0CF80E049
:10055000AECF843081F028F48230E9F08330F9F0B6
:100560000895883071F0893091F08530B9F4809128
:1005700080008F7D03C0809180008F778093800002
:1005800008958091B0008F778093B0000895809196
:10059000B0008F7DF9CF84B58F7784BD089584B581
:1005A0008F7DFBCFCF93DF93282F30E0F901E3500D
:1005B000FE4F8491F901E05CFD4FD491F901E75DB4
:1005C000FD4FC491CC23A1F081110E94A902EC2F10
:1005D000F0E0EE0FFF1FEB5EFD4FA591B491EC91A3
:1005E000ED2381E090E009F480E0DF91CF91089560
:1005F00080E090E0FACF1F93CF93DF93282F30E075
:10060000F901E350FE4F8491F901E05CFD4FD49174
:10061000F901E75DFD4FC491CC23A9F0162F81119C
:100620000E94A902EC2FF0E0EE0FFF1FE15EFD4FEC
:10063000A591B4918FB7F894EC91111108C0D095A1
:10064000DE23DC938FBFDF91CF911F910895DE2BC6
:10065000F8CFCF93DF9390E0FC01E05CFD4F249155
:10066000875D9D4FFC0184918823C9F090E0880F3D
:10067000991FFC01ED50FE4FA591B491FC01E15E84
:10068000FD4FC591D49161110DC09FB7F8948C9125
:10069000209582238C938881282328839FBFDF9114
:1006A000CF910895623051F49FB7F8943C91822F16
:1006B000809583238C93E8812E2BEFCF8FB7F8940E
:1006C000EC912E2B2C938FBFEACF4F925F926F92BB
:1006D0007F928F929F92AF92BF92CF92DF92EF92D2
:1006E000FF920F931F93CF93DF9300D000D01F9200
:1006F000CDB7DEB78C012A013B0180910C01863019
:10070000C9F08F3F09F4B6C00F900F900F900F9073
:100710000F90DF91CF911F910F91FF90EF90DF909D
:10072000CF90BF90AF909F908F907F906F905F9091
:100730004F900895E4E1F2E084918D8387FDE4CF4A
:1007400061E086E00E9429038D81882321F09D814C
:10075000923009F04FC14801B12CA12C60E072E148
:100760008AE790E0A50198010E94C53729833A8362
:100770004B835C8369017A0181E0C81AD108E108E2
:10078000F1089FEFC916D104E104F10409F00CF45B
:1007900012C160E472E48FE090E0A50198010E942C
:1007A000C53769017A0181E0C81AD108E108F1086A
:1007B0009D81923009F07BC18FEFC816D104E1040E
:1007C000F10409F00CF4D0C160E970ED83E090E031
:1007D000A50198010E94C53769017A0191E0C91A03
:1007E000D108E108F1088FEFC816D104E104F10443
:1007F00009F00CF4BBC168E478EE81E090E0A5015B
:1008000098010E94C53769017A0191E0C91AD1089F
:10081000E108F1088FEFC816D104E104F10411F0EA
:100820000CF099C084E09091B100987F892B80935F
:10083000B1002FEF3FEFA90141145104610471048D
:1008400009F0CAC09D81913009F4FEC0923009F4CC
:100850001EC1911159CFC7BC2093B6063093B7067D
:100860004093B8065093B90680916E0082608093E1
:100870006E004ACF86E080930C01E4E1F2E09491AF
:100880009D839F3F09F440CF913029F158F0923079
:1008900009F43FC08D8187FD37CF61E086E00E947B
:1008A000290355CF14BC15BC84B5826084BD85B5C1
:1008B000816085BDEFE2F2E0E491F0E0EE0FFF1F12
:1008C000E15EFD4F85919491E6E4F2E0E491E093DE
:1008D000AD061D8235CF109280001092810080916C
:1008E0008100886080938100809181008160809385
:1008F0008100EFE2F2E0E491F0E0EE0FFF1FE15E35
:10090000FD4F85919491E6E4F2E0E491E093AC062A
:1009100017CF1092B0001092B1008091B0008260A9
:100920008093B0008091B10081608093B100EFE2CC
:10093000F2E0E491F0E0EE0FFF1FE15EFD4F8591E4
:1009400094919093AB068093AA06E6E4F2E0E491DA
:10095000E093A906F5CE64E274EF80E090E0A50193
:1009600098010E94C53769017A0191E0C91AD1083E
:10097000E108F1088FEFC816D104E104F10409F091
:1009800008F4F6C062E17AE780E090E0A501980102
:100990000E94C53769017A0191E0C91AD108E108BE
:1009A000F1088FEFC816D104E104F10411F008F04A
:1009B000C9C086E038CF81E09D81911134CF95B5D3
:1009C000987F892B85BD2FEF3FEFA901411451047A
:1009D0006104710409F43FCFD801AA0FBB1FA30122
:1009E00092010E94E43728EE33E040E050E00E949C
:1009F0002E3828CFB12CA12C60E072E18AE790E07C
:100A0000A50198010E94C53769017A0181E0C81AE1
:100A1000D108E108F108C114D10491E0E906F1041C
:100A20002CF591E08D81813009F003CF8091810018
:100A3000887F892B809381002FEF3FEFA90141141C
:100A400051046104710441F6D0928900C09288007B
:100A50002093B2063093B3064093B4065093B50684
:100A600080916F00826080936F004ECE68E478EED4
:100A700081E090E0A50198010E94C53769017A01E3
:100A800081E0C81AD108E108F10893E0CBCFC09209
:100A9000B3002093AE063093AF064093B006509358
:100AA000B106809170008260809370002DCE82E04C
:100AB0009FEFC916D104E104F10409F00CF47CCFD6
:100AC00068E478EE81E090E0A50194010E94C537CA
:100AD00069017A0191E0C91AD108E108F1088FEFA4
:100AE000C816D104E104F10409F014F483E064CFE2
:100AF00062E17AE780E090E0A50194010E94C537A9
:100B000069017A0181E0C81AD108E108F10884E09E
:100B10009FEFC916D104E104F10409F008F44CCFA9
:100B2000C980DA80EB80FC808AE0F594E794D79462
:100B3000C7948A95D1F791E0C91AD108E108F10864
:100B400085E03ACFC980DA80EB80FC809AE0F594AA
:100B5000E794D794C7949A95D1F781E0C81AD10841
:100B6000E108F10887E05FCE82E05DCE83E05BCEF6
:100B700085E059CE8E50806480937C0080917A000D
:100B8000806480937A0080917A0086FDFCCF80910A
:100B900078009091790008958230910538F0880F9F
:100BA000991F880F991F05970197F1F708953FB78F
:100BB000F8948091740690917506A0917606B09194
:100BC000770626B5A89B05C02F3F19F00196A11DF9
:100BD000B11D3FBFBA2FA92F982F8827BC01CD0187
:100BE000620F711D811D911D42E0660F771F881FE6
:100BF000991F4A95D1F708958F929F92AF92BF9215
:100C0000CF92DF92EF92FF926B017C010E94D70599
:100C10004B015C01C114D104E104F104B9F00E945C
:100C2000D705681979098A099B09683E73408105CF
:100C3000910580F321E0C21AD108E108F10888EE9D
:100C4000880E83E0981EA11CB11CE4CFFF90EF90AA
:100C5000DF90CF90BF90AF909F908F9008952FB767
:100C6000F89460917006709171068091720690916F
:100C700073062FBF08954F925F926F927F929F925B
:100C8000AF92BF92CF92DF92EF92FF920F931F939A
:100C9000CF93DF9300D01F92CDB7DEB7D090CF06B1
:100CA0008091D2069091D306A091D406B091D5063A
:100CB000892B8A2B8B2BD9F00E94D7050091CB066C
:100CC0001091CC062091CD063091CE06601B710BA1
:100CD000820B930B0091D2061091D3062091D4067B
:100CE0003091D5066017710782079307C8F20E94FA
:100CF000D7056093CB067093CC068093CD06909376
:100D0000CE06E091DA06F091DB06309759F040917B
:100D1000D6065091D7066091D8067091D9068D2DD0
:100D20000995D82EE090C906F090CA064D2C512C9A
:100D3000712C612CE114F10409F459C0D7011C96FF
:100D4000CC901C978091D0069091D1068436910565
:100D500010F41C961C92D701ED91FC91A280B380F7
:100D600019821A821B82DD2079F1F701369610E094
:100D700000E02191222319F19280992001F130E0C5
:100D800050E040E02F5F3F4F4F4F5F4FC301B20134
:100D90000E9443399B01AC01892D90E0B0E0A0E0B6
:100DA000BC01CD016F5F7F4F8F4F9F4F0E94433932
:100DB000A1E0B0E0AC0FBD1FA00FB11F8C930F5F7F
:100DC0001F4F03301105A9F609811A812B81F70104
:100DD0004585568562817381C701F5010995D70163
:100DE0001C96CC921C971496ED90FC90A3CF80910A
:100DF000C7069091C8068C010F5F1F4F1093C8065D
:100E00000093C7064997B4F10E942F06C090C3060D
:100E1000D090C406E090C506F090C6069B01AC01D8
:100E20002C193D094E095F0921F421E030E040E032
:100E300050E088EE93E0089FB001099F700D189F65
:100E4000700D1124072E000C880B990B0E942E3870
:100E50003093D1062093D0061092C8061092C70690
:100E60000E942F066093C3067093C4068093C50644
:100E70009093C6060F900F900F90DF91CF911F9126
:100E80000F91FF90EF90DF90CF90BF90AF909F9029
:100E90007F906F905F904F90089581E080936D06F2
:100EA000089581E080936A0608950895089508954D
:100EB00090910C0189130BC0E4E1F2E0E4919FEF03
:100EC00090930C01E13049F028F0E23061F060E0ED
:100ED0000C94FB0210926E00FACF90916F009D7FF0
:100EE00090936F00F4CF909170009D7F909370006D
:100EF00091E09093B0009091B100987F94609093AE
:100F0000B1001092B300E3CFAF92BF92CF92DF92C5
:100F1000EF92FF920F931F93CF93DF936C017B01AE
:100F20008B01040F151FEB015E01AE18BF08C0173F
:100F3000D10759F06991D601ED91FC910190F081B2
:100F4000E02DC6010995892B79F7C501DF91CF9175
:100F50001F910F91FF90EF90DF90CF90BF90AF90D7
:100F600008954115510529F4EAE7F0E080818F7773
:100F700080836A307105B9F0CB01880F991F880F03
:100F8000991F807267706860682B88E10FB6F894CB
:100F9000A895809360000FBE60936000E0E6F0E0EB
:100FA000808180648083232BD9F483B7817F846020
:100FB00083BFF89483B7816083BF85B7806685BFA0
:100FC0008F7D85BF7894889583B78E7F83BF789413
:100FD000452B29F4EAE7F0E080818068808308955A
:100FE00083B7817F846083BFF89483B7816083BFB8
:100FF0007894889583B78E7F83BF7894E9CFFC017E
:1010000083858F3F19F061E00C94FB020895FC0189
:1010100080819181892B39F0A281B3819C911196B5
:101020008C919CBD8DBD83858F3F19F060E00C9441
:10103000FB020895AF92BF92CF92DF92EF92FF92A0
:101040000F931F93CF93DF93EC0188819981892BB4
:1010500089F06EBD0DB407FEFDCFBEB48B2DDF91C0
:10106000CF911F910F91FF90EF90DF90CF90BF90A5
:10107000AF9008958885998511E0892B09F010E8D3
:10108000AA24A394862F812309F0A12C062F2C815A
:101090003D814E815F8160E271EA87E090E00E94CD
:1010A0002E38F22EB02EE12CC22ED12CFF2019F0BA
:1010B000C6010E94CC058A85877F09F042C08D85D4
:1010C0008F3F89F0902F912381E009F480E08A1509
:1010D00051F0EF85F8898F89992369F19081892BE7
:1010E0008083AA24A394E989FA898081998D892B28
:1010F0008083FF2019F0C6010E94CC058E858F3FAA
:1011000039F0EB89FC898081988D892309F0E12AE7
:10111000E989FA899081898D8095892380838E85DC
:101120008F3F09F0BE2C88859985892BB9F5110F61
:101130001111BCCF93CF9081809589238083A12CFE
:10114000D2CFE989FA898081998D892B8083FF200C
:1011500019F0C6010E94CC058D858F3F49F0EF85BF
:10116000F8898F89902F9123A9F09081892B808312
:10117000E989FA899081898D8095892380838E857C
:101180008F3F69F2EB89FC898081988D892339F240
:10119000E12AC5CF908180958923E9CF1695C8CFE4
:1011A0008F929F92AF92BF92CF92DF92EF92FF9277
:1011B0000F931F93CF93DF937C014B016A01B22EF3
:1011C000A32E0E940708E401C80CD91CCC15DD052C
:1011D00069F4CB2DDA2D0C0F1D1FC017D10759F064
:1011E0006FEFC7010E941A088993F7CF6991C70171
:1011F0000E941A08EBCFC7010E94FF0781E0DF9130
:10120000CF911F910F91FF90EF90DF90CF90BF9003
:10121000AF909F908F9008958F929F92AF92BF92C0
:10122000CF92DF92EF92FF920F931F93CF93DF93B2
:101230007C01B62EA72E6A0149010E940708E4012D
:10124000080D191DC017D10761F4CB2DDA2DCC0E76
:10125000DD1ECC15DD0551F06991C7010E941A0809
:10126000F8CF6991C7010E941A08ECCFC7010E940C
:10127000FF0781E0DF91CF911F910F91FF90EF90D9
:10128000DF90CF90BF90AF909F908F9008951F9365
:10129000CF93DF93EA01122FDC0111968D919C917F
:1012A000DC01ED91FC910280F381E02D0995C817D6
:1012B000D90729F4812F0E947F0191E0811190E0EC
:1012C000892FDF91CF911F910895AF92BF92CF9256
:1012D000DF92EF92FF920F931F93CF93DF9300D093
:1012E000CDB7DEB7DC01211103C018962C911897F9
:1012F000253008F043C01F964D935D936D937C930A
:10130000529790E080E0E22EF12C8E159F05B4F408
:101310001A962C911A9721110AC0FD01E80FF91FA6
:101320004387452F562F672F77270196EECFF7017A
:10133000E81BF90BEA0FFB1F4287F3CF6D018BE02F
:10134000C80ED11C16969C91169717968C911797DC
:1013500099838A83AD90BC901197A114B10409F4CC
:1013600041C019960C9110E098012E0D3F1DD5013A
:1013700014968D919C918217930710F480E016C00B
:10138000F50181819281208131E03093850620939F
:10139000A706109286061092A8060115110599F469
:1013A00021E0A701B601C5010E9447090F900F90E7
:1013B000DF91CF911F910F91FF90EF90DF90CF9031
:1013C000BF90AF900895DC01ED91FC910280F38114
:1013D000E02DA801BE016F5F7F4F0995081719071F
:1013E00069F6DECF1296ED91FC911397309731F2AA
:1013F00014962D913C91159719960C9110E023307D
:10140000310571F48E7F89839A830F5F1F4F9E0190
:101410002F5F3F4FA701B601CF010E940C09C6CF35
:101420002115310519F49F779983F1CF22303105C9
:1014300011F49068F9CF2130310549F79F77906416
:10144000F3CF85ED8093BC008091BC0084FDFCCF80
:1014500010928406089520910606260F3327331F25
:1014600021323105ECF420918406FC0190E080E00B
:10147000243069F082E00895A09106062191AC0124
:101480004A515A4FA40FB52FB11D2C9301968617C0
:1014900098F380910606680F6093060680E0089531
:1014A00081E008951092840681E080938306109273
:1014B0007C0661E082E10E94FB0261E083E10E9420
:1014C000FB02E9EBF0E080818E7F808380818D7F5D
:1014D000808388E48093B80085E48093BC000895FD
:1014E000CF93DF93EC018B818823A1F0888191E079
:1014F000909385068093A706109286061092A80600
:1015000081E00E947F0191E0811190E0892FDF91BD
:10151000CF91089510924F0610924E0610928606B3
:101520001092A8060E94520A86E597E090934D0615
:1015300080934C0687E597E090934B0680934A068C
:1015400081E08B83CE010E94700A982F8111CECF4B
:10155000DDCF0895E0914F0680914E06E81730F4F4
:10156000F0E0E75DF94F808190E008958FEF9FEF05
:10157000089590914F0680914E062FEF3FEF9817F8
:1015800048F4E92FF0E0E75DF94F208130E09F5FFC
:1015900090934F06C901089580914E0690914F0691
:1015A000891B990B0895CF92DF92EF92FF920F93D0
:1015B0001F93CF93DF937C01CB018A012091850695
:1015C000222389F0EB016B01C40ED51ECC15DD057D
:1015D00069F06991D701ED91FC910190F081E02DC6
:1015E000C7010995F3CF642F0E942B0AC801DF9130
:1015F000CF911F910F91FF90EF90DF90CF900895C2
:10160000CF93DF931F92CDB7DEB769832091850614
:101610002223F9F02091A806203258F021E030E092
:10162000FC013383228390E080E00F90DF91CF9123
:10163000089580918606E82FF0E0E957F94F9981E7
:1016400090838F5F809386068093A80681E090E068
:10165000ECCF61E0CE0101960E942B0AF7CF2091DA
:101660007A0630917B062817390771F49091780635
:1016700080917906981741F0E0917806F0E0EA55FC
:10168000FA4F808190E008958FEF9FEF08950F93B8
:101690001F930E942F0660930007709301078093A9
:1016A00002079093030788EF96E00E942F0B97FFA5
:1016B0001DC00E942F060091000710910107209184
:1016C000020730910307601B710B820B930B009193
:1016D000FC061091FD062091FE063091FF06601772
:1016E000710782079307F8F28FEF9FEF1F910F9119
:1016F0000895EF92FF920F931F93CF93DF93DC0136
:101700005C96ED90FC905D97E114F10479F481E032
:1017100090E013969C938E93129790E080E0DF9177
:10172000CF911F910F91FF90EF9008955196ED91F9
:10173000FC91529750968C915097982F90950FB797
:101740005E962C915E97122F127021FD6095F89491
:101750002081112319F1282B2083E7012197F1F72C
:1017600028E0462F50E0308160FF1AC0382B3083CC
:10177000E7012197F1F7BA0175956795215089F72F
:10178000112381F08081892380830FBF5C968D9126
:101790009C910197F1F781E090E0C1CF2923DCCF44
:1017A0003923E5CF9081892BEFCF20917A063091B4
:1017B0007B062817390761F4809179062091780615
:1017C00090E0805C9F4F821B91098F739927089549
:1017D00090E080E0089520917A0630917B062817EA
:1017E0003907B9F49091780680917906981789F0B5
:1017F000E0917806F0E0EA55FA4F80812091780672
:1018000030E02F5F3F4F2F7333272093780690E00F
:1018100008958FEF9FEF089590E080E008950F9373
:101820001F93CF93DF932091A5052F5F322F377041
:101830003093A50520FF2BC020E831FD20643470D3
:1018400009F02062205FFC01EC01239600E011E02A
:101850006485662329F070E0C8010E9453396F5FE8
:101860006187322F369F030E30E0311D1124311174
:1018700010C01682662311F0615061873196EC1713
:10188000FD0731F7DF91CF911F910F91089520E06F
:10189000D4CF31503683EECF4F925F927F928F92AA
:1018A0009F92AF92BF92CF92DF92EF92FF920F93EF
:1018B0001F93CF93DF932C01EB010E94D705F20118
:1018C00027853089621B730B6A307105B0F3F89479
:1018D0008A819B81181619060CF0CBC1E881F98129
:1018E00005B1086075B1777F75B9BA848F812B2DEA
:1018F000281B822F2F834F85042E000C550BAA81A5
:10190000BB81ED84DC84CE84E394D394C3949E8124
:10191000388599848B84118120E0F32E622F322F39
:101920003181112788943111380F08F43FEF8195E8
:101930008894E0FC130F17958894E1FC130F17951A
:101940008894E2FC130F17958894E3FC130F179506
:101950008894E4FC130F17958894E5FC130F1795F2
:101960008894E6FC130F17958894E7FC130F1795DE
:101970008894232FE110212F8B0D122F002C05B9F5
:1019800000C017FF75B930812227889400C000C0BD
:10199000002C75B93111390F00C0002C05B900C0F9
:1019A00016FF75B908F43FEF9195889400C000C008
:1019B000002C75B9D0FC230F00C0002C05B900C065
:1019C00015FF75B927958894D1FC230F00C000C07E
:1019D000002C75B92795889400C0002C05B900C06B
:1019E00014FF75B9D2FC230F2795889400C000C05E
:1019F000002C75B9D3FC230F00C0002C05B900C022
:101A000013FF75B927958894D4FC230F00C000C03C
:101A1000002C75B92795889400C0002C05B900C02A
:101A200012FF75B9D5FC230F2795889400C000C01C
:101A3000002C75B9D6FC230F00C0002C05B900C0DE
:101A400011FF75B927958894D7FC230F00C000C0FB
:101A5000002C75B92795889400C0002C05B900C0EA
:101A600010FF75B9132FD110122F990D00C000C0AF
:101A7000002C75B900C000C0002C05B900C017FFCC
:101A800075B932812227889400C000C0002C75B936
:101A900031113F0D00C0002C05B900C016FF75B90B
:101AA00008F43FEFE40FF51F00C000C0002C75B92B
:101AB000C0FC230F00C0002C05B900C015FF75B98C
:101AC00027958894C1FC230F00C000C0002C75B975
:101AD0002795889400C0002C05B900C014FF75B983
:101AE000C2FC230F2795889400C000C0002C75B954
:101AF000C3FC230F00C0002C05B900C013FF75B94B
:101B000027958894C4FC230F00C000C0002C75B931
:101B10002795889400C0002C05B900C012FF75B944
:101B2000C5FC230F2795889400C000C0002C75B910
:101B3000C6FC230F00C0002C05B900C011FF75B909
:101B400027958894C7FC230F00C000C0002C75B9EE
:101B50002795889400C0002C05B900C010FF75B906
:101B6000132FC110122FF19400C000C0002C75B9C2
:101B7000F80C00C000C005B900C017FF75B931816D
:101B80002227889400C000C0002C75B93111380F8D
:101B900000C0002C05B900C016FF75B908F43FEF6E
:101BA0008195889400C000C0002C75B9E0FC230F1B
:101BB00000C0002C05B900C015FF75B927958894A1
:101BC000E1FC230F00C000C0002C75B92795889454
:101BD00000C0002C05B900C014FF75B9E2FC230F4A
:101BE0002795889400C000C0002C75B9E3FC230F32
:101BF00000C0002C05B900C013FF75B92795889463
:101C0000E4FC230F00C000C0002C75B92795889410
:101C100000C0002C05B900C012FF75B9E5FC230F08
:101C20002795889400C000C0002C75B9E6FC230FEE
:101C300000C0002C05B900C011FF75B92795889424
:101C4000E7FC230F00C000C0002C75B927958894CD
:101C500000C0002C05B900C010FF75B9132FE110AA
:101C6000122F8B0D00C000C0002C75B9119709F020
:101C700086CE4A815B8120EE31E0DA010E9467392D
:101C8000DC01CB01F4E0B695A79597958795FA9579
:101C9000D1F730E020E0B901EAE94E9F040E611D62
:101CA0005E9F600D711D1124650F711D860F971FBA
:101CB000A11DB11D893E43E09407A105B10508F4BB
:101CC00034C0885E9340A109B10942E0B695A7955A
:101CD000979587954A95D1F747E0849F080E211D77
:101CE000949F200D311D1124290F311D6091A405F1
:101CF00070E0860F971F820F931F409170065091DE
:101D000071066091720670917306292F3327420F76
:101D1000531F611D711D40937006509371066093AF
:101D20007206709373068093A40578940E94D70579
:101D3000F201708B6787DF91CF911F910F91FF9018
:101D4000EF90DF90CF90BF90AF909F908F907F905B
:101D50005F904F90089580E991E0089581E090E0D0
:101D60000895239A08956F927F928F92CF92DF9277
:101D7000EF92FF920F931F93CF93DF93CDB7DEB710
:101D800062970FB6F894DEBF0FBECDBF6C017A012B
:101D90003801822EDC011C962C91CA0157FF04C029
:101DA00088279927841B950B7A8369839C838B836F
:101DB0009E838D836D867E868F86213049F5CE0188
:101DC00001960E940F0C83E0888B1A8A198AF7FE0D
:101DD00002C08DEF888BD601ED91FC910684F785CA
:101DE000E02DBE016F5F7F4FC601099562960FB669
:101DF000F894DEBF0FBECDBFDF91CF911F910F9141
:101E0000FF90EF90DF90CF908F907F906F9008952C
:101E10001C861B861A86198618861F82D4CFEF92DD
:101E2000FF920F931F93CF93DF93CDB7DEB76297E7
:101E30000FB6F894DEBF0FBECDBF7C01DC011C964F
:101E40008C917A8369835C834B835E834D830D879A
:101E50001E872F878130F9F4CE0101960E940F0C66
:101E6000188A1A8A198AD701ED91FC910684F785A0
:101E7000E02DBE016F5F7F4FC701099562960FB6D7
:101E8000F894DEBF0FBECDBFDF91CF911F910F91B0
:101E9000FF90EF9008951C861B861A861986188677
:101EA0001F82DECFEF92FF920F931F93CF93DF93AA
:101EB00000D000D000D0CDB7DEB78EE480937C0098
:101EC00065E070E080E090E00E94FC0580917A007F
:101ED000806480937A0080917A0086FDFCCF8091A7
:101EE00078009091790080917A00806480937A00E4
:101EF00080917A0086FDFCCF8091780090917900E6
:101F00008E010F5F1F4F7E0147E0E40EF11C8091B0
:101F10007A00806480937A0080917A0086FDFCCFFD
:101F20008091780090917900F801819391938F01CD
:101F300088EC90E00E94CC05E016F10641F749815B
:101F40005A812B813C818D819E812417350718F59C
:101F50008217930728F09A018217930708F49C01CF
:101F6000C901C2978E3C9340D8F450E040E064EB46
:101F70007BE281E190E00E942E38C90126960FB6DF
:101F8000F894DEBF0FBECDBFDF91CF911F910F91AF
:101F9000FF90EF90089584179507F0F69A01E0CF2F
:101FA00090E080E0EBCFCF92DF92EF92FF920F9321
:101FB0001F93CF93DF93CDB7DEB72F970FB6F8946B
:101FC000DEBF0FBECDBF80916C06882309F454C0DC
:101FD0008091170190911801A091190189839A832A
:101FE000AB838E010F5F1F4F6E0184E0C80ED11CC2
:101FF000F801F1908F0161E08F2D0E94FB026EE5E8
:1020000071E080E090E00E94FC0560E08F2D0E946E
:10201000FB02C016D10661F7F98061E08F2D0E94A6
:10202000FB020A8161E0802F0E94FB021B8161E0BC
:10203000812F0E94FB026EE571E080E090E00E943B
:10204000FC0560E08F2D0E94FB0260E0802F0E9463
:10205000FB0260E0812F0E94FB022F960FB6F894DE
:10206000DEBF0FBECDBFDF91CF911F910F91FF90CB
:10207000EF90DF90CF9008958FEF89831A821B82B3
:102080001C8290E89D831E821F82188689878A871A
:102090008B878C878E010F5F1F4F7E01FDE0EF0E57
:1020A000F11CC8010E9467010E943B066EE571E0C9
:1020B00080E090E00E94FC050D5F1F4F0E151F058C
:1020C00081F71D861E861F86C8010E9467010E9437
:1020D0003B06C3CF8F929F92AF92BF92CF92DF9277
:1020E000EF92FF920F931F936B017C010E942F06CA
:1020F00000919505109196052091970530919805CE
:102100000115110521053105C9F0809091059090C8
:102110009205A0909305B09094058C149D04AE0494
:10212000BF0461F4AB01BC01401B510B620B730B8C
:1021300081E0403A5F406105710508F080E01F9141
:102140000F91FF90EF90DF90CF90BF90AF909F9056
:102150008F900895CF9390910401C091030188233B
:1021600049F061E0892F0E94FB0260E08C2FCF9143
:102170000C94FB0260E0892F0E94FB0261E0F6CF25
:1021800060E0809104010E94FB0260E08091030105
:102190000C94FB02CF93DF93EB010E94AA10BE01C7
:1021A00090E080E00E94FC05DF91CF910C94C0107C
:1021B000EF92FF920F931F93CF93DF9302E711E00B
:1021C00084E6E82E81E0F82EF801819191918F014B
:1021D000F701C191D1917F01009729F0AE0170E024
:1021E00060E00E9465036496BE0190E080E00E947A
:1021F000FC05F1E000381F0739F786E0DF91CF9149
:102200001F910F91FF90EF900C945807CF93C091BE
:102210006C06CC23C9F0FC012081211108C021816A
:10222000211105C0C1E08281811101C0C0E06C2F85
:1022300087E00E94FB026C2F88E00E94FB026C2F5B
:1022400089E0CF910C94FB020E946701CF910C941E
:102250003B06AF92BF92CF92DF92EF92FF920F9325
:102260001F93CF93DF9300D01F92CDB7DEB75C01F1
:10227000062F10E06A01F12CE12CC5010E94061125
:10228000C701B6010E94FC0519821A821B82CE0189
:1022900001960E94061160E570E080E090E00E94E7
:1022A000FC051F5F0113E9CF0F900F900F90DF9196
:1022B000CF911F910F91FF90EF90DF90CF90BF9043
:1022C000AF90089580918D05811191C091E0909318
:1022D0008D0580916C068823C1F061E087E00E9443
:1022E000290360E087E00E94FB0261E088E00E9431
:1022F000290360E088E00E94FB0261E089E00E941F
:10230000290360E089E00C94FB028091850581112E
:1023100044C010927705109276058FEF80937A056E
:1023200080937B0580937C0580937D0580937E055B
:1023300080937F059093800510928205109281050D
:1023400010927905109278058091C9069091CA067D
:10235000892B31F484E795E09093CA068093C906EF
:10236000E0917205F0917305309721F084E795E0D4
:102370009583848384E795E0909373058093720539
:10238000109284051092830584E591E09093750581
:102390008093740581E080938505239A8AEB96E00B
:1023A000909377058093760583E090E09093820583
:1023B000809381058091D2069091D306A091D40696
:1023C000B091D506843C29E09207A105B10520F41F
:1023D00084EC99E0A0E0B0E08093D2069093D3061D
:1023E000A093D406B093D50682E38093CF060895D8
:1023F000CF92DF92EF92FF926C01CB01F12CE12C96
:10240000B701A6010E946503C701B6010E94FC0541
:1024100086E0FF90EF90DF90CF900C94580788E112
:1024200098E00FB6F894A895809360000FBE909343
:102430006000FFCF90E080E00895FC0185859685DF
:1024400008950F931F93CF93DF9300D01F92CDB7C2
:10245000DEB7AB0119821A821B82DC01ED91FC917F
:102460000190F081E02D00E010E020E0BE016F5F00
:102470007F4F09950F900F900F90DF91CF911F9193
:102480000F9108952F923F924F925F926F927F9299
:102490008F929F92AF92BF92CF92DF92EF92FF9274
:1024A0000F931F93CF93DF9300D0CDB7DEB7FC011E
:1024B0004B01042F9681878199838A83C080D180C4
:1024C000C114D10409F4B8C0418550E0D601149676
:1024D0008D919C9184179507B8F4312C832D0F9022
:1024E0000F90DF91CF911F910F91FF90EF90DF90B0
:1024F000CF90BF90AF909F908F907F906F905F90A4
:102500004F903F902F900895F601808191E0909335
:1025100085068093A706109286061092A80620E0F2
:10252000BE016F5F7F4FC6010E944709382E882386
:10253000A1F210E0B12CA12C22242394A016B10604
:1025400068F6809184068111FCCFD60114968D9196
:102550009C917801EA18FB088E159F0508F47C0110
:10256000F60190818E2D813208F080E2209284065F
:1025700041E098012E193F09A216B30608F440E085
:1025800040938306FFEFF093820629E236E0309312
:1025900081062093800610927F062FEF280F20934C
:1025A0007E0620927D0620917D06990F922B9093B6
:1025B0007D0690917C069130C1F510927C06909139
:1025C0007D069093BB009091BC0093FDF8CF35EC55
:1025D0003093BC00909184069130E1F390917F0696
:1025E000981710F480917F0610924F0680934E0644
:1025F0008E151F0409F071CF34016A0C7B1C230176
:10260000C201861997098E159F0598F4D601119677
:102610008D919C91DC01ED91FC910284F385E02D7C
:102620000995F20181932F01EBCF95EE9093BC00B9
:10263000D1CFAE0CBF1C82CFA281B381109709F419
:102640004CCF2481358110E0418550E023303105A5
:1026500071F4816089839A834F5F5F4F9401BE015B
:102660006F5F7F4FCD010E94D008382E37CF2115E4
:10267000310519F490689983F1CF2230310511F4B6
:102680009F77F9CF2130310549F7906CF4CFEF9265
:10269000FF920F931F93CF93DF93CDB7DEB7A6972B
:1026A0000FB6F894DEBF0FBECDBF8091E8069091C3
:1026B000E9061BA21CA21DA21EA29D8B8C8B1F8A49
:1026C0001E8A11E01D8F85E090E09B8F8A8F1E8F00
:1026D00002E00C8F4091EC065091ED066091EE0601
:1026E0007091EF0622E0CE0144960E946509809128
:1026F000E8069091E906188A198A1A8A1B8A9A8331
:1027000089831C821B821A8784E090E098878F83DC
:102710001B87098742E0BE01645F7F4FCE010196AF
:102720000E944212882341F0EC84FD849B8599230A
:1027300019F0FE24EF24FE248093EA06C701A69632
:102740000FB6F894DEBF0FBECDBFDF91CF911F91C2
:102750000F91FF90EF9008958F929F92AF92BF924A
:10276000EF92FF920F931F93CF93DF93EC014A01F7
:102770005B01E880F980B701655F7F4FF701408515
:10278000C7010E944212882309F1F701608570E0B9
:1027900030E020E080E090E0DC0126173707CCF441
:1027A000BA2FA92F982F8827F701428541110AC017
:1027B000FB01E21BF30BEE0DFF1D4285842B2F5F07
:1027C0003F4FEBCFE20FF31F4385F8CF8FEF9FEF23
:1027D000DC012A8101E010E002C0000F111F2A95E0
:1027E000E2F701501109012E000C220B330BEB8193
:1027F000B901A8010E2E04C0440F551F661F771F94
:102800000A94D2F74095509560957095842395234E
:10281000A623B7230990D881C02DB901A80148216A
:1028200059216A217B2104C0440F551F661F771F61
:10283000EA95D2F7482B592B6A2B7B2B2885CE01A2
:10284000DF91CF911F910F91FF90EF90BF90AF90CC
:102850009F908F900C946509CF93DF93CDB7DEB72F
:1028600067970FB6F894DEBF0FBECDBF2091E80684
:102870003091E906188A198A1A8A1B8A3A832983B1
:102880001C821B8291E09A8718861F829B8792E0A8
:1028900099879E012F5F3F4F3D8B2C8B93E09E8B42
:1028A0001F8A40E050E0BA01811104C047E050E0C7
:1028B00060E070E0CE0144960E94AC138093EA067B
:1028C00067960FB6F894DEBF0FBECDBFDF91CF91F4
:1028D00008954F925F926F927F928F929F92AF92E4
:1028E000BF92CF92DF92EF92FF92CF93DF93C82FE8
:1028F00010928E051092900510928F0580915306CC
:10290000811128C068EE73E08C2F0E94CA1080915C
:102910008E05882309F4BAC068E572E080E090E093
:102920000E94FC050E94520F01976AEF70E08B3CF9
:10293000904108F0BEC0DF91CF91FF90EF90DF9003
:10294000CF90BF90AF909F908F907F906F905F904F
:102950004F90089588E199E20FB6F894A895809376
:1029600060000FBE9093600080E00E942C148C2FBA
:102970000E94AA100E942F066B017C010E942F0664
:102980006C197D098E099F09603177428105910597
:1029900008F06BC0A895D9E1812C912C54010E94BC
:1029A0004713BC01990F880B990B0E948F362B019E
:1029B0003C016091F0067091F1068091F2069091D1
:1029C000F3060E948D369B01AC01C301B2010E9447
:1029D000CC389B01AC01C501B4010E9460384B01A9
:1029E0005C01D150E1F60E942F066C197D098E0919
:1029F0009F096D3271408105910588F020E030E03B
:102A000048EC51E4C501B4010E94CC389F7720E026
:102A100030E046E953E40E943E39181634F10E9432
:102A20002F066C197D098E099F096D327140810551
:102A3000910508F4A3CF0E94520F009771F02091E6
:102A40008F05309190052115310519F082179307F4
:102A500020F49093900580938F0501978B3C9041D3
:102A600008F08CCF81E080938E050E94C01081E039
:102A70000E942C140FB6F894A8958091600088618C
:102A800080936000109260000FBE41CF809153068A
:102A9000882309F16EE571E080E090E00E94FC057A
:102AA0000E94520F019764E873E08B3C904108F458
:102AB00042CF81E08C27DF91CF91FF90EF90DF90A4
:102AC000CF90BF90AF909F908F907F906F905F90CE
:102AD0004F900C94CA106EE571E080E090E00E9487
:102AE000FC050E94520F01978B3C904108F423CFC4
:102AF00068EC70E0DECF0E946A3BCF93DF93DC018D
:102B000014962D913C911597232B79F0FB01CD91D3
:102B1000DC9160817181CE010E949E3B009729F07B
:102B20008C1B9D0BDF91CF9108958FEF9FEFFACF14
:102B3000FB0144815581FC0124813581241735072F
:102B400078F080819181009759F0FB01608171815B
:102B50006115710529F00E94903B21E0892B09F055
:102B600020E0822F0895FC0180819181009711F06F
:102B70000C94243A0895FB0101900020E9F7319765
:102B8000AF01461B570BDC01ED91FC910280F381F4
:102B9000E02D09940C94BB15BC018091000190912B
:102BA00001010E94CA158091000190910101DC0190
:102BB000ED91FC910190F081E02D6AE00995809102
:102BC000000190910101DC01ED91FC910680F781FB
:102BD000E02D09956CE070E080E090E00C94FC053D
:102BE00088EB91E00E94CC1566E970E080E090E00F
:102BF0000E94FC0588EB91E00C94CC15CF92DF92FB
:102C0000EF92FF92CF93C4E088EF96E00E94D50B3D
:102C1000892B29F088EF96E00E94EB0BF5CF6BEB48
:102C200071E088EF96E00E94CA150E942F066B01A2
:102C30007C010E942F066C197D098E099F096A3F4D
:102C400071058105910540F488EF96E00E94D50B4F
:102C5000892B79F381E003C0C150B1F680E0CF91B8
:102C6000FF90EF90DF90CF900895CF92DF92EF9298
:102C7000FF92CF9383E00E94D202019759F10E9404
:102C8000FE15C82F811126C088EF96E00E94D50B53
:102C9000892B29F088EF96E00E94EB0BF5CF6FEBC4
:102CA00071E088EF96E00E94CA150E942F066B0122
:102CB0007C010E942F066C197D098E099F09623CD8
:102CC00071408105910538F488EF96E00E94D50B9C
:102CD000892B79F3C1E08C2FCF91FF90EF90DF909B
:102CE000CF9008950F931F93CF93DF938C01EB0147
:102CF0004423A9F16DE088EF96E00E94790B6CE027
:102D000070E080E090E00E94FC05B80188EF96E05A
:102D10000E94CA156DE088EF96E00E94790B69E188
:102D200070E080E090E00E94FC05B80188EF96E03A
:102D30000E94CA156DE088EF96E00E94790BBE01F3
:102D400090E080E00E94FC0588EF96E00E94D50BA1
:102D5000892B51F088EF96E00E94EB0BF5CF83E0D2
:102D60000E94D202019731F6DF91CF911F910F910E
:102D700008950F931F93CF93DF93CDB7DEB72C97B2
:102D80000FB6F894DEBF0FBECDBF7F936F939F93B6
:102D90008F9389EC91E09F938F931F928CE08F9398
:102DA0008E010F5F1F4F1F930F930E94B83B40E0AF
:102DB00066E970E0C8010E9472160FB6F894DEBF93
:102DC0000FBECDBF2C960FB6F894DEBF0FBECDBFA1
:102DD000DF91CF911F910F9108954F925F926F9263
:102DE0007F92BF92CF92DF92EF92FF920F931F9349
:102DF000CF93DF93CDB7DEB7C054D1090FB6F894A7
:102E0000DEBF0FBECDBF80916C06882309F448C099
:102E100040E066E970E080ED91E00E94721640E0CB
:102E200066E970E089ED91E00E9472168DE596E00A
:102E300020915D06222309F48FC09F938F9382EE29
:102E400091E09F938F931F9288E18F936E0129E207
:102E5000C20ED11CDF92CF920E94B83B0FB6F894FD
:102E6000DEBF0FBECDBF03E088E2B82EFE01319673
:102E70007F0140E068EC70E0C6010E94721683E0BA
:102E80000E94D202019709F467C088EF96E00E9481
:102E9000D50B892B01F188EF96E00E94EB0BF5CF63
:102EA00083E00E94D202019709F0B2CFC05CDF4FED
:102EB0000FB6F894DEBF0FBECDBFDF91CF911F914B
:102EC0000F91FF90EF90DF90CF90BF907F906F9029
:102ED0005F904F9008956CEE71E088EF96E00E944D
:102EE000CA15F7012B2D11922A95E9F70E942F069A
:102EF0002B013C0110E00E942F0664197509860918
:102F00009709603971408105910590F488EF96E04A
:102F10000E94D50B892B79F3173268F788EF96E07A
:102F20000E94EB0BF701E10FF11D80831F5FE3CFE0
:102F3000112391F066EF71E0C7010E949E3BBC0136
:102F400040E0892B09F093C06DE576E0C7010E944F
:102F50009E3B892B09F4C5C040E066E970E08BEF29
:102F600091E00E94721640E066E970E084E092E031
:102F70000E94721640E066E970E08DE092E00E94E7
:102F8000721640E066E970E086E192E00E947216F7
:102F900080916C06882309F47AC040E066E970E00D
:102FA0008FE192E00E94721640E066E970E088E2EC
:102FB00092E00E94721640E066E970E081E392E0E0
:102FC0000E94721640E066E970E08AE392E00E9497
:102FD000721640E066E970E083E492E00E947216A7
:102FE00040E066E970E08CE492E00E94721640E0F6
:102FF00066E970E087E592E00E94721640E066E9BB
:1030000070E082E792E00E94721680915106813052
:1030100009F44CCF809152068150833008F046CF9E
:1030200080916C06811105C080910A0190E08C307E
:1030300011F486E090E09F938F938BE792E09F934B
:103040008F931F928EE08F938E010F5F1F4F1F9300
:103050000F930E94B83B40E066E970E0C8010E940F
:1030600072160FB6F894DEBF0FBECDBF1FCF242F50
:1030700030E0F901E35AF94F8081260F371FF9013B
:103080009481882329F189132CC04F5FF0CF809160
:103090000A0100E210E08C3079F09DEF980F10E00B
:1030A00000E09A3048F48350990B01E010E002C030
:1030B000000F111F8A95E2F7B80182E692E00E94A4
:1030C000B916B80168608AE692E00E94B91696CFF8
:1030D000992309F441CF9D3009F43ECF9A3009F489
:1030E0003BCF015009F0C5CE37CFEF92FF920F933F
:1030F0001F93CF93DF93EC017B01198218821B820F
:103100001A821D821C82FB0101900020E9F7319791
:103110008F01061B170BB8016F5F7F4F90E080E0B7
:103120000E94AD3A0097B9F0998388831B830A8384
:103130002C813D81232B11F4FC0110821D830C8313
:10314000B70188819981DF91CF911F910F91FF90F5
:10315000EF900C94893B88819981009711F00E942F
:10316000243A198218821D821C821B821A82DF91E6
:10317000CF911F910F91FF90EF900895CF92DF9222
:10318000EF92FF920F931F93CF93DF93EB017B019D
:1031900024E0E20EF11C8B016C01C61AD70AC601AD
:1031A000800F911F0E94AF37F80181938F01EE15B8
:1031B000FF05A9F7CE01DF91CF911F910F91FF90ED
:1031C000EF90DF90CF9008950F931F93CF93DF93ED
:1031D0008C01EB010E94AF378883C80101960E94E1
:1031E000AF378983CE01DF91CF911F910F91089561
:1031F0000C94AF371F93CF93DF93EC01162F0E94EF
:10320000AF37181739F0612FCE01DF91CF911F91A1
:103210000C94B737DF91CF911F9108954F925F9231
:103220006F927F928F929F92AF92BF92CF92DF92D6
:10323000EF92FF921F93CF93DF9300D01F92CDB7F1
:10324000DEB70E942F06603D77408105910558F05A
:10325000809102018823D1F082E00E94D202892B62
:1032600011F0109202010F900F900F90DF91CF910B
:103270001F91FF90EF90DF90CF90BF90AF909F9005
:103280008F907F906F905F904F9008956EE170E007
:1032900080E090E00E94FC0582E00E94D202892B2F
:1032A00011F781E0809302010E942F062B013C015F
:1032B000812C912C540116E982E00E94D202892BC4
:1032C00009F060C00E942F066419750986099709E4
:1032D000603127E272078105910550F160E173E0EA
:1032E00088E790E00E94F81163E972E088E790E0D7
:1032F0000E94F8116BE072E088E790E00E94F811FC
:1033000068E871E088E790E00E94F8118FEF898308
:103310001A821B8248E750E063E0CE0101960E94CA
:10332000291160E08EE893E00E94FA180E940F12C3
:1033300028EE33E040E050E00E942E3869017A0127
:1033400083E0C816D104E104F104C8F0C814D9041C
:10335000EA04FB0459F0129FB001139F700D112471
:1033600060557B4F88E290E00E94F8116AE070E0BF
:1033700080E090E00E94FC05460157019DCF750159
:103380006401F4CF0E942F06641975098609970914
:103390006032734081059105A0F4F090A30581E0AF
:1033A000F826F092A30568E077E0FF2011F060E6D0
:1033B00079E082E390E00E94F8118F2D0E94691459
:1033C00052CF64EF71E088E790E00E94F8114BCF94
:1033D000CF93C82F80935C06682F83E090E00E9413
:1033E000FA1861E084E090E00E94FA1868E27AE05E
:1033F0008CE390E00E94F81168EE73E080E090E0CA
:103400000E94FC0588EB91E00E94CC1566E970E013
:1034100080E090E00E94FC0589EB91E0CC2311F064
:103420008AEC92E00E94CC1580E00E946914CC23C3
:1034300049F06CE271E080E090E00E94FC0581E0E0
:103440000E94691460ED77E080E590E00E94F81139
:1034500060E679E080E590E0CF910C94F811FF925E
:103460000F931F93CF93DF93EC018B01FB01F0804F
:103470000E94AF37F81621F06F2DCE010E94B737AA
:10348000F801F1802196CE010E94AF37F81621F0A5
:103490006F2DCE010E94B737C801DF91CF911F91E8
:1034A0000F91FF900895EF92FF920F931F93CF9388
:1034B000DF93CDB7DEB768970FB6F894DEBF0FBEC7
:1034C000CDBF8FE00E94BA057E0121E1E20EF11C22
:1034D000BC01990F880B990B0E948F3620E030E0D9
:1034E00040EA5BE30E94EE36870122E040E00E9462
:1034F000B730FF92EF9287E892E09F938F931F92ED
:1035000080E18F93005111091F930F930E94B83BE4
:10351000C8010E94CC150FB6F894DEBF0FBECDBF18
:1035200068960FB6F894DEBF0FBECDBFDF91CF9186
:103530001F910F91FF90EF9008952F923F924F921D
:103540005F926F927F928F929F92AF92BF92CF9233
:10355000DF92EF92FF920F931F93CF93DF93CDB73C
:10356000DEB76E970FB6F894DEBF0FBECDBF182F33
:103570001B0180915306882309F498C080E00E94C3
:103580002C14812F0E94AA1068E770E080E090E080
:103590000E94FC050E942F062B013C0110E000E078
:1035A000C12CD12C76010E942F0664197509860959
:1035B00097096A3471408105910530F50E944713DF
:1035C000BC01990F880B990B0E948F364B015C014F
:1035D0006091F0067091F1068091F2069091F306E9
:1035E0000E948D369B01AC01C501B4010E94CC380C
:1035F0009B01AC015F77C701B6010E9460386B0187
:103600007C010F5F1F4FCFCF0E94C01081E00E944E
:103610002C1460E070E0CB010115110559F0B801E0
:1036200090E080E00E948D369B01AC01C701B6019D
:103630000E94CC387E0125E1E20EF11C870120E0DA
:1036400040E00E94B730FF92EF928EE892E09F93A5
:103650008F931F9284E18F93045111091F930F934D
:103660000E94B83BC8010E94CC150FB6F894DEBF8B
:103670000FBECDBFC1010E94CC156E960FB6F89457
:10368000DEBF0FBECDBFDF91CF911F910F91FF9095
:10369000EF90DF90CF90BF90AF909F908F907F90F2
:1036A0006F905F904F903F902F90089562EC71E083
:1036B000812F0E94CA108CE992E00E94CC15DACFCB
:1036C0000F931F93CF93DF93CDB7DEB760970FB6FD
:1036D000F894DEBF0FBECDBF182F8FE00E94BA0551
:1036E000BC01990F880B990B0E948F3620E030E0C7
:1036F00040EA5BE30E94EE369B01AC0160E070E0C3
:103700008AEF94E4112321F060E070E08AE794E40A
:103710000E9460388E010F5F1F4F22E040E00E9440
:10372000B730C8010E94CC1560960FB6F894DEBF82
:103730000FBECDBFDF91CF911F910F910895CF9212
:10374000DF92EF92FF921F93CF93DF9300D01F92EF
:10375000CDB7DEB76B017C0180915C0611E091E092
:10376000C916D104E104F10421F4813021F010E004
:1037700002C08111FCCFC701B6010E946A108823E4
:1037800071F0812F0E94601B0F900F900F90DF91BE
:10379000CF911F91FF90EF90DF90CF9008950E94FE
:1037A0002F066093950570939605809397059093E7
:1037B0009805C0929105D0929205E0929305F092FF
:1037C0009405812F0E94601B6CE370E080E090E024
:1037D0000E94FC05812F0E9469140E942F066093AD
:1037E000950570939605809397059093980568E7E3
:1037F00070E080E090E00E94FC05812F0E94601B39
:10380000198280E88A831B8248E750E063E0CE019A
:1038100001960E9429110E94D810B6CF2F923F9294
:103820004F925F926F927F928F929F92AF92BF92D0
:10383000CF92DF92EF92FF920F931F93CF93DF937C
:10384000CDB7DEB7C457D1090FB6F894DEBF0FBEAF
:10385000CDBF88EF96E0909301018093000186E947
:1038600090E0A0E0B0E08093FC069093FD06A0936A
:10387000FE06B093FF060E942F062B013C018091AB
:10388000A205811199C00E942F0660939E05709336
:103890009F058093A0059093A10581E08093A205E8
:1038A00080919D0581118FC00E942F06609399051C
:1038B00070939A0580939B0590939C0581E080937B
:1038C0009D05E0E28E2EEEE49E2EA12CB12C8E0101
:1038D0000F5C1F4F0E942F06C0909E05D0909F0541
:1038E000E090A005F090A105641975098609970973
:1038F000681579058A059B0510F00C947B250E94BC
:103900002F066C197D098E099F09603C774289401A
:10391000910510F00C947B2582E00E94D202892B45
:1039200031F40E940E190E942F062B013C0183E006
:103930000E94D2020197C9F40E942F062B013C017C
:103940000E942F06C0909905D0909A05E0909B05A3
:10395000F0909C056C197D098E099F09603E7349A2
:103960008440910510F00C947B2588EF96E00E942E
:10397000D50B181619060CF0ADCF0E942F066093D8
:10398000990570939A0580939B0590939C0588EF09
:1039900096E00E942F0B8D30910549F08032910501
:1039A00031F09C01295031092230310598F488EF1B
:1039B00096E00E94EB0B8ECF83E00E94D202892B0F
:1039C00009F461CF6DCF83E00E94D202892B09F404
:1039D0006BCF77CF8F7D815491094A9708F014C738
:1039E000AE014F5F5F4F1A01F12CE12C6A010E947A
:1039F0002F0660930007709301078093020790934E
:103A0000030788EF96E00E94EB0B97FD02C00C9431
:103A1000CE250E942F06209100073091010740918A
:103A2000020750910307621B730B840B950B2091C7
:103A3000FC063091FD064091FE065091FF0662178C
:103A4000730784079507E8F2F601EE0DFF1D10825B
:103A500088EF96E00E94D50B181619062CF488EF13
:103A600096E00E94EB0BF4CFB601CE01815A9F4F36
:103A70000E947518A1962EAC3FACA1972114310479
:103A800041F0A596EEACFFACA5976101E114F104FD
:103A9000D9F4A196EEACFFACA197E114F10409F4BE
:103AA00054C0F70181917F01882309F44EC0082E8C
:103AB000000C990B0E946F3BF70131978083F1CF87
:103AC000AB96CEACDFACAB97A6014F5F5F4FAB962A
:103AD0005FAF4EAFAB97F6018081082E000C990BBB
:103AE0000E94E035892B61F7F1E0EF1AF108E20C52
:103AF000F31CF7018081082E000C990B0E94E03521
:103B0000892B39F0EC14FD0420F0F1E0EF1AF108F4
:103B1000F0CFA7014F5F5F4F4C195D09A5965FAFCE
:103B20004EAFA5972C143D0420F4B601C1010E94AC
:103B3000773BA196EEADFFADA197A5968EAD9FAD5B
:103B4000A597E80FF91F1082A4CF66EE72E0C801B6
:103B50000E947518B801CE01815A9F4F0E94981596
:103B6000F82EC8010E94B315FF2019F18091690653
:103B7000811119C0F1E0F093690660E173E086E419
:103B800090E00E94F81167E174E082E890E00E9402
:103B9000F81119AA80E88AAB1BAA4AE550E062E056
:103BA000C8010E942911CE01815A9F4F0E94B3156E
:103BB00091CE6EEE72E0C8010E947518B801CE0178
:103BC000815A9F4F0E949815F82EC8010E94B31584
:103BD000FF2019F010926906E6CF66EF72E0C80187
:103BE0000E947518B801CE01815A9F4F0E94981506
:103BF000F82EC8010E94B315FF2009F443C50E94A6
:103C00002F062B013C016BEF72E0C8010E94751872
:103C1000B801CE01815A9F4F0E949815F82EC80115
:103C20000E94B315FF2079F084E093E00E94CC1548
:103C300066E970E080E090E00E94FC0584E093E09B
:103C40000E94CC155CC069E073E0C8010E94751841
:103C5000B801CE01815A9F4F0E949815F82EC801D5
:103C60000E94B315FF20A9F06CED75E088E790E0A5
:103C70000E94F81160ED77E088E790E00E94F8116B
:103C800064EC79E084EB90E00E94F81181E193E02C
:103C9000D7CF68E173E0C8010E947518B801CE0162
:103CA000815A9F4F0E949815F82EC8010E94B315A3
:103CB000FF2029F00E94D30F80E293E0C1CF67E29A
:103CC00073E0C8010E947518B801CE01815A9F4F58
:103CD0000E949815F82EC8010E94B315FF20B1F07C
:103CE00080E393E00E94CC1564E170E080E090E016
:103CF0000E94FC0568E373E081E00E949D1A80E663
:103D0000882E8AEE982EA12CB12C4DCF61E473E061
:103D1000C8010E947518B801CE01815A9F4F0E94B8
:103D20009815F82EC8010E94B315FF2071F08AE49F
:103D300093E00E94CC1564E170E080E090E00E9486
:103D4000FC0562E573E080E0D8CF6BE573E0C80165
:103D50000E947518B801CE01815A9F4F0E94981594
:103D6000F82EC8010E94B315FF2019F00E94531AC3
:103D7000C6CF63E673E0C8010E947518B801CE0192
:103D8000815A9F4F0E949815F82EC8010E94B315C2
:103D9000FF2009F46DC280915D06882309F421C2D9
:103DA0008DE596E09F938F938CE693E09F938F939E
:103DB0001F9270E2F72EFF921F930F930E94B83B61
:103DC000C8010E94CC1580915C061F928F9383E7F7
:103DD00093E09F938F931F92FF921F930F930E94E4
:103DE000B83BC8010E94CC150FB6F894DEBF0FBED9
:103DF000CDBF8091580690915906A0915A06B09176
:103E00005B06892B8A2B8B2B09F4EEC1809154061B
:103E100090915506A0915606B0915706892B8A2B92
:103E20008B2B09F4E1C187EB92E09F938F938AE794
:103E300093E09F938F931F9280E28F931F930F9332
:103E40000E94B83BC8010E94CC150FB6F894DEBFA3
:103E50000FBECDBF80915006882309F4C8C187EBFF
:103E600092E09F938F9383E893E09F938F931F92A9
:103E700080E28F931F930F930E94B83BC8010E946A
:103E8000CC15809151060FB6F894DEBF0FBECDBFA2
:103E9000823009F4AFC1813009F0AFC18CEC92E0FF
:103EA0009F938F938AE893E09F938F931F9280E272
:103EB0008F931F930F930E94B83BC8010E94CC15AB
:103EC0000FB6F894DEBF0FBECDBF80915306882396
:103ED00009F496C187EB92E09F938F9382E993E078
:103EE0009F938F931F9280E28F931F930F930E9453
:103EF000B83BC8010E94CC150FB6F894DEBF0FBEC8
:103F0000CDBF80916C06882309F47DC185ED92E0D8
:103F10009F938F9389E993E09F938F931F9260E221
:103F2000F62EFF921F930F930E94B83BC8010E9488
:103F3000CC1580910A010FB6F894DEBF0FBECDBF3D
:103F40008C3009F063C18DEC91E09F938F931F92A9
:103F5000FF921F930F930E949F310F900F900F902D
:103F60000F900F900F90C8010E94CC1580915206BF
:103F70001F928F9382EA93E09F938F931F9250E258
:103F8000F52EFF921F930F930E94B83BC8010E9429
:103F9000CC150E942F0628EE33E040E050E00E944E
:103FA0002E385F934F933F932F9388EB91E09F932D
:103FB0008F931F92FF921F930F930E949F31C8010E
:103FC0000E94CC15BE0169597F4F86E993E00E949B
:103FD000E418BE016B597F4F88E993E00E94E41812
:103FE000BE01675A7F4F8AE993E00E94E4180FB63A
:103FF000F894DEBF0FBECDBFA9968EAD9FADA99739
:10400000019621F4A9961FAE1EAEA997A7968EAD74
:104010009FADA797019621F4A7961FAE1EAEA79756
:104020006B968EAD9FAD6B97019621F46B961FAE8C
:104030001EAE6B9780911B0780FDFAC082FDFAC00F
:1040400083FDFAC081FFFAC085E41F928F9381EB54
:1040500091E09F938F931F9240E2F42EFF921F9363
:104060000F930E949F31C8010E94CC1580911B07BD
:104070001F928F9386EA91E09F938F931F92FF92F6
:104080001F930F930E949F31C8010E94CC15A996DF
:104090008FADA9978F93A8968FADA8978F938DE931
:1040A00091E09F938F931F92FF921F930F930E9413
:1040B0009F31C8010E94CC15A7968FADA7978F930B
:1040C000A6968FADA6978F9385E991E09F938F93E6
:1040D0001F92FF921F930F930E949F310FB6F89487
:1040E000DEBF0FBECDBFC8010E94CC1580910A0172
:1040F0008C3009F0A5C08BE891E09F938F931F92BD
:10410000FF921F930F930E949F310F900F900F907B
:104110000F900F900F90C8010E94CC150E94520F73
:104120009F938F938CE791E09F938F931F9230E240
:10413000F32EFF921F930F930E949F31C8010E949C
:10414000CC15809190058F9380918F058F9382E796
:1041500091E09F938F931F92FF921F930F930E9462
:104160009F31C8010E94CC15809109011F928F9345
:104170008AE691E09F938F931F92FF921F930F9374
:104180000E949F31C8010E94CC158DE993E00E94E6
:10419000F81890ED980F0FB6F894DEBF0FBECDBFA4
:1041A000923008F08FE31F928F9382E691E09F9305
:1041B0008F931F9280E28F931F930F930E949F31E2
:1041C000C8010E94CC158DEA93E00E94CC1588EBC3
:1041D00093E00E94CC150FB6F894DEBF0FBECDBFA2
:1041E0008ECD8DEA92E0DECD8AEB92E01ECE81ECA0
:1041F00092E037CE88EC92E053CE89E695E050CE3F
:1042000081ED92E069CE89ED92E082CE1F928F938C
:1042100083EC91E09F938F931F92FF921F930F93D4
:104220000E949F310FB6F894DEBF0FBECDBF9BCE6C
:1042300080E50BCF82E409CF87E507CF8FE305CF79
:104240006B968FAD6B978F936A968FAD6A978F93AE
:1042500083E891E09F938F931F92FF921F930F9398
:104260000E949F310FB6F894DEBF0FBECDBF53CF73
:1042700061EC73E0C8010E947518B801CE01815A43
:104280009F4F0E949815F82EC8010E94B315FF2079
:1042900029F00E94D8108BEC93E0D2CC64ED73E04F
:1042A000C8010E947518B801CE01815A9F4F0E9423
:1042B0009815F82EC8010E94B315FF2051F1D12C9A
:1042C000C12C9DEDE92E93E0F92E2CE1B22EDF9268
:1042D000CF92FF92EF921F92BF921F930F930E9473
:1042E000B83BC8010E94CC1566E970E080E090E020
:1042F0000E94FC053FEFC31AD30A0FB6F894DEBF45
:104300000FBECDBF55E0C516D10409F785EF93E088
:1043100097CC6EEF73E0C8010E947518B801CE010A
:10432000815A9F4F0E949815F82EC8010E94B3151C
:10433000FF20A1F0A1968EAD9FADA19707969F9308
:104340008F9386E094E09F938F931F9288E28F93E0
:104350001F930F930E94B83BC8013BCF6DE074E000
:10436000C8010E947518B801CE01815A9F4F0E9462
:104370009815F82EC8010E94B315FF2059F061E08E
:1043800081E993E00E94FA1891E090936B0688E12E
:1043900094E056CC62E274E0C8010E947518B8013E
:1043A000CE01815A9F4F0E949815F82EC8010E9495
:1043B000B315FF2051F060E081E993E00E94FA1804
:1043C00010926B068EE294E03BCC69E374E0C80186
:1043D0000E947518B801CE01815A9F4F0E9498150E
:1043E000F82EC8010E94B315FF2009F46BC080911C
:1043F0000A018C3019F481E494E022CC8AE494E040
:104400000E94CC1560E971E080E090E00E94FC051C
:1044100041E064EF71E081E594E00E94721664EF80
:1044200071E080E090E00E94FC0583E00E94D202EF
:10443000019719F489E594E003CC70E060E082E62E
:1044400092E00E94B91640E068EC70E082E792E0EA
:104450000E94721661E08FE893E00E94FA18809142
:104460000A011F928F9389E694E09F938F931F9286
:104470008CE08F931F930F930E94B83B40E06CE356
:1044800070E0C8010E94721668EB7BE080E090E06B
:104490000E94FC0560E08FE893E00E94FA1860E952
:1044A00071E080EA90E00E94F81160E971E080EA32
:1044B00090E00E94F81160E971E080EA90E00E94CB
:1044C000F81189CE63E774E0C8010E947518B8013D
:1044D000CE01815A9F4F0E949815F82EC8010E9464
:1044E000B315FF20A1F01AAA19AAB80186E993E032
:1044F0000E942F1AB80188E993E00E942F1AB80190
:104500008AE993E00E942F1A8CE794E099CB64E843
:1045100074E0C8010E947518B801CE01815A9F4FFE
:104520000E949815F82EC8010E94B315FF2009F4C7
:1045300050C08CE993E00E94F818E82E69EB71E016
:10454000CE01875A9F4F0E947518BE01675A7F4F50
:10455000CE01815A9F4F0E942329FF24F394811199
:1045600015C067ED72E0C8010E947518B801CE0150
:10457000815A9F4F0E942329811104C0FF24F39484
:10458000EF1001C0F12CC8010E94B315CE01875A6B
:104590009F4F0E94B3156F2D8CE993E00E94FA188B
:1045A00088EE91E0F11002C08CED91E09F938F9323
:1045B0001F928EE08F931F930F930E949F31C8012B
:1045C0000E94CC150F900F900F900F900F900F90AE
:1045D00096CB6DE874E0C8010E947518B801CE0151
:1045E000815A9F4F0E949815F82EC8010E94B3155A
:1045F00080EC94E0FF2009F423CB85E994E00E944D
:10460000CC156CED75E088E790E00E94F81160ED44
:1046100077E088E790E00E94F81164EC79E084EBA1
:1046200090E00E94F81181E193E00E94CC150E9475
:10463000D30F80E293E00E94CC1580EA94E00E94C0
:10464000CC1562EC71E081E00E94CA1080E393E037
:104650000E94CC1560E971E080E090E00E94FC05CA
:104660008CEA94E00E94CC1562EC71E080E00E943C
:10467000CA108AE493E00E94CC150E94531A88EB7A
:1046800094E0DECA68EC74E0C8010E947518B801B5
:10469000CE01815A9F4F0E949815F82EC8010E94A2
:1046A000B315FF2029F161E070E080E090E00E9406
:1046B0009F1BCE01815A9F4F0E94B315CC58DF4FEC
:1046C0000FB6F894DEBF0FBECDBFDF91CF911F9123
:1046D0000F91FF90EF90DF90CF90BF90AF909F90A1
:1046E0008F907F906F905F904F903F902F900895A4
:1046F0006EEC74E0C8010E947518B801CE01815AB1
:104700009F4F0E949815F82EC8010E94B315FF20F4
:1047100029F062E070E080E090E0C9CF65ED74E0E0
:10472000C8010E947518B801CE01815A9F4F0E949E
:104730007D157C01C8010E94B315F7FC04C081E01F
:104740000E94E819B6CF62EE74E0C8010E947518A5
:10475000B801CE01815A9F4F0E947D157C01C8018E
:104760000E94B315F7FC02C080E0EACF60EF74E06E
:10477000C8010E947518B801CE01815A9F4F0E944E
:104780007D157C01C8010E94B315F7FC16C00E947C
:104790002F062B013C0168E978E08CE390E00E9451
:1047A000F81181E00E94691468E770E080E090E011
:1047B0000E94FC050E94F015F6C96BEF74E0C80179
:1047C0000E947518B801CE01815A9F4F0E947D1535
:1047D0007C01C8010E94B315F7FCE5C90E942F06B1
:1047E0002B013C0168E978E08CE390E00E94F8112D
:1047F0006EE774E080E090E00E94FC050E94F015F6
:1048000081E00E946914CFC90E94470BFC0197FD0B
:1048100064C08D32910541F0C0970A9728F088EF67
:1048200096E00E94EB0BF0CFC12CD12C7601312CFD
:10483000E130F105D9F0ED32F10509F44BC0CF01BB
:10484000C0970A9798F4AAE0B0E0A70196010E94E9
:10485000E4376F01FF0FEE08FF08C60ED71EE81EF3
:10486000F91EF0E3CF1AD108E108F10888EF96E0CD
:104870000E94EB0B0E94470BFC01C0970A97C0F205
:10488000E130F105A9F2332041F0F094E094D094A6
:10489000C094C11CD11CE11CF11CC114D104E10461
:1048A000F10409F417C8D701C6010197A109B1099C
:1048B0000297A105B10508F03FC080915C0611E0A8
:1048C00021E0C216D104E104F10459F4813059F019
:1048D00010E009C033243394C9CFC12CD12C760108
:1048E000DCCF8111F5CF812F0E94601BC701B6017B
:1048F0000E946A108111E2CE0E942F0660939505F6
:10490000709396058093970590939805C0929105B2
:10491000D0929205E0929305F0929405812F0E9427
:1049200069140E942F0660939505709396058093F5
:10493000970590939805C2CEC11439EED30632E0A4
:10494000E306F104D1F40E942F062B013C0168E933
:1049500078E08CE390E00E94F81168E27AE08CE362
:1049600090E00E94F8116EE774E080E090E00E9411
:10497000FC050E94F0150C946A1C41E2C4164BE041
:10498000D40640E2E406F10410F00C946A1C0E9484
:104990002F062B013C010E942131E1966CAF7DAFC7
:1049A0008EAF9FAFE1970E9421312EE037E240E0C9
:1049B00050E00E94C5379B01AC012F5F3F4F4F4F26
:1049C0005F4FAD962CAF3DAF4EAF5FAFAD978091CF
:1049D000580690915906A0915A06B0915B06A7011E
:1049E0009601280F391F4A1F5B1FE5962CAF3DAF7C
:1049F0004EAF5FAFE597E1966CAD7DAD8EAD9FADEF
:104A0000E1972EE037E240E050E00E94C537DC013C
:104A1000CB010196A11DB11DE5962CAD3DAD4EAD6E
:104A20005FADE597820F931FA41FB51F209152061B
:104A3000233009F05AC02DED32E0BF93AF939F931E
:104A40008F933F932F931F9280E18F9341E050E02B
:104A50004C0F5D1F5F934F930E94B83BCE010196B0
:104A60000E94CC1566E970E080E090E00E94FC05B1
:104A70008091540690915506A0915606B091570624
:104A80008C0D9D1DAE1DBF1DAD96CCACDDACEEAC4E
:104A9000FFACAD97C80ED91EEA1EFB1E0FB6F894E8
:104AA000DEBF0FBECDBF80915206833009F58DED7C
:104AB00092E0FF92EF92DF92CF929F938F931F929B
:104AC00080E18F93E1E0F0E0EC0FFD1FFF93EF93A7
:104AD0000E94B83BCE0101960E94CC150FB6F89407
:104AE000DEBF0FBECDBF0C946A1C22EE32E0A5CF14
:104AF00082EE92E0DECF0E942F0600919E0510917B
:104B00009F052091A0053091A1056B017C01C01A81
:104B1000D10AE20AF30A0E942F0630ECC31637E2EC
:104B2000D30639E0E306F10490F400919905109161
:104B30009A0520919B0530919C05601B710B820B9F
:104B4000930B603E73498440910508F4B7CD83E030
:104B50000E94D202019709F0B1CD41E06CE271E010
:104B600081E594E00E94721660E971E080E090E0D7
:104B70000E94FC0583E00E94D202019741F450ECB0
:104B8000C51657E2D50659E0E506F10428F410925F
:104B9000A20510929D0592CD0E940F128A309105B8
:104BA00011F40C94241DF10181931F01FFEFEF1A02
:104BB000FF0A2FE2E216F10411F00C94F71C0C949A
:104BC000241D8F929F92AF92BF92DF92EF92FF923D
:104BD0000F931F93CF93DF93CDB7DEB7E0970FB658
:104BE000F894DEBF0FBECDBF83E0E82E90E3D92E50
:104BF0008E010F5F1F4F88EF96E00E94D50B892B27
:104C000029F088EF96E00E94EB0BF5CF6FEB71E097
:104C100088EF96E00E94CA15F8012D2D11922A9571
:104C2000E9F70E942F064B015C01F12C0E942F0630
:104C3000681979098A099B09623C714081059105CF
:104C400098F488EF96E00E94D50B892B79F3FEE269
:104C5000FF1560F388EF96E00E94EB0BF801EF0D73
:104C6000F11D8083F394E2CF69E075E0C8010E94F2
:104C70009E3B5C01892B29F4EA94E110BCCF10E043
:104C80001FC068EC72E0C8010E949E3B892B59F559
:104C900081E080935106C50104960E947931182F56
:104CA000811101C011E010935206612F80E093E062
:104CB0000E94FA186091510683E993E00E94FA1865
:104CC000812FE0960FB6F894DEBF0FBECDBFDF9107
:104CD000CF911F910F91FF90EF90DF90BF90AF9019
:104CE0009F908F90089582E0D4CF1F920F920FB6BD
:104CF0000F9211242F933F938F939F93AF93BF9362
:104D00008091700690917106A0917206B091730621
:104D100030916F0623E0230F2D3768F126E8230F2B
:104D20000296A11DB11D20936F068093700690938B
:104D30007106A0937206B0937306809174069091E9
:104D40007506A0917606B09177060196A11DB11D5A
:104D50008093740690937506A0937606B0937706B9
:104D6000BF91AF919F918F913F912F910F900FBE67
:104D70000F901F9018950196A11DB11DD4CF1F92C1
:104D80000F920FB60F9211242F933F934F935F937F
:104D90006F937F938F939F93AF93BF93EF93FF9303
:104DA000E0910701F09108010995FF91EF91BF9102
:104DB000AF919F918F917F916F915F914F913F91B3
:104DC0002F910F900FBE0F901F9018951F920F926A
:104DD0000FB60F9211242F933F934F935F936F93CE
:104DE0007F938F939F93AF93BF93EF93FF93E09144
:104DF0000501F09106010995FF91EF91BF91AF91E7
:104E00009F918F917F916F915F914F913F912F91E2
:104E10000F900FBE0F901F9018951F920F920FB614
:104E20000F9211242F933F934F935F936F937F9330
:104E30008F939F93AF93BF93EF93FF938091AE06B1
:104E40009091AF06A091B006B091B106892B8A2B44
:104E50008B2BD1F19091A906E091AA06F091AB06B7
:104E60008081892780838091AE069091AF06A091C2
:104E7000B006B091B106181619061A061B069CF466
:104E80008091AE069091AF06A091B006B091B106A8
:104E90000197A109B1098093AE069093AF06A09344
:104EA000B006B093B106FF91EF91BF91AF919F9182
:104EB0008F917F916F915F914F913F912F910F90C3
:104EC0000FBE0F901F90189580910C010E945807FB
:104ED000EACF1F920F920FB60F9211248F930FB645
:104EE000F894A8958091600088618093600010928A
:104EF00060000FBE8F910F900FBE0F901F901895FE
:104F00001F920F920FB60F9211242F933F934F933E
:104F10005F936F937F938F939F93AF93BF93EF9321
:104F2000FF938091B900887F803609F44AC0F0F57C
:104F3000883209F4A7C018F5803109F49BC0B8F491
:104F4000882309F405C1883009F494C0FF91EF91DA
:104F5000BF91AF919F918F917F916F915F914F9191
:104F60003F912F910F900FBE0F901F901895883191
:104F700009F488C0803251F78093820614C08034CF
:104F800009F4A5C040F48033B9F38833F9F680936F
:104F9000820685ECBCC0803509F489C0883509F4E7
:104FA0009EC0883499F60E94210AD0CF883909F42E
:104FB00094C038F5883729F050F4883611F08037DE
:104FC00029F683E0809384061092280657C088381B
:104FD00009F483C0803919F0803809F0B7CF809187
:104FE0002806803208F079C0E091280681E08E0F13
:104FF000809328068091BB00F0E0E85FF94F808342
:105000003DC0803B39F0E0F4803A09F485C0883A2D
:1050100009F09CCF84E080938406109207061092DA
:105020000606E0914C06F0914D0609958091060622
:1050300081110FC081E0809306061092E60509C039
:10504000803C09F4A6CF883C09F4A3CF883B09F043
:105050007DCFE091070681E08E0F80930706F0E098
:10506000EA51FA4F80818093BB00909107068091AE
:10507000060631C080917D068093BB0085EC80934D
:10508000BC0064CF90917F0680917E069817B8F59A
:105090008091800690918106E0917F0621E02E0F9D
:1050A00020937F06E80FF92FF11D8081E5CF209135
:1050B000800630918106E0917F0681E08E0F80931B
:1050C0007F068091BB00E20FF32FF11D808390914A
:1050D0007F0680917E06981788F285E8D0CF2091D0
:1050E000800630918106E0917F0681E08E0F8093EB
:1050F0007F068091BB00E20FF32FF11D808380912A
:105100008306811150CF81E080937C0684EA8093EE
:10511000BC00109284061ACF85EC8093BC001092DC
:10512000840680912806803230F4E0912806F0E071
:10513000E85FF94F10826091280670E0E0914A061E
:10514000F0914B0688E096E0099510922806FECE75
:105150001092820628CF1F920F920FB60F92112441
:105160002F933F934F935F936F937F938F939F936F
:10517000AF93BF93EF93FF93E0917A06F0917B0694
:10518000309749F0A685B7858585968D91FF14C027
:105190009C918923A1F4FF91EF91BF91AF919F91D1
:1051A0008F917F916F915F914F913F912F910F90D0
:1051B0000FBE0F901F9018959C91892361F7A389CA
:1051C000B4899C918589809589238C938689978958
:1051D0000197F1F7608D718DA685B785558538E00B
:1051E00020E0CB010197F1F7822F90E0959587950C
:1051F000282F4C91452309F02068315091F7868D76
:1052000081FD20958091790690E001968F73992712
:1052100030917806381799F0A0917906B0E0AA5538
:10522000BA4F2C9380937906828D938D0197F1F775
:10523000A389B4898C919589892B8C93ACCF868D69
:105240008160868FF1CFFC0124813581FB0144818F
:10525000558124173507A0F0FC01808191810097CA
:1052600079F0FB01608171816115710549F0241BA2
:10527000350B820F931F0E94803B21E0892B09F0A0
:1052800020E0822F08958FEF8093CF061092D106F1
:105290001092D0061092DB061092DA068FEF9FEF85
:1052A000DC018093D6069093D706A093D806B093DE
:1052B000D9061092DF061092DE0688EE93E0A0E099
:1052C000B0E08093E0069093E106A093E206B093ED
:1052D000E30628E931E03093DD062093DC061092E6
:1052E000FB061092FA068093FC069093FD06A093AD
:1052F000FE06B093FF068AEA91E09093F906809348
:10530000F80610920F0710920E07109211071092D4
:10531000100710921307109212071092150710929F
:105320001407609116076E7F6D7F60931607669570
:10533000617081E0682784E00E94FB0261E084E004
:105340000E942903E4E4F2E0E491E0930807EDE22F
:10535000F2E0E491F0E0EE0FFF1FE15EFD4F85917A
:10536000949190930A078093090760E085E00E947A
:1053700029038091160781FD04C061E085E00E9449
:10538000FB0285E080930407E5E4F2E0E491E0931A
:105390000507EEE2F2E0E491F0E0EE0FFF1FEB5EB6
:1053A000FD4F859194919093070780930607109283
:1053B000E9061092E80685E48093EB061092F00669
:1053C0001092F1061092F2061092F3061092F40673
:1053D0001092F5061092F6061092F7060895CF93F4
:1053E000DF93CDB7DEB7AD970FB6F894DEBF0FBE33
:1053F000CDBF789484B5836084BD85B5836085BD59
:1054000080916E00816080936E0082E080938100C5
:105410008091810081608093810080918000816013
:10542000809380008091B10084608093B10080916E
:10543000B00081608093B00087E880937A0010927A
:10544000C10080E993E00E94F81891E0813009F0F2
:1054500090E090936C06813031F48AE080930401EF
:105460008BE08093030161E086E00E94290361E004
:10547000809104010E94290361E0809103010E9450
:10548000290362E082E00E94290360E083E00E9439
:1054900029030E94C010809164008460809364009E
:1054A00080B7806880BF80916C06811110C08DB17B
:1054B000807F8DB98EB18F608EB9809164008061DC
:1054C00080936400809165008D638093650081E91D
:1054D00093E00E94F818813051F50E946211198200
:1054E0001A821B82CE0101960E94061180916C06E1
:1054F000811108C061E08BE00E94290360E08BE02D
:105500000E94FB020CE211E00E94520F01978736C5
:10551000904168F430E020E050E040E066E070E068
:1055200089E496E00E94B1070150110969F760E62D
:1055300079E080E090E00E94D7018CE993E00E943E
:10554000F8188130C1F5BE016F5F7F4F86E993E0A7
:105550000E94E41889819A81019611F41A821982B5
:1055600089819A8101969A838983BE016F5F7F4FFB
:1055700086E993E00E942F1A80911B0782FF1BC0CF
:1055800080FD19C0BE016F5F7F4F88E993E00E94E4
:10559000E41889819A81019611F41A82198289810D
:1055A0009A8101969A838983BE016F5F7F4F88E954
:1055B00093E00E942F1A68E27AE086E490E00E946D
:1055C000F8118EE00E94BA056C01990FEE08FF08F1
:1055D0000E94D7058B019C01C701B6016027712786
:1055E00082279327C016D106E206F30611F00E9427
:1055F000703160E08EE00E9429030E9462111982DE
:105600001A821B82CE0101960E940611BDE5EB2E87
:10561000B6E0FB2E10E000E0C8018F5F9C4F0E94B7
:10562000F8189FEF980F9E3F08F4F3C0F801E35A73
:10563000F94F108283E090E00E94F81880935C0696
:10564000823038F010925C0660E083E090E00E94C7
:10565000FA1868E576E085E090E00E94BE1864E5FF
:1056600076E08FE090E00E94BE18809158069091FD
:105670005906A0915A06B0915B068F3F9F4FAF4FDE
:10568000BF4F41F4109258061092590610925A06D4
:1056900010925B068091540690915506A091560693
:1056A000B09157068F3F9F4FAF4FBF4F41F41092BD
:1056B0005406109255061092560610925706809185
:1056C000E8069091E906892BA9F486E090E00E9413
:1056D0008839FC018091EB0680838CED96E0928303
:1056E0008183138280E290E095838483F093E906BE
:1056F000E093E806E090E806F090E90610924F0685
:1057000010924E06109286061092A8060E94520A27
:1057100086E597E090934D0680934C0687E597E0E9
:1057200090934B0680934A0611E0F7011383C7015B
:105730000E94700A811178C01092530680E093E0B5
:105740000E94F81880935206893210F01092520687
:1057500083E993E00E94F81880935106833010F09B
:105760001092510682E993E00E94F81880930A0192
:105770009CEF980F963028F08C3019F088E08093D9
:105780000A018FE893E00E94F81891E0813009F057
:1057900090E090936E06813029F460E08FE893E00A
:1057A0000E94FA1883E00E94D202019719F481E066
:1057B00080936E0681E993E00E94F81891E08130B1
:1057C00009F090E090936B0680916E0681111DC4E4
:1057D0008EE893E00E94F818893C09F088C081E0C7
:1057E0008093500616E0809150068111F9C3115044
:1057F00009F4FBC36AEF70E080E090E00E94FC05D2
:105800000E94E12591E0811101C090E09093500643
:10581000EACFF70181937F0110820F5F1F4F0B309A
:10582000110509F0F9CE06CF80E090E1A0E0B0E0EC
:105830008093EC069093ED06A093EE06B093EF06EE
:105840008AE090E0A0E0B0E08093F0069093F1064B
:10585000A093F206B093F30680E090E0A0E0B0E4FD
:105860008093F4069093F506A093F606B093F7069E
:105870008091E8069091E90618A619A61AA61BA61B
:105880009A8F898F1C8E1B8E1AA385E090E098A3B7
:105890008F8F1BA302E009A322E040E050E160E00B
:1058A00070E0CE0149960E9465098091E8069091CA
:1058B000E906188A198A1A8A1B8A9A8389831C82A4
:1058C0001B821A8718861F821B87098722E04FE9EF
:1058D00059E360E070E0CE0101960E946509809373
:1058E000EA061093530681E00E942C1427CF83E030
:1058F0000E94D202019709F475CF0E94ED160E9412
:10590000E12591E0811101C090E0909350068EE86E
:1059100093E00E94F818682E85E993E00E94F81839
:10592000782EFFEF8F1301C0712C72E0472E470CC9
:10593000EDE5EE2EE6E0FE2EF2EECF2EF1E0DF2ECC
:10594000A8E15A2ECE0101965C014E019DE2890E1E
:10595000911C8091500681113DC3E9EC6E1609F44B
:1059600041CFF2E0F71508F43DCF741409F43ACFB3
:1059700083E00E94D202892B09F034CF7394672D03
:1059800085E993E00E94FA1860EB74E082E390E00E
:105990000E94F81160EB74E082E390E00E94F8113D
:1059A00080916C06882309F459C000E811E0F801E1
:1059B00061917191819191918F010E94D7016EE166
:1059C00070E080E090E00E94FC0566E0362E40E04A
:1059D00068E270E085EC92E00E9472163A94311011
:1059E000F6CF40E068E770E08EE095E00E94721626
:1059F00040E06CE370E08FE192E00E94721640E0BC
:105A00006CE370E088E292E00E94721640E06CE382
:105A100070E081E392E00E94721640E06CE370E077
:105A20008AE392E00E94721640E06CE370E083E447
:105A300092E00E94721640E060E570E08CE492E033
:105A40000E94721640E060E570E087E592E00E94F7
:105A50007216F1E004391F0709F0A9CF00E811E040
:105A6000F80161917191819191918F010E94D7010B
:105A70006EE170E080E090E00E94FC0540E068E2AA
:105A800070E085EC92E00E94721640E068E270E0FF
:105A900085EC92E00E94721640E068E270E085ECCE
:105AA00092E00E94721640E068E770E08EE095E0B8
:105AB0000E94721640E06AEF70E087E195E00E9474
:105AC000721640E066E970E080E295E00E9472168E
:105AD00068E572E080E090E00E94FC05F1E00439A6
