:100000000C94E5000C949D1E0C94761E0C946220BA
:100010000C9462200C9462200C94201F0C94C41E3B
:100020000C9419010C9419010C9419010C941901E8
:100030000C9419010C9419010C9419010C941901D8
:100040000C942C1E0C9419010C9419010C94190198
:100050000C9419010C9419010C9419010C941901B8
:100060000C94371F0C94190100407A10F35A00A029
:10007000724E18090010A5D4E80000E87648170071
:1000800000E40B54020000CA9A3B000000E1F505B1
:10009000000080969800000040420F000000A086FB
:1000A00001000000102700000000E803000000002D
:1000B0006400000000000A000000000001000000D1
:1000C00000002C76D888DC674F0823DFC1DFAE59EB
:1000D000E1B1B796E5E3E453C63AE651997696E87E
:1000E000E6C28426EB898C9B62ED407C6FFCEFBC02
:1000F0009C9F40F2BAA56FA5F490055A2AF75C932D
:100100006B6CF9676DC11BFCE0E40D47FEF520E662
:10011000B500D0ED902E0300943577050080841E45
:10012000080000204E0A000000C80C333333330FA0
:10013000986E12831141EF8D2114893BE65516CF3D
:10014000FEE6DB18D1844B381BF77C1D901DA4BB49
:10015000E424203284725E228100C9F124ECA1E5FE
:100160003D2700000000240027002A0000000009AD
:100170000003020000040508000000000000000069
:1001800000000002000000002300260029000000FB
:100190000000250028002B000404040404040404C7
:1001A0000202020202020303030303030202030129
:1001B00002040810204080010204081020010204FB
:1001C000081020408040DA202F2611241FBECFEFD8
:1001D000D8E0DEBFCDBF14BE0FB6F894A8958091CD
:1001E0006000886180936000109260000FBE14E090
:1001F000A0E0B1E0E0E6F2E602C005900D92AC3B73
:10020000B107D9F726E0ACEBB4E001C01D92A935E7
:10021000B207E1F710E0C4EED0E004C02197FE0180
:100220000E94C62EC33ED107C9F70E9486210C94B6
:1002300023310C940000DC01E8EFF5E02D913D91B5
:100240004C9112972083318342832D913D914C91A3
:1002500012972383348345838D919D91AC9186833E
:100260009783A0870895282F9091E60581E0913229
:1002700008F042C08091C2058111FCCF8091E50554
:1002800032E03093C2052093C1052FEF2093C005C3
:1002900025EC35E03093BF052093BE051092BD05D7
:1002A0009093BC051092BB059091BB05880F892BDC
:1002B0008093BB058091BA05813029F51092BA056B
:1002C0008091BB058093BB008091BC0083FDF8CF7B
:1002D00085EC8093BC008091C2058230E1F380916F
:1002E000C0058F3F91F08091C005803281F08091F0
:1002F000C005803371F084E01092C4051092E605C9
:100300001092C305089585EEE4CF80E0F5CF82E03A
:10031000F3CF83E0F1CF9B01AC0110925106109214
:10032000500610924F0610924E0610924D061092F3
:100330004C0660E079E08DE390E00E94092DB90160
:10034000C90103972430310510F481E090E09093C7
:1003500053068093520680914206873108F063C0AD
:10036000F901F695E795E431F10508F48CC073972F
:10037000F0934D06E0934C066630710508F486C094
:10038000B9016550710970934F0660934E06B9012B
:10039000660F771F260F371F3695279536952795B9
:1003A0002D30310508F475C02C50310930935106B9
:1003B000209350062091680094E0883054F091E03A
:1003C0008E303CF092E0843124F091E0863109F4E3
:1003D00090E0922B909368002DE630E0883074F026
:1003E0008E300CF459C084313CF086310CF454C08A
:1003F00030E020E0863111F42CE630E030934A06FC
:100400002093490688300CF04AC091E001C0990F52
:100410008A95EAF7892F80934B0680915206909136
:1004200053060197F1F78091500690915106892B60
:1004300049F1E091B805F091B90586E0E633F80797
:1004400009F1309739F0A389B4899C918589809509
:1004500089238C93809154068E7F8093540610924A
:10046000B7051092B60586E396E09093B9058093A0
:10047000B805E0914906F0914A06808190914B06BB
:10048000892B80830895E1E0F0E072CF61E070E0B5
:100490007ACF21E030E08ACF2BE630E0AFCF8E304C
:1004A00014F48850B2CF863114F48E50AECF86311A
:1004B00011F480E4B0CF80E0AECF843081F028F436
:1004C0008230E9F08330F9F00895883071F0893096
:1004D00091F08530B9F4809180008F7D03C08091C8
:1004E00080008F778093800008958091B0008F778F
:1004F0008093B00008958091B0008F7DF9CF84B5CE
:100500008F7784BD089584B58F7DFBCFCF93DF9324
:10051000282F30E0F901E459FE4F8491F901E155AB
:10052000FE4FD491F901E856FE4FC491CC23A1F0BF
:1005300081110E945D02EC2FF0E0EE0FFF1FEC57DF
:10054000FE4FA591B491EC91ED2381E090E009F488
:1005500080E0DF91CF91089580E090E0FACF1F9383
:10056000CF93DF93282F30E0F901E459FE4F8491B7
:10057000F901E155FE4FD491F901E856FE4FC491BF
:10058000CC23A9F0162F81110E945D02EC2FF0E020
:10059000EE0FFF1FE257FE4FA591B4918FB7F8946D
:1005A000EC91111108C0D095DE23DC938FBFDF9151
:1005B000CF911F910895DE2BF8CFCF93DF9390E07A
:1005C000FC01E155FE4F249188569E4FFC01849119
:1005D0008823C9F090E0880F991FFC01EE59FE4F67
:1005E000A591B491FC01E257FE4FC591D4916111E0
:1005F0000DC09FB7F8948C91209582238C938881AD
:10060000282328839FBFDF91CF910895623051F452
:100610009FB7F8943C91822F809583238C93E88137
:100620002E2BEFCF8FB7F894EC912E2B2C938FBFFE
:10063000EACF4F925F926F927F928F929F92AF928A
:10064000BF92CF92DF92EF92FF920F931F93CF93BF
:10065000DF9300D000D01F92CDB7DEB78C012A0106
:100660003B01809109018630C9F08F3F09F4B6C083
:100670000F900F900F900F900F90DF91CF911F91DF
:100680000F91FF90EF90DF90CF90BF90AF909F9031
:100690008F907F906F905F904F900895E3E8F1E026
:1006A00084918D8387FDE4CF61E086E00E94DD02C6
:1006B0008D81882321F09D81923009F04FC148013E
:1006C000B12CA12C60E072E18AE790E0A5019801CD
:1006D0000E94092D29833A834B835C8369017A0147
:1006E00081E0C81AD108E108F1089FEFC916D104CA
:1006F000E104F10409F00CF412C160E472E48FE04B
:1007000090E0A50198010E94092D69017A0181E01C
:10071000C81AD108E108F1089D81923009F07BC127
:100720008FEFC816D104E104F10409F00CF4D0C134
:1007300060E970ED83E090E0A50198010E94092D29
:1007400069017A0191E0C91AD108E108F1088FEF37
:10075000C816D104E104F10409F00CF4BBC168E44B
:1007600078EE81E090E0A50198010E94092D6901D1
:100770007A0191E0C91AD108E108F1088FEFC81693
:10078000D104E104F10411F00CF099C084E09091DF
:10079000B100987F892B8093B1002FEF3FEFA90123
:1007A000411451046104710409F0CAC09D81913063
:1007B00009F4FEC0923009F41EC1911159CFC7BC93
:1007C0002093F4053093F5054093F6055093F70513
:1007D00080916E00826080936E004ACF86E08093A5
:1007E0000901E3E8F1E094919D839F3F09F440CF34
:1007F000913029F158F0923009F43FC08D8187FD86
:1008000037CF61E086E00E94DD0255CF14BC15BCF5
:1008100084B5826084BD85B5816085BDEEE9F1E077
:10082000E491F0E0EE0FFF1FE257FE4F85919491A7
:10083000E5EBF1E0E491E093EB051D8235CF1092FA
:1008400080001092810080918100886080938100F7
:1008500080918100816080938100EEE9F1E0E49174
:10086000F0E0EE0FFF1FE257FE4F85919491E5EB0C
:10087000F1E0E491E093EA0517CF1092B0001092F6
:10088000B1008091B00082608093B0008091B1008F
:1008900081608093B100EEE9F1E0E491F0E0EE0FC9
:1008A000FF1FE257FE4F859194919093E905809345
:1008B000E805E5EBF1E0E491E093E705F5CE64E2CD
:1008C00074EF80E090E0A50198010E94092D690174
:1008D0007A0191E0C91AD108E108F1088FEFC81632
:1008E000D104E104F10409F008F4F6C062E17AE70A
:1008F00080E090E0A50198010E94092D69017A012C
:1009000091E0C91AD108E108F1088FEFC816D104A7
:10091000E104F10411F008F0C9C086E038CF81E0AD
:100920009D81911134CF95B5987F892B85BD2FEF8F
:100930003FEFA901411451046104710409F43FCF50
:10094000D801AA0FBB1FA30192010E94282D28EEF7
:1009500033E040E050E00E94722D28CFB12CA12C52
:1009600060E072E18AE790E0A50198010E94092DFC
:1009700069017A0181E0C81AD108E108F108C114BF
:10098000D10491E0E906F1042CF591E08D818130EC
:1009900009F003CF80918100887F892B80938100AB
:1009A0002FEF3FEFA901411451046104710441F696
:1009B000D0928900C09288002093F0053093F10511
:1009C0004093F2055093F30580916F00826080930D
:1009D0006F004ECE68E478EE81E090E0A5019801CA
:1009E0000E94092D69017A0181E0C81AD108E10845
:1009F000F10893E0CBCFC092B3002093EC05309385
:100A0000ED054093EE055093EF05809170008260F4
:100A1000809370002DCE82E09FEFC916D104E104CF
:100A2000F10409F00CF47CCF68E478EE81E090E00A
:100A3000A50194010E94092D69017A0191E0C91A6A
:100A4000D108E108F1088FEFC816D104E104F104E0
:100A500009F014F483E064CF62E17AE780E090E08B
:100A6000A50194010E94092D69017A0181E0C81A4B
:100A7000D108E108F10884E09FEFC916D104E10430
:100A8000F10409F008F44CCFC980DA80EB80FC80D7
:100A90008AE0F594E794D794C7948A95D1F791E0CA
:100AA000C91AD108E108F10885E03ACFC980DA8097
:100AB000EB80FC809AE0F594E794D794C7949A95DC
:100AC000D1F781E0C81AD108E108F10887E05FCECC
:100AD00082E05DCE83E05BCE85E059CE8E508064AF
:100AE00080937C0080917A00806480937A0080916A
:100AF0007A0086FDFCCF809178009091790008956E
:100B00008230910538F0880F991F880F991F05973B
:100B10000197F1F708953FB7F8948091B20590914D
:100B2000B305A091B405B091B50526B5A89B05C045
:100B30002F3F19F00196A11DB11D3FBFBA2FA92F5C
:100B4000982F8827BC01CD01620F711D811D911D59
:100B500042E0660F771F881F991F4A95D1F70895C5
:100B60008F929F92AF92BF92CF92DF92EF92FF92BD
:100B70006B017C010E948B054B015C01C114D10407
:100B8000E104F104B9F00E948B05681979098A091A
:100B90009B09683E73408105910580F321E0C21AEC
:100BA000D108E108F10888EE880E83E0981EA11CA8
:100BB000B11CE4CFFF90EF90DF90CF90BF90AF904B
:100BC0009F908F9008952FB7F8946091AE05709123
:100BD000AF058091B0059091B1052FBF08954F9258
:100BE0005F926F927F929F92AF92BF92CF92DF926D
:100BF000EF92FF920F931F93CF93DF9300D01F923A
:100C0000CDB7DEB7D0900D068091100690911106F9
:100C1000A0911206B0911306892B8A2B8B2BD9F049
:100C20000E948B050091090610910A0620910B067F
:100C300030910C06601B710B820B930B0091100618
:100C4000109111062091120630911306601771075A
:100C500082079307C8F20E948B0560930906709380
:100C60000A0680930B0690930C06E0911806F0910B
:100C70001906309759F0409114065091150660916D
:100C80001606709117068D2D0995D82EE09007064F
:100C9000F09008064D2C512C712C612CE114F104BC
:100CA00009F459C0D7011C96CC901C9780910E0670
:100CB00090910F068436910510F41C961C92D70172
:100CC000ED91FC91A280B38019821A821B82DD20F3
:100CD00079F1F701369610E000E02191222319F115
:100CE0009280992001F130E050E040E02F5F3F4FCB
:100CF0004F4F5F4FC301B2010E94872E9B01AC0191
:100D0000892D90E0B0E0A0E0BC01CD016F5F7F4F86
:100D10008F4F9F4F0E94872EA1E0B0E0AC0FBD1F08
:100D2000A00FB11F8C930F5F1F4F03301105A9F661
:100D300009811A812B81F70145855685628173816E
:100D4000C701F5010995D7011C96CC921C97149602
:100D5000ED90FC90A3CF80910506909106068C0142
:100D60000F5F1F4F10930606009305064997B4F1D5
:100D70000E94E305C0900106D0900206E0900306B1
:100D8000F09004069B01AC012C193D094E095F0946
:100D900021F421E030E040E050E088EE93E0089F4D
:100DA000B001099F700D189F700D1124072E000CC3
:100DB000880B990B0E94722D30930F0620930E061C
:100DC00010920606109205060E94E3056093010644
:100DD0007093020680930306909304060F900F9081
:100DE0000F90DF91CF911F910F91FF90EF90DF90C7
:100DF000CF90BF90AF909F907F906F905F904F90FB
:100E0000089581E08093AB05089581E08093AA0561
:100E1000089508950895089580E991E008959091C6
:100E2000090189130BC0E3E8F1E0E4919FEF90938F
:100E30000901E13049F028F0E23061F060E00C9403
:100E4000AF0210926E00FACF90916F009D7F909349
:100E50006F00F4CF909170009D7F9093700091E0AF
:100E60009093B0009091B100987F94609093B100FE
:100E70001092B300E3CFAF92BF92CF92DF92EF9286
:100E8000FF920F931F93CF93DF936C017B018B0134
:100E9000040F151FEB015E01AE18BF08C017D10784
:100EA00059F06991D601ED91FC910190F081E02D0E
:100EB000C6010995892B79F7C501DF91CF911F9163
:100EC0000F91FF90EF90DF90CF90BF90AF9008957B
:100ED000FC0183858F3F19F061E00C94AF02089507
:100EE000FC0180819181892B39F0A281B3819C9191
:100EF00011968C919CBD8DBD83858F3F19F060E06C
:100F00000C94AF020895AF92BF92CF92DF92EF920E
:100F1000FF920F931F93CF93DF93EC018881998108
:100F2000892B89F06EBD0DB407FEFDCFBEB48B2DAD
:100F3000DF91CF911F910F91FF90EF90DF90CF90B5
:100F4000BF90AF9008958885998511E0892B09F0AD
:100F500010E8AA24A394862F812309F0A12C062F40
:100F60002C813D814E815F8160E271EA87E090E0F3
:100F70000E94722DF22EB02EE12CC22ED12CFF2019
:100F800019F0C6010E9480058A85877F09F042C05A
:100F90008D858F3F89F0902F912381E009F480E0C7
:100FA0008A1551F0EF85F8898F89992369F190812D
:100FB000892B8083AA24A394E989FA898081998D59
:100FC000892B8083FF2019F0C6010E9480058E8541
:100FD0008F3F39F0EB89FC898081988D892309F056
:100FE000E12AE989FA899081898D80958923808316
:100FF0008E858F3F09F0BE2C88859985892BB9F5A0
:10100000110F1111BCCF93CF9081809589238083DC
:10101000A12CD2CFE989FA898081998D892B80838F
:10102000FF2019F0C6010E9480058D858F3F49F091
:10103000EF85F8898F89902F9123A9F09081892BD2
:101040008083E989FA899081898D809589238083BD
:101050008E858F3F69F2EB89FC898081988D892389
:1010600039F2E12AC5CF908180958923E9CF169581
:10107000C8CF8F929F92AF92BF92CF92DF92EF92A2
:10108000FF920F931F93CF93DF937C014B016A0173
:10109000B22EA32E0E947007E401C80CD91CCC15F7
:1010A000DD0569F4CB2DDA2D0C0F1D1FC017D107FC
:1010B00059F06FEFC7010E9483078993F7CF6991B9
:1010C000C7010E948307EBCFC7010E94680781E038
:1010D000DF91CF911F910F91FF90EF90DF90CF9014
:1010E000BF90AF909F908F9008958F929F92AF92F4
:1010F000BF92CF92DF92EF92FF920F931F93CF9305
:10110000DF937C01B62EA72E6A0149010E94700769
:10111000E401080D191DC017D10761F4CB2DDA2D9C
:10112000CC0EDD1ECC15DD0551F06991C7010E9482
:101130008307F8CF6991C7010E948307ECCFC701ED
:101140000E94680781E0DF91CF911F910F91FF907E
:10115000EF90DF90CF90BF90AF909F908F900895C9
:101160001F93CF93DF93EA01122FDC0111968D912B
:101170009C91DC01ED91FC910280F381E02D0995B9
:10118000C817D90729F4812F0E94330191E08111FA
:1011900090E0892FDF91CF911F910895AF92BF9278
:1011A000CF92DF92EF92FF920F931F93CF93DF9333
:1011B00000D0CDB7DEB7DC01211103C018962C9109
:1011C0001897253008F043C01F964D935D936D939B
:1011D0007C93529790E080E0E22EF12C8E159F05D3
:1011E000B4F41A962C911A9721110AC0FD01E80F48
:1011F000F91F4387452F562F672F77270196EECF8C
:10120000F701E81BF90BEA0FFB1F4287F3CF6D01D3
:101210008BE0C80ED11C16969C91169717968C9150
:10122000179799838A83AD90BC901197A114B1044C
:1012300009F441C019960C9110E098012E0D3F1D44
:10124000D50114968D919C918217930710F480E03C
:1012500016C0F50181819281208131E03093C30570
:101260002093E5051092C4051092E60501151105BD
:1012700099F421E0A701B601C5010E94B0080F90C2
:101280000F90DF91CF911F910F91FF90EF90DF9022
:10129000CF90BF90AF900895DC01ED91FC9102805A
:1012A000F381E02DA801BE016F5F7F4F09950817FC
:1012B000190769F6DECF1296ED91FC9113973097DE
:1012C00031F214962D913C91159719960C9110E0DE
:1012D0002330310571F48E7F89839A830F5F1F4F0E
:1012E0009E012F5F3F4FA701B601CF010E947508F5
:1012F000C6CF2115310519F49F779983F1CF22309C
:10130000310511F49068F9CF2130310549F79F7705
:101310009064F3CF85ED8093BC008091BC0084FD88
:10132000FCCF1092C205089520912D05260F33277A
:10133000331F21323105ECF42091C205FC0190E00D
:1013400080E0243069F082E00895A0912D0521917C
:10135000AC01435F5A4FA40FB52FB11D2C930196DA
:10136000861798F380912D05680F60932D0580E016
:10137000089581E008951092C20581E08093C1052F
:101380001092BA0561E082E10E94AF0261E083E160
:101390000E94AF02E9EBF0E080818E7F8083808144
:1013A0008D7F808388E48093B80085E48093BC00BF
:1013B0000895CF93DF93EC018B818823A1F088817E
:1013C00091E09093C3058093E5051092C4051092B7
:1013D000E60581E00E94330191E0811190E0892FC0
:1013E000DF91CF9108951092900510928F05109281
:1013F000C4051092E6050E94BB098AE097E090932D
:101400008E0580938D058BE097E090938C058093FB
:101410008B0581E08B83CE010E94D909982F811121
:10142000CECFDDCF0895E091900580918F05E8172C
:1014300030F4F0E0E05BFA4F808190E008958FEFA8
:101440009FEF08959091900580918F052FEF3FEFCA
:10145000981748F4E92FF0E0E05BFA4F208130E084
:101460009F5F90939005C901089580918F05909199
:101470009005891B990B0895CF92DF92EF92FF920E
:101480000F931F93CF93DF937C01CB018A012091AF
:10149000C305222389F0EB016B01C40ED51ECC15C8
:1014A000DD0569F06991D701ED91FC910190F08122
:1014B000E02DC7010995F3CF642F0E949409C8015C
:1014C000DF91CF911F910F91FF90EF90DF90CF9020
:1014D0000895CF93DF931F92CDB7DEB76983209134
:1014E000C3052223F9F02091E605203258F021E0CF
:1014F00030E0FC013383228390E080E00F90DF91A5
:10150000CF9108958091C405E82FF0E0EB53FA4F96
:10151000998190838F5F8093C4058093E60581E075
:1015200090E0ECCF61E0CE0101960E949409F7CFE4
:101530002091B8053091B9052817390771F49091B9
:10154000B6058091B705981741F0E091B605F0E037
:10155000E353FB4F808190E008958FEF9FEF089554
:101560000F931F930E94E30560933E0670933F061E
:10157000809340069093410686E396E00E94980A85
:1015800097FF1DC00E94E30500913E0610913F06A3
:101590002091400630914106601B710B820B930B2A
:1015A00000913A0610913B0620913C0630913D0691
:1015B0006017710782079307F8F28FEF9FEF1F9173
:1015C0000F910895EF92FF920F931F93CF93DF93A4
:1015D000DC015C96ED90FC905D97E114F10479F4E8
:1015E00081E090E013969C938E93129790E080E0B8
:1015F000DF91CF911F910F91FF90EF900895519639
:10160000ED91FC91529750968C915097982F909510
:101610000FB75E962C915E97122F127021FD609588
:10162000F8942081112319F1282B2083E7012197B9
:10163000F1F728E0462F50E0308160FF1AC0382BC8
:101640003083E7012197F1F7BA017595679521502D
:1016500089F7112381F08081892380830FBF5C96F5
:101660008D919C910197F1F781E090E0C1CF292302
:10167000DCCF3923E5CF9081892BEFCF2091B805BE
:101680003091B9052817390761F48091B705209189
:10169000B60590E0805C9F4F821B91098F7399275C
:1016A000089590E080E008952091B8053091B90543
:1016B00028173907B9F49091B6058091B7059817A6
:1016C00089F0E091B605F0E0E353FB4F8081209173
:1016D000B60530E02F5F3F4F2F7333272093B605B9
:1016E00090E008958FEF9FEF08950F931F930E944E
:1016F000E30560933E0670933F0680934006909307
:10170000410686E396E00E94540B97FF1DC00E949D
:10171000E30500913E0610913F062091400630916E
:101720004106601B710B820B930B00913A061091DE
:101730003B0620913C0630913D06601771078207F9
:101740009307F8F28FEF9FEF1F910F91089590E0AC
:1017500080E008950F931F93CF93DF932091CC04E3
:101760002F5F322F37703093CC0420FF2BC020E83E
:1017700031FD2064347009F02062205FFC01EC012F
:10178000239600E011E06485662329F070E0C8012B
:101790000E94972E6F5F6187322F369F030E30E0D5
:1017A000311D1124311110C01682662311F06150D1
:1017B00061873196EC17FD0731F7DF91CF911F91CB
:1017C0000F91089520E0D4CF31503683EECF4F9261
:1017D0005F927F928F929F92AF92BF92CF92DF9251
:1017E000EF92FF920F931F93CF93DF932C01EB01A6
:1017F0000E948B05F20127853089621B730B6A30CA
:101800007105B0F3F8948A819B81181619060CF0C3
:10181000CBC1E881F98105B1086075B1777F75B9F1
:10182000BA848F812B2D281B822F2F834F85042E66
:10183000000C550BAA81BB81ED84DC84CE84E3943B
:10184000D394C3949E81388599848B84118120E040
:10185000F32E622F322F3181112788943111380FE6
:1018600008F43FEF81958894E0FC130F1795889456
:10187000E1FC130F17958894E2FC130F17958894D9
:10188000E3FC130F17958894E4FC130F17958894C5
:10189000E5FC130F17958894E6FC130F17958894B1
:1018A000E7FC130F17958894232FE110212F8B0D40
:1018B000122F002C05B900C017FF75B930812227FF
:1018C000889400C000C0002C75B93111390F00C0D8
:1018D000002C05B900C016FF75B908F43FEF9195CB
:1018E000889400C000C0002C75B9D0FC230F00C044
:1018F000002C05B900C015FF75B927958894D1FC57
:10190000230F00C000C0002C75B92795889400C033
:10191000002C05B900C014FF75B9D2FC230F279520
:10192000889400C000C0002C75B9D3FC230F00C000
:10193000002C05B900C013FF75B927958894D4FC15
:10194000230F00C000C0002C75B92795889400C0F3
:10195000002C05B900C012FF75B9D5FC230F2795DF
:10196000889400C000C0002C75B9D6FC230F00C0BD
:10197000002C05B900C011FF75B927958894D7FCD4
:10198000230F00C000C0002C75B92795889400C0B3
:10199000002C05B900C010FF75B9132FD110122FFC
:1019A000990D00C000C0002C75B900C000C0002C0B
:1019B00005B900C017FF75B932812227889400C08D
:1019C00000C0002C75B931113F0D00C0002C05B9C5
:1019D00000C016FF75B908F43FEFE40FF51F00C013
:1019E00000C0002C75B9C0FC230F00C0002C05B945
:1019F00000C015FF75B927958894C1FC230F00C05E
:101A000000C0002C75B92795889400C0002C05B93A
:101A100000C014FF75B9C2FC230F2795889400C03D
:101A200000C0002C75B9C3FC230F00C0002C05B901
:101A300000C013FF75B927958894C4FC230F00C01C
:101A400000C0002C75B92795889400C0002C05B9FA
:101A500000C012FF75B9C5FC230F2795889400C0FC
:101A600000C0002C75B9C6FC230F00C0002C05B9BE
:101A700000C011FF75B927958894C7FC230F00C0DB
:101A800000C0002C75B92795889400C0002C05B9BA
:101A900000C010FF75B9132FC110122FF19400C0B0
:101AA00000C0002C75B9F80C00C000C005B900C01A
:101AB00017FF75B931812227889400C000C0002C1F
:101AC00075B93111380F00C0002C05B900C016FFE0
:101AD00075B908F43FEF8195889400C000C0002CD0
:101AE00075B9E0FC230F00C0002C05B900C015FF3C
:101AF00075B927958894E1FC230F00C000C0002C25
:101B000075B92795889400C0002C05B900C014FF52
:101B100075B9E2FC230F2795889400C000C0002C03
:101B200075B9E3FC230F00C0002C05B900C013FFFA
:101B300075B927958894E4FC230F00C000C0002CE1
:101B400075B92795889400C0002C05B900C012FF14
:101B500075B9E5FC230F2795889400C000C0002CC0
:101B600075B9E6FC230F00C0002C05B900C011FFB9
:101B700075B927958894E7FC230F00C000C0002C9E
:101B800075B92795889400C0002C05B900C010FFD6
:101B900075B9132FE110122F8B0D00C000C0002C5F
:101BA00075B9119709F086CE4A815B8120EE31E04C
:101BB000DA010E94AB2EDC01CB01F4E0B695A795CB
:101BC00097958795FA95D1F730E020E0B901EAE9D9
:101BD0004E9F040E611D5E9F600D711D1124650FE7
:101BE000711D860F971FA11DB11D893E43E094070B
:101BF000A105B10508F434C0885E9340A109B1097C
:101C000042E0B695A795979587954A95D1F747E015
:101C1000849F080E211D949F200D311D1124290F32
:101C2000311D6091CB0470E0860F971F820F931FC8
:101C30004091AE055091AF056091B0057091B1052E
:101C4000292F3327420F531F611D711D4093AE058D
:101C50005093AF056093B0057093B1058093CB04AA
:101C600078940E948B05F201708B6787DF91CF918A
:101C70001F910F91FF90EF90DF90CF90BF90AF90AA
:101C80009F908F907F905F904F90089581E090E0BB
:101C90000895239A08956F927F928F92CF92DF9248
:101CA000EF92FF920F931F93CF93DF93CDB7DEB7E1
:101CB00062970FB6F894DEBF0FBECDBF6C017A01FC
:101CC0003801822EDC011C962C91CA0157FF04C0FA
:101CD00088279927841B950B7A8369839C838B8340
:101CE0009E838D836D867E868F86213049F5CE0159
:101CF00001960E94AA0B83E0888B1A8A198AF7FE44
:101D000002C08DEF888BD601ED91FC910684F7859A
:101D1000E02DBE016F5F7F4FC601099562960FB639
:101D2000F894DEBF0FBECDBFDF91CF911F910F9111
:101D3000FF90EF90DF90CF908F907F906F900895FD
:101D40001C861B861A86198618861F82D4CFEF92AE
:101D5000FF920F931F93CF93DF93CDB7DEB76297B8
:101D60000FB6F894DEBF0FBECDBF7C01DC011C9620
:101D70008C917A8369835C834B835E834D830D876B
:101D80001E872F878130F9F4CE0101960E94AA0B9D
:101D9000188A1A8A198AD701ED91FC910684F78571
:101DA000E02DBE016F5F7F4FC701099562960FB6A8
:101DB000F894DEBF0FBECDBFDF91CF911F910F9181
:101DC000FF90EF9008951C861B861A861986188648
:101DD0001F82DECFCF92DF92EF92FF920F931F937D
:101DE000CF93DF93CDB7DEB72F970FB6F894DEBF52
:101DF0000FBECDBF8091A905882309F454C08091FE
:101E0000140190911501A091160189839A83AB83E7
:101E10008E010F5F1F4F6E0184E0C80ED11CF801C8
:101E2000F1908F0161E08F2D0E94AF026EE571E0AD
:101E300080E090E00E94B00560E08F2D0E94AF022C
:101E4000C016D10661F7F98061E08F2D0E94AF02C4
:101E50000A8161E0802F0E94AF021B8161E0812F27
:101E60000E94AF026EE571E080E090E00E94B00554
:101E700060E08F2D0E94AF0260E0802F0E94AF02D1
:101E800060E0812F0E94AF022F960FB6F894DEBF5C
:101E90000FBECDBFDF91CF911F910F91FF90EF90BB
:101EA000DF90CF9008958FEF89831A821B821C8266
:101EB00090E89D831E821F82188689878A878B8778
:101EC0008C878E010F5F1F4F7E01FDE0EF0EF11C2E
:101ED000C8010E941B010E94EF056EE571E080E0E1
:101EE00090E00E94B0050D5F1F4F0E151F0581F792
:101EF0001D861E861F86C8010E941B010E94EF05D9
:101F0000C3CF0F931F930E94E3050091C204109169
:101F1000C3042091C4043091C504011511052105A5
:101F2000310561F0AB01BC01401B510B620B730B1F
:101F300081E0403757416105710508F080E01F914D
:101F40000F910895CF9390910301C09102018823CE
:101F500049F061E0892F0E94AF0260E08C2FCF91A1
:101F60000C94AF0260E0892F0E94AF0261E0F6CFCF
:101F700060E0809103010E94AF0260E08091020165
:101F80000C94AF02CF93DF93EB010E94A20FBE012E
:101F900090E080E00E94B005DF91CF910C94B80FE3
:101FA000EF92FF920F931F93CF93DF9305E511E01C
:101FB0008FE3E82E81E0F82EF801819191918F0155
:101FC000F701C191D1917F01009729F0AE0170E036
:101FD00060E00E9419036496BE0190E080E00E94D8
:101FE000B005F1E00B361F0739F786E0DF91CF919E
:101FF0001F910F91FF90EF900C940F07CF93C0911A
:10200000A905CC23C9F0FC012081211108C0218140
:10201000211105C0C1E08281811101C0C0E06C2F97
:1020200087E00E94AF026C2F88E00E94AF026C2F05
:1020300089E0CF910C94AF020E941B01CF910C94C8
:10204000EF05AF92BF92CF92DF92EF92FF920F9384
:102050001F93CF93DF9300D01F92CDB7DEB75C0103
:10206000062F10E06A01F12CE12CC5010E94FE0F41
:10207000C701B6010E94B00519821A821B82CE01E7
:1020800001960E94FE0F60E570E080E090E00E9403
:10209000B0051F5F0113E9CF0F900F900F90DF91F4
:1020A000CF911F910F91FF90EF90DF90CF90BF9055
:1020B000AF900895CF92DF92EF92FF926C01CB0127
:1020C000F12CE12CB701A6010E941903C701B6014A
:1020D0000E94B00586E0FF90EF90DF90CF900C94C7
:1020E0000F0790E080E00895FC01858596850895AE
:1020F0000F931F93CF93DF9300D01F92CDB7DEB71E
:10210000AB0119821A821B82DC01ED91FC910190D6
:10211000F081E02D00E010E020E0BE016F5F7F4F16
:1021200009950F900F900F90DF91CF911F910F9114
:1021300008952F923F924F925F926F927F928F926B
:102140009F92AF92BF92CF92DF92EF92FF920F9346
:102150001F93CF93DF9300D0CDB7DEB7FC014B01C7
:10216000042F9681878199838A83C080D180C1148E
:10217000D10409F4B8C0418550E0D60114968D9180
:102180009C9184179507B8F4312C832D0F900F90F4
:10219000DF91CF911F910F91FF90EF90DF90CF9043
:1021A000BF90AF909F908F907F906F905F904F9077
:1021B0003F902F900895F601808191E09093C305A0
:1021C0008093E5051092C4051092E60520E0BE015B
:1021D0006F5F7F4FC6010E94B008382E8823A1F29E
:1021E00010E0B12CA12C22242394A016B10668F68D
:1021F0008091C2058111FCCFD60114968D919C91DE
:102200007801EA18FB088E159F0508F47C01F60199
:1022100090818E2D813208F080E22092C20541E04B
:1022200098012E193F09A216B30608F440E0409326
:10223000C105FFEFF093C00520E535E03093BF0501
:102240002093BE051092BD052FEF280F2093BC05EB
:102250002092BB052091BB05990F922B9093BB0553
:102260009091BA059130C1F51092BA059091BB05D5
:102270009093BB009091BC0093FDF8CF35EC309368
:10228000BC009091C2059130E1F39091BD05981783
:1022900010F48091BD051092900580938F058E15E6
:1022A0001F0409F071CF34016A0C7B1C2301C201A9
:1022B000861997098E159F0598F4D60111968D9170
:1022C0009C91DC01ED91FC910284F385E02D099550
:1022D000F20181932F01EBCF95EE9093BC00D1CF0B
:1022E000AE0CBF1C82CFA281B381109709F44CCFF2
:1022F0002481358110E0418550E02330310571F4AF
:10230000816089839A834F5F5F4F9401BE016F5F45
:102310007F4FCD010E943908382E37CF2115310566
:1023200019F490689983F1CF2230310511F49F7729
:10233000F9CF2130310549F7906CF4CFEF92FF923D
:102340000F931F93CF93DF93CDB7DEB7A6970FB64A
:10235000F894DEBF0FBECDBF809126069091270670
:102360001BA21CA21DA21EA29D8B8C8B1F8A1E8AE3
:1023700011E01D8F85E090E09B8F8A8F1E8F02E019
:102380000C8F40912A0650912B0660912C0670917B
:102390002D0622E0CE0144960E94CE0880912606AA
:1023A00090912706188A198A1A8A1B8A9A83898328
:1023B0001C821B821A8784E090E098878F831B879A
:1023C000098742E0BE01645F7F4FCE0101960E9403
:1023D0009910882341F0EC84FD849B85992319F0A2
:1023E000FE24EF24FE2480932806C701A6960FB68C
:1023F000F894DEBF0FBECDBFDF91CF911F910F913B
:10240000FF90EF9008958F929F92AF92BF92EF92BC
:10241000FF920F931F93CF93DF93EC014A015B016F
:10242000E880F980B701655F7F4FF7014085C701FC
:102430000E949910882309F1F701608570E030E06F
:1024400020E080E090E0DC0126173707CCF4BA2FBB
:10245000A92F982F8827F701428541110AC0FB0157
:10246000E21BF30BEE0DFF1D4285842B2F5F3F4FC8
:10247000EBCFE20FF31F4385F8CF8FEF9FEFDC0127
:102480002A8101E010E002C0000F111F2A95E2F737
:1024900001501109012E000C220B330BEB81B90105
:1024A000A8010E2E04C0440F551F661F771F0A9403
:1024B000D2F7409550956095709584239523A62377
:1024C000B7230990D881C02DB901A801482159210D
:1024D0006A217B2104C0440F551F661F771FEA95B0
:1024E000D2F7482B592B6A2B7B2B2885CE01DF9105
:1024F000CF911F910F91FF90EF90BF90AF909F9061
:102500008F900C94CE08CF93DF93CDB7DEB767974B
:102510000FB6F894DEBF0FBECDBF209126063091D6
:102520002706188A198A1A8A1B8A3A8329831C82E9
:102530001B8291E09A8718861F829B8792E0998779
:102540009E012F5F3F4F3D8B2C8B93E09E8B1F8A0C
:1025500040E050E0BA01811104C047E050E060E083
:1025600070E0CE0144960E9403128093280667967D
:102570000FB6F894DEBF0FBECDBFDF91CF910895A7
:102580004F925F926F927F928F929F92AF92BF9283
:10259000CF92DF92EF92FF92CF93DF93C82F80917B
:1025A000930581111FC068EE73E08C2F0E94C20F4B
:1025B00060E570E080E090E00E94B00564E873E0C0
:1025C00081E08C27DF91CF91FF90EF90DF90CF904B
:1025D000BF90AF909F908F907F906F905F904F9043
:1025E0000C94C20F80E00E9483128C2F0E94A20FD5
:1025F0000E94E3056B017C010E94E3056C197D09D3
:102600008E099F09603177428105910530F00E9463
:10261000B80F81E00E948312CBCFD9E1812C912C9D
:1026200054010E949E11BC01990F880B990B0E94C6
:10263000D32B2B013C0160912E0670912F068091C7
:102640003006909131060E94D12B9B01AC01C30151
:10265000B2010E94102E9B01AC01C501B4010E9481
:10266000A42D4B015C01D150E1F60E94E3056C19E9
:102670007D098E099F096D3271408105910508F42D
:10268000BBCF20E030E048EC51E4C501B4010E942A
:10269000102E9F7720E030E046E953E40E94822E1E
:1026A00018160CF0A9CFB3CF0E94AE30CF93DF93B2
:1026B000DC0114962D913C911597232B79F0FB01A9
:1026C000CD91DC9160817181CE010E94D93000975B
:1026D00029F08C1B9D0BDF91CF9108958FEF9FEF19
:1026E000FACFFB0144815581FC01248135812417F7
:1026F000350778F080819181009759F0FB01608166
:1027000071816115710529F00E94CB3021E0892B80
:1027100009F020E0822F08950F931F93CF93DF934A
:10272000EC0188819981009759F02A813B81261715
:10273000370730F081E0DF91CF911F910F9108951D
:102740008B016F5F7F4F0E94F12F009759F09983A3
:1027500088831B830A832C813D81232B59F7FC013D
:102760001082E8CF80E0E7CFFC0180819181009763
:1027700011F00C94682F0895FB0101900020E9F7F7
:102780003197AF01461B570BDC01ED91FC910280A4
:10279000F381E02D0994BC01809100019091010129
:1027A0000E94BC138091000190910101DC01ED9128
:1027B000FC910190F081E02D6AE009958091000183
:1027C00090910101DC01ED91FC910680F781E02DF3
:1027D00009956CE070E080E090E00C94B00589EC25
:1027E00091E00E94CB1366E970E080E090E00E94E7
:1027F000B00589EC91E00C94CB138F929F92AF922D
:10280000BF92DF92EF92FF920F931F93CF93DF93CC
:10281000CDB7DEB7E0970FB6F894DEBF0FBECDBFE1
:1028200083E0E82E90E3D92E8E010F5F1F4F86E3E1
:1028300096E00E943E0B892B29F086E396E00E94E9
:10284000540BF5CF6CEC71E086E396E00E94BC136C
:10285000F8012D2D11922A95E9F70E94E3054B010D
:102860005C01F12C0E94E305681979098A099B092A
:10287000623C71408105910598F486E396E00E94E0
:102880003E0B892B79F3FEE2FF1560F386E396E0B9
:102890000E94540BF801EF0DF11D8083F394E2CFF9
:1028A00066ED71E0C8010E94D930892B99F46DED75
:1028B00071E0C8010E94D930892B61F463EE71E0A8
:1028C000C8010E94D930892BC1F4EA94E110AFCF3E
:1028D00080E001C083E0E0960FB6F894DEBF0FBE43
:1028E000CDBFDF91CF911F910F91FF90EF90DF90BF
:1028F000BF90AF909F908F90089584E0ECCF0F939E
:102900001F93CF93DF938C01EB0183E00E9486023B
:102910000197D1F0B80186E396E00E94BC136DE008
:1029200086E396E00E94E20ABE0190E080E00E9409
:10293000B00586E396E00E943E0B892B29F086E3E2
:1029400096E00E94540BF5CFDF91CF911F910F912C
:1029500008950F931F93CF93DF93CDB7DEB768979A
:102960000FB6F894DEBF0FBECDBF8091A9058823B6
:1029700009F488C066E970E08EEF91E00E947F1450
:1029800066E970E087E092E00E947F148DE995E0AF
:1029900020919D052223D1F09F938F9380E192E0B7
:1029A0009F938F931F9288E18F938E010F5F1F4F2C
:1029B0001F930F930E94F33068EC70E0C8010E94EF
:1029C0007F140FB6F894DEBF0FBECDBF66E970E08E
:1029D0008AE192E00E947F1466E970E083E292E06F
:1029E0000E947F1466E970E08CE292E00E947F14FE
:1029F00066E970E085E392E00E947F148091A9056A
:102A000066E970E0882309F44EC08EE392E00E94EC
:102A10007F1466E970E087E492E00E947F1466E923
:102A200070E080E592E00E947F1466E970E089E53D
:102A300092E00E947F1466E970E082E692E00E94D4
:102A40007F1466E970E08BE692E00E947F1466E9ED
:102A500070E086E792E00E947F1466E970E087E903
:102A600092E00E947F1480919205833089F48091D6
:102A7000A905811121C083EF91E066E970E00E9411
:102A80007F1406C083E00E948602019709F072CF8E
:102A900068960FB6F894DEBF0FBECDBFDF91CF9121
:102AA0001F910F91089581E892E00E947F1466E9DA
:102AB00070E08CE892E0CFCF88EE91E0DECFEF922D
:102AC000FF920F931F93CF93DF93EC017B01198249
:102AD00018821B821A821D821C82FB010190002039
:102AE000E9F731978F01061B170BB8010E948C1371
:102AF00028813981811113C02115310519F0C901CF
:102B00000E94682F198218821D821C821B821A82E1
:102B1000DF91CF911F910F91FF90EF9008951D834A
:102B20000C83B701C901DF91CF911F910F91FF90E5
:102B3000EF900C94C430CF92DF92EF92FF920F93FC
:102B40001F93CF93DF93EB017B0124E0E20EF11C96
:102B50008B016C01C61AD70AC601800F911F0E9413
:102B6000F32CF80181938F01EE15FF05A9F7CE0133
:102B7000DF91CF911F910F91FF90EF90DF90CF9059
:102B800008950C94F32C1F93CF93DF93EC01162F31
:102B90000E94F32C181739F0612FCE01DF91CF91ED
:102BA0001F910C94FB2CDF91CF911F9108954F92B0
:102BB0005F926F927F928F929F92AF92BF92CF92CD
:102BC000DF92EF92FF921F93CF93DF9300D01F927B
:102BD000CDB7DEB76EE170E080E090E00E94B00516
:102BE00082E00E948602892B09F095C00E94E305CD
:102BF0002B013C01812C912C540116E982E00E94AA
:102C00008602892B09F069C00E94E30564197509E1
:102C100086099709603127E272078105910598F1CD
:102C200060E173E088E790E00E945A1063E972E087
:102C300088E790E00E945A106BE072E088E790E02D
:102C40000E945A1068E871E088E790E00E945A10EC
:102C50008FEF89831A821B8248E750E063E0CE0140
:102C600001960E94211060E08EE893E00E94C31557
:102C700088E198E00FB6F894A895809360000FBEA5
:102C800090936000FFCF28EE33E040E050E00E94D8
:102C9000722D69017A0183E0C816D104E104F104C0
:102CA000C8F0C814D904EA04FB0459F0129FB0011B
:102CB000139F700D112460557B4F88E290E00E94B5
:102CC0005A106AE070E080E090E00E94B005460192
:102CD000570194CF75016401F4CF0E94E305641994
:102CE000750986099709603273408105910530F5B1
:102CF000F090CA0481E0F826F092CA0468E077E018
:102D0000FF2011F060E679E082E390E00E945A1023
:102D10008F2D0E94C0120F900F900F90DF91CF91D6
:102D20001F91FF90EF90DF90CF90BF90AF909F905A
:102D30008F907F906F905F904F90089564EF71E057
:102D400088E790E00E945A10E6CFCF93C82F809377
:102D50009C05682F83E090E00E94C31561E084E049
:102D600090E00E94C31568E27AE08CE390E00E9454
:102D70005A1068EE73E080E090E00E94B00589ECA4
:102D800091E00E94CB1366E970E080E090E00E9441
:102D9000B0058AEC91E0CC2311F087E894E00E9422
:102DA000CB1380E00E94C012CC2349F06CE271E0AA
:102DB00080E090E00E94B00581E00E94C01260EDCA
:102DC00077E080E590E00E945A1060E679E080E5C7
:102DD00090E0CF910C945A10EF92FF920F931F93B3
:102DE000CF93DF93CDB7DEB768970FB6F894DEBF09
:102DF0000FBECDBF8FE00E946E057E0121E1E20E85
:102E0000F11CBC01990F880B990B0E94D32B20E079
:102E100030E040EA5BE30E94322C870122E040E090
:102E20000E945126FF92EF9280EA92E09F938F9347
:102E30001F9280E18F93005111091F930F930E94FD
:102E4000F330C8010E94CB130FB6F894DEBF0FBE5B
:102E5000CDBF68960FB6F894DEBF0FBECDBFDF9131
:102E6000CF911F910F91FF90EF9008952F923F9275
:102E70004F925F926F927F928F929F92AF92BF928A
:102E8000CF92DF92EF92FF920F931F93CF93DF9336
:102E9000CDB7DEB76E970FB6F894DEBF0FBECDBFCD
:102EA000182F1B0180919305882309F498C080E0B6
:102EB0000E948312812F0E94A20F68E770E080E0D9
:102EC00090E00E94B0050E94E3052B013C0110E058
:102ED00000E0C12CD12C76010E94E305641975092C
:102EE000860997096A3471408105910530F50E9481
:102EF0009E11BC01990F880B990B0E94D32B4B019B
:102F00005C0160912E0670912F06809130069091A1
:102F100031060E94D12B9B01AC01C501B4010E9476
:102F2000102E9B01AC015F77C701B6010E94A42D52
:102F30006B017C010F5F1F4FCFCF0E94B80F81E064
:102F40000E94831260E070E0CB010115110559F079
:102F5000B80190E080E00E94D12B9B01AC01C70139
:102F6000B6010E94102E7E0125E1E20EF11C8701C0
:102F700020E040E00E945126FF92EF9287EA92E023
:102F80009F938F931F9284E18F93045111091F9394
:102F90000F930E94F330C8010E94CB130FB6F89430
:102FA000DEBF0FBECDBFC1010E94CB136E960FB620
:102FB000F894DEBF0FBECDBFDF91CF911F910F916F
:102FC000FF90EF90DF90CF90BF90AF909F908F9049
:102FD0007F906F905F904F903F902F90089562EC9C
:102FE00071E0812F0E94C20F85EB92E00E94CB130B
:102FF000DACF0F931F93CF93DF93CDB7DEB76097F0
:103000000FB6F894DEBF0FBECDBF182F8FE00E9421
:103010006E05BC01990F880B990B0E94D32B20E001
:1030200030E040EA5BE30E94322C9B01AC0160E09F
:1030300070E08AEF94E4112321F060E070E08AE709
:1030400094E40E94A42D8E010F5F1F4F22E040E008
:103050000E945126C8010E94CB1360960FB6F894C7
:10306000DEBF0FBECDBFDF91CF911F910F910895AD
:10307000CF9320919C05C1E06130710581059105D8
:1030800021F4213021F0C0E002C02111FCCF0E94C8
:10309000810F882321F08C2FCF910C94F9170E9477
:1030A000E3056093C2047093C3048093C4049093B7
:1030B000C5048C2F0E94C0120E94E3056093C204D5
:1030C0007093C3048093C4049093C50468E770E0D0
:1030D00080E090E00E94B005DECF2F923F924F92A9
:1030E0005F926F927F928F929F92AF92BF92CF9298
:1030F000DF92EF92FF920F931F93CF93DF93CDB7A1
:10310000DEB7E6970FB6F894DEBF0FBECDBF86E3FD
:1031100096E090930101809300010E94E3050091E5
:10312000C6041091C7042091C8043091C904601BE3
:10313000710B820B930B613A7F408105910580F002
:1031400068E27AE08DE290E00E945A100E94E30566
:103150006093C6047093C7048093C8049093C90415
:1031600086E990E0A0E0B0E080933A0690933B06B9
:10317000A0933C06B0933D060E94E3054B015C0121
:103180000E94E3056BA77CA78DA79EA730E2232EA4
:103190003EE4332E412C512C8E010F5F1F4F0E94B5
:1031A000E305681979098A099B0962157305840585
:1031B000950508F060C30E94E3052BA53CA54DA52D
:1031C0005EA5621B730B840B950B603C77428940B4
:1031D000910508F050C382E00E948602892B31F4E9
:1031E0000E94D7150E94E3054B015C0183E00E9419
:1031F0008602019721F40E94E3054B015C0186E3FE
:1032000096E00E943E0B181619064CF686E396E0EF
:103210000E94980A8D30910549F08032910531F075
:103220009C01295031092230310528F486E396E0CB
:103230000E94540BB4CF8F7D815491094A9708F0B6
:10324000BEC361EF72E0CE0181960E945F150E94BD
:10325000750B97FD1AC089831A82EDA0FEA04FEF6F
:10326000E41AF40AB701CE0181960E948C138823D8
:1032700071F329A13AA18DA19EA1B801820F931FDC
:103280000E94C430FEA2EDA2E2CFE9A0FAA0E114B0
:10329000F10431F06DA07EA0670161147104B9F4EE
:1032A000E9A0FAA0E114F10409F44AC0F701819100
:1032B0007F01882309F444C0082E000C990B0E945A
:1032C000B330F70131978083F1CFCFA0D8A4C601E6
:1032D000019698A78FA3F6018081082E000C990B08
:1032E0000E94242B892B89F7F1E06F1A71086E0C6C
:1032F0007F1CF3018081082E000C990B0E94242B67
:10330000892B39F06C147D0420F0F1E06F1A7108FC
:10331000F0CF2FEF621A720AA3014C195D095EA368
:103320004DA3EC14FD0420F4B601C7010E94BB308C
:10333000E9A1FAA18DA19EA1E80FF91F1082B0CFDB
:1033400066EF72E0C8010E945F15B801CE01819658
:103350000E947113F82EC8010E94B413FF2009F4D3
:1033600070C20E94E3054B015C016BEF72E0C80183
:103370000E945F15B801CE0181960E947113F82E4C
:10338000C8010E94B413FF2079F084E093E00E940A
:10339000CB1366E970E080E090E00E94B00584E025
:1033A00093E00E94CB1359C069E073E0C8010E940A
:1033B0005F15B801CE0181960E947113F82EC801E5
:1033C0000E94B413FF20A9F06CED75E088E790E04F
:1033D0000E945A1060ED77E088E790E00E945A1052
:1033E00064EC79E084EB90E00E945A1081E193E074
:1033F000D8CF68E173E0C8010E945F15B801CE0123
:1034000081960E947113F82EC8010E94B413FF2008
:1034100029F00E94EA0E80E293E0C3CF67E273E0F6
:10342000C8010E945F15B801CE0181960E947113F8
:10343000F82EC8010E94B413FF20D1F080E393E07E
:103440000E94CB1364E170E080E090E00E94B00540
:1034500068E373E081E00E94361780E6282E8AEE4A
:10346000382E412C512CCE0181960E94B41397CE58
:1034700061E473E0C8010E945F15B801CE01819636
:103480000E947113F82EC8010E94B413FF2071F03E
:103490008AE493E00E94CB1364E170E080E090E066
:1034A0000E94B00562E573E080E0D5CF6BE573E084
:1034B000C8010E945F15B801CE0181960E94711368
:1034C000F82EC8010E94B413FF2019F00E94EC16D8
:1034D000C4CF63E673E0C8010E945F15B801CE0156
:1034E00081960E947113F82EC8010E94B413FF2028
:1034F00009F4DCC080919D05882309F4C8C08DE9DA
:1035000095E09F938F932CE633E03F932F931F9288
:1035100020E2F22EFF921F930F930E94F330C80116
:103520000E94CB1380919C051F928F9383E793E0B9
:103530009F938F931F92FF921F930F930E94F330DC
:10354000C8010E94CB130FB6F894DEBF0FBECDBFEB
:103550008091980590919905A0919A05B0919B054D
:10356000892B8A2B8B2B09F495C08091940590911F
:103570009505A0919605B0919705892B8A2B8B2BE9
:1035800009F488C080ED92E09F938F934AE753E05F
:103590005F934F931F9280E28F931F930F930E942C
:1035A000F330C8010E94CB130FB6F894DEBF0FBEF4
:1035B000CDBF80919105882309F46FC080ED92E022
:1035C0009F938F9323E833E03F932F931F9280E2E2
:1035D0008F931F930F930E94F330C8010E94CB1367
:1035E0000FB6F894DEBF0FBECDBF80919305882340
:1035F00009F456C080ED92E09F938F93EAE8F3E0E0
:10360000FF93EF931F9280E28F931F930F930E947B
:10361000F330C8010E94CB130FB6F894DEBF0FBE83
:10362000CDBF8091A9058823F1F185EE92E09F93AB
:103630008F9381E993E09F938F931F9290E2F92EED
:10364000FF921F930F930E94F330C8010E94CB1387
:10365000809192051F928F938AE993E09F938F93B5
:103660001F92FF921F930F930E94F330C8010E9494
:10367000CB1385EA93E00E94CB138FEA93E00E947C
:10368000CB130FB6F894DEBF0FBECDBFE6CE86ECEF
:1036900092E037CF83ED92E077CF8AED92E090CF42
:1036A00081EE92E0A9CF89EE92E0C1CF68EB73E0A2
:1036B000C8010E945F15B801CE0181960E94711366
:1036C000F82EC8010E94B413FF2029F00E94D00FE9
:1036D00082EC93E066CE6BEC73E0C8010E945F154C
:1036E000B801CE0181960E947113F82EC8010E9484
:1036F000B413FF2009F44DC083ED93E00E94CB1377
:1037000060E971E080E090E00E94B00564EF71E054
:103710008AED93E00E947F1464EF71E080E090E016
:103720000E94B00583E00E948602019719F482EEA0
:1037300093E037CE64EF71E082EF93E00E947F1454
:1037400061E08FE893E00E94C3156CE370E08BEFBB
:1037500093E00E947F1468EB7BE080E090E00E94A1
:10376000B00560E08FE893E00E94C31560E971E066
:1037700080EA90E00E945A1060E971E080EA90E0EF
:103780000E945A1060E971E080EA90E00E945A10AD
:1037900064CE64E074E0C8010E945F15B801CE01F8
:1037A00081960E947113F82EC8010E94B41387E31A
:1037B00094E0FF2009F4F5CD8CE094E00E94CB1357
:1037C0006CED75E088E790E00E945A1060ED77E0BC
:1037D00088E790E00E945A1064EC79E084EB90E076
:1037E0000E945A1081E193E00E94CB130E94EA0EDE
:1037F00080E293E00E94CB1387E194E00E94CB1318
:1038000062EC71E081E00E94C20F80E393E00E94CD
:10381000CB1360E971E080E090E00E94B00583E2A4
:1038200094E00E94CB1362EC71E080E00E94C20F32
:103830008AE493E00E94CB130E94EC168FE294E09E
:10384000B0CD6FE374E0C8010E945F15B801CE01EE
:1038500081960E947113F82EC8010E94B413FF20B4
:1038600019F161E070E080E090E00E943818CE012C
:1038700081960E94B413E6960FB6F894DEBF0FBE91
:10388000CDBFDF91CF911F910F91FF90EF90DF900F
:10389000CF90BF90AF909F908F907F906F905F90F0
:1038A0004F903F902F90089565E474E0C8010E9406
:1038B0005F15B801CE0181960E947113F82EC801E0
:1038C0000E94B413FF2029F062E070E080E090E0F5
:1038D000CCCF6CE474E0C8010E945F15B801CE0142
:1038E00081960E9456137C01C8010E94B413F7FC14
:1038F00004C081E00E94A516BACF69E574E0C80152
:103900000E945F15B801CE0181960E9456137C017A
:10391000C8010E94B413F7FC02C080E0EBCF67E659
:1039200074E0C8010E945F15B801CE0181960E9423
:1039300056137C01C8010E94B413F7FC16C00E9404
:10394000E3054B015C0168E978E08CE390E00E94BC
:103950005A1081E00E94C01268E770E080E090E0B9
:103960000E94B0050E94EF137ECD62E774E0C801AB
:103970000E945F15B801CE0181960E9456137C010A
:10398000C8010E94B413F7FC6ECD0E94E3054B0101
:103990005C0168E978E08CE390E00E945A106EE7E1
:1039A00074E080E090E00E94B0050E94EF1381E097
:1039B0000E94C01258CD86E396E00E94540B0E94EC
:1039C000B00AFC0197FD5DC08D32910519F0C097DA
:1039D0000A9788F7C12CD12C7601712CE130F105C2
:1039E000D9F0ED32F10509F449C0CF01C0970A972B
:1039F00098F4AAE0B0E0A70196010E94282D6F017B
:103A0000FF0FEE08FF08C60ED71EE81EF91E90E352
:103A1000C91AD108E108F10886E396E00E94540B28
:103A20000E94B00AFC01C0970A97C0F2E130F1058C
:103A3000A9F2772041F0F094E094D094C094C11C96
:103A4000D11CE11CF11CC114D104E104F10409F4FE
:103A5000A6CBD701C6010197A109B1090297A1051B
:103A6000B105A0F580919C0511E0CA94CD28CE281F
:103A7000CF2859F4813059F010E009C077247394AD
:103A8000CBCFC12CD12C7601DECF8111F5CF812F88
:103A90000E94F9170E94810F8111EDCE0E94E3056B
:103AA0006093C2047093C3048093C4049093C504CC
:103AB000812F0E94C0120E94E3056093C20470939C
:103AC000C3048093C4049093C504D5CEC114F9EE09
:103AD000DF06F2E0EF06F104C9F40E94E3054B01B2
:103AE0005C0168E978E08CE390E00E945A1068E29B
:103AF0007AE08CE390E00E945A106EE774E080E078
:103B000090E00E94B0050E94EF1349CB21E2C2165B
:103B10002BE0D20620E2E206F10408F040CB0E943E
:103B2000E3054B015C010E94BB266FA778AB89AB14
:103B30009AAB0E94BB262EE037E240E050E00E94A4
:103B4000092D9B01AC012F5F3F4F4F4F5F4F2FA3BC
:103B500038A749A75AA78091980590919905A091F7
:103B60009A05B0919B05A7019601280F391F4A1F9E
:103B70005B1F2BAB3CAB4DAB5EAB6FA578A989A9A6
:103B80009AA92EE037E240E050E00E94092DDC01C6
:103B9000CB010196A11DB11D2BA93CA94DA95EA980
:103BA000820F931FA41FB51F20919205233009F0A7
:103BB0004DC02DEE32E0BF93AF939F938F933F9311
:103BC0002F931F9280E18F931F930F930E94F330E6
:103BD000C8010E94CB1366E970E080E090E00E948B
:103BE000B0058091940590919505A0919605B091AE
:103BF00097058C0D9D1DAE1DBF1DCFA0D8A4E9A4B7
:103C0000FAA4C80ED91EEA1EFB1E0FB6F894DEBF3A
:103C10000FBECDBF809192058330D9F48DEE92E036
:103C2000FF92EF92DF92CF929F938F931F9280E14A
:103C30008F931F930F930E94F330C8010E94CB1300
:103C40000FB6F894DEBF0FBECDBFA9CA22EF32E097
:103C5000B2CF82EF92E0E4CF1F920F920FB60F9295
:103C600011242F933F938F939F93AF93BF93809192
:103C7000AE059091AF05A091B005B091B10530911E
:103C8000AD0523E0230F2D3768F126E8230F0296B8
:103C9000A11DB11D2093AD058093AE059093AF0596
:103CA000A093B005B093B1058091B2059091B30592
:103CB000A091B405B091B5050196A11DB11D8093E9
:103CC000B2059093B305A093B405B093B505BF9129
:103CD000AF919F918F913F912F910F900FBE0F90B9
:103CE0001F9018950196A11DB11DD4CF1F920F9260
:103CF0000FB60F9211242F933F934F935F936F93BF
:103D00007F938F939F93AF93BF93EF93FF93E09134
:103D10000601F09107010995FF91EF91BF91AF91D5
:103D20009F918F917F916F915F914F913F912F91D3
:103D30000F900FBE0F901F9018951F920F920FB605
:103D40000F9211242F933F934F935F936F937F9321
:103D50008F939F93AF93BF93EF93FF93E0910401F1
:103D6000F09105010995FF91EF91BF91AF919F915E
:103D70008F917F916F915F914F913F912F910F9014
:103D80000FBE0F901F9018951F920F920FB60F92B3
:103D900011242F933F934F935F936F937F938F9350
:103DA0009F93AF93BF93EF93FF938091EC05909116
:103DB000ED05A091EE05B091EF05892B8A2B8B2B99
:103DC000D1F19091E705E091E805F091E905808156
:103DD000892780838091EC059091ED05A091EE05F7
:103DE000B091EF05181619061A061B069CF480916F
:103DF000EC059091ED05A091EE05B091EF050197CE
:103E0000A109B1098093EC059093ED05A093EE050F
:103E1000B093EF05FF91EF91BF91AF919F918F917B
:103E20007F916F915F914F913F912F910F900FBEB6
:103E30000F901F901895809109010E940F07EACFFB
:103E40001F920F920FB60F9211248F930FB6F89412
:103E5000A895809160008861809360001092600056
:103E60000FBE8F910F900FBE0F901F9018951F924D
:103E70000F920FB60F9211242F933F934F935F939E
:103E80006F937F938F939F93AF93BF93EF93FF9322
:103E90008091B900887F803609F44AC0F0F58832F5
:103EA00009F4A7C018F5803109F49BC0B8F4882341
:103EB00009F405C1883009F494C0FF91EF91BF91D6
:103EC000AF919F918F917F916F915F914F913F91B2
:103ED0002F910F900FBE0F901F901895883109F405
:103EE00088C0803251F78093C00514C0803409F433
:103EF000A5C040F48033B9F38833F9F68093C00548
:103F000085ECBCC0803509F489C0883509F49EC0B1
:103F1000883499F60E948A09D0CF883909F494C070
:103F200038F5883729F050F4883611F0803729F6B3
:103F300083E08093C20510924F0557C0883809F47A
:103F400083C0803919F0803809F0B7CF80914F05D0
:103F5000803208F079C0E0914F0581E08E0F8093A8
:103F60004F058091BB00F0E0E15DFA4F80833DC0DA
:103F7000803B39F0E0F4803A09F485C0883A09F0D2
:103F80009CCF84E08093C20510922E0510922D05DF
:103F9000E0918D05F0918E05099580912D05811197
:103FA0000FC081E080932D0510920D0509C0803C63
:103FB00009F4A6CF883C09F4A3CF883B09F07DCF54
:103FC000E0912E0581E08E0F80932E05F0E0E35FF7
:103FD000FA4F80818093BB0090912E0580912D0532
:103FE00031C08091BB058093BB0085EC8093BC0001
:103FF00064CF9091BD058091BC059817B8F580916C
:10400000BE059091BF05E091BD0521E02E0F2093E4
:10401000BD05E80FF92FF11D8081E5CF2091BE0588
:104020003091BF05E091BD0581E08E0F8093BD0505
:104030008091BB00E20FF32FF11D80839091BD05AD
:104040008091BC05981788F285E8D0CF2091BE05F5
:104050003091BF05E091BD0581E08E0F8093BD05D5
:104060008091BB00E20FF32FF11D80838091C10589
:10407000811150CF81E08093BA0584EA8093BC001F
:104080001092C2051ACF85EC8093BC001092C20535
:1040900080914F05803230F4E0914F05F0E0E15D12
:1040A000FA4F108260914F0570E0E0918B05F0911E
:1040B0008C058FE295E0099510924F05FECE109287
:1040C000C00528CF1F920F920FB60F9211242F9385
:1040D0003F934F935F936F937F938F939F93AF9390
:1040E000BF93EF93FF93E091B805F091B905309736
:1040F00049F0A685B7858585968D91FF14C09C9162
:104100008923A1F4FF91EF91BF91AF919F918F917E
:104110007F916F915F914F913F912F910F900FBEC3
:104120000F901F9018959C91892361F7A389B489FA
:104130009C918589809589238C938689978901979D
:10414000F1F7608D718DA685B785558538E020E043
:10415000CB010197F1F7822F90E095958795282F55
:104160004C91452309F02068315091F7868D81FDEF
:1041700020958091B70590E001968F739927309133
:10418000B605381799F0A091B705B0E0A353BB4F1F
:104190002C938093B705828D938D0197F1F7A389B6
:1041A000B4898C919589892B8C93ACCF868D816055
:1041B000868FF1CF8FEF80930D0610920F0610922D
:1041C0000E0610921906109218068FEF9FEFDC0171
:1041D0008093140690931506A0931606B0931706C5
:1041E00010921D0610921C0688EE93E0A0E0B0E04D
:1041F00080931E0690931F06A0932006B09321067D
:1042000029EA31E030931B0620931A0610923906F2
:104210001092380680933A0690933B06A0933C0692
:10422000B0933D068BEB91E0909337068093360672
:1042300010924D0610924C0610924F0610924E06A8
:104240001092510610925006109253061092520688
:10425000609154066E7F6D7F609354066695617021
:1042600081E0682784E00E94AF0261E084E00E9460
:10427000DD02E3EBF1E0E491E0934606ECE9F1E0E6
:10428000E491F0E0EE0FFF1FE257FE4F859194910D
:10429000909348068093470660E085E00E94DD0227
:1042A0008091540681FD04C061E085E00E94AF0268
:1042B00085E080934206E4EBF1E0E491E09343066D
:1042C000EDE9F1E0E491F0E0EE0FFF1FEC57FE4F57
:1042D0008591949190934506809344061092270609
:1042E0001092260685E48093290610922E061092DD
:1042F0002F0610923006109231061092320610925C
:10430000330610923406109235060895CF93DF934A
:10431000CDB7DEB7E0970FB6F894DEBF0FBECDBFC6
:10432000789484B5836084BD85B5836085BD8091B4
:104330006E00816080936E0082E0809381008091A6
:1043400081008160809381008091800081608093F2
:1043500080008091B10084608093B1008091B000B2
:1043600081608093B00087E880937A001092C1004A
:1043700080E993E00E94C11591E0813009F090E05E
:104380009093A905813031F48AE0809303018BE09A
:104390008093020161E086E00E94DD0261E080918D
:1043A00003010E94DD0261E0809102010E94DD02B2
:1043B00062E082E00E94DD0260E083E00E94DD02B4
:1043C0000E94B80F68E077E088E790E00E945A10FA
:1043D0008EE00E946E056C01990FEE08FF080E94A6
:1043E0008B058B019C01C701B601602771278227CD
:1043F0009327C016D106E206F30611F00E940A27A1
:104400008091A905882309F48DC161E087E00E94AD
:10441000DD0260E087E00E94AF0261E088E00E9478
:10442000DD0260E088E00E94AF0261E089E00E9466
:10443000DD0260E089E00E94AF021DE9E12E15E097
:10444000F12E10E000E0C8018F5F9C4F0E94C11563
:104450009FEF980F9E3F08F4E2C1F801E356FA4F30
:10446000108283E090E00E94C11580939C05823009
:1044700010F010929C0568E975E085E090E00E94DC
:104480009B1564E975E08FE090E00E949B15809198
:10449000260690912706892BA9F486E090E00E94D9
:1044A000CC2EFC018091290680838AE196E09283DC
:1044B0008183138280E290E095838483F0932706C2
:1044C000E0932606E0902606F090270610929005CD
:1044D00010928F051092C4051092E6050E94BB0948
:1044E0008AE097E090938E0580938D058BE097E0AE
:1044F00090938C0580938B0511E0F7011383C7011E
:104500000E94D909811196C11092930580E093E031
:104510000E94C115809392058350823010F0109252
:1045200092058FE893E00E94C11591E0813009F077
:1045300090E09093AC05813029F460E08FE893E03F
:104540000E94C31560E875E280E090E00E948B0154
:104550008091AC05811199C283E00E948602019787
:1045600009F46FC20E94A9140E94FD1391E0811109
:1045700001C090E09093910573E0772EE5EA8E2ECE
:10458000E1E09E2EFDE9CF2EF5E0DF2EA0E1AA2E80
:10459000A2E0BA2EB8E16B2E8E01075E1F4F80910C
:1045A000910581114EC27A94772009F44AC283E0C2
:1045B0000E948602892B09F044C260EB74E082E31A
:1045C00090E00E945A1060EB74E082E390E00E9459
:1045D0005A108091A905882309F451C061E9E62E9B
:1045E00061E0F62EF70161917191819191917F01C6
:1045F0000E948B016EE170E080E090E00E94B005C7
:1046000056E0552E68E270E08EED92E00E947F1435
:104610005A945110F7CF68E770E08EEF91E00E9456
:104620007F146CE370E08EE392E00E947F146CE3F1
:1046300070E087E492E00E947F146CE370E080E514
:1046400092E00E947F146CE370E089E592E00E94A2
:104650007F146CE370E082E692E00E947F1460E5D4
:1046600070E08BE692E00E947F1460E570E086E7E0
:1046700092E00E947F148E149F0409F0B3CF41E9A9
:10468000E42E41E0F42EF7016191719181919191B5
:104690007F010E948B016EE170E080E090E00E945B
:1046A000B00568E270E08EED92E00E947F1468E24F
:1046B00070E08EED92E00E947F1468E270E08EED73
:1046C00092E00E947F146AEF70E080E894E00E941C
:1046D0007F1466E970E089E894E00E947F1468E541
:1046E00072E080E090E00E94B005F5EAEF16F1E09C
:1046F000FF0649F660E875E280E090E00E948B01D9
:104700006CED75E080E090E00E94B00586E396E0F5
:104710000E943E0B892B09F4F0C086E396E00E94CC
:10472000540BF4CF80918305811145C0109275051B
:10473000109274058FEF80937805809379058093AC
:104740007A0580937B0580937C0580937D0581E0CD
:1047500080937E051092800510927F051092770558
:10476000109276058091070690910806892B31F406
:1047700082E795E09093080680930706E091700524
:10478000F0917105309721F082E795E0958384835D
:1047900082E795E0909371058093700510928205F1
:1047A0001092810581E891E09093730580937205E2
:1047B00081E080938305239A88EF95E090937505B7
:1047C0008093740583E090E09093800580937F054B
:1047D0008091100690911106A0911206B0911306D7
:1047E000843C29E09207A105B10520F484EC99E00E
:1047F000A0E0B0E08093100690931106A0931206FB
:10480000B093130682E380930D0619821A821B82ED
:10481000CE0101960E941B010E94EF050ECEF7010A
:1048200081937F0110820F5F1F4F0B30110509F03C
:104830000ACE17CE80E090E1A0E0B0E080932A0697
:1048400090932B06A0932C06B0932D068AE090E05F
:10485000A0E0B0E080932E0690932F06A093300640
:10486000B093310680E090E0A0E0B0E4809332069F
:1048700090933306A0933406B093350680912606B4
:104880009091270618A619A61AA61BA69A8F898F9B
:104890001C8E1B8E1AA385E090E098A38F8F1BA31C
:1048A00002E009A322E040E050E160E070E0CE01C8
:1048B00049960E94CE088091260690912706188A74
:1048C000198A1A8A1B8A9A8389831C821B821A87F7
:1048D00018861F821B87098722E04FE959E360E0B1
:1048E00070E0CE0101960E94CE08809328061093B6
:1048F000930581E00E94831209CE66E970E082E9A7
:1049000094E00E947F1466E970E080E894E00E94E1
:104910007F1466E970E08EEF91E00E947F1466E9F3
:1049200070E083E292E00E947F1466E970E08DE916
:1049300094E00E947F1466E970E086EA94E00E94A9
:104940007F140E94FD1380939205682F80E093E00E
:104950000E94C31580919D05882309F443C0DF920E
:10496000CF92BF92AF921F926F921F930F930E94AC
:10497000F330E7E1F1E0DE011196862D01900D9212
:104980008A95E1F7CE0101967C010FB6F894DEBF5F
:104990000FBECDBFF70161917191819191917F011E
:1049A0000E948B016EE170E080E090E00E94B00513
:1049B00062E370E08EED92E00E947F1464EB70E0A1
:1049C000C8010E947F140E151F0521F760E875E2EB
:1049D00080E090E00E948B0164E670E080E090E06F
:1049E0000E94B0050E94A91466E970E08FEA94E085
:1049F0000E947F1469EC8EE893E00E94C31566E97B
:104A000070E089E894E00E947F146CED75E080E02E
:104A100090E00E94B00586E396E00E943E0B892B51
:104A200029F086E396E00E94540BF5CF0E94A9146A
:104A30000E94FD1391E0811101C090E090939105D7
:104A4000AECD69EC8EE893E00E94C315809191058C
:104A5000811108C00E94FD1391E0811101C090E016
:104A6000909391058091910514E0882309F468C022
:104A70000E94D00F198280E88A831B8248E750E0A9
:104A800063E0CE0101960E94211091E0E92E97E0AB
:104A9000F92E25E0C22E27E0D22E09E017E030E003
:104AA000A32E30E0B32E80910801811104C08091C3
:104AB000AC05882331F0109208011092AC050E94D9
:104AC0006D180E94B80F1092AA051092AB05F092D3
:104AD0000501E0920401809169008C7F82608093DF
:104AE0006900E89AD0920701C0920601809169009E
:104AF0008C6080936900E99A83B7817F83BFF894C3
:104B000083B7816083BF7894889583B78E7F83BF96
:104B1000E8981093050100930401E99810930701A8
:104B2000009306018091AB0581110E94D7150E9468
:104B30006D18A114B10409F4B6CF0E940000B3CFE0
:104B400060E971E080EA90E00E945A101150C1F7CC
:104B50008FEF89831A821B8248EC50E062E0CE011D
:104B600001960E94211080E1EFE2F1E0DE01119652
:104B700001900D928A95E1F78E010F5F1F4FF12C86
:104B8000F80161917191819191918F010E948B0146
:104B90006EE170E080E090E00E94B00584E0E82ED5
:104BA00086E396E00E943E0B892B29F086E396E08F
:104BB0000E94540BF5CF68EB74E086E396E00E9408
:104BC000BC130E94E3054B015C010E94E3056819D8
:104BD00079098A099B096A3F71058105910598F554
:104BE00086E396E00E943E0B892B79F364EF71E037
:104BF00080E090E00E94B00510E068E27AE08CE886
:104C000090E00E945A1064EB70E080E090E00E9417
:104C1000B0051F5FF11688F7F1100EC00E94A914AD
:104C200068EC70E080E090E00E94B00560E87CE015
:104C30008AE590E00E945A1060E875E280E090E01A
:104C40000E948B0122CFEA94E110AACF0E94FD13AB
:104C50008111CCCFF394F4E0FF1292CFEDCF80918D
:104C60002606909127060E94682F8BEB91E0909387
:104C70003706809336068091B8059091B905865322
:104C8000964071F4E0914906F0914A069081809136
:104C90004B068095892380831092B9051092B80540
:104CA0000895EF920F931F93CF93DF93E80134E0C1
:104CB00047FD34E1042E000C550B57FF03C05195FE
:104CC00041955109E32E022F242FAE010E94ED28B9
:104CD000CE01DF91CF911F910F91EF9008958F92A8
:104CE0009F92AF92BF92CF92DF92EF92FF92CF93BB
:104CF000DF93EC01688179818A819B81611571055F
:104D00008105910521F464E279ED8BE597E02DE1D1
:104D100033EF41E050E00E94092D49015A019B0107
:104D2000AC01A7EAB1E40E94282D6B017C01ACEE36
:104D3000B4EFA50194010E94362DC60ED71EE81EC1
:104D4000F91EF7FE06C081E0C81AD108E10880E824
:104D5000F80AC882D982EA82FB82C701B6019F772E
:104D6000DF91CF91FF90EF90DF90CF90BF90AF9009
:104D70009F908F9008958F929F92AF92BF92CF9203
:104D8000DF92EF92FF9260910A0170910B01809186
:104D90000C0190910D01611571058105910521F4BA
:104DA00064E279ED8BE597E02DE133EF41E050E0EF
:104DB0000E94092D49015A019B01AC01A7EAB1E407
:104DC0000E94282D6B017C01ACEEB4EFA50194018B
:104DD0000E94362DC60ED71EE81EF91EF7FE06C02D
:104DE00081E0C81AD108E10880E8F80AC0920A01F7
:104DF000D0920B01E0920C01F0920D01C701B601B7
:104E00009F77FF90EF90DF90CF90BF90AF909F90F3
:104E10008F90089560930A0170930B0180930C01A9
:104E200090930D010895ABE0B0E0E9E1F7E20C9456
:104E30003B2D7C013B018A01FC0117821682838194
:104E400081FFC8C1CE0101965C01F7019381F30196
:104E500093FD859193FF81913F01882309F453C10C
:104E6000853239F493FD859193FF81913F0185321D
:104E700029F4B70190E00E94432BE7CF912C212C1D
:104E8000312CFFE1F31538F08B3211F190F48032C0
:104E900009F1833229F137FC3CC020ED280F2A307C
:104EA00050F536FE20C08AE0989E200D1124922EE7
:104EB00006C08D3291F0803371F7689430F8F301B9
:104EC00093FD859193FF81913F018111DACF21C03C
:104ED000689431F8689432F8F2CF689433F8EFCFE1
:104EE000689434F8ECCFEAE02E9E200D1124222E97
:104EF000689435F8E4CF8E3229F436FC04C1689406
:104F000036F8DDCF8C3619F4689437F8D8CF883668
:104F1000B1F2982F9F7D95549330E0F08336A1F144
:104F20008337C1F1833509F063C02801F2E04F0EE9
:104F3000511CF801C080D180692D70E036FC02C0A0
:104F40006FEF7FEFC6010E942D2B4C01689437F85C
:104F500082010AC00C5F1F4FFFE3F983882483940A
:104F6000912C6501E89437F833FE2DC0522C811442
:104F7000910471F5552009F468CFB70180E290E003
:104F80000E94432B5A94F6CFF801808189830E5FEB
:104F90001F4FE4CF2801F2E04F0E511CF801C080F2
:104FA000D180692D70E036FC02C06FEF7FEFC60143
:104FB0000E94382B4C018201D5CFB70180E290E0EE
:104FC0000E94432B2A942814190409F0B0F7CECF7D
:104FD000F60137FC859137FE81916F01B70190E0B2
:104FE0000E94432B51105A94F1E08F1A9108BFCFC1
:104FF000843619F0893609F077C0F80137FE6BC0A6
:1050000060817181828193810C5F1F4FF32DFF7648
:105010003F2E97FF09C090958095709561957F4FC1
:105020008F4F9F4F689437F82AE030E0A5010E9427
:10503000732BC82ECA188C2C432C36FE0CC0E89457
:1050400040F8C91440F434FE05C032FC03C0F32D0F
:10505000FE7E4F2E892C44FE95C0FE01EC0DF11D05
:105060008081803309F087C0242D297E422E842D33
:105070008870582E43FC95C040FE8FC09C2C821433
:1050800018F42C0C922C981844FE91C0B70180E3C0
:1050900090E00E94432B42FE09C088E790E041FE69
:1050A00002C088E590E0B7010E94432BC91408F4C0
:1050B0008AC0CA94D12C9FEFC91AD90ACA0CDB1C2A
:1050C000F60182916F01B70190E00E94432BAC146E
:1050D000BD04B1F74FCF60817181072E000C880BA2
:1050E000990B0E5F1F4F92CFD32CE894D4F82AE08F
:1050F00030E0853739F1232D297FD22E8F3601F10B
:1051000048F48835A9F0F701868197812B96E2E172
:105110000C94572D803749F08837A9F7D4FE02C088
:105120006894D2F820E130E00DC06894D4F8F6CF4E
:1051300034FE03C0822F8660D82E20E132E002C008
:1051400028E030E0F801D7FE0FC0608171818281D4
:1051500093810C5F1F4FA5010E94732BC82ECA18A4
:105160003D2CE89437F867CF6081718190E080E052
:105170000E5F1F4FF0CF42FC02C0839478CF839420
:10518000839475CF842D867809F471CFF6CFB7015B
:1051900080E290E00E94432B83948214C0F3512C50
:1051A00073CF522C5818821408F46ECFF8CF842D88
:1051B000867809F47BCF8BE241FE80E247FC8DE2EA
:1051C000B70190E071CFB70180E390E00E94432BDC
:1051D0009A946CCF8FEF9FEF99CFA9E0B0E0E3EF07
:1051E000F8E20C94412D6A01F22EB02E102FFBE351
:1051F000AF2EA01608F41BE31F5F012F27E0AE01BE
:105200004F5F5F4F0E944C2ABC018981982F997093
:10521000913009F43FC09BE2E1FC04C09E2D9170E7
:10522000E0FC3AC05E2D5071E82FE87083FF46C065
:1052300084E0911101C083E0EF2DE81B8F1508F089
:10524000E0E0D6018E2F20E2552351F1992329F079
:10525000D6019C93C60101966C0196012D5F3F4FCC
:10526000E2FE24C08EE4D6018C9391E411969C93C7
:10527000119712968C93D9018E2F90E281111BC049
:10528000E20FF32FF11D10828EEF9FEF2996ECE0D5
:105290000C945D2D9DE2C6CF90E2C4CF2D9381503A
:1052A0008111FCCFCE0ED11CE0E0D0CF8EE6D6012E
:1052B0008C9391E6DBCF9D938150E0CF482F4470D3
:1052C00082FF3DC084E0911101C083E08F1510F48E
:1052D000EF2DE81BD6018E2F20E2552309F19923EB
:1052E00029F0D6019C93C60101966C0196012D5FB1
:1052F0003F4FE2FE1BC089E4D6018C938EE41196E9
:105300008C93119786E412968C93D9018E2F90E29C
:10531000882309F4B5CF9D938150FACF2D93815006
:105320008111FCCFCE0ED11CE0E0D9CF89E6D601A9
:105330008C938EE611968C93119786E6E4CF9B01B1
:1053400077FF02C030E020E0A1E0B0E0911102C0A0
:10535000B0E0A0E0F9013196AE0FBF1F8B2C912C6D
:10536000BB2009F461C05401EFEFAE1ABE0AAA0DCA
:10537000BB1DFA161B0619F014F04F2D4A1B5111D4
:1053800088C0E3FC59C07601A42FB0E2A1114FC040
:10539000C40ED11C992309F45BC040E0D6011196DC
:1053A000F60190836D01552309F448C0012F060FC3
:1053B0009A81582F507184FF03C0913309F4015032
:1053C00010160CF047C0093008F008E0EEE2FE2E9F
:1053D0005B01A01AB10885019194819491082F3F37
:1053E000320729F4D601FC92F60131966F0162175B
:1053F000730794F1021713077CF5DB01A21BB30BB3
:10540000AA24A394B12CAC0EBD1EAA0DBB1D1196EF
:105410008C9121503109D601119628153905F4F0E7
:10542000F60180836D01DBCFB12CA12CA0CFF70159
:10543000B1937F01A150AACF9111B0CFD601942F83
:1054400050E302C05D9391509111FCCFC40ED11C6A
:1054500040E0ACCF01E0BACF80E3DBCF6217730747
:1054600031F4963388F4953311F4552369F0F6013D
:105470008083FD01842F90E2811108C0A40FB11D2B
:105480001C9290E080E002CF81E3F1CF91938150B4
:10549000F3CF911183CF8ACF283008F027E033274C
:1054A000DA01990F311D87FD916000966105710544
:1054B00039F432602E5F3D9330E32A95E1F7089589
:1054C0009F3F30F080387105610509F03C5F3C5F1B
:1054D0003D93913008F08068911DDF93CF931F9327
:1054E0000F93FF92EF92192F987F9695E92F96953B
:1054F0009695E90FFF27EE53FF4F99273327EE24A8
:10550000FF24A701E70105900894079428F4360FBB
:10551000E71EF81E491F511D660F771F881F991F30
:105520000694A1F70590079428F4E70EF81E491F8A
:10553000561FC11D770F881F991F661F0694A1F77C
:105540000590079428F4F80E491F561FC71FD11D58
:10555000880F991F661F771F0694A1F7059007947F
:1055600020F4490F561FC71FD81F990F661F771FBA
:10557000881F0694A9F784911095177041F0D6956D
:10558000C79557954795F794E7941A95C1F7E8E6BC
:10559000F0E068941590159135916591959105907D
:1055A0007FE27395E118F10A430B560BC90BD00942
:1055B000C0F7E10CF11E431F561FC91FD01D7EF41A
:1055C000703311F48A95E6CFE894015030F0080F5B
:1055D0000AF40027021708F4202F2395022F7A33AC
:1055E00028F079E37D932A95E9F710C07D932A95F9
:1055F00089F6069497956795379517951794E1184E
:10560000F10A430B560BC90BD00998F023957E91F4
:1056100073957A3308F070E37C932013B8F77E918A
:1056200070617D9330F0839571E37D9370E32A95EB
:10563000E1F71124EF90FF900F911F91CF91DF912F
:10564000992787FD9095089591110C949F2C803295
:1056500019F089508550C8F70895FC0105906150F4
:1056600070400110D8F7809590958E0F9F1F089578
:10567000FC016150704001900110D8F78095909521
:105680008E0F9F1F08950F931F93CF93DF93182FB3
:10569000092FEB018B8181FD09C01FEF0FEF812FD7
:1056A000902FDF91CF911F910F91089582FF14C029
:1056B0002E813F818C819D81281739073CF4E88138
:1056C000F981CF0101969983888310838E819F8110
:1056D00001969F838E83E3CFE885F985812F099515
:1056E000892BA1F3DACFFA01AA27283051F1203112
:1056F00081F1E8946F936E7F6E5F7F4F8F4F9F4F66
:10570000AF4FB1E03ED0B4E03CD0670F781F891FA7
:105710009A1FA11D680F791F8A1F911DA11D6A0F75
:10572000711D811D911DA11D20D009F468943F9128
:105730002AE0269F11243019305D3193DEF6CF0127
:105740000895462F4770405D4193B3E00FD0C9F7ED
:10575000F6CF462F4F70405D4A3318F0495D31FD5A
:105760004052419302D0A9F7EACFB4E0A6959795AD
:10577000879577956795BA95C9F700976105710583
:1057800008959B01AC010A2E0694579547953795CD
:105790002795BA95C9F7620F731F841F951FA01D27
:1057A0000895E89409C097FB3EF490958095709514
:1057B00061957F4F8F4F9F4F9923A9F0F92F96E95D
:1057C000BB279395F695879577956795B795F111D2
:1057D000F8CFFAF4BB0F11F460FF1BC06F5F7F4F6F
:1057E0008F4F9F4F16C0882311F096E911C0772381
:1057F00021F09EE8872F762F05C0662371F096E88A
:10580000862F70E060E02AF09A95660F771F881F58
:10581000DAF7880F9695879597F90895990F0008FC
:10582000550FAA0BE0E8FEEF16161706E807F90772
:10583000C0F012161306E407F50798F0621B730B0D
:10584000840B950B39F40A2661F0232B242B252B8E
:1058500021F408950A2609F4A140A6958FEF811D31
:10586000811D08950E94452C0C94B92C0E94AB2CEC
:1058700038F00E94B22C20F0952311F00C94A22C49
:105880000C94A82C11240C94ED2C0E94CA2C70F3BB
:10589000959FC1F3950F50E0551F629FF001729FD5
:1058A000BB27F00DB11D639FAA27F00DB11DAA1FE4
:1058B000649F6627B00DA11D661F829F2227B00D31
:1058C000A11D621F739FB00DA11D621F839FA00DBC
:1058D000611D221F749F3327A00D611D231F849F0C
:1058E000600D211D822F762F6A2F11249F57504063
:1058F0009AF0F1F088234AF0EE0FFF1FBB1F661FDE
:10590000771F881F91505040A9F79E3F510580F0A6
:105910000C94A22C0C94ED2C5F3FE4F3983ED4F34E
:10592000869577956795B795F795E7959F5FC1F74A
:10593000FE2B880F911D9695879597F908959927C5
:105940008827089597F99F6780E870E060E00895E0
:105950009FEF80EC089500240A9416161706180687
:105960000906089500240A94121613061406050663
:105970000895092E0394000C11F4882352F0BB0FF4
:1059800040F4BF2B11F460FF04C06F5F7F4F8F4F57
:105990009F4F089557FD9058440F551F59F05F3F92
:1059A00071F04795880F97FB991F61F09F3F79F041
:1059B00087950895121613061406551FF2CF4695C3
:1059C000F1DF08C0161617061806991FF1CF869545
:1059D0007105610508940895E894BB276627772729
:1059E000CB0197F90895F999FECF92BD81BDF89A40
:1059F000992780B50895262FF999FECF1FBA92BD39
:105A000081BD20BD0FB6F894FA9AF99A0FBE01969F
:105A10000895052E97FB1EF400940E94202D57FD3B
:105A200007D00E94722D07FC03D04EF40C94202D59
:105A300050954095309521953F4F4F4F5F4F0895BA
:105A400090958095709561957F4F8F4F9F4F0895EA
:105A50000E94942DA59F900DB49F900DA49F800D42
:105A6000911D11240895B7FF0C94282D0E94282D14
:105A7000821B930B08952F923F924F925F926F92E9
:105A80007F928F929F92AF92BF92CF92DF92EF92CE
:105A9000FF920F931F93CF93DF93CDB7DEB7CA1B4F
:105AA000DB0B0FB6F894DEBF0FBECDBF09942A887A
:105AB000398848885F846E847D848C849B84AA8422
:105AC000B984C884DF80EE80FD800C811B81AA81AF
:105AD000B981CE0FD11D0FB6F894DEBF0FBECDBF7A
