:100000000C9449010C9496270C946F270C945B294F
:100010000C945B290C945B290C9419280C94BD2733
:100020000C9480010C9480010C9480010C9480014C
:100030000C9480010C9480010C9480010C9480013C
:100040000C9425270C9480010C9480010C94800161
:100050000C9480010C9480010C9480010C9480011C
:100060000C9430280C94800100407A10F35A00A0C0
:10007000724E18090010A5D4E80000E87648170071
:1000800000E40B54020000CA9A3B000000E1F505B1
:10009000000080969800000040420F000000A086FB
:1000A00001000000102700000000E803000000002D
:1000B0006400000000000A000000000001000000D1
:1000C00000002C76D888DC674F0823DFC1DFAE59EB
:1000D000E1B1B796E5E3E453C63AE651997696E87E
:1000E000E6C28426EB898C9B62ED407C6FFCEFBC02
:1000F0009C9F40F2BAA56FA5F490055A2AF75C932D
:100100006B6CF9676DC11BFCE0E40D47FEF520E662
:10011000B500D0ED902E0300943577050080841E45
:10012000080000204E0A000000C80C333333330FA0
:10013000986E12831141EF8D2114893BE65516CF3D
:10014000FEE6DB18D1844B381BF77C1D901DA4BB49
:10015000E424203284725E228100C9F124ECA1E5FE
:100160003D27435554383A25630041544F4B3A25B7
:1001700075005643434D494E3A2575005643433A60
:10018000257500435554533A257500435554533A49
:100190004155544F00424F44533A257500424F4F4A
:1001A00054533A2575004D435553523A2530325831
:1001B000005253543A256300555054494D453A2551
:1001C0006C75004741544531303A2575004D4F5309
:1001D0004645543A2575004D4F534645543A313201
:1001E0002D4155544F004F4B2D534F414B2D4F46F2
:1001F00046004F4B2D534F414B2D4F4E004741541E
:100200004531303A2575004741544531303A455221
:1002100052004741544531303A4E41004849422D41
:1002200053454D2D47415445000000000024002750
:10023000002A000000000900030200000405080075
:100240000000000000000000000002000000002389
:10025000002600290000000000250028002B0004D3
:10026000040404040404040202020202020303035D
:10027000030303020203010204081020408001026C
:100280000408102001020408102040804000F329D7
:100290005C3111241FBECFEFD8E0DEBFCDBF84B7E5
:1002A0008093240714BE0FB6F894A895809160003F
:1002B000886180936000109260000FBE15E0A0E09E
:1002C000B1E0E8E7F9E702C005900D92A437B10765
:1002D000D9F727E0A4E7B5E001C01D92A432B20728
:1002E000E1F711E0C8E4D1E004C02197FE010E94CB
:1002F000493AC734D107C9F70E949F2A0C94AF3CF2
:100300000C940000DC01E3ECF6E02D913D914C9162
:1003100012972083318342832D913D914C91129706
:100320002383348345838D919D91AC9186839783FC
:10033000A0870895282F9091B10681E0913208F0AE
:1003400042C080918D068111FCCF8091B00632E0D1
:1003500030938D0620938C062FEF20938B0620E997
:1003600036E030938A06209389061092880690938F
:1003700087061092860690918606880F892B8093B7
:10038000860680918506813029F510928506809138
:1003900086068093BB008091BC0083FDF8CF85EC7E
:1003A0008093BC0080918D068230E1F380918B06B2
:1003B0008F3F91F080918B06803281F080918B0687
:1003C000803371F084E010928F061092B106109283
:1003D0008E06089585EEE4CF80E0F5CF82E0F3CF7E
:1003E00083E0F1CF9B01AC0110921C0710921B0718
:1003F00010921A07109219071092180710921707F7
:1004000060E079E08DE390E00E948C38B901C90189
:1004100003972430310510F481E090E090931E079B
:1004200080931D0780910D07873108F063C0F901A3
:10043000F695E795E431F10508F48CC07397F093D5
:100440001807E09317076630710508F486C0B901F4
:100450006550710970931A0760931907B901660F07
:10046000771F260F371F36952795369527952D3000
:10047000310508F475C02C50310930931C072093C6
:100480001B072091680094E0883054F091E08E3092
:100490003CF092E0843124F091E0863109F490E060
:1004A000922B909368002DE630E0883074F08E3007
:1004B0000CF459C084313CF086310CF454C030E067
:1004C00020E0863111F42CE630E0309315072093BC
:1004D000140788300CF04AC091E001C0990F8A954A
:1004E000EAF7892F8093160780911D0790911E07C8
:1004F0000197F1F780911B0790911C07892B49F117
:10050000E0918306F091840687E0E130F80709F175
:10051000309739F0A389B4899C9185898095892386
:100520008C9380911F078E7F80931F071092820605
:100530001092810681E097E0909384068093830671
:10054000E0911407F0911507808190911607892B8F
:1005500080830895E1E0F0E072CF61E070E07ACF4F
:1005600021E030E08ACF2BE630E0AFCF8E3014F4BC
:100570008850B2CF863114F48E50AECF863111F44C
:1005800080E4B0CF80E0AECF843081F028F48230B8
:10059000E9F08330F9F00895883071F0893091F0F6
:1005A0008530B9F4809180008F7D03C080918000F8
:1005B0008F778093800008958091B0008F7780932B
:1005C000B00008958091B0008F7DF9CF84B58F770A
:1005D00084BD089584B58F7DFBCFCF93DF93282F03
:1005E00030E0F901ED5CFD4F8491F901EA58FD4FCF
:1005F000D491F901E15AFD4FC491CC23A1F08111AE
:100600000E94C402EC2FF0E0EE0FFF1FE55BFD4FF0
:10061000A591B491EC91ED2381E090E009F480E0A4
:10062000DF91CF91089580E090E0FACF1F93CF93B0
:10063000DF93282F30E0F901ED5CFD4F8491F90143
:10064000EA58FD4FD491F901E15AFD4FC491CC23F2
:10065000A9F0162F81110E94C402EC2FF0E0EE0FDA
:10066000FF1FEB5AFD4FA591B4918FB7F894EC9111
:10067000111108C0D095DE23DC938FBFDF91CF919D
:100680001F910895DE2BF8CFCF93DF9390E0FC010C
:10069000EA58FD4F2491815A9D4FFC018491882393
:1006A000C9F090E0880F991FFC01E75DFD4FA5910F
:1006B000B491FC01EB5AFD4FC591D49161110DC06D
:1006C0009FB7F8948C91209582238C93888128235E
:1006D00028839FBFDF91CF910895623051F49FB777
:1006E000F8943C91822F809583238C93E8812E2B64
:1006F000EFCF8FB7F894EC912E2B2C938FBFEACFCE
:100700004F925F926F927F928F929F92AF92BF9221
:10071000CF92DF92EF92FF920F931F93CF93DF93CD
:1007200000D000D01F92CDB7DEB78C012A013B016B
:1007300080910C018630C9F08F3F09F4B6C00F904C
:100740000F900F900F900F90DF91CF911F910F910D
:10075000FF90EF90DF90CF90BF90AF909F908F90E1
:100760007F906F905F904F900895EAE4F2E084915B
:100770008D8387FDE4CF61E086E00E9444038D8194
:10078000882321F09D81923009F04FC14801B12C9E
:10079000A12C60E072E18AE790E0A50198010E9437
:1007A0008C3829833A834B835C8369017A0181E029
:1007B000C81AD108E108F1089FEFC916D104E10475
:1007C000F10409F00CF412C160E472E48FE090E0EF
:1007D000A50198010E948C3869017A0181E0C81A4C
:1007E000D108E108F1089D81923009F07BC18FEFBB
:1007F000C816D104E104F10409F00CF4D0C160E999
:1008000070ED83E090E0A50198010E948C386901A9
:100810007A0191E0C91AD108E108F1088FEFC816F2
:10082000D104E104F10409F00CF4BBC168E478EEF2
:1008300081E090E0A50198010E948C3869017A015D
:1008400091E0C91AD108E108F1088FEFC816D10468
:10085000E104F10411F00CF099C084E09091B10032
:10086000987F892B8093B1002FEF3FEFA9014114AE
:1008700051046104710409F0CAC09D81913009F4EA
:10088000FEC0923009F41EC1911159CFC7BC20930C
:10089000BF063093C0064093C1065093C2068091B4
:1008A0006E00826080936E004ACF86E080930C01D8
:1008B000EAE4F2E094919D839F3F09F440CF9130A8
:1008C00029F158F0923009F43FC08D8187FD37CF70
:1008D00061E086E00E94440355CF14BC15BC84B58A
:1008E000826084BD85B5816085BDE5E6F2E0E49176
:1008F000F0E0EE0FFF1FEB5AFD4F85919491ECE76E
:10090000F2E0E491E093B6061D8235CF10928000AC
:100910001092810080918100886080938100809195
:100920008100816080938100E5E6F2E0E491F0E0EF
:10093000EE0FFF1FEB5AFD4F85919491ECE7F2E02B
:10094000E491E093B50617CF1092B0001092B10079
:100950008091B00082608093B0008091B10081608E
:100960008093B100E5E6F2E0E491F0E0EE0FFF1FC6
:10097000EB5AFD4F859194919093B4068093B30602
:10098000ECE7F2E0E491E093B206F5CE64E274EFB6
:1009900080E090E0A50198010E948C3869017A01FD
:1009A00091E0C91AD108E108F1088FEFC816D10407
:1009B000E104F10409F008F4F6C062E17AE780E0AE
:1009C00090E0A50198010E948C3869017A0191E0BC
:1009D000C91AD108E108F1088FEFC816D104E10463
:1009E000F10411F008F0C9C086E038CF81E09D81A4
:1009F000911134CF95B5987F892B85BD2FEF3FEFAF
:100A0000A901411451046104710409F43FCFD801D4
:100A1000AA0FBB1FA30192010E94AB3828EE33E05E
:100A200040E050E00E94F53828CFB12CA12C60E0C6
:100A300072E18AE790E0A50198010E948C38690173
:100A40007A0181E0C81AD108E108F108C114D10483
:100A500091E0E906F1042CF591E08D81813009F0F7
:100A600003CF80918100887F892B809381002FEFB5
:100A70003FEFA901411451046104710441F6D09281
:100A80008900C09288002093BB063093BC06409337
:100A9000BD065093BE0680916F00826080936F0008
:100AA0004ECE68E478EE81E090E0A50198010E94C6
:100AB0008C3869017A0181E0C81AD108E108F1088F
:100AC00093E0CBCFC092B3002093B7063093B80623
:100AD0004093B9065093BA0680917000826080936B
:100AE00070002DCE82E09FEFC916D104E104F1041D
:100AF00009F00CF47CCF68E478EE81E090E0A50189
:100B000094010E948C3869017A0191E0C91AD108D8
:100B1000E108F1088FEFC816D104E104F10409F0EF
:100B200014F483E064CF62E17AE780E090E0A5010D
:100B300094010E948C3869017A0181E0C81AD108B9
:100B4000E108F10884E09FEFC916D104E104F10443
:100B500009F008F44CCFC980DA80EB80FC808AE091
:100B6000F594E794D794C7948A95D1F791E0C91A80
:100B7000D108E108F10885E03ACFC980DA80EB803E
:100B8000FC809AE0F594E794D794C7949A95D1F7AE
:100B900081E0C81AD108E108F10887E05FCE82E061
:100BA0005DCE83E05BCE85E059CE8E50806480932D
:100BB0007C0080917A00806480937A0080917A0032
:100BC00086FDFCCF80917800909179000895823065
:100BD000910538F0880F991F880F991F0597019785
:100BE000F1F708953FB7F89480917D0690917E06C5
:100BF000A0917F06B091800626B5A89B05C02F3F27
:100C000019F00196A11DB11D3FBFBA2FA92F982F32
:100C10008827BC01CD01620F711D811D911D42E02D
:100C2000660F771F881F991F4A95D1F708958F92F5
:100C30009F92AF92BF92CF92DF92EF92FF926B01A1
:100C40007C010E94F2054B015C01C114D104E10456
:100C5000F104B9F00E94F205681979098A099B0923
:100C6000683E73408105910580F321E0C21AD108E6
:100C7000E108F10888EE880E83E0981EA11CB11CE3
:100C8000E4CFFF90EF90DF90CF90BF90AF909F9018
:100C90008F9008952FB7F8946091790670917A0635
:100CA00080917B0690917C062FBF08954F925F92B2
:100CB0006F927F929F92AF92BF92CF92DF92EF920C
:100CC000FF920F931F93CF93DF9300D01F92CDB766
:100CD000DEB7D090D8068091DB069091DC06A0911B
:100CE000DD06B091DE06892B8A2B8B2BD9F00E9472
:100CF000F2050091D4061091D5062091D6063091C8
:100D0000D706601B710B820B930B0091DB061091D1
:100D1000DC062091DD063091DE0660177107820740
:100D20009307C8F20E94F2056093D4067093D5062B
:100D30008093D6069093D706E091E306F091E406FF
:100D4000309759F04091DF065091E0066091E1063E
:100D50007091E2068D2D0995D82EE090D206F09084
:100D6000D3064D2C512C712C612CE114F10409F4A3
:100D700059C0D7011C96CC901C978091D9069091B0
:100D8000DA068436910510F41C961C92D701ED9179
:100D9000FC91A280B38019821A821B82DD2079F136
:100DA000F701369610E000E02191222319F192809C
:100DB000992001F130E050E040E02F5F3F4F4F4F6E
:100DC0005F4FC301B2010E940A3A9B01AC01892D19
:100DD00090E0B0E0A0E0BC01CD016F5F7F4F8F4F8E
:100DE0009F4F0E940A3AA1E0B0E0AC0FBD1FA00FD8
:100DF000B11F8C930F5F1F4F03301105A9F60981B6
:100E00001A812B81F7014585568562817381C7015F
:100E1000F5010995D7011C96CC921C971496ED907C
:100E2000FC90A3CF8091D0069091D1068C010F5FEA
:100E30001F4F1093D1060093D0064997B4F10E943A
:100E40004A06C090CC06D090CD06E090CE06F09039
:100E5000CF069B01AC012C193D094E095F0921F415
:100E600021E030E040E050E088EE93E0089FB001E0
:100E7000099F700D189F700D1124072E000C880B10
:100E8000990B0E94F5383093DA062093D906109218
:100E9000D1061092D0060E944A066093CC06709349
:100EA000CD068093CE069093CF060F900F900F90B3
:100EB000DF91CF911F910F91FF90EF90DF90CF9036
:100EC000BF90AF909F907F906F905F904F900895EC
:100ED00081E080937606089581E0809373060895FB
:100EE00008950895089590910C0189130BC0EAE4C8
:100EF000F2E0E4919FEF90930C01E13049F028F08B
:100F0000E23061F060E00C94160310926E00FACFAC
:100F100090916F009D7F90936F00F4CF909170003F
:100F20009D7F9093700091E09093B0009091B100FC
:100F3000987F94609093B1001092B300E3CFAF928A
:100F4000BF92CF92DF92EF92FF920F931F93CF93B6
:100F5000DF936C017B018B01040F151FEB015E0118
:100F6000AE18BF08C017D10759F06991D601ED91AD
:100F7000FC910190F081E02DC6010995892B79F74C
:100F8000C501DF91CF911F910F91FF90EF90DF90FE
:100F9000CF90BF90AF9008954115510529F4EAE72D
:100FA000F0E080818F7780836A307105B9F0CB01E2
:100FB000880F991F880F991F807267706860682B6F
:100FC00088E10FB6F894A895809360000FBE6093F7
:100FD0006000E0E6F0E0808180648083232BD9F418
:100FE00083B7817F846083BFF89483B7816083BFB8
:100FF00085B7806685BF8F7D85BF7894889583B7D8
:101000008E7F83BF7894452B29F4EAE7F0E0808156
:1010100080688083089583B7817F846083BFF8945C
:1010200083B7816083BF7894889583B78E7F83BFB1
:101030007894E9CFFC0183858F3F19F061E00C942F
:1010400016030895FC0180819181892B39F0A281DA
:10105000B3819C9111968C919CBD8DBD83858F3FF2
:1010600019F060E00C9416030895AF92BF92CF92EE
:10107000DF92EF92FF920F931F93CF93DF93EC01D8
:1010800088819981892B89F06EBD0DB407FEFDCF53
:10109000BEB48B2DDF91CF911F910F91FF90EF90F8
:1010A000DF90CF90BF90AF9008958885998511E02B
:1010B000892B09F010E8AA24A394862F812309F034
:1010C000A12C062F2C813D814E815F8160E271EA67
:1010D00087E090E00E94F538F22EB02EE12CC22E6F
:1010E000D12CFF2019F0C6010E94E7058A85877F71
:1010F00009F042C08D858F3F89F0902F912381E0C8
:1011000009F480E08A1551F0EF85F8898F899923D9
:1011100069F19081892B8083AA24A394E989FA89B3
:101120008081998D892B8083FF2019F0C6010E9450
:10113000E7058E858F3F39F0EB89FC898081988D9A
:10114000892309F0E12AE989FA899081898D8095BE
:10115000892380838E858F3F09F0BE2C88859985F1
:10116000892BB9F5110F1111BCCF93CF90818095C8
:1011700089238083A12CD2CFE989FA898081998D36
:10118000892B8083FF2019F0C6010E94E7058D8519
:101190008F3F49F0EF85F8898F89902F9123A9F02F
:1011A0009081892B8083E989FA899081898D809546
:1011B000892380838E858F3F69F2EB89FC8980814A
:1011C000988D892339F2E12AC5CF908180958923B2
:1011D000E9CF1695C8CF8F929F92AF92BF92CF92D0
:1011E000DF92EF92FF920F931F93CF93DF937C01D7
:1011F0004B016A01B22EA32E0E942208E401C80C02
:10120000D91CCC15DD0569F4CB2DDA2D0C0F1D1F73
:10121000C017D10759F06FEFC7010E9435088993B5
:10122000F7CF6991C7010E943508EBCFC7010E9433
:101230001A0881E0DF91CF911F910F91FF90EF90FD
:10124000DF90CF90BF90AF909F908F9008958F9236
:101250009F92AF92BF92CF92DF92EF92FF920F9345
:101260001F93CF93DF937C01B62EA72E6A0149010D
:101270000E942208E401080D191DC017D10761F46E
:10128000CB2DDA2DCC0EDD1ECC15DD0551F069918C
:10129000C7010E943508F8CF6991C7010E9435083F
:1012A000ECCFC7010E941A0881E0DF91CF911F9116
:1012B0000F91FF90EF90DF90CF90BF90AF909F90F5
:1012C0008F9008951F93CF93DF93EA01122FDC01D3
:1012D00011968D919C91DC01ED91FC910280F3813E
:1012E000E02D0995C817D90729F4812F0E949A018A
:1012F00091E0811190E0892FDF91CF911F910895A6
:10130000AF92BF92CF92DF92EF92FF920F931F9313
:10131000CF93DF9300D0CDB7DEB7DC01211103C03E
:1013200018962C911897253008F043C01F964D93BE
:101330005D936D937C93529790E080E0E22EF12CC8
:101340008E159F05B4F41A962C911A9721110AC094
:10135000FD01E80FF91F4387452F562F672F772789
:101360000196EECFF701E81BF90BEA0FFB1F42874E
:10137000F3CF6D018BE0C80ED11C16969C91169789
:1013800017968C91179799838A83AD90BC9011978B
:10139000A114B10409F441C019960C9110E0980110
:1013A0002E0D3F1DD50114968D919C9182179307A8
:1013B00010F480E016C0F50181819281208131E036
:1013C00030938E062093B00610928F061092B106CD
:1013D0000115110599F421E0A701B601C5010E948C
:1013E00062090F900F90DF91CF911F910F91FF90A5
:1013F000EF90DF90CF90BF90AF900895DC01ED911A
:10140000FC910280F381E02DA801BE016F5F7F4F48
:1014100009950817190769F6DECF1296ED91FC9130
:101420001397309731F214962D913C911597199698
:101430000C9110E02330310571F48E7F89839A83FB
:101440000F5F1F4F9E012F5F3F4FA701B601CF01D6
:101450000E942709C6CF2115310519F49F7799837A
:10146000F1CF2230310511F49068F9CF21303105E8
:1014700049F79F779064F3CF85ED8093BC0080910E
:10148000BC0084FDFCCF10928D06089520910E06BD
:10149000260F3327331F21323105ECF420918D06BE
:1014A000FC0190E080E0243069F082E00895A09192
:1014B0000E062191AC0142515A4FA40FB52FB11D18
:1014C0002C930196861798F380910E06680F60930F
:1014D0000E0680E0089581E0089510928D0681E067
:1014E00080938C061092850661E082E10E941603CB
:1014F00061E083E10E941603E9EBF0E080818E7FDA
:10150000808380818D7F808388E48093B80085E428
:101510008093BC000895CF93DF93EC018B818823E7
:10152000A1F0888191E090938E068093B00610928E
:101530008F061092B10681E00E949A0191E081111C
:1015400090E0892FDF91CF91089510925706109265
:10155000560610928F061092B1060E946D0A81E71E
:1015600097E0909355068093540682E797E0909316
:1015700053068093520681E08B83CE010E948B0A32
:10158000982F8111CECFDDCF0895E091570680913D
:101590005606E81730F4F0E0EF5CF94F808190E0F8
:1015A00008958FEF9FEF089590915706809156060A
:1015B0002FEF3FEF981748F4E92FF0E0EF5CF94F79
:1015C000208130E09F5F90935706C9010895809174
:1015D000560690915706891B990B0895CF92DF927A
:1015E000EF92FF920F931F93CF93DF937C01CB0178
:1015F0008A0120918E06222389F0EB016B01C40E33
:10160000D51ECC15DD0569F06991D701ED91FC91EE
:101610000190F081E02DC7010995F3CF642F0E945E
:10162000460AC801DF91CF911F910F91FF90EF9073
:10163000DF90CF900895CF93DF931F92CDB7DEB7A1
:10164000698320918E062223F9F02091B106203281
:1016500058F021E030E0FC013383228390E080E009
:101660000F90DF91CF91089580918F06E82FF0E0E1
:10167000E057F94F998190838F5F80938F06809315
:10168000B10681E090E0ECCF61E0CE0101960E94CE
:10169000460AF7CF20918306309184062817390730
:1016A00071F49091810680918206981741F0E09143
:1016B0008106F0E0E255FA4F808190E008958FEFC7
:1016C0009FEF08950F931F930E944A0660930907A6
:1016D00070930A0780930B0790930C0781E097E0C3
:1016E0000E944A0B97FF1DC00E944A0600910907FD
:1016F00010910A0720910B0730910C07601B710BAA
:10170000820B930B009105071091060720910707A4
:10171000309108076017710782079307F8F28FEF7F
:101720009FEF1F910F910895EF92FF920F931F93D8
:10173000CF93DF93DC015C96ED90FC905D97E11414
:10174000F10479F481E090E013969C938E931297C4
:1017500090E080E0DF91CF911F910F91FF90EF908B
:1017600008955196ED91FC91529750968C91509717
:10177000982F90950FB75E962C915E97122F12704E
:1017800021FD6095F8942081112319F1282B2083E5
:10179000E7012197F1F728E0462F50E0308160FF04
:1017A0001AC0382B3083E7012197F1F7BA017595FC
:1017B0006795215089F7112381F0808189238083E7
:1017C0000FBF5C968D919C910197F1F781E090E0BD
:1017D000C1CF2923DCCF3923E5CF9081892BEFCFEF
:1017E00020918306309184062817390761F480918F
:1017F00082062091810690E0805C9F4F821B9109B8
:101800008F739927089590E080E0089520918306D2
:101810003091840628173907B9F490918106809198
:101820008206981789F0E0918106F0E0E255FA4FC0
:1018300080812091810630E02F5F3F4F2F73332747
:101840002093810690E008958FEF9FEF089590E038
:1018500080E008950F931F93CF93DF932091AD0500
:101860002F5F322F37703093AD0520FF2BC020E85B
:1018700031FD2064347009F02062205FFC01EC012E
:10188000239600E011E06485662329F070E0C8012A
:101890000E941A3A6F5F6187322F369F030E30E045
:1018A000311D1124311110C01682662311F06150D0
:1018B00061873196EC17FD0731F7DF91CF911F91CA
:1018C0000F91089520E0D4CF31503683EECF4F9260
:1018D0005F927F928F929F92AF92BF92CF92DF9250
:1018E000EF92FF920F931F93CF93DF932C01EB01A5
:1018F0000E94F205F20127853089621B730B6A3062
:101900007105B0F3F8948A819B81181619060CF0C2
:10191000CBC1E881F98105B1086075B1777F75B9F0
:10192000BA848F812B2D281B822F2F834F85042E65
:10193000000C550BAA81BB81ED84DC84CE84E3943A
:10194000D394C3949E81388599848B84118120E03F
:10195000F32E622F322F3181112788943111380FE5
:1019600008F43FEF81958894E0FC130F1795889455
:10197000E1FC130F17958894E2FC130F17958894D8
:10198000E3FC130F17958894E4FC130F17958894C4
:10199000E5FC130F17958894E6FC130F17958894B0
:1019A000E7FC130F17958894232FE110212F8B0D3F
:1019B000122F002C05B900C017FF75B930812227FE
:1019C000889400C000C0002C75B93111390F00C0D7
:1019D000002C05B900C016FF75B908F43FEF9195CA
:1019E000889400C000C0002C75B9D0FC230F00C043
:1019F000002C05B900C015FF75B927958894D1FC56
:101A0000230F00C000C0002C75B92795889400C032
:101A1000002C05B900C014FF75B9D2FC230F27951F
:101A2000889400C000C0002C75B9D3FC230F00C0FF
:101A3000002C05B900C013FF75B927958894D4FC14
:101A4000230F00C000C0002C75B92795889400C0F2
:101A5000002C05B900C012FF75B9D5FC230F2795DE
:101A6000889400C000C0002C75B9D6FC230F00C0BC
:101A7000002C05B900C011FF75B927958894D7FCD3
:101A8000230F00C000C0002C75B92795889400C0B2
:101A9000002C05B900C010FF75B9132FD110122FFB
:101AA000990D00C000C0002C75B900C000C0002C0A
:101AB00005B900C017FF75B932812227889400C08C
:101AC00000C0002C75B931113F0D00C0002C05B9C4
:101AD00000C016FF75B908F43FEFE40FF51F00C012
:101AE00000C0002C75B9C0FC230F00C0002C05B944
:101AF00000C015FF75B927958894C1FC230F00C05D
:101B000000C0002C75B92795889400C0002C05B939
:101B100000C014FF75B9C2FC230F2795889400C03C
:101B200000C0002C75B9C3FC230F00C0002C05B900
:101B300000C013FF75B927958894C4FC230F00C01B
:101B400000C0002C75B92795889400C0002C05B9F9
:101B500000C012FF75B9C5FC230F2795889400C0FB
:101B600000C0002C75B9C6FC230F00C0002C05B9BD
:101B700000C011FF75B927958894C7FC230F00C0DA
:101B800000C0002C75B92795889400C0002C05B9B9
:101B900000C010FF75B9132FC110122FF19400C0AF
:101BA00000C0002C75B9F80C00C000C005B900C019
:101BB00017FF75B931812227889400C000C0002C1E
:101BC00075B93111380F00C0002C05B900C016FFDF
:101BD00075B908F43FEF8195889400C000C0002CCF
:101BE00075B9E0FC230F00C0002C05B900C015FF3B
:101BF00075B927958894E1FC230F00C000C0002C24
:101C000075B92795889400C0002C05B900C014FF51
:101C100075B9E2FC230F2795889400C000C0002C02
:101C200075B9E3FC230F00C0002C05B900C013FFF9
:101C300075B927958894E4FC230F00C000C0002CE0
:101C400075B92795889400C0002C05B900C012FF13
:101C500075B9E5FC230F2795889400C000C0002CBF
:101C600075B9E6FC230F00C0002C05B900C011FFB8
:101C700075B927958894E7FC230F00C000C0002C9D
:101C800075B92795889400C0002C05B900C010FFD5
:101C900075B9132FE110122F8B0D00C000C0002C5E
:101CA00075B9119709F086CE4A815B8120EE31E04B
:101CB000DA010E942E3ADC01CB01F4E0B695A7953B
:101CC00097958795FA95D1F730E020E0B901EAE9D8
:101CD0004E9F040E611D5E9F600D711D1124650FE6
:101CE000711D860F971FA11DB11D893E43E094070A
:101CF000A105B10508F434C0885E9340A109B1097B
:101D000042E0B695A795979587954A95D1F747E014
:101D1000849F080E211D949F200D311D1124290F31
:101D2000311D6091AC0570E0860F971F820F931FE5
:101D30004091790650917A0660917B0670917C06FD
:101D4000292F3327420F531F611D711D40937906C0
:101D500050937A0660937B0670937C068093AC0563
:101D600078940E94F205F201708B6787DF91CF9122
:101D70001F910F91FF90EF90DF90CF90BF90AF90A9
:101D80009F908F907F905F904F90089580E991E0B1
:101D9000089581E090E00895239A08956F927F92CC
:101DA0008F92CF92DF92EF92FF920F931F93CF9378
:101DB000DF93CDB7DEB762970FB6F894DEBF0FBEE4
:101DC000CDBF6C017A013801822EDC011C962C916A
:101DD000CA0157FF04C088279927841B950B7A8373
:101DE00069839C838B839E838D836D867E868F869D
:101DF000213049F5CE0101960E942A0C83E0888BA0
:101E00001A8A198AF7FE02C08DEF888BD601ED91F0
:101E1000FC910684F785E02DBE016F5F7F4FC60100
:101E2000099562960FB6F894DEBF0FBECDBFDF9165
:101E3000CF911F910F91FF90EF90DF90CF908F90F7
:101E40007F906F9008951C861B861A8619861886C7
:101E50001F82D4CFEF92FF920F931F93CF93DF9304
:101E6000CDB7DEB762970FB6F894DEBF0FBECDBF19
:101E70007C01DC011C968C917A8369835C834B83A3
:101E80005E834D830D871E872F878130F9F4CE0145
:101E900001960E942A0C188A1A8A198AD701ED9194
:101EA000FC910684F785E02DBE016F5F7F4FC7016F
:101EB000099562960FB6F894DEBF0FBECDBFDF91D5
:101EC000CF911F910F91FF90EF9008951C861B8674
:101ED0001A86198618861F82DECFEF92FF920F9323
:101EE0001F93CF93DF9300D000D000D0CDB7DEB7E3
:101EF0008EE480937C0065E070E080E090E00E94DA
:101F0000170680917A00806480937A0080917A002D
:101F100086FDFCCF809178009091790080917A00C5
:101F2000806480937A0080917A0086FDFCCF809156
:101F30007800909179008E010F5F1F4F7E0147E07E
:101F4000E40EF11C80917A00806480937A00809185
:101F50007A0086FDFCCF8091780090917900F8019D
:101F6000819391938F0188EC90E00E94E705E01641
:101F7000F10641F749815A812B813C818D819E81F7
:101F80002417350718F58217930728F09A0182174E
:101F9000930708F49C01C901C2978E3C9340D8F482
:101FA00050E040E064EB7BE281E190E00E94F53894
:101FB000C90126960FB6F894DEBF0FBECDBFDF91E4
:101FC000CF911F910F91FF90EF900895841795077F
:101FD000F0F69A01E0CF90E080E0EBCFCF92DF9275
:101FE000EF92FF920F931F93CF93DF93CDB7DEB79E
:101FF0002F970FB6F894DEBF0FBECDBF8091750648
:10200000882309F454C08091170190911801A09180
:10201000190189839A83AB838E010F5F1F4F6E0175
:1020200084E0C80ED11CF801F1908F0161E08F2D82
:102030000E9416036EE571E080E090E00E941706B2
:1020400060E08F2D0E941603C016D10661F7F9805B
:1020500061E08F2D0E9416030A8161E0802F0E94AB
:1020600016031B8161E0812F0E9416036EE571E06B
:1020700080E090E00E94170660E08F2D0E9416031A
:1020800060E0802F0E94160360E0812F0E941603FB
:102090002F960FB6F894DEBF0FBECDBFDF91CF9164
:1020A0001F910F91FF90EF90DF90CF9008958FEFE9
:1020B00089831A821B821C8290E89D831E821F8264
:1020C000188689878A878B878C878E010F5F1F4FC1
:1020D0007E01FDE0EF0EF11CC8010E9482010E940A
:1020E00056066EE571E080E090E00E9417060D5FF5
:1020F0001F4F0E151F0581F71D861E861F86C801FE
:102100000E9482010E945606C3CF8F929F92AF9287
:10211000BF92CF92DF92EF92FF920F931F936B01CA
:102120007C010E944A0600919D0510919E05209118
:102130009F053091A0050115110521053105C9F054
:102140008090990590909A05A0909B05B0909C0571
:102150008C149D04AE04BF0461F4AB01BC01401BB0
:10216000510B620B730B81E0403A5F4061057105D2
:1021700008F080E01F910F91FF90EF90DF90CF90DB
:10218000BF90AF909F908F900895CF93909104014E
:10219000C0910301882349F061E0892F0E94160352
:1021A00060E08C2FCF910C94160360E0892F0E9481
:1021B000160361E0F6CF60E0809104010E941603EF
:1021C00060E0809103010C941603CF93DF93EB0141
:1021D0000E94C510BE0190E080E00E941706DF91CA
:1021E000CF910C94DB10EF92FF920F931F93CF933C
:1021F000DF9302E711E084E6E82E81E0F82EF80193
:10220000819191918F01F701C191D1917F01009747
:1022100029F0AE0170E060E00E9480036496BE0188
:1022200090E080E00E941706F1E000381F0739F7C0
:1022300086E0DF91CF911F910F91FF90EF900C946A
:102240007307CF93C0917506CC23C9F0FC012081A0
:10225000211108C02181211105C0C1E082818111B5
:1022600001C0C0E06C2F87E00E9416036C2F88E04D
:102270000E9416036C2F89E0CF910C9416030E94E4
:102280008201CF910C945606AF92BF92CF92DF920B
:10229000EF92FF920F931F93CF93DF9300D01F9283
:1022A000CDB7DEB75C01062F10E06A01F12CE12CFE
:1022B000C5010E942111C701B6010E9417061982AB
:1022C0001A821B82CE0101960E94211160E570E006
:1022D00080E090E00E9417061F5F0113E9CF0F9086
:1022E0000F900F90DF91CF911F910F91FF90EF9082
:1022F000DF90CF90BF90AF900895809195058111A8
:1023000091C091E090939505809175068823C1F066
:1023100061E087E00E94440360E087E00E941603CA
:1023200061E088E00E94440360E088E00E941603B8
:1023300061E089E00E94440360E089E00C941603A8
:1023400080918D05811144C010927F0510927E0509
:102350008FEF80938205809383058093840580931B
:102360008505809386058093870590938805109254
:102370008A0510928905109281051092800580913E
:10238000D2069091D306892B31F48CE795E0909397
:10239000D3068093D206E0917A05F0917B053097C1
:1023A00021F08CE795E0958384838CE795E090930A
:1023B0007B0580937A0510928C0510928B0584E53D
:1023C00091E090937D0580937C0581E080938D055D
:1023D000239A83EC96E090937F0580937E0583E0BB
:1023E00090E090938A05809389058091DB06909117
:1023F000DC06A091DD06B091DE06843C29E0920760
:10240000A105B10520F484EC99E0A0E0B0E0809350
:10241000DB069093DC06A093DD06B093DE0682E334
:102420008093D8060895CF92DF92EF92FF926C01CD
:10243000CB01F12CE12CB701A6010E948003C7015A
:10244000B6010E94170686E0FF90EF90DF90CF90D4
:102450000C94730788E198E00FB6F894A8958093E0
:1024600060000FBE90936000FFCF809175068823B7
:1024700019F080915906089580910A01089580917C
:102480007506882351F0909159068CEF890F86309C
:1024900018F481E0963009F480E0089590E080E03F
:1024A0000895FC018585968508950F931F93CF931A
:1024B000DF9300D01F92CDB7DEB7AB0119821A822D
:1024C0001B82DC01ED91FC910190F081E02D00E098
:1024D00010E020E0BE016F5F7F4F09950F900F90D5
:1024E0000F90DF91CF911F910F9108952F923F92FE
:1024F0004F925F926F927F928F929F92AF92BF9214
:10250000CF92DF92EF92FF920F931F93CF93DF93BF
:1025100000D0CDB7DEB7FC014B01042F9681878137
:1025200099838A83C080D180C114D10409F4B8C0D2
:10253000418550E0D60114968D919C9184179507A2
:10254000B8F4312C832D0F900F90DF91CF911F9114
:102550000F91FF90EF90DF90CF90BF90AF909F9042
:102560008F907F906F905F904F903F902F90089545
:10257000F601808191E090938E068093B0061092D0
:102580008F061092B10620E0BE016F5F7F4FC6013B
:102590000E946209382E8823A1F210E0B12CA12CF0
:1025A00022242394A016B10668F680918D0681112D
:1025B000FCCFD60114968D919C917801EA18FB0806
:1025C0008E159F0508F47C01F60190818E2D8132D5
:1025D00008F080E220928D0641E098012E193F0913
:1025E000A216B30608F440E040938C06FFEFF09388
:1025F0008B0621E336E030938A06209389061092F9
:1026000088062FEF280F20938706209286062091B8
:102610008606990F922B90938606909185069130AD
:10262000C1F510928506909186069093BB0090911B
:10263000BC0093FDF8CF35EC3093BC0090918D0633
:102640009130E1F390918806981710F480918806F4
:1026500010925706809356068E151F0409F071CF0D
:1026600034016A0C7B1C2301C201861997098E155F
:102670009F0598F4D60111968D919C91DC01ED9106
:10268000FC910284F385E02D0995F20181932F01DD
:10269000EBCF95EE9093BC00D1CFAE0CBF1C82CF98
:1026A000A281B381109709F44CCF2481358110E0C9
:1026B000418550E02330310571F4816089839A832C
:1026C0004F5F5F4F9401BE016F5F7F4FCD010E944E
:1026D000EB08382E37CF2115310519F4906899830E
:1026E000F1CF2230310511F49F77F9CF2130310538
:1026F00049F7906CF4CFEF92FF920F931F93CF9313
:10270000DF93CDB7DEB7A6970FB6F894DEBF0FBE46
:10271000CDBF8091F1069091F2061BA21CA21DA2D2
:102720001EA29D8B8C8B1F8A1E8A11E01D8F85E057
:1027300090E09B8F8A8F1E8F02E00C8F4091F506F0
:102740005091F6066091F7067091F80622E0CE01EE
:1027500044960E9480098091F1069091F206188AB1
:10276000198A1A8A1B8A9A8389831C821B821A8778
:1027700084E090E098878F831B87098742E0BE0141
:10278000645F7F4FCE0101960E947612882341F04C
:10279000EC84FD849B85992319F0FE24EF24FE240C
:1027A0008093F306C701A6960FB6F894DEBF0FBE5E
:1027B000CDBFDF91CF911F910F91FF90EF900895C2
:1027C0008F929F92AF92BF92EF92FF920F931F93BF
:1027D000CF93DF93EC014A015B01E880F980B701F8
:1027E000655F7F4FF7014085C7010E9476128823FD
:1027F00009F1F701608570E030E020E080E090E0D2
:10280000DC0126173707CCF4BA2FA92F982F882779
:10281000F701428541110AC0FB01E21BF30BEE0DEB
:10282000FF1D4285842B2F5F3F4FEBCFE20FF31F3D
:102830004385F8CF8FEF9FEFDC012A8101E010E0A4
:1028400002C0000F111F2A95E2F701501109012E55
:10285000000C220B330BEB81B901A8010E2E04C032
:10286000440F551F661F771F0A94D2F74095509565
:102870006095709584239523A623B7230990D8816A
:10288000C02DB901A801482159216A217B2104C02A
:10289000440F551F661F771FEA95D2F7482B592B17
:1028A0006A2B7B2B2885CE01DF91CF911F910F9151
:1028B000FF90EF90BF90AF909F908F900C94800905
:1028C000CF93DF93CDB7DEB767970FB6F894DEBF2F
:1028D0000FBECDBF2091F1063091F206188A198AF9
:1028E0001A8A1B8A3A8329831C821B8291E09A8769
:1028F00018861F829B8792E099879E012F5F3F4F2A
:102900003D8B2C8B93E09E8B1F8A40E050E0BA01F8
:10291000811104C047E050E060E070E0CE014496D1
:102920000E94E0138093F30667960FB6F894DEBF1B
:102930000FBECDBFDF91CF9108954F925F926F92FE
:102940007F928F929F92AF92BF92CF92DF92EF923F
:10295000FF92CF93DF93C82F10929605109298059F
:102960001092970580915C06811128C068EE73E093
:102970008C2F0E94E51080919605882309F4BAC037
:1029800068E572E080E090E00E9417060E946D0FFB
:1029900001976AEF70E08B3C904108F0BEC0DF9178
:1029A000CF91FF90EF90DF90CF90BF90AF909F902E
:1029B0008F907F906F905F904F90089588E199E29B
:1029C0000FB6F894A895809360000FBE90936000B6
:1029D00080E00E9460148C2F0E94C5100E944A065D
:1029E0006B017C010E944A066C197D098E099F09C2
:1029F000603177428105910508F06BC0A895D9E157
:102A0000812C912C54010E947B13BC01990F880BDF
:102A1000990B0E9456372B013C016091F906709189
:102A2000FA068091FB069091FC060E9454379B01A8
:102A3000AC01C301B2010E9493399B01AC01C501F5
:102A4000B4010E9427394B015C01D150E1F60E948C
:102A50004A066C197D098E099F096D327140810506
:102A6000910588F020E030E048EC51E4C501B40164
:102A70000E9493399F7720E030E046E953E40E94BA
:102A8000053A181634F10E944A066C197D098E0920
:102A90009F096D3271408105910508F4A3CF0E9412
:102AA0006D0F009771F020919705309198052115D1
:102AB000310519F08217930720F4909398058093BD
:102AC000970501978B3C904108F08CCF81E0809373
:102AD00096050E94DB1081E00E9460140FB6F89406
:102AE000A8958091600088618093600010926000DA
:102AF0000FBE41CF80915C06882309F16EE571E03D
:102B000080E090E00E9417060E946D0F019764E834
:102B100073E08B3C904108F442CF81E08C27DF9139
:102B2000CF91FF90EF90DF90CF90BF90AF909F90AC
:102B30008F907F906F905F904F900C94E5106EE5B2
:102B400071E080E090E00E9417060E946D0F0197EF
:102B50008B3C904108F423CF68EC70E0DECF0E94FC
:102B6000313CCF93DF93DC0114962D913C91159766
:102B7000232B79F0FB01CD91DC9160817181CE0135
:102B80000E94653C009729F08C1B9D0BDF91CF9133
:102B900008958FEF9FEFFACFFB0144815581FC012F
:102BA000248135812417350778F080819181009741
:102BB00059F0FB01608171816115710529F00E9456
:102BC000573C21E0892B09F020E0822F0895FC0179
:102BD00080819181009711F00C94EB3A0895FB01EC
:102BE00001900020E9F73197AF01461B570BDC013C
:102BF000ED91FC910280F381E02D09940C94EF1586
:102C0000BC0180910001909101010E94FE1580910C
:102C1000000190910101DC01ED91FC910190F081A6
:102C2000E02D6AE009958091000190910101DC019D
:102C3000ED91FC910680F781E02D09956CE070E044
:102C400080E090E00C94170688EB91E00E9400165B
:102C500066E970E080E090E00E94170688EB91E062
:102C60000C940016CF92DF92EF92FF92CF93C4E0C4
:102C700081E097E00E94F00B892B29F081E097E03A
:102C80000E94060CF5CF6BEB71E081E097E00E94AB
:102C9000FE150E944A066B017C010E944A066C19CF
:102CA0007D098E099F096A3F71058105910540F4F0
:102CB00081E097E00E94F00B892B79F381E003C05B
:102CC000C150B1F680E0CF91FF90EF90DF90CF90B0
:102CD0000895CF92DF92EF92FF92CF9383E00E940C
:102CE000ED02019759F10E943216C82F811126C0BA
:102CF00081E097E00E94F00B892B29F081E097E0BA
:102D00000E94060CF5CF6FEB71E081E097E00E9426
:102D1000FE150E944A066B017C010E944A066C194E
:102D20007D098E099F09623C71408105910538F447
:102D300081E097E00E94F00B892B79F3C1E08C2FA2
:102D4000CF91FF90EF90DF90CF9008950F931F9356
:102D5000CF93DF938C01EB014423A9F16DE081E077
:102D600097E00E94940B6CE070E080E090E00E949D
:102D70001706B80181E097E00E94FE156DE081E042
:102D800097E00E94940B69E170E080E090E00E947F
:102D90001706B80181E097E00E94FE156DE081E022
:102DA00097E00E94940BBE0190E080E00E9417061D
:102DB00081E097E00E94F00B892B51F081E097E0D1
:102DC0000E94060CF5CF83E00E94ED02019731F6D8
:102DD000DF91CF911F910F9108950F931F93CF9380
:102DE000DF93CDB7DEB72C970FB6F894DEBF0FBEDA
:102DF000CDBF7F936F939F938F9389EC91E09F93C7
:102E00008F931F928CE08F938E010F5F1F4F1F9344
:102E10000F930E947F3C40E066E970E0C8010E9489
:102E2000A6160FB6F894DEBF0FBECDBF2C960FB618
:102E3000F894DEBF0FBECDBFDF91CF911F910F91F0
:102E400008954F925F926F927F92BF92CF92DF92DE
:102E5000EF92FF920F931F93CF93DF93CDB7DEB71F
:102E6000C054D1090FB6F894DEBF0FBECDBF80911C
:102E70007506882309F448C040E066E970E080EDFB
:102E800091E00E94A61640E066E970E089ED91E0CD
:102E90000E94A61686E696E020916606222309F493
:102EA0008FC09F938F9382EE91E09F938F931F9299
:102EB00088E18F936E0129E2C20ED11CDF92CF927E
:102EC0000E947F3C0FB6F894DEBF0FBECDBF03E07B
:102ED00088E2B82EFE0131967F0140E068EC70E098
:102EE000C6010E94A61683E00E94ED02019709F434
:102EF00067C081E097E00E94F00B892B01F181E02F
:102F000097E00E94060CF5CF83E00E94ED02019746
:102F100009F0B2CFC05CDF4F0FB6F894DEBF0FBE32
:102F2000CDBFDF91CF911F910F91FF90EF90DF9078
:102F3000CF90BF907F906F905F904F9008956CEE10
:102F400071E081E097E00E94FE15F7012B2D1192B0
:102F50002A95E9F70E944A062B013C0110E00E94E5
:102F60004A06641975098609970960397140810517
:102F7000910590F481E097E00E94F00B892B79F3A2
:102F8000173268F781E097E00E94060CF701E10F25
:102F9000F11D80831F5FE3CF112391F066EF71E095
:102FA000C7010E94653CBC0140E0892B09F093C039
:102FB00066E676E0C7010E94653C892B09F4C5C02E
:102FC00040E066E970E08BEF91E00E94A61640E0D9
:102FD00066E970E084E092E00E94A61640E066E9AF
:102FE00070E08DE092E00E94A61640E066E970E095
:102FF00086E192E00E94A61680917506882309F466
:103000007AC040E066E970E08FE192E00E94A61687
:1030100040E066E970E088E292E00E94A61640E097
:1030200066E970E081E392E00E94A61640E066E95E
:1030300070E08AE392E00E94A61640E066E970E044
:1030400083E492E00E94A61640E066E970E08CE41A
:1030500092E00E94A61640E066E970E087E592E003
:103060000E94A61640E066E970E082E792E00E94C6
:10307000A61680915A06813009F44CCF80915B06E8
:103080008150833008F046CF80917506811105C0CC
:1030900080910A0190E08C3011F486E090E09F93DB
:1030A0008F938BE792E09F938F931F928EE08F9385
:1030B0008E010F5F1F4F1F930F930E947F3C40E0D4
:1030C00066E970E0C8010E94A6160FB6F894DEBF4C
:1030D0000FBECDBF1FCF242F30E0F901EA59F94FC1
:1030E0008081260F371FF9019481882329F18913E4
:1030F0002CC04F5FF0CF80910A0100E210E08C30CD
:1031000079F09DEF980F10E000E09A3048F483507A
:10311000990B01E010E002C0000F111F8A95E2F741
:10312000B80182E692E00E94ED16B80168608AE676
:1031300092E00E94ED1696CF992309F441CF9D307D
:1031400009F43ECF9A3009F43BCF015009F0C5CEC7
:1031500037CFEF92FF920F931F93CF93DF93EC0142
:103160007B01198218821B821A821D821C82FB013C
:1031700001900020E9F731978F01061B170BB8016A
:103180006F5F7F4F90E080E00E94743B0097B9F042
:10319000998388831B830A832C813D81232B11F41F
:1031A000FC0110821D830C83B70188819981DF9116
:1031B000CF911F910F91FF90EF900C94503C88811C
:1031C0009981009711F00E94EB3A198218821D82B2
:1031D0001C821B821A82DF91CF911F910F91FF9069
:1031E000EF900895CF92DF92EF92FF920F931F938B
:1031F000CF93DF93EB017B0124E0E20EF11C8B0106
:103200006C01C61AD70AC601800F911F0E9476383A
:10321000F80181938F01EE15FF05A9F7CE01DF912B
:10322000CF911F910F91FF90EF90DF90CF90089575
:103230000F931F93CF93DF938C01EB010E9476389D
:103240008883C80101960E9476388983CE01DF9178
:10325000CF911F910F9108950C9476381F93CF93BF
:10326000DF93EC01162F0E947638181739F0612F82
:10327000CE01DF91CF911F910C947E38DF91CF91D9
:103280001F9108954F925F926F927F928F929F92BB
:10329000AF92BF92CF92DF92EF92FF921F93CF93A4
:1032A000DF9300D01F92CDB7DEB70E944A06603D83
:1032B00077408105910558F0809102018823D1F073
:1032C00082E00E94ED02892B11F0109202010F9012
:1032D0000F900F90DF91CF911F91FF90EF90DF90B3
:1032E000CF90BF90AF909F908F907F906F905F90A6
:1032F0004F9008956EE170E080E090E00E94170624
:1033000082E00E94ED02892B11F781E08093020197
:103310000E944A062B013C01812C912C540116E994
:1033200082E00E94ED02892B09F060C00E944A06EB
:103330006419750986099709603127E272078105CA
:10334000910550F160E173E088E790E00E9413126C
:1033500063E972E088E790E00E9413126BE072E08C
:1033600088E790E00E94131268E871E088E790E037
:103370000E9413128FEF89831A821B8248E750E064
:1033800063E0CE0101960E94441160E08EE893E074
:103390000E942E190E942A1228EE33E040E050E0ED
:1033A0000E94F53869017A0183E0C816D104E1046E
:1033B000F104C8F0C814D904EA04FB0459F0129FC0
:1033C000B001139F700D112460557B4F88E290E08F
:1033D0000E9413126AE070E080E090E00E941706FD
:1033E000460157019DCF75016401F4CF0E944A0642
:1033F0006419750986099709603273408105910542
:10340000A0F4F090AB0581E0F826F092AB0568E0FF
:1034100077E0FF2011F060E679E082E390E00E941F
:1034200013128F2D0E949D1452CF64EF71E088E734
:1034300090E00E9413124BCFCF93C82F8093650664
:10344000682F83E090E00E942E1961E084E090E014
:103450000E942E1968E27AE08CE390E00E94131239
:1034600068EE73E080E090E00E94170688EB91E040
:103470000E94001666E970E080E090E00E94170666
:1034800089EB91E0CC2311F08AEC92E00E940016C7
:1034900080E00E949D14CC2349F06CE271E080E052
:1034A00090E00E94170681E00E949D1460ED77E095
:1034B00080E590E00E94131260E679E080E590E0FC
:1034C000CF910C941312FF920F931F93CF93DF931E
:1034D000EC018B01FB01F0800E947638F81621F098
:1034E0006F2DCE010E947E38F801F1802196CE0129
:1034F0000E947638F81621F06F2DCE010E947E389A
:10350000C801DF91CF911F910F91FF900895EF9225
:10351000FF920F931F93CF93DF93CDB7DEB76897DA
:103520000FB6F894DEBF0FBECDBF8FE00E94D50569
:103530007E0121E1E20EF11CBC01990F880B990B71
:103540000E94563720E030E040EA5BE30E94B53746
:10355000870122E040E00E947E31FF92EF9287E8EF
:1035600092E09F938F931F9280E18F9300511109F6
:103570001F930F930E947F3CC8010E9400160FB654
:10358000F894DEBF0FBECDBF68960FB6F894DEBFCD
:103590000FBECDBFDF91CF911F910F91FF90EF90A4
:1035A00008952F923F924F925F926F927F928F92E7
:1035B0009F92AF92BF92CF92DF92EF92FF920F93C2
:1035C0001F93CF93DF93CDB7DEB76E970FB6F89406
:1035D000DEBF0FBECDBF182F1B0180915C06882374
:1035E00009F498C080E00E946014812F0E94C510E9
:1035F00068E770E080E090E00E9417060E944A06AB
:103600002B013C0110E000E0C12CD12C76010E947E
:103610004A0664197509860997096A34714081055B
:10362000910530F50E947B13BC01990F880B990B13
:103630000E9456374B015C016091F9067091FA06C1
:103640008091FB069091FC060E9454379B01AC01CF
:10365000C501B4010E9493399B01AC015F77C7019A
:10366000B6010E9427396B017C010F5F1F4FCFCF3E
:103670000E94DB1081E00E94601460E070E0CB01EA
:103680000115110559F0B80190E080E00E9454370F
:103690009B01AC01C701B6010E9493397E0125E16F
:1036A000E20EF11C870120E040E00E947E31FF9293
:1036B000EF928EE892E09F938F931F9284E18F9315
:1036C000045111091F930F930E947F3CC8010E946F
:1036D00000160FB6F894DEBF0FBECDBFC1010E9429
:1036E00000166E960FB6F894DEBF0FBECDBFDF9109
:1036F000CF911F910F91FF90EF90DF90CF90BF90EF
:10370000AF909F908F907F906F905F904F903F9081
:103710002F90089562EC71E0812F0E94E5108CE9F2
:1037200092E00E940016DACF0F931F93CF93DF939E
:10373000CDB7DEB760970FB6F894DEBF0FBECDBF32
:10374000182F8FE00E94D505BC01990F880B990BAB
:103750000E94563720E030E040EA5BE30E94B53734
:103760009B01AC0160E070E08AEF94E4112321F04A
:1037700060E070E08AE794E40E9427398E010F5FD1
:103780001F4F22E040E00E947E31C8010E940016D7
:1037900060960FB6F894DEBF0FBECDBFDF91CF911C
:1037A0001F910F910895CF92DF92EF92FF921F9396
:1037B000CF93DF9300D01F92CDB7DEB76B017C01B2
:1037C0008091650611E091E0C916D104E104F1048D
:1037D00021F4813021F010E002C08111FCCFC7013B
:1037E000B6010E948510882371F0812F0E94941BDE
:1037F0000F900F900F90DF91CF911F91FF90EF905E
:10380000DF90CF9008950E944A0660939D057093C3
:103810009E0580939F059093A005C0929905D09234
:103820009A05E0929B05F0929C05812F0E94941BC3
:103830006CE370E080E090E00E941706812F0E9408
:103840009D140E944A0660939D0570939E05809387
:103850009F059093A00568E770E080E090E00E94EB
:103860001706812F0E94941B198280E88A831B828D
:1038700048E750E063E0CE0101960E9444110E94A7
:10388000F310B6CF2F923F924F925F926F927F923A
:103890008F929F92AF92BF92CF92DF92EF92FF9260
:1038A0000F931F93CF93DF93CDB7DEB7C457D109E2
:1038B0000FB6F894DEBF0FBECDBF81E097E09093C6
:1038C00001018093000186E990E0A0E0B0E08093E0
:1038D000050790930607A0930707B09308070E9477
:1038E0004A062B013C018091AA05811199C00E94D2
:1038F0004A066093A6057093A7058093A805909348
:10390000A90581E08093AA058091A50581118FC04A
:103910000E944A066093A1057093A2058093A305B7
:103920009093A40581E08093A505F0E28F2EFEE43C
:103930009F2EA12CB12C8E010F5C1F4F0E944A06B6
:10394000C090A605D090A705E090A805F090A90525
:103950006419750986099709681579058A059B0513
:1039600010F00C942B260E944A066C197D098E09D2
:103970009F09603C77428940910510F00C942B26FA
:1039800082E00E94ED02892B31F40E9442190E94CC
:103990004A062B013C0183E00E94ED020197C9F425
:1039A0000E944A062B013C010E944A06C090A105D4
:1039B000D090A205E090A305F090A4056C197D09B4
:1039C0008E099F09603E73498440910510F00C9464
:1039D0002B2681E097E00E94F00B181619060CF0D8
:1039E000ADCF0E944A066093A1057093A205809313
:1039F000A3059093A40581E097E00E944A0B8D30C7
:103A0000910549F08032910531F09C01295031092E
:103A10002230310598F481E097E00E94060C8ECFA9
:103A200083E00E94ED02892B09F461CF6DCF83E022
:103A30000E94ED02892B09F46BCF77CF8F7D8154E3
:103A400091094A9708F08FC7AE014F5F5F4F1A0187
:103A5000F12CE12C6A010E944A06609309077093D9
:103A60000A0780930B0790930C0781E097E00E9470
:103A7000060C97FD02C00C947E260E944A062091F7
:103A8000090730910A0740910B0750910C07621B00
:103A9000730B840B950B209105073091060740911D
:103AA0000707509108076217730784079507E8F224
:103AB000F601EE0DFF1D108281E097E00E94F00BF1
:103AC000181619062CF481E097E00E94060CF4CF3A
:103AD000B601CE01815A9F4F0E94A918A1962EAC23
:103AE0003FACA1972114310441F0A596EEACFFAC98
:103AF000A5976101E114F104D9F4A196EEACFFACF5
:103B0000A197E114F10409F454C0F70181917F01F8
:103B1000882309F44EC0082E000C990B0E94363CF5
:103B2000F70131978083F1CFAB96CEACDFACAB978A
:103B3000A6014F5F5F4FAB965FAF4EAFAB97F601FD
:103B40008081082E000C990B0E94A736892B61F703
:103B5000F1E0EF1AF108E20CF31CF7018081082E66
:103B6000000C990B0E94A736892B39F0EC14FD0448
:103B700020F0F1E0EF1AF108F0CFA7014F5F5F4F9F
:103B80004C195D09A5965FAF4EAFA5972C143D0467
:103B900020F4B601C1010E943E3CA196EEADFFADFE
:103BA000A197A5968EAD9FADA597E80FF91F10823E
:103BB000A4CF66EE72E0C8010E94A918B801CE0138
:103BC000815A9F4F0E94CC15F82EC8010E94E7151C
:103BD000FF2019F180917206811119C0F1E0F09374
:103BE000720660E173E086E490E00E94131267E1E0
:103BF00074E082E890E00E94131219AA80E88AAB70
:103C00001BAA4AE550E062E0C8010E944411CE01BF
:103C1000815A9F4F0E94E71591CE6EEE72E0C80167
:103C20000E94A918B801CE01815A9F4F0E94CC155D
:103C3000F82EC8010E94E715FF2019F010927206B5
:103C4000E6CF66EF72E0C8010E94A918B801CE0164
:103C5000815A9F4F0E94CC15F82EC8010E94E7158B
:103C6000FF2009F4BEC50E944A062B013C016BEF00
:103C700072E0C8010E94A918B801CE01815A9F4F75
:103C80000E94CC15F82EC8010E94E715FF2079F09C
:103C900084E093E00E94001666E970E080E090E026
:103CA0000E94170684E093E00E9400165CC069E061
:103CB00073E0C8010E94A918B801CE01815A9F4F34
:103CC0000E94CC15F82EC8010E94E715FF20A9F02C
:103CD0006CED75E088E790E00E94131260ED77E0EC
:103CE00088E790E00E94131264EC79E084EB90E0A6
:103CF0000E94131281E193E0D7CF68E173E0C8011D
:103D00000E94A918B801CE01815A9F4F0E94CC157C
:103D1000F82EC8010E94E715FF2029F00E94EE0F3F
:103D200080E293E0C1CF67E273E0C8010E94A91866
:103D3000B801CE01815A9F4F0E94CC15F82EC801C0
:103D40000E94E715FF20B1F080E393E00E94001687
:103D500064E170E080E090E00E94170668E373E0A1
:103D600081E00E94D11A80E6882E8AEE982EA12C3E
:103D7000B12C4DCF61E473E0C8010E94A918B801CD
:103D8000CE01815A9F4F0E94CC15F82EC8010E9487
:103D9000E715FF2071F08AE493E00E94001664E1C9
:103DA00070E080E090E00E94170662E573E080E03A
:103DB000D8CF6BE573E0C8010E94A918B801CE0105
:103DC000815A9F4F0E94CC15F82EC8010E94E7151A
:103DD000FF2019F00E94871AC6CF63E673E0C8017E
:103DE0000E94A918B801CE01815A9F4F0E94CC159C
:103DF000F82EC8010E94E715FF2009F483C28091C4
:103E00006606882309F437C286E696E09F938F936F
:103E10008CE693E09F938F931F92E0E2FE2EFF9239
:103E20001F930F930E947F3CC8010E94001680914F
:103E300065061F928F9383E793E09F938F931F9262
:103E4000FF921F930F930E947F3CC8010E940016AF
:103E50000FB6F894DEBF0FBECDBF80916106909182
:103E60006206A0916306B0916406892B8A2B8B2B86
:103E700009F404C280915D0690915E06A0915F06F0
:103E8000B0916006892B8A2B8B2B09F4F7C187EB45
:103E900092E09F938F938AE793E09F938F931F9273
:103EA00080E28F931F930F930E947F3CC8010E9472
:103EB00000160FB6F894DEBF0FBECDBF8091580636
:103EC000882309F4DEC187EB92E09F938F9383E808
:103ED00093E09F938F931F9280E28F931F930F9392
:103EE0000E947F3CC8010E94001680915A060FB6BE
:103EF000F894DEBF0FBECDBF823009F4C5C181305A
:103F000009F0C5C18CEC92E09F938F938AE893E00F
:103F10009F938F931F9280E28F931F930F930E9422
:103F20007F3CC8010E9400160FB6F894DEBF0FBE9A
:103F3000CDBF80915C06882309F4ACC187EB92E089
:103F40009F938F9382E993E09F938F931F9280E2D8
:103F50008F931F930F930E947F3CC8010E9400160D
:103F60000FB6F894DEBF0FBECDBF809175068823D3
:103F700009F493C185ED92E09F938F9389E993E0D3
:103F80009F938F931F9270E2F72EFF921F930F93D0
:103F90000E947F3CC8010E94001680910A010FB662
:103FA000F894DEBF0FBECDBF8C3009F079C187ED2C
:103FB00091E09F938F931F92FF921F930F930E9404
:103FC00066320F900F900F900F900F900F90C801D6
:103FD0000E940016809175068823B9F080915906D9
:103FE0001F928F9383EC91E09F938F931F9280E2B7
:103FF0008F931F930F930E946632C8010E94001690
:104000000FB6F894DEBF0FBECDBF80915B061F9246
:104010008F9382EA93E09F938F931F9260E2F62E34
:10402000FF921F930F930E947F3CC8010E940016CD
:104030000E944A0628EE33E040E050E00E94F53846
:104040005F934F933F932F9388EB91E09F938F93D0
:104050001F92FF921F930F930E946632C8010E9425
:104060000016BE0169597F4F86E993E00E94181936
:10407000BE016B597F4F88E993E00E941819BE0179
:10408000675A7F4F8AE993E00E9418190FB6F89497
:10409000DEBF0FBECDBFA9968EAD9FADA99701968D
:1040A00021F4A9961FAE1EAEA997A7968EAD9FAD1F
:1040B000A797019621F4A7961FAE1EAEA7976B9601
:1040C0008EAD9FAD6B97019621F46B961FAE1EAE21
:1040D0006B978091240780FDF5C082FDF5C083FDBC
:1040E000F5C081FFF5C085E41F928F9381EB91E0CD
:1040F0009F938F931F9250E2F52EFF921F930F9381
:104100000E946632C8010E940016809124071F9207
:104110008F9386EA91E09F938F931F92FF921F9354
:104120000F930E946632C8010E940016A9968FADB7
:10413000A9978F93A8968FADA8978F938DE991E05B
:104140009F938F931F92FF921F930F930E9466324B
:10415000C8010E940016A7968FADA7978F93A696C9
:104160008FADA6978F9385E991E09F938F931F92D0
:10417000FF921F930F930E9466320FB6F894DEBF32
:104180000FBECDBFC8010E94001680910A018C307D
:1041900009F0A0C08BE891E09F938F931F92FF924C
:1041A0001F930F930E9466320F900F900F900F9005
:1041B0000F900F90C8010E9400160E946D0F9F93F0
:1041C0008F938CE791E09F938F931F9240E2F42EA0
:1041D000FF921F930F930E946632C8010E9400163F
:1041E000809198058F93809197058F9382E791E056
:1041F0009F938F931F92FF921F930F930E9466329B
:10420000C8010E940016809109011F928F938AE6CF
:1042100091E09F938F931F92FF921F930F930E94A1
:104220006632C8010E9400168DE993E00E942C19A5
:1042300090ED980F0FB6F894DEBF0FBECDBF923051
:1042400008F08FE31F928F9382E691E09F938F9304
:104250001F9280E28F931F930F930E946632C801D2
:104260000E9400168DEA93E00E94001688EB93E00E
:104270000E94001691C18DEA92E0C8CD8AEB92E0CF
:1042800008CE81EC92E021CE88EC92E03DCE82E730
:1042900095E03ACE81ED92E053CE89ED92E06CCE7E
:1042A0001F928F938DEC91E09F938F931F92FF92BB
:1042B0001F930F930E9466320FB6F894DEBF0FBEB5
:1042C000CDBF85CE80E510CF82E40ECF87E50CCF41
:1042D0008FE30ACF6B968FAD6B978F936A968FADF6
:1042E0006A978F9383E891E09F938F931F92FF9239
:1042F0001F930F930E9466320FB6F894DEBF0FBE75
:10430000CDBF58CF61EC73E0C8010E94A918B80175
:10431000CE01815A9F4F0E94CC15F82EC8010E94F1
:10432000E715FF2029F00E94F3108BEC93E0BCCC42
:1043300064ED73E0C8010E94A918B801CE01815A4A
:104340009F4F0E94CC15F82EC8010E94E715FF2050
:1043500051F1D12CC12C2DEDE22E23E0F22E3CE1C7
:10436000B32EDF92CF92FF92EF921F92BF921F93D4
:104370000F930E947F3CC8010E94001666E970E01E
:1043800080E090E00E9417063FEFC31AD30A0FB6F1
:10439000F894DEBF0FBECDBF55E0C516D10409F7B6
:1043A00085EF93E081CC6EEF73E0C8010E94A918FD
:1043B000B801CE01815A9F4F0E94CC15F82EC8013A
:1043C0000E94E715FF20A1F0A1968EAD9FADA197A9
:1043D00007969F938F9386E094E09F938F931F920D
:1043E00088E28F931F930F930E947F3CC80140CFB8
:1043F0006DE074E0C8010E94A918B801CE01815A8D
:104400009F4F0E94CC15F82EC8010E94E715FF208F
:1044100059F061E081E993E00E942E1991E09093B8
:10442000740688E194E040CC62E274E0C8010E9426
:10443000A918B801CE01815A9F4F0E94CC15F82EC1
:10444000C8010E94E715FF2051F060E081E993E088
:104450000E942E19109274068EE294E025CC69E336
:1044600074E0C8010E94A918B801CE01815A9F4F7B
:104470000E94CC15F82EC8010E94E715FF2009F410
:1044800091C080910A018C3019F481E494E00CCC45
:10449000809175068823C9F00E943F12811115C0D2
:1044A0008CE192E09F938F931F928EE08F931F93E6
:1044B0000F930E946632C8010E9400160F900F9061
:1044C0000F900F900F900F904ECC8AE494E00E94D2
:1044D000001660E971E080E090E00E94170641E07C
:1044E00064EF71E081E594E00E94A61664EF71E04C
:1044F00080E090E00E94170683E00E94ED020197A1
:1045000019F489E594E0D0CB80917506811106C03D
:1045100070E060E082E692E00E94ED1640E068EC18
:1045200070E082E792E00E94A61661E08FE893E0D7
:104530000E942E190E9435121F928F9389E694E0F3
:104540009F938F931F928CE08F931F930F930E94E2
:104550007F3C40E06CE370E0C8010E94A61668EB67
:104560007BE080E090E00E94170660E08FE893E037
:104570000E942E1960E971E080EA90E00E94131217
:1045800060E971E080EA90E00E94131260E971E056
:1045900080EA90E00E9413120FB6F894DEBF0FBEBF
:1045A000CDBFE1CB63E774E0C8010E94A918B80150
:1045B000CE01815A9F4F0E94CC15F82EC8010E944F
:1045C000E715FF2009F43FC080917506811103C0F3
:1045D00082E192E067CFA5968EAD9FADA597099732
:1045E000C8F0A196EEADFFADA19780E0309709F03D
:1045F000808590EDF92EF80EF9E0FF15A0F0FF2070
:1046000059F08453863018F426E0F21205C087E092
:1046100092E048CF8FE3EDCF6F2D8EE993E00E94BB
:104620002E19F0925906809159061F928F938DEFA3
:1046300091E09F938F931F928EE08F931F930F9320
:104640000E946632D3CE6CE774E0C8010E94A918BC
:10465000B801CE01815A9F4F0E94CC15F82EC80197
:104660000E94E715FF20A1F01AAA19AAB80186E94D
:1046700093E00E94631AB80188E993E00E94631AEC
:10468000B8018AE993E00E94631A85E894E00CCBB4
:104690006DE874E0C8010E94A918B801CE01815AE2
:1046A0009F4F0E94CC15F82EC8010E94E715FF20ED
:1046B00009F43EC08CE993E00E942C19E82E69EBC6
:1046C00071E0CE01875A9F4F0E94A918BE01675A18
:1046D0007F4FCE01815A9F4F0E94D329FF24F3942C
:1046E000811115C067ED72E0C8010E94A918B801D8
:1046F000CE01815A9F4F0E94D329811104C0FF240B
:10470000F394EF1001C0F12CC8010E94E715CE010F
:10471000875A9F4F0E94E7156F2D8CE993E00E9406
:104720002E1982EF91E0F110BDCE86EE91E0BACE67
:1047300066E974E0C8010E94A918B801CE01815A47
:104740009F4F0E94CC15F82EC8010E94E71589ECF6
:1047500094E0FF2009F4A8CA8EE994E00E940016B4
:104760006CED75E088E790E00E94131260ED77E051
:1047700088E790E00E94131264EC79E084EB90E00B
:104780000E94131281E193E00E9400160E94EE0F36
:1047900080E293E00E94001689EA94E00E940016ED
:1047A00062EC71E081E00E94E51080E393E00E94FA
:1047B000001660E971E080E090E00E94170685EB4A
:1047C00094E00E94001662EC71E080E00E94E51027
:1047D0008AE493E00E9400160E94871A81EC94E01C
:1047E00063CA61ED74E0C8010E94A918B801CE0146
:1047F000815A9F4F0E94CC15F82EC8010E94E715E0
:10480000FF2029F161E070E080E090E00E94D31B7E
:10481000CE01815A9F4F0E94E715CC58DF4F0FB64B
:10482000F894DEBF0FBECDBFDF91CF911F910F91E6
:10483000FF90EF90DF90CF90BF90AF909F908F90C0
:104840007F906F905F904F903F902F90089567ED0D
:1048500074E0C8010E94A918B801CE01815A9F4F87
:104860000E94CC15F82EC8010E94E715FF2029F000
:1048700062E070E080E090E0C9CF6EED74E0C801C6
:104880000E94A918B801CE01815A9F4F0E94B1150C
:104890007C01C8010E94E715F7FC04C081E00E947A
:1048A0001C1AB6CF6BEE74E0C8010E94A918B801BB
:1048B000CE01815A9F4F0E94B1157C01C8010E9410
:1048C000E715F7FC02C080E0EACF69EF74E0C801A9
:1048D0000E94A918B801CE01815A9F4F0E94B115BC
:1048E0007C01C8010E94E715F7FC16C00E944A0629
:1048F0002B013C0168E978E08CE390E00E94131200
:1049000081E00E949D1468E770E080E090E00E94E2
:1049100017060E9424167BC964E075E0C8010E9456
:10492000A918B801CE01815A9F4F0E94B1157C0190
:10493000C8010E94E715F7FC6AC90E944A062B01CC
:104940003C0168E978E08CE390E00E9413126EE786
:1049500074E080E090E00E9417060E94241681E037
:104960000E949D1454C90E94620BFC0197FD65C012
:104970008D32910541F0C0970A9728F081E097E0C9
:104980000E94060CF0CFC12CD12C7601312CE130E5
:10499000F105D9F0ED32F10509F44CC0CF01C09713
:1049A0000A9798F4AAE0B0E0A70196010E94AB38FC
:1049B0006F01FF0FEE08FF08C60ED71EE81EF91E96
:1049C00050E3C51AD108E108F10881E097E00E94A0
:1049D000060C0E94620BFC01C0970A97C0F2E130FE
:1049E000F105A9F2332041F0F094E094D094C09402
:1049F000C11CD11CE11CF11CC114D104E104F1045F
:104A000011F40C949E1CD701C6010197A109B109AC
:104A10000297A105B10508F03FC08091650611E03D
:104A200091E0C916D104E104F10459F4813059F040
:104A300010E009C033243394C8CFC12CD12C7601A7
:104A4000DBCF8111F5CF812F0E94941BC701B601E6
:104A50000E9485108111E1CE0E944A0660939D0557
:104A600070939E0580939F059093A005C092990531
:104A7000D0929A05E0929B05F0929C05812F0E94AE
:104A80009D140E944A0660939D0570939E05809335
:104A90009F059093A005C1CEC114E9EEDE06E2E0C9
:104AA000EE06F104D1F40E944A062B013C0168E9AC
:104AB00078E08CE390E00E94131268E27AE08CE3E5
:104AC00090E00E9413126EE774E080E090E00E9494
:104AD00017060E9424160C949E1CF1E2CF16FBE0F0
:104AE000DF06F0E2EF06F10410F00C949E1C0E9429
:104AF0004A062B013C010E94E831E1966CAF7DAF84
:104B00008EAF9FAFE1970E94E8312EE037E240E0A0
:104B100050E00E948C389B01AC012F5F3F4F4F4FFC
:104B20005F4FAD962CAF3DAF4EAF5FAFAD9780916D
:104B3000610690916206A0916306B0916406A70198
:104B40009601280F391F4A1F5B1FE5962CAF3DAF1A
:104B50004EAF5FAFE597E1966CAD7DAD8EAD9FAD8D
:104B6000E1972EE037E240E050E00E948C38DC0113
:104B7000CB010196A11DB11DE5962CAD3DAD4EAD0D
:104B80005FADE597820F931FA41FB51F20915B06B1
:104B9000233009F05AC02DED32E0BF93AF939F93BD
:104BA0008F933F932F931F9280E18F9341E050E0CA
:104BB0004C0F5D1F5F934F930E947F3CCE01019687
:104BC0000E94001666E970E080E090E00E941706FF
:104BD00080915D0690915E06A0915F06B09160069F
:104BE0008C0D9D1DAE1DBF1DAD96CCACDDACEEACED
:104BF000FFACAD97C80ED91EEA1EFB1E0FB6F89487
:104C0000DEBF0FBECDBF80915B06833009F58DED11
:104C100092E0FF92EF92DF92CF929F938F931F9239
:104C200080E18F93E1E0F0E0EC0FFD1FFF93EF9345
:104C30000E947F3CCE0101960E9400160FB6F894A8
:104C4000DEBF0FBECDBF0C949E1C22EE32E0A5CF7E
:104C500082EE92E0DECF0E944A060091A6051091F6
:104C6000A7052091A8053091A9056B017C01C01A08
:104C7000D10AE20AF30A0E944A0630ECC31637E270
:104C8000D30639E0E306F10490F40091A1051091F8
:104C9000A2052091A3053091A405601B710B820B26
:104CA000930B603E73498440910508F4B6CD83E0D0
:104CB0000E94ED02019709F0B0CD41E06CE271E095
:104CC00081E594E00E94A61660E971E080E090E042
:104CD0000E94170683E00E94ED02019741F450EC18
:104CE000C51657E2D50659E0E506F10428F41092FE
:104CF000AA051092A50591CD0E942A128A3091052D
:104D000011F40C94581DF10181931F01FFEFEF1A6C
:104D1000FF0A2FE2E216F10411F00C942B1D0C9403
:104D2000581D8F929F92AF92BF92DF92EF92FF92A7
:104D30000F931F93CF93DF93CDB7DEB7E0970FB6F6
:104D4000F894DEBF0FBECDBF83E0E82E90E3D92EEE
:104D50008E010F5F1F4F81E097E00E94F00B892BBF
:104D600029F081E097E00E94060CF5CF6FEB71E02F
:104D700081E097E00E94FE15F8012D2D11922A95F1
:104D8000E9F70E944A064B015C01F12C0E944A0699
:104D9000681979098A099B09623C7140810591056E
:104DA00098F481E097E00E94F00B892B79F3FEE202
:104DB000FF1560F381E097E00E94060CF801EF0D0B
:104DC000F11D8083F394E2CF62E175E0C8010E9497
:104DD000653C5C01892B29F4EA94E110BCCF10E01A
:104DE0001FC068EC72E0C8010E94653C892B59F530
:104DF00081E080935A06C50104960E944032182F24
:104E0000811101C011E010935B06612F80E093E0F7
:104E10000E942E1960915A0683E993E00E942E1990
:104E2000812FE0960FB6F894DEBF0FBECDBFDF91A5
:104E3000CF911F910F91FF90EF90DF90BF90AF90B7
:104E40009F908F90089582E0D4CF1F920F920FB65B
:104E50000F9211242F933F938F939F93AF93BF9300
:104E60008091790690917A06A0917B06B0917C069C
:104E70003091780623E0230F2D3768F126E8230FC1
:104E80000296A11DB11D2093780680937906909318
:104E90007A06A0937B06B0937C0680917D06909164
:104EA0007E06A0917F06B09180060196A11DB11DDE
:104EB00080937D0690937E06A0937F06B093800634
:104EC000BF91AF919F918F913F912F910F900FBE06
:104ED0000F901F9018950196A11DB11DD4CF1F9260
:104EE0000F920FB60F9211242F933F934F935F931E
:104EF0006F937F938F939F93AF93BF93EF93FF93A2
:104F0000E0910701F09108010995FF91EF91BF91A0
:104F1000AF919F918F917F916F915F914F913F9151
:104F20002F910F900FBE0F901F9018951F920F9208
:104F30000FB60F9211242F933F934F935F936F936C
:104F40007F938F939F93AF93BF93EF93FF93E091E2
:104F50000501F09106010995FF91EF91BF91AF9185
:104F60009F918F917F916F915F914F913F912F9181
:104F70000F900FBE0F901F9018951F920F920FB6B3
:104F80000F9211242F933F934F935F936F937F93CF
:104F90008F939F93AF93BF93EF93FF938091B70647
:104FA0009091B806A091B906B091BA06892B8A2BC8
:104FB0008B2BD1F19091B206E091B306F091B4063B
:104FC0008081892780838091B7069091B806A0914F
:104FD000B906B091BA06181619061A061B069CF4F3
:104FE0008091B7069091B806A091B906B091BA0623
:104FF0000197A109B1098093B7069093B806A093D1
:10500000B906B093BA06FF91EF91BF91AF919F910E
:105010008F917F916F915F914F913F912F910F9061
:105020000FBE0F901F90189580910C010E9473077E
:10503000EACF1F920F920FB60F9211248F930FB6E3
:10504000F894A89580916000886180936000109228
:1050500060000FBE8F910F900FBE0F901F9018959C
:105060001F920F920FB60F9211242F933F934F93DD
:105070005F936F937F938F939F93AF93BF93EF93C0
:10508000FF938091B900887F803609F44AC0F0F51B
:10509000883209F4A7C018F5803109F49BC0B8F430
:1050A000882309F405C1883009F494C0FF91EF9179
:1050B000BF91AF919F918F917F916F915F914F9130
:1050C0003F912F910F900FBE0F901F901895883130
:1050D00009F488C0803251F780938B0614C0803465
:1050E00009F4A5C040F48033B9F38833F9F680930E
:1050F0008B0685ECBCC0803509F489C0883509F47D
:105100009EC0883499F60E943C0AD0CF883909F4B1
:1051100094C038F5883729F050F4883611F080377C
:1051200029F683E080938D061092300657C08838A8
:1051300009F483C0803919F0803809F0B7CF809125
:105140003006803208F079C0E091300681E08E0FA1
:10515000809330068091BB00F0E0E05FF94F8083E0
:105160003DC0803B39F0E0F4803A09F485C0883ACC
:1051700009F09CCF84E080938D0610920F06109268
:105180000E06E0915406F0915506099580910E06A1
:1051900081110FC081E080930E061092EE0509C0C8
:1051A000803C09F4A6CF883C09F4A3CF883B09F0E2
:1051B0007DCFE0910F0681E08E0F80930F06F0E027
:1051C000E251FA4F80818093BB0090910F0680914D
:1051D0000E0631C0809186068093BB0085EC8093DB
:1051E000BC0064CF90918806809187069817B8F527
:1051F0008091890690918A06E091880621E02E0F21
:1052000020938806E80FF92FF11D8081E5CF2091CA
:10521000890630918A06E091880681E08E0F80939E
:1052200088068091BB00E20FF32FF11D80839091DF
:10523000880680918706981788F285E8D0CF20915C
:10524000890630918A06E091880681E08E0F80936E
:1052500088068091BB00E20FF32FF11D80838091BF
:105260008C06811150CF81E08093850684EA80937B
:10527000BC0010928D061ACF85EC8093BC00109272
:105280008D0680913006803230F4E0913006F0E0F7
:10529000E05FF94F10826091300670E0E0915206B5
:1052A000F091530680E196E0099510923006FECE0B
:1052B00010928B0628CF1F920F920FB60F921124D7
:1052C0002F933F934F935F936F937F938F939F930E
:1052D000AF93BF93EF93FF93E0918306F091840621
:1052E000309749F0A685B7858585968D91FF14C0C6
:1052F0009C918923A1F4FF91EF91BF91AF919F9170
:105300008F917F916F915F914F913F912F910F906E
:105310000FBE0F901F9018959C91892361F7A38968
:10532000B4899C918589809589238C9386899789F6
:105330000197F1F7608D718DA685B785558538E0A9
:1053400020E0CB010197F1F7822F90E095958795AA
:10535000282F4C91452309F02068315091F7868D14
:1053600081FD20958091820690E001968F739927A8
:1053700030918106381799F0A0918206B0E0A255CD
:10538000BA4F2C9380938206828D938D0197F1F70B
:10539000A389B4898C919589892B8C93ACCF868D08
:1053A0008160868FF1CFFC0124813581FB0144812E
:1053B000558124173507A0F0FC0180819181009769
:1053C00079F0FB01608171816115710549F0241B41
:1053D000350B820F931F0E94473C21E0892B09F077
:1053E00020E0822F08958FEF8093D8061092DA067E
:1053F0001092D9061092E4061092E3068FEF9FEF09
:10540000DC018093DF069093E006A093E106B09361
:10541000E2061092E8061092E70688EE93E0A0E01C
:10542000B0E08093E9069093EA06A093EB06B09370
:10543000EC0628E931E03093E6062093E506109269
:105440000407109203078093050790930607A09323
:105450000707B09308078AEA91E0909302078093C8
:105460000107109218071092170710921A0710924E
:10547000190710921C0710921B0710921E0710921A
:105480001D0760911F076E7F6D7F60931F076695F4
:10549000617081E0682784E00E94160361E084E087
:1054A0000E944403EAE7F2E0E491E0931107E3E6A7
:1054B000F2E0E491F0E0EE0FFF1FEB5AFD4F859113
:1054C0009491909313078093120760E085E00E9407
:1054D000440380911F0781FD04C061E085E00E94C4
:1054E000160385E080930D07EBE7F2E0E491E0938B
:1054F0000E07E4E6F2E0E491F0E0EE0FFF1FE55B5B
:10550000FD4F859194919093100780930F0710920F
:10551000F2061092F10685E48093F4061092F906E3
:105520001092FA061092FB061092FC061092FD06ED
:105530001092FE061092FF06109200070895CF9376
:10554000DF93CDB7DEB7AD970FB6F894DEBF0FBED1
:10555000CDBF789484B5836084BD85B5836085BDF7
:1055600080916E00816080936E0082E08093810064
:1055700080918100816080938100809180008160B2
:10558000809380008091B10084608093B10080910D
:10559000B00081608093B00087E880937A00109219
:1055A000C10080E993E00E942C1991E0813009F05C
:1055B00090E090937506813031F48AE08093040185
:1055C0008BE08093030161E086E00E94440361E088
:1055D000809104010E94440361E0809103010E94D4
:1055E000440362E082E00E94440360E083E00E94A2
:1055F00044030E94DB108091640084608093640007
:1056000080B7806880BF80917506811110C08DB110
:10561000807F8DB98EB18F608EB98091640080617A
:1056200080936400809165008D638093650081E9BB
:1056300093E00E942C19813051F50E947D1119824E
:105640001A821B82CE0101960E942111809175065B
:10565000811108C061E08BE00E94440360E08BE0B0
:105660000E9416030CE211E00E946D0F019787362D
:10567000904168F430E020E050E040E066E070E007
:1056800081E596E00E94CC070150110969F760E6B8
:1056900079E080E090E00E94F2018CE993E00E94C2
:1056A0002C198130C1F5BE016F5F7F4F86E993E011
:1056B0000E94181989819A81019611F41A8219821F
:1056C00089819A8101969A838983BE016F5F7F4F9A
:1056D00086E993E00E94631A8091240782FF1BC031
:1056E00080FD19C0BE016F5F7F4F88E993E00E9483
:1056F000181989819A81019611F41A821982898177
:105700009A8101969A838983BE016F5F7F4F88E9F2
:1057100093E00E94631A68E27AE086E490E00E94D7
:1057200013128EE00E94D5056C01990FEE08FF0858
:105730000E94F2058B019C01C701B6016027712709
:1057400082279327C016D106E206F30611F00E94C5
:10575000373260E08EE00E9444030E947D1119827E
:105760001A821B82CE0101960E942111B6E6EB2E11
:10577000B6E0FB2E10E000E0C8018F5F9C4F0E9456
:105780002C199FEF980F9E3F08F405C1F801EA59C4
:10579000F94F108283E090E00E942C1980936506F7
:1057A000823038F01092650660E083E090E00E945D
:1057B0002E1961E676E085E090E00E94F2186DE532
:1057C00076E08FE090E00E94F2188091610690915F
:1057D0006206A0916306B09164068F3F9F4FAF4F62
:1057E000BF4F41F410926106109262061092630658
:1057F0001092640680915D0690915E06A0915F060E
:10580000B09160068F3F9F4FAF4FBF4F41F4109252
:105810005D0610925E0610925F06109260068091FF
:10582000F1069091F206892BA9F486E090E00E949F
:105830004F3AFC018091F406808385EE96E09283D6
:105840008183138280E290E095838483F093F20653
:10585000E093F106E090F106F090F2061092570600
:105860001092560610928F061092B1060E946D0A91
:1058700081E797E0909355068093540682E797E07E
:10588000909353068093520611E0F7011383C701EA
:105890000E948B0A81118AC010925C0680E093E01E
:1058A0000E942C1980935B06893210F010925B06DF
:1058B00083E993E00E942C1980935A06833010F0FC
:1058C00010925A0682E993E00E942C1980930A01F3
:1058D0009CEF980F963028F08C3019F088E0809378
:1058E0000A0180917506882371F08EE993E00E9489
:1058F0002C19809359069CEF980F963010F486303F
:1059000011F4109259068FE893E00E942C1991E04F
:10591000813009F090E090937706813029F460E0BF
:105920008FE893E00E942E1983E00E94ED02019718
:1059300019F481E08093770681E993E00E942C19A5
:1059400091E0813009F090E09093740680917706A1
:1059500081111DC48EE893E00E942C19893C09F046
:1059600088C081E08093580616E080915806811126
:10597000F9C3115009F4FBC36AEF70E080E090E0D6
:105980000E9417060E94912691E0811101C090E0CB
:1059900090935806EACFF70181937F0110820F5F41
:1059A0001F4F0B30110509F0E7CEF4CE80E090E1F7
:1059B000A0E0B0E08093F5069093F606A093F7067A
:1059C000B093F8068AE090E0A0E0B0E08093F9069A
:1059D0009093FA06A093FB06B093FC0680E090E05B
:1059E000A0E0B0E48093FD069093FE06A093FF062E
:1059F000B09300078091F1069091F20618A619A6BF
:105A00001AA61BA69A8F898F1C8E1B8E1AA385E05F
:105A100090E098A38F8F1BA302E009A322E040E04F
:105A200050E160E070E0CE0149960E9480098091CB
:105A3000F1069091F206188A198A1A8A1B8A9A83AB
:105A400089831C821B821A8718861F821B870987FD
:105A500022E04FE959E360E070E0CE0101960E9438
:105A600080098093F30610935C0681E00E94601425
:105A700015CF83E00E94ED02019709F475CF0E94D3
:105A800021170E94912691E0811101C090E090932E
:105A900058068EE893E00E942C19682E85E993E061
:105AA0000E942C19782EFFEF8F1301C0712C72E029
:105AB000472E470CE6E6EE2EE6E0FE2EF2EECF2E67
:105AC000F1E0DF2EA8E15A2ECE0101965C014E01D5
:105AD0009DE2890E911C8091580681113DC3E9EC2D
