:100000000C94E5000C9410210C94E9200C94D5225A
:100010000C94D5220C94D5220C9493210C94372166
:100020000C9419010C9419010C9419010C941901E8
:100030000C9419010C9419010C9419010C941901D8
:100040000C949F200C9419010C9419010C94190123
:100050000C9419010C9419010C9419010C941901B8
:100060000C94AA210C94190100407A10F35A00A0B4
:10007000724E18090010A5D4E80000E87648170071
:1000800000E40B54020000CA9A3B000000E1F505B1
:10009000000080969800000040420F000000A086FB
:1000A00001000000102700000000E803000000002D
:1000B0006400000000000A000000000001000000D1
:1000C00000002C76D888DC674F0823DFC1DFAE59EB
:1000D000E1B1B796E5E3E453C63AE651997696E87E
:1000E000E6C28426EB898C9B62ED407C6FFCEFBC02
:1000F0009C9F40F2BAA56FA5F490055A2AF75C932D
:100100006B6CF9676DC11BFCE0E40D47FEF520E662
:10011000B500D0ED902E0300943577050080841E45
:10012000080000204E0A000000C80C333333330FA0
:10013000986E12831141EF8D2114893BE65516CF3D
:10014000FEE6DB18D1844B381BF77C1D901DA4BB49
:10015000E424203284725E228100C9F124ECA1E5FE
:100160003D2700000000240027002A0000000009AD
:100170000003020000040508000000000000000069
:1001800000000002000000002300260029000000FB
:100190000000250028002B000404040404040404C7
:1001A0000202020202020303030303030202030129
:1001B00002040810204080010204081020010204FB
:1001C0000810204080404D238F2911241FBECFEFFF
:1001D000D8E0DEBFCDBF14BE0FB6F894A8958091CD
:1001E0006000886180936000109260000FBE15E08F
:1001F000A0E0B1E0ECE6F9E602C005900D92AA3469
:10020000B107D9F726E0AAE4B5E001C01D92A63EE9
:10021000B207E1F710E0C4EED0E004C02197FE0180
:100220000E944C32C33ED107C9F70E94F9230C94B7
:10023000A9340C940000DC01E5E8F6E02D913D9135
:100240004C9112972083318342832D913D914C91A3
:1002500012972383348345838D919D91AC9186833E
:100260009783A0870895282F9091730681E091329B
:1002700008F042C080914F068111FCCF8091720638
:1002800032E030934F0620934E062FEF20934D0619
:1002900022E536E030934C0620934B0610924A0636
:1002A000909349061092480690914806880F892B32
:1002B0008093480680914706813029F510924706C1
:1002C000809148068093BB008091BC0083FDF8CFED
:1002D00085EC8093BC0080914F068230E1F38091E1
:1002E0004D068F3F91F080914D06803281F08091D4
:1002F0004D06803371F084E010925106109273061F
:1003000010925006089585EEE4CF80E0F5CF82E0AC
:10031000F3CF83E0F1CF9B01AC011092DE06109287
:10032000DD061092DC061092DB061092DA061092BF
:10033000D90660E079E08DE390E00E948F30B9014A
:10034000C90103972430310510F481E090E09093C7
:10035000E0068093DF068091CF06873108F063C006
:10036000F901F695E795E431F10508F48CC073972F
:10037000F093DA06E093D9066630710508F486C07A
:10038000B901655071097093DC066093DB06B90111
:10039000660F771F260F371F3695279536952795B9
:1003A0002D30310508F475C02C5031093093DE062C
:1003B0002093DD062091680094E0883054F091E0AD
:1003C0008E303CF092E0843124F091E0863109F4E3
:1003D00090E0922B909368002DE630E0883074F026
:1003E0008E300CF459C084313CF086310CF454C08A
:1003F00030E020E0863111F42CE630E03093D7066F
:100400002093D60688300CF04AC091E001C0990FC5
:100410008A95EAF7892F8093D8068091DF0690911C
:10042000E0060197F1F78091DD069091DE06892BB9
:1004300049F1E0914506F091460686E0E33CF80775
:1004400009F1309739F0A389B4899C918589809509
:1004500089238C938091E1068E7F8093E106109230
:1004600044061092430683EC96E0909346068093F0
:100470004506E091D606F091D70680819091D80686
:10048000892B80830895E1E0F0E072CF61E070E0B5
:100490007ACF21E030E08ACF2BE630E0AFCF8E304C
:1004A00014F48850B2CF863114F48E50AECF86311A
:1004B00011F480E4B0CF80E0AECF843081F028F436
:1004C0008230E9F08330F9F00895883071F0893096
:1004D00091F08530B9F4809180008F7D03C08091C8
:1004E00080008F778093800008958091B0008F778F
:1004F0008093B00008958091B0008F7DF9CF84B5CE
:100500008F7784BD089584B58F7DFBCFCF93DF9324
:10051000282F30E0F901E459FE4F8491F901E155AB
:10052000FE4FD491F901E856FE4FC491CC23A1F0BF
:1005300081110E945D02EC2FF0E0EE0FFF1FEC57DF
:10054000FE4FA591B491EC91ED2381E090E009F488
:1005500080E0DF91CF91089580E090E0FACF1F9383
:10056000CF93DF93282F30E0F901E459FE4F8491B7
:10057000F901E155FE4FD491F901E856FE4FC491BF
:10058000CC23A9F0162F81110E945D02EC2FF0E020
:10059000EE0FFF1FE257FE4FA591B4918FB7F8946D
:1005A000EC91111108C0D095DE23DC938FBFDF9151
:1005B000CF911F910895DE2BF8CFCF93DF9390E07A
:1005C000FC01E155FE4F249188569E4FFC01849119
:1005D0008823C9F090E0880F991FFC01EE59FE4F67
:1005E000A591B491FC01E257FE4FC591D4916111E0
:1005F0000DC09FB7F8948C91209582238C938881AD
:10060000282328839FBFDF91CF910895623051F452
:100610009FB7F8943C91822F809583238C93E88137
:100620002E2BEFCF8FB7F894EC912E2B2C938FBFFE
:10063000EACF4F925F926F927F928F929F92AF928A
:10064000BF92CF92DF92EF92FF920F931F93CF93BF
:10065000DF9300D000D01F92CDB7DEB78C012A0106
:100660003B0180910A018630C9F08F3F09F4B6C082
:100670000F900F900F900F900F90DF91CF911F91DF
:100680000F91FF90EF90DF90CF90BF90AF909F9031
:100690008F907F906F905F904F900895E3E8F1E026
:1006A00084918D8387FDE4CF61E086E00E94DD02C6
:1006B0008D81882321F09D81923009F04FC148013E
:1006C000B12CA12C60E072E18AE790E0A5019801CD
:1006D0000E948F3029833A834B835C8369017A01BE
:1006E00081E0C81AD108E108F1089FEFC916D104CA
:1006F000E104F10409F00CF412C160E472E48FE04B
:1007000090E0A50198010E948F3069017A0181E093
:10071000C81AD108E108F1089D81923009F07BC127
:100720008FEFC816D104E104F10409F00CF4D0C134
:1007300060E970ED83E090E0A50198010E948F30A0
:1007400069017A0191E0C91AD108E108F1088FEF37
:10075000C816D104E104F10409F00CF4BBC168E44B
:1007600078EE81E090E0A50198010E948F30690148
:100770007A0191E0C91AD108E108F1088FEFC81693
:10078000D104E104F10411F00CF099C084E09091DF
:10079000B100987F892B8093B1002FEF3FEFA90123
:1007A000411451046104710409F0CAC09D81913063
:1007B00009F4FEC0923009F41EC1911159CFC7BC93
:1007C00020938106309382064093830650938406DB
:1007D00080916E00826080936E004ACF86E08093A5
:1007E0000A01E3E8F1E094919D839F3F09F440CF33
:1007F000913029F158F0923009F43FC08D8187FD86
:1008000037CF61E086E00E94DD0255CF14BC15BCF5
:1008100084B5826084BD85B5816085BDEEE9F1E077
:10082000E491F0E0EE0FFF1FE257FE4F85919491A7
:10083000E5EBF1E0E491E09378061D8235CF10926C
:1008400080001092810080918100886080938100F7
:1008500080918100816080938100EEE9F1E0E49174
:10086000F0E0EE0FFF1FE257FE4F85919491E5EB0C
:10087000F1E0E491E093770617CF1092B000109268
:10088000B1008091B00082608093B0008091B1008F
:1008900081608093B100EEE9F1E0E491F0E0EE0FC9
:1008A000FF1FE257FE4F85919491909376068093B7
:1008B0007506E5EBF1E0E491E0937406F5CE64E2B1
:1008C00074EF80E090E0A50198010E948F306901EB
:1008D0007A0191E0C91AD108E108F1088FEFC81632
:1008E000D104E104F10409F008F4F6C062E17AE70A
:1008F00080E090E0A50198010E948F3069017A01A3
:1009000091E0C91AD108E108F1088FEFC816D104A7
:10091000E104F10411F008F0C9C086E038CF81E0AD
:100920009D81911134CF95B5987F892B85BD2FEF8F
:100930003FEFA901411451046104710409F43FCF50
:10094000D801AA0FBB1FA30192010E94AE3028EE6E
:1009500033E040E050E00E94F83028CFB12CA12CC9
:1009600060E072E18AE790E0A50198010E948F3073
:1009700069017A0181E0C81AD108E108F108C114BF
:10098000D10491E0E906F1042CF591E08D818130EC
:1009900009F003CF80918100887F892B80938100AB
:1009A0002FEF3FEFA901411451046104710441F696
:1009B000D0928900C092880020937D0630937E06F5
:1009C00040937F065093800680916F0082608093F1
:1009D0006F004ECE68E478EE81E090E0A5019801CA
:1009E0000E948F3069017A0181E0C81AD108E108BC
:1009F000F10893E0CBCFC092B300209379063093F7
:100A00007A0640937B0650937C068091700082604A
:100A1000809370002DCE82E09FEFC916D104E104CF
:100A2000F10409F00CF47CCF68E478EE81E090E00A
:100A3000A50194010E948F3069017A0191E0C91AE1
:100A4000D108E108F1088FEFC816D104E104F104E0
:100A500009F014F483E064CF62E17AE780E090E08B
:100A6000A50194010E948F3069017A0181E0C81AC2
:100A7000D108E108F10884E09FEFC916D104E10430
:100A8000F10409F008F44CCFC980DA80EB80FC80D7
:100A90008AE0F594E794D794C7948A95D1F791E0CA
:100AA000C91AD108E108F10885E03ACFC980DA8097
:100AB000EB80FC809AE0F594E794D794C7949A95DC
:100AC000D1F781E0C81AD108E108F10887E05FCECC
:100AD00082E05DCE83E05BCE85E059CE8E508064AF
:100AE00080937C0080917A00806480937A0080916A
:100AF0007A0086FDFCCF809178009091790008956E
:100B00008230910538F0880F991F880F991F05973B
:100B10000197F1F708953FB7F89480913F069091BF
:100B20004006A0914106B091420626B5A89B05C09B
:100B30002F3F19F00196A11DB11D3FBFBA2FA92F5C
:100B4000982F8827BC01CD01620F711D811D911D59
:100B500042E0660F771F881F991F4A95D1F70895C5
:100B60008F929F92AF92BF92CF92DF92EF92FF92BD
:100B70006B017C010E948B054B015C01C114D10407
:100B8000E104F104B9F00E948B05681979098A091A
:100B90009B09683E73408105910580F321E0C21AEC
:100BA000D108E108F10888EE880E83E0981EA11CA8
:100BB000B11CE4CFFF90EF90DF90CF90BF90AF904B
:100BC0009F908F9008952FB7F89460913B06709195
:100BD0003C0680913D0690913E062FBF08954F92AE
:100BE0005F926F927F929F92AF92BF92CF92DF926D
:100BF000EF92FF920F931F93CF93DF9300D01F923A
:100C0000CDB7DEB7D0909A0680919D0690919E0652
:100C1000A0919F06B091A006892B8A2B8B2BD9F02F
:100C20000E948B05009196061091970620919806D8
:100C300030919906601B710B820B930B00919D06FE
:100C400010919E0620919F063091A00660177107B3
:100C500082079307C8F20E948B05609396067093F3
:100C600097068093980690939906E091A506F091D7
:100C7000A606309759F04091A1065091A2066091C6
:100C8000A3067091A4068D2D0995D82EE0909406A8
:100C9000F09095064D2C512C712C612CE114F1042F
:100CA00009F459C0D7011C96CC901C9780919B06E3
:100CB00090919C068436910510F41C961C92D701E5
:100CC000ED91FC91A280B38019821A821B82DD20F3
:100CD00079F1F701369610E000E02191222319F115
:100CE0009280992001F130E050E040E02F5F3F4FCB
:100CF0004F4F5F4FC301B2010E940D329B01AC0107
:100D0000892D90E0B0E0A0E0BC01CD016F5F7F4F86
:100D10008F4F9F4F0E940D32A1E0B0E0AC0FBD1F7E
:100D2000A00FB11F8C930F5F1F4F03301105A9F661
:100D300009811A812B81F70145855685628173816E
:100D4000C701F5010995D7011C96CC921C97149602
:100D5000ED90FC90A3CF80919206909193068C0128
:100D60000F5F1F4F10939306009392064997B4F1BB
:100D70000E94E305C0908E06D0908F06E09090060A
:100D8000F09091069B01AC012C193D094E095F09B9
:100D900021F421E030E040E050E088EE93E0089F4D
:100DA000B001099F700D189F700D1124072E000CC3
:100DB000880B990B0E94F83030939C0620939B0679
:100DC00010929306109292060E94E30560938E069D
:100DD00070938F0680939006909391060F900F90DA
:100DE0000F90DF91CF911F910F91FF90EF90DF90C7
:100DF000CF90BF90AF909F907F906F905F904F90FB
:100E0000089581E080933806089581E08093350647
:100E1000089508950895089580E991E008959091C6
:100E20000A0189130BC0E3E8F1E0E4919FEF90938E
:100E30000A01E13049F028F0E23061F060E00C9402
:100E4000AF0210926E00FACF90916F009D7F909349
:100E50006F00F4CF909170009D7F9093700091E0AF
:100E60009093B0009091B100987F94609093B100FE
:100E70001092B300E3CFAF92BF92CF92DF92EF9286
:100E8000FF920F931F93CF93DF936C017B018B0134
:100E9000040F151FEB015E01AE18BF08C017D10784
:100EA00059F06991D601ED91FC910190F081E02D0E
:100EB000C6010995892B79F7C501DF91CF911F9163
:100EC0000F91FF90EF90DF90CF90BF90AF9008957B
:100ED000FC0183858F3F19F061E00C94AF02089507
:100EE000FC0180819181892B39F0A281B3819C9191
:100EF00011968C919CBD8DBD83858F3F19F060E06C
:100F00000C94AF020895AF92BF92CF92DF92EF920E
:100F1000FF920F931F93CF93DF93EC018881998108
:100F2000892B89F06EBD0DB407FEFDCFBEB48B2DAD
:100F3000DF91CF911F910F91FF90EF90DF90CF90B5
:100F4000BF90AF9008958885998511E0892B09F0AD
:100F500010E8AA24A394862F812309F0A12C062F40
:100F60002C813D814E815F8160E271EA87E090E0F3
:100F70000E94F830F22EB02EE12CC22ED12CFF2090
:100F800019F0C6010E9480058A85877F09F042C05A
:100F90008D858F3F89F0902F912381E009F480E0C7
:100FA0008A1551F0EF85F8898F89992369F190812D
:100FB000892B8083AA24A394E989FA898081998D59
:100FC000892B8083FF2019F0C6010E9480058E8541
:100FD0008F3F39F0EB89FC898081988D892309F056
:100FE000E12AE989FA899081898D80958923808316
:100FF0008E858F3F09F0BE2C88859985892BB9F5A0
:10100000110F1111BCCF93CF9081809589238083DC
:10101000A12CD2CFE989FA898081998D892B80838F
:10102000FF2019F0C6010E9480058D858F3F49F091
:10103000EF85F8898F89902F9123A9F09081892BD2
:101040008083E989FA899081898D809589238083BD
:101050008E858F3F69F2EB89FC898081988D892389
:1010600039F2E12AC5CF908180958923E9CF169581
:10107000C8CF8F929F92AF92BF92CF92DF92EF92A2
:10108000FF920F931F93CF93DF937C014B016A0173
:10109000B22EA32E0E947007E401C80CD91CCC15F7
:1010A000DD0569F4CB2DDA2D0C0F1D1FC017D107FC
:1010B00059F06FEFC7010E9483078993F7CF6991B9
:1010C000C7010E948307EBCFC7010E94680781E038
:1010D000DF91CF911F910F91FF90EF90DF90CF9014
:1010E000BF90AF909F908F9008958F929F92AF92F4
:1010F000BF92CF92DF92EF92FF920F931F93CF9305
:10110000DF937C01B62EA72E6A0149010E94700769
:10111000E401080D191DC017D10761F4CB2DDA2D9C
:10112000CC0EDD1ECC15DD0551F06991C7010E9482
:101130008307F8CF6991C7010E948307ECCFC701ED
:101140000E94680781E0DF91CF911F910F91FF907E
:10115000EF90DF90CF90BF90AF909F908F900895C9
:101160001F93CF93DF93EA01122FDC0111968D912B
:101170009C91DC01ED91FC910280F381E02D0995B9
:10118000C817D90729F4812F0E94330191E08111FA
:1011900090E0892FDF91CF911F910895AF92BF9278
:1011A000CF92DF92EF92FF920F931F93CF93DF9333
:1011B00000D0CDB7DEB7DC01211103C018962C9109
:1011C0001897253008F043C01F964D935D936D939B
:1011D0007C93529790E080E0E22EF12C8E159F05D3
:1011E000B4F41A962C911A9721110AC0FD01E80F48
:1011F000F91F4387452F562F672F77270196EECF8C
:10120000F701E81BF90BEA0FFB1F4287F3CF6D01D3
:101210008BE0C80ED11C16969C91169717968C9150
:10122000179799838A83AD90BC901197A114B1044C
:1012300009F441C019960C9110E098012E0D3F1D44
:10124000D50114968D919C918217930710F480E03C
:1012500016C0F50181819281208131E030935006E2
:101260002093720610925106109273060115110513
:1012700099F421E0A701B601C5010E94B0080F90C2
:101280000F90DF91CF911F910F91FF90EF90DF9022
:10129000CF90BF90AF900895DC01ED91FC9102805A
:1012A000F381E02DA801BE016F5F7F4F09950817FC
:1012B000190769F6DECF1296ED91FC9113973097DE
:1012C00031F214962D913C91159719960C9110E0DE
:1012D0002330310571F48E7F89839A830F5F1F4F0E
:1012E0009E012F5F3F4FA701B601CF010E947508F5
:1012F000C6CF2115310519F49F779983F1CF22309C
:10130000310511F49068F9CF2130310549F79F7705
:101310009064F3CF85ED8093BC008091BC0084FD88
:10132000FCCF10924F0608952091B705260F332762
:10133000331F21323105ECF420914F06FC0190E07F
:1013400080E0243069F082E00895A091B7052191F2
:10135000AC0149565A4FA40FB52FB11D2C930196DD
:10136000861798F38091B705680F6093B70580E002
:10137000089581E0089510924F0681E080934E0613
:101380001092470661E082E10E94AF0261E083E1D2
:101390000E94AF02E9EBF0E080818E7F8083808144
:1013A0008D7F808388E48093B80085E48093BC00BF
:1013B0000895CF93DF93EC018B818823A1F088817E
:1013C00091E090935006809372061092510610920D
:1013D000730681E00E94330191E0811190E0892F32
:1013E000DF91CF91089510921A061092190610926B
:1013F0005106109273060E94BB098AE097E0909311
:101400001806809317068BE097E09093160680935A
:10141000150681E08B83CE010E94D909982F811196
:10142000CECFDDCF0895E0911A0680911906E81716
:1014300030F4F0E0E652FA4F808190E008958FEFAB
:101440009FEF089590911A06809119062FEF3FEFB4
:10145000981748F4E92FF0E0E652FA4F208130E087
:101460009F5F90931A06C901089580911906909183
:101470001A06891B990B0895CF92DF92EF92FF9283
:101480000F931F93CF93DF937C01CB018A012091AF
:101490005006222389F0EB016B01C40ED51ECC153A
:1014A000DD0569F06991D701ED91FC910190F08122
:1014B000E02DC7010995F3CF642F0E949409C8015C
:1014C000DF91CF911F910F91FF90EF90DF90CF9020
:1014D0000895CF93DF931F92CDB7DEB76983209134
:1014E00050062223F9F020917306203258F021E0B3
:1014F00030E0FC013383228390E080E00F90DF91A5
:10150000CF91089580915106E82FF0E0EE5AF94FFF
:10151000998190838F5F809351068093730681E059
:1015200090E0ECCF61E0CE0101960E949409F7CFE4
:1015300020914506309146062817390771F490919D
:10154000430680914406981741F0E0914306F0E08D
:10155000E95AFA4F808190E008958FEF9FEF089548
:101560000F931F930E94E3056093CB067093CC0604
:101570008093CD069093CE0683EC96E00E94980A65
:1015800097FF1DC00E94E3050091CB061091CC0689
:101590002091CD063091CE06601B710B820B930B10
:1015A0000091C7061091C8062091C9063091CA065D
:1015B0006017710782079307F8F28FEF9FEF1F9173
:1015C0000F910895EF92FF920F931F93CF93DF93A4
:1015D000DC015C96ED90FC905D97E114F10479F4E8
:1015E00081E090E013969C938E93129790E080E0B8
:1015F000DF91CF911F910F91FF90EF900895519639
:10160000ED91FC91529750968C915097982F909510
:101610000FB75E962C915E97122F127021FD609588
:10162000F8942081112319F1282B2083E7012197B9
:10163000F1F728E0462F50E0308160FF1AC0382BC8
:101640003083E7012197F1F7BA017595679521502D
:1016500089F7112381F08081892380830FBF5C96F5
:101660008D919C910197F1F781E090E0C1CF292302
:10167000DCCF3923E5CF9081892BEFCF2091450630
:10168000309146062817390761F48091440620916D
:10169000430690E0805C9F4F821B91098F739927CE
:1016A000089590E080E00895209145063091460627
:1016B00028173907B9F4909143068091440698178A
:1016C00089F0E0914306F0E0E95AFA4F80812091D9
:1016D000430630E02F5F3F4F2F733327209343069D
:1016E00090E008958FEF9FEF08950F931F930E944E
:1016F000E3056093CB067093CC068093CD06909360
:10170000CE0683EC96E00E94540B97FF1DC00E940A
:10171000E3050091CB061091CC062091CD063091C7
:10172000CE06601B710B820B930B0091C7061091C4
:10173000C8062091C9063091CA0660177107820752
:101740009307F8F28FEF9FEF1F910F91089590E0AC
:1017500080E008950F931F93CF93DF932091560558
:101760002F5F322F37703093560520FF2BC020E8B3
:1017700031FD2064347009F02062205FFC01EC012F
:10178000239600E011E06485662329F070E0C8012B
:101790000E941D326F5F6187322F369F030E30E04B
:1017A000311D1124311110C01682662311F06150D1
:1017B00061873196EC17FD0731F7DF91CF911F91CB
:1017C0000F91089520E0D4CF31503683EECF4F9261
:1017D0005F927F928F929F92AF92BF92CF92DF9251
:1017E000EF92FF920F931F93CF93DF932C01EB01A6
:1017F0000E948B05F20127853089621B730B6A30CA
:101800007105B0F3F8948A819B81181619060CF0C3
:10181000CBC1E881F98105B1086075B1777F75B9F1
:10182000BA848F812B2D281B822F2F834F85042E66
:10183000000C550BAA81BB81ED84DC84CE84E3943B
:10184000D394C3949E81388599848B84118120E040
:10185000F32E622F322F3181112788943111380FE6
:1018600008F43FEF81958894E0FC130F1795889456
:10187000E1FC130F17958894E2FC130F17958894D9
:10188000E3FC130F17958894E4FC130F17958894C5
:10189000E5FC130F17958894E6FC130F17958894B1
:1018A000E7FC130F17958894232FE110212F8B0D40
:1018B000122F002C05B900C017FF75B930812227FF
:1018C000889400C000C0002C75B93111390F00C0D8
:1018D000002C05B900C016FF75B908F43FEF9195CB
:1018E000889400C000C0002C75B9D0FC230F00C044
:1018F000002C05B900C015FF75B927958894D1FC57
:10190000230F00C000C0002C75B92795889400C033
:10191000002C05B900C014FF75B9D2FC230F279520
:10192000889400C000C0002C75B9D3FC230F00C000
:10193000002C05B900C013FF75B927958894D4FC15
:10194000230F00C000C0002C75B92795889400C0F3
:10195000002C05B900C012FF75B9D5FC230F2795DF
:10196000889400C000C0002C75B9D6FC230F00C0BD
:10197000002C05B900C011FF75B927958894D7FCD4
:10198000230F00C000C0002C75B92795889400C0B3
:10199000002C05B900C010FF75B9132FD110122FFC
:1019A000990D00C000C0002C75B900C000C0002C0B
:1019B00005B900C017FF75B932812227889400C08D
:1019C00000C0002C75B931113F0D00C0002C05B9C5
:1019D00000C016FF75B908F43FEFE40FF51F00C013
:1019E00000C0002C75B9C0FC230F00C0002C05B945
:1019F00000C015FF75B927958894C1FC230F00C05E
:101A000000C0002C75B92795889400C0002C05B93A
:101A100000C014FF75B9C2FC230F2795889400C03D
:101A200000C0002C75B9C3FC230F00C0002C05B901
:101A300000C013FF75B927958894C4FC230F00C01C
:101A400000C0002C75B92795889400C0002C05B9FA
:101A500000C012FF75B9C5FC230F2795889400C0FC
:101A600000C0002C75B9C6FC230F00C0002C05B9BE
:101A700000C011FF75B927958894C7FC230F00C0DB
:101A800000C0002C75B92795889400C0002C05B9BA
:101A900000C010FF75B9132FC110122FF19400C0B0
:101AA00000C0002C75B9F80C00C000C005B900C01A
:101AB00017FF75B931812227889400C000C0002C1F
:101AC00075B93111380F00C0002C05B900C016FFE0
:101AD00075B908F43FEF8195889400C000C0002CD0
:101AE00075B9E0FC230F00C0002C05B900C015FF3C
:101AF00075B927958894E1FC230F00C000C0002C25
:101B000075B92795889400C0002C05B900C014FF52
:101B100075B9E2FC230F2795889400C000C0002C03
:101B200075B9E3FC230F00C0002C05B900C013FFFA
:101B300075B927958894E4FC230F00C000C0002CE1
:101B400075B92795889400C0002C05B900C012FF14
:101B500075B9E5FC230F2795889400C000C0002CC0
:101B600075B9E6FC230F00C0002C05B900C011FFB9
:101B700075B927958894E7FC230F00C000C0002C9E
:101B800075B92795889400C0002C05B900C010FFD6
:101B900075B9132FE110122F8B0D00C000C0002C5F
:101BA00075B9119709F086CE4A815B8120EE31E04C
:101BB000DA010E943132DC01CB01F4E0B695A79541
:101BC00097958795FA95D1F730E020E0B901EAE9D9
:101BD0004E9F040E611D5E9F600D711D1124650FE7
:101BE000711D860F971FA11DB11D893E43E094070B
:101BF000A105B10508F434C0885E9340A109B1097C
:101C000042E0B695A795979587954A95D1F747E015
:101C1000849F080E211D949F200D311D1124290F32
:101C2000311D6091550570E0860F971F820F931F3D
:101C300040913B0650913C0660913D0670913E06F6
:101C4000292F3327420F531F611D711D40933B06FF
:101C500050933C0660933D0670933E068093550575
:101C600078940E948B05F201708B6787DF91CF918A
:101C70001F910F91FF90EF90DF90CF90BF90AF90AA
:101C80009F908F907F905F904F90089581E090E0BB
:101C90000895239A08956F927F928F92CF92DF9248
:101CA000EF92FF920F931F93CF93DF93CDB7DEB7E1
:101CB00062970FB6F894DEBF0FBECDBF6C017A01FC
:101CC0003801822EDC011C962C91CA0157FF04C0FA
:101CD00088279927841B950B7A8369839C838B8340
:101CE0009E838D836D867E868F86213049F5CE0159
:101CF00001960E94AA0B83E0888B1A8A198AF7FE44
:101D000002C08DEF888BD601ED91FC910684F7859A
:101D1000E02DBE016F5F7F4FC601099562960FB639
:101D2000F894DEBF0FBECDBFDF91CF911F910F9111
:101D3000FF90EF90DF90CF908F907F906F900895FD
:101D40001C861B861A86198618861F82D4CFEF92AE
:101D5000FF920F931F93CF93DF93CDB7DEB76297B8
:101D60000FB6F894DEBF0FBECDBF7C01DC011C9620
:101D70008C917A8369835C834B835E834D830D876B
:101D80001E872F878130F9F4CE0101960E94AA0B9D
:101D9000188A1A8A198AD701ED91FC910684F78571
:101DA000E02DBE016F5F7F4FC701099562960FB6A8
:101DB000F894DEBF0FBECDBFDF91CF911F910F9181
:101DC000FF90EF9008951C861B861A861986188648
:101DD0001F82DECFCF92DF92EF92FF920F931F937D
:101DE000CF93DF93CDB7DEB72F970FB6F894DEBF52
:101DF0000FBECDBF80913606882309F454C0809170
:101E0000150190911601A091170189839A83AB83E4
:101E10008E010F5F1F4F6E0184E0C80ED11CF801C8
:101E2000F1908F0161E08F2D0E94AF026EE571E0AD
:101E300080E090E00E94B00560E08F2D0E94AF022C
:101E4000C016D10661F7F98061E08F2D0E94AF02C4
:101E50000A8161E0802F0E94AF021B8161E0812F27
:101E60000E94AF026EE571E080E090E00E94B00554
:101E700060E08F2D0E94AF0260E0802F0E94AF02D1
:101E800060E0812F0E94AF022F960FB6F894DEBF5C
:101E90000FBECDBFDF91CF911F910F91FF90EF90BB
:101EA000DF90CF9008958FEF89831A821B821C8266
:101EB00090E89D831E821F82188689878A878B8778
:101EC0008C878E010F5F1F4F7E01FDE0EF0EF11C2E
:101ED000C8010E941B010E94EF056EE571E080E0E1
:101EE00090E00E94B0050D5F1F4F0E151F0581F792
:101EF0001D861E861F86C8010E941B010E94EF05D9
:101F0000C3CF0F931F930E94E305009150051091DA
:101F100051052091520530915305011511052105F8
:101F2000310561F0AB01BC01401B510B620B730B1F
:101F300081E0403757416105710508F080E01F914D
:101F40000F910895CF9390910301C09102018823CE
:101F500049F061E0892F0E94AF0260E08C2FCF91A1
:101F60000C94AF0260E0892F0E94AF0261E0F6CFCF
:101F700060E0809103010E94AF0260E08091020165
:101F80000C94AF02CF93DF93EB010E94A20FBE012E
:101F900090E080E00E94B005DF91CF910C94B80FE3
:101FA000EF92FF920F931F93CF93DF9306E511E01B
:101FB00080E4E82E81E0F82EF801819191918F0163
:101FC000F701C191D1917F01009729F0AE0170E036
:101FD00060E00E9419036496BE0190E080E00E94D8
:101FE000B005F1E00C361F0739F786E0DF91CF919D
:101FF0001F910F91FF90EF900C940F07CF93C0911A
:102000003606CC23C9F0FC012081211108C02181B2
:10201000211105C0C1E08281811101C0C0E06C2F97
:1020200087E00E94AF026C2F88E00E94AF026C2F05
:1020300089E0CF910C94AF020E941B01CF910C94C8
:10204000EF05AF92BF92CF92DF92EF92FF920F9384
:102050001F93CF93DF9300D01F92CDB7DEB75C0103
:10206000062F10E06A01F12CE12CC5010E94FE0F41
:10207000C701B6010E94B00519821A821B82CE01E7
:1020800001960E94FE0F60E570E080E090E00E9403
:10209000B0051F5F0113E9CF0F900F900F90DF91F4
:1020A000CF911F910F91FF90EF90DF90CF90BF9055
:1020B000AF900895CF92DF92EF92FF926C01CB0127
:1020C000F12CE12CB701A6010E941903C701B6014A
:1020D0000E94B00586E0FF90EF90DF90CF900C94C7
:1020E0000F0790E080E00895FC01858596850895AE
:1020F0000F931F93CF93DF9300D01F92CDB7DEB71E
:10210000AB0119821A821B82DC01ED91FC910190D6
:10211000F081E02D00E010E020E0BE016F5F7F4F16
:1021200009950F900F900F90DF91CF911F910F9114
:1021300008952F923F924F925F926F927F928F926B
:102140009F92AF92BF92CF92DF92EF92FF920F9346
:102150001F93CF93DF9300D0CDB7DEB7FC014B01C7
:10216000042F9681878199838A83C080D180C1148E
:10217000D10409F4B8C0418550E0D60114968D9180
:102180009C9184179507B8F4312C832D0F900F90F4
:10219000DF91CF911F910F91FF90EF90DF90CF9043
:1021A000BF90AF909F908F907F906F905F904F9077
:1021B0003F902F900895F601808191E09093500612
:1021C00080937206109251061092730620E0BE01B1
:1021D0006F5F7F4FC6010E94B008382E8823A1F29E
:1021E00010E0B12CA12C22242394A016B10668F68D
:1021F00080914F068111FCCFD60114968D919C9150
:102200007801EA18FB088E159F0508F47C01F60199
:1022100090818E2D813208F080E220924F0641E0BD
:1022200098012E193F09A216B30608F440E0409326
:102230004E06FFEFF0934D062AED35E030934C0645
:1022400020934B0610924A062FEF280F2093490641
:102250002092480620914806990F922B90934806A9
:10226000909147069130C1F510924706909148062B
:102270009093BB009091BC0093FDF8CF35EC309368
:10228000BC0090914F069130E1F390914A06981767
:1022900010F480914A0610921A06809319068E1542
:1022A0001F0409F071CF34016A0C7B1C2301C201A9
:1022B000861997098E159F0598F4D60111968D9170
:1022C0009C91DC01ED91FC910284F385E02D099550
:1022D000F20181932F01EBCF95EE9093BC00D1CF0B
:1022E000AE0CBF1C82CFA281B381109709F44CCFF2
:1022F0002481358110E0418550E02330310571F4AF
:10230000816089839A834F5F5F4F9401BE016F5F45
:102310007F4FCD010E943908382E37CF2115310566
:1023200019F490689983F1CF2230310511F49F7729
:10233000F9CF2130310549F7906CF4CFEF92FF923D
:102340000F931F93CF93DF93CDB7DEB7A6970FB64A
:10235000F894DEBF0FBECDBF8091B3069091B40656
:102360001BA21CA21DA21EA29D8B8C8B1F8A1E8AE3
:1023700011E01D8F85E090E09B8F8A8F1E8F02E019
:102380000C8F4091B7065091B8066091B9067091D4
:10239000BA0622E0CE0144960E94CE088091B30690
:1023A0009091B406188A198A1A8A1B8A9A8389839B
:1023B0001C821B821A8784E090E098878F831B879A
:1023C000098742E0BE01645F7F4FCE0101960E9403
:1023D0009910882341F0EC84FD849B85992319F0A2
:1023E000FE24EF24FE248093B506C701A6960FB6FF
:1023F000F894DEBF0FBECDBFDF91CF911F910F913B
:10240000FF90EF9008958F929F92AF92BF92EF92BC
:10241000FF920F931F93CF93DF93EC014A015B016F
:10242000E880F980B701655F7F4FF7014085C701FC
:102430000E949910882309F1F701608570E030E06F
:1024400020E080E090E0DC0126173707CCF4BA2FBB
:10245000A92F982F8827F701428541110AC0FB0157
:10246000E21BF30BEE0DFF1D4285842B2F5F3F4FC8
:10247000EBCFE20FF31F4385F8CF8FEF9FEFDC0127
:102480002A8101E010E002C0000F111F2A95E2F737
:1024900001501109012E000C220B330BEB81B90105
:1024A000A8010E2E04C0440F551F661F771F0A9403
:1024B000D2F7409550956095709584239523A62377
:1024C000B7230990D881C02DB901A801482159210D
:1024D0006A217B2104C0440F551F661F771FEA95B0
:1024E000D2F7482B592B6A2B7B2B2885CE01DF9105
:1024F000CF911F910F91FF90EF90BF90AF909F9061
:102500008F900C94CE08CF93DF93CDB7DEB767974B
:102510000FB6F894DEBF0FBECDBF2091B306309149
:10252000B406188A198A1A8A1B8A3A8329831C825C
:102530001B8291E09A8718861F829B8792E0998779
:102540009E012F5F3F4F3D8B2C8B93E09E8B1F8A0C
:1025500040E050E0BA01811104C047E050E060E083
:1025600070E0CE0144960E9403128093B5066796F0
:102570000FB6F894DEBF0FBECDBFDF91CF910895A7
:102580004F925F926F927F928F929F92AF92BF9283
:10259000CF92DF92EF92FF92CF93DF93C82F80917B
:1025A0001E0681111FC068EE73E08C2F0E94C20FBF
:1025B00060E570E080E090E00E94B00564E873E0C0
:1025C00081E08C27DF91CF91FF90EF90DF90CF904B
:1025D000BF90AF909F908F907F906F905F904F9043
:1025E0000C94C20F80E00E9483128C2F0E94A20FD5
:1025F0000E94E3056B017C010E94E3056C197D09D3
:102600008E099F09603177428105910530F00E9463
:10261000B80F81E00E948312CBCFD9E1812C912C9D
:1026200054010E949E11BC01990F880B990B0E94C6
:10263000592F2B013C016091BB067091BC06809123
:10264000BD069091BE060E94572F9B01AC01C301AD
:10265000B2010E9496319B01AC01C501B4010E94F8
:102660002A314B015C01D150E1F60E94E3056C195F
:102670007D098E099F096D3271408105910508F42D
:10268000BBCF20E030E048EC51E4C501B4010E942A
:1026900096319F7720E030E046E953E40E9408320B
:1026A00018160CF0A9CFB3CF0E943434CF93DF9328
:1026B000DC0114962D913C911597232B79F0FB01A9
:1026C000CD91DC9160817181CE010E945F340097D1
:1026D00029F08C1B9D0BDF91CF9108958FEF9FEF19
:1026E000FACFFB0144815581FC01248135812417F7
:1026F000350778F080819181009759F0FB01608166
:1027000071816115710529F00E94513421E0892BF6
:1027100009F020E0822F08950F931F93CF93DF934A
:10272000EC0188819981009759F02A813B81261715
:10273000370730F081E0DF91CF911F910F9108951D
:102740008B016F5F7F4F0E947733009759F0998319
:1027500088831B830A832C813D81232B59F7FC013D
:102760001082E8CF80E0E7CFFC0180819181009763
:1027700011F00C94EE320895FB0101900020E9F76E
:102780003197AF01461B570BDC01ED91FC910280A4
:10279000F381E02D0994BC01809100019091010129
:1027A0000E94BC138091000190910101DC01ED9128
:1027B000FC910190F081E02D6AE009958091000183
:1027C00090910101DC01ED91FC910680F781E02DF3
:1027D00009956CE070E080E090E00C94B0058AEC24
:1027E00091E00E94CB1366E970E080E090E00E94E7
:1027F000B0058AEC91E00C94CB13CF92DF92EF926C
:10280000FF92CF93C4E083EC96E00E943E0B892BAD
:1028100029F083EC96E00E94540BF5CF6DEC71E04B
:1028200083EC96E00E94BC130E94E3056B017C01DF
:102830000E94E3056C197D098E099F096A3F7105A5
:102840008105910540F483EC96E00E943E0B892BB4
:1028500079F381E003C0C150B1F680E0CF91FF90E1
:10286000EF90DF90CF9008950F931F93CF93DF9356
:102870008C01EB0183E00E9486020197D1F0B80140
:1028800083EC96E00E94BC136DE083EC96E00E941E
:10289000E20ABE0190E080E00E94B00583EC96E081
:1028A0000E943E0B892B29F083EC96E00E94540B8A
:1028B000F5CFDF91CF911F910F9108950F931F9343
:1028C000CF93DF93CDB7DEB72C970FB6F894DEBF6A
:1028D0000FBECDBF7F936F939F938F9381ED91E058
:1028E0009F938F931F928CE08F938E010F5F1F4FEA
:1028F0001F930F930E94793466E970E0C8010E942B
:1029000034140FB6F894DEBF0FBECDBF2C960FB6B1
:10291000F894DEBF0FBECDBFDF91CF911F910F9115
:1029200008954F925F926F927F92BF92CF92DF9203
:10293000EF92FF920F931F93CF93DF93CDB7DEB744
:10294000C054D1090FB6F894DEBF0FBECDBF809141
:102950003606882309F445C066E970E088ED91E009
:102960000E94341466E970E081EE91E00E94341414
:1029700088E296E020912806222309F48EC09F93D6
:102980008F938AEE91E09F938F931F9288E18F93AC
:102990006E0129E2C20ED11CDF92CF920E947934DF
:1029A0000FB6F894DEBF0FBECDBF03E088E2B82EAD
:1029B000FE0131967F0168EC70E0C6010E9434147C
:1029C00083E00E948602019709F467C083EC96E0D9
:1029D0000E943E0B892B01F183EC96E00E94540B80
:1029E000F5CF83E00E948602019709F0B5CFC05C65
:1029F000DF4F0FB6F894DEBF0FBECDBFDF91CF9192
:102A00001F910F91FF90EF90DF90CF90BF907F903C
:102A10006F905F904F90089564EF71E083EC96E0C3
:102A20000E94BC13F7012B2D11922A95E9F70E9401
:102A3000E3052B013C0110E00E94E30564197509D0
:102A400086099709603971408105910590F483ECFE
:102A500096E00E943E0B892B79F3173268F783ECDE
:102A600096E00E94540BF701E10FF11D80831F5F78
:102A7000E3CF112391F06EEF71E0C7010E945F3444
:102A8000BC0140E0892B09F082C068E276E0C70112
:102A90000E945F34892B09F4D0C066E970E083E0BE
:102AA00092E00E94341466E970E08CE092E00E94AB
:102AB000341466E970E085E192E00E94341466E91E
:102AC00070E08EE192E00E943414809136068823F3
:102AD00009F46EC066E970E087E292E00E94341467
:102AE00066E970E080E392E00E94341466E970E0E9
:102AF00089E392E00E94341466E970E082E492E097
:102B00000E94341466E970E08BE492E00E94341471
:102B100066E970E084E592E00E94341466E970E0B2
:102B20008FE592E00E94341466E970E08AE792E053
:102B30000E94341480911C06813009F458CF809192
:102B40001D068150833008F052CF809136068111E6
:102B500068C08091080190E09F938F9383E892E092
:102B60009F938F931F928EE08F938E010F5F1F4F65
:102B70001F930F930E94793466E970E0C8010E94A8
:102B800034140FB6F894DEBF0FBECDBF30CF242F64
:102B900030E0F901E85DF94F8081260F371FF90118
:102BA0009481882309F440C0891347C04F5FEFCF59
:102BB00080913706882369F070E060E08AE692E051
:102BC0000E945E1468E070E082E792E00E945E146A
:102BD000ABCF809108019DEF980F70E060E09A30D4
:102BE00048F48350990B61E070E002C0660F771FD4
:102BF0008A95E2F78AE692E00E945E1480910801CD
:102C00009DEF980F70E060E09A3048F48350990B84
:102C100061E070E002C0660F771F8A95E2F7686096
:102C2000D3CF86E090E098CF992309F436CF9D303A
:102C300009F433CF9A3009F430CF015009F0BBCEFC
:102C40002CCFEF92FF920F931F93CF93DF93EC0162
:102C50007B01198218821B821A821D821C82FB0151
:102C600001900020E9F731978F01061B170BB8017F
:102C70000E948C1328813981811113C021153105DF
:102C800019F0C9010E94EE32198218821D821C823D
:102C90001B821A82DF91CF911F910F91FF90EF90CD
:102CA00008951D830C83B701C901DF91CF911F9156
:102CB0000F91FF90EF900C944A34CF92DF92EF92F5
:102CC000FF920F931F93CF93DF93EB017B0124E0DF
:102CD000E20EF11C8B016C01C61AD70AC601800FE7
:102CE000911F0E947930F80181938F01EE15FF0545
:102CF000A9F7CE01DF91CF911F910F91FF90EF9037
:102D0000DF90CF9008950C9479301F93CF93DF9389
:102D1000EC01162F0E947930181739F0612FCE017F
:102D2000DF91CF911F910C948130DF91CF911F9152
:102D300008954F925F926F927F928F929F92AF927F
:102D4000BF92CF92DF92EF92FF921F93CF93DF93C8
:102D500000D01F92CDB7DEB76EE170E080E090E06A
:102D60000E94B00582E00E948602892B09F095C07E
:102D70000E94E3052B013C01812C912C540116E9A2
:102D800082E00E948602892B09F069C00E94E30557
:102D90006419750986099709603127E27207810570
:102DA000910598F160E173E088E790E00E945A1085
:102DB00063E972E088E790E00E945A106BE072E0ED
:102DC00088E790E00E945A1068E871E088E790E098
:102DD0000E945A108FEF89831A821B8248E750E0C5
:102DE00063E0CE0101960E94211060E08EE893E03E
:102DF0000E94851688E198E00FB6F894A895809314
:102E000060000FBE90936000FFCF28EE33E040E0FB
:102E100050E00E94F83069017A0183E0C816D104BD
:102E2000E104F104C8F0C814D904EA04FB0459F021
:102E3000129FB001139F700D112460557B4F88E2E3
:102E400090E00E945A106AE070E080E090E00E94FA
:102E5000B0054601570194CF75016401F4CF0E947B
:102E6000E305641975098609970960327340810585
:102E7000910530F5F090540581E0F826F092540564
:102E800068E077E0FF2011F060E679E082E390E00F
:102E90000E945A108F2D0E94C0120F900F900F9019
:102EA000DF91CF911F91FF90EF90DF90CF90BF9077
:102EB000AF909F908F907F906F905F904F9008950C
:102EC00064EF71E088E790E00E945A10E6CFCF935C
:102ED000C82F80932706682F83E090E00E94851614
:102EE00061E084E090E00E94851668E27AE08CE37D
:102EF00090E00E945A1068EE73E080E090E00E943B
:102F0000B0058AEC91E00E94CB1366E970E080E0A6
:102F100090E00E94B0058BEC91E0CC2311F082EDA3
:102F200092E00E94CB1380E00E94C012CC2349F0B3
:102F30006CE271E080E090E00E94B00581E00E94C8
:102F4000C01260ED77E080E590E00E945A1060E6E4
:102F500079E080E590E0CF910C945A10EF92FF92C7
:102F60000F931F93CF93DF93CDB7DEB768970FB65C
:102F7000F894DEBF0FBECDBF8FE00E946E057E01CC
:102F800021E1E20EF11CBC01990F880B990B0E9404
:102F9000592F20E030E040EA5BE30E94B82F870120
:102FA00022E040E00E94B129FF92EF928FE892E088
:102FB0009F938F931F9280E18F93005111091F936C
:102FC0000F930E947934C8010E94CB130FB6F89476
:102FD000DEBF0FBECDBF68960FB6F894DEBF0FBE42
:102FE000CDBFDF91CF911F910F91FF90EF9008958A
:102FF0002F923F924F925F926F927F928F929F9209
:10300000AF92BF92CF92DF92EF92FF920F931F93F6
:10301000CF93DF93CDB7DEB76E970FB6F894DEBFD0
:103020000FBECDBF182F1B0180911E06882309F407
:1030300098C080E00E948312812F0E94A20F68E74F
:1030400070E080E090E00E94B0050E94E3052B0153
:103050003C0110E000E0C12CD12C76010E94E30578
:1030600064197509860997096A34714081059105CB
:1030700030F50E949E11BC01990F880B990B0E949C
:10308000592F4B015C016091BB067091BC06809189
:10309000BD069091BE060E94572F9B01AC01C50151
:1030A000B4010E9496319B01AC015F77C701B60164
:1030B0000E942A316B017C010F5F1F4FCFCF0E940E
:1030C000B80F81E00E94831260E070E0CB0101152F
:1030D000110559F0B80190E080E00E94572F9B0144
:1030E000AC01C701B6010E9496317E0125E1E20ED6
:1030F000F11C870120E040E00E94B129FF92EF928D
:1031000086E992E09F938F931F9284E18F930451FD
:1031100011091F930F930E947934C8010E94CB13A9
:103120000FB6F894DEBF0FBECDBFC1010E94CB1316
:103130006E960FB6F894DEBF0FBECDBFDF91CF9174
:103140001F910F91FF90EF90DF90CF90BF90AF90C5
:103150009F908F907F906F905F904F903F902F90B7
:10316000089562EC71E0812F0E94C20F84EA92E020
:103170000E94CB13DACF0F931F93CF93DF93CDB77A
:10318000DEB760970FB6F894DEBF0FBECDBF182F25
:103190008FE00E946E05BC01990F880B990B0E946D
:1031A000592F20E030E040EA5BE30E94B82F9B01FA
:1031B000AC0160E070E08AEF94E4112321F060E05C
:1031C00070E08AE794E40E942A318E010F5F1F4F5E
:1031D00022E040E00E94B129C8010E94CB13609612
:1031E0000FB6F894DEBF0FBECDBFDF91CF911F9118
:1031F0000F9108951F93CF93DF9300D01F92CDB707
:10320000DEB72091270611E0613071058105910537
:1032100021F4213021F010E002C02111FCCF0E94E6
:10322000810F882351F0812F0E94BB180F900F90BF
:103230000F90DF91CF911F9108950E94E305609355
:103240005005709351058093520590935305812F3B
:103250000E94BB186CE370E080E090E00E94B00533
:10326000812F0E94C0120E94E30560935005709365
:103270005105809352059093530568E770E080E014
:1032800090E00E94B005812F0E94BB180E94D00FD1
:10329000198280E88A831B8248E750E063E0CE0110
:1032A00001960E942110C2CF2F923F924F925F92BF
:1032B0006F927F928F929F92AF92BF92CF92DF9246
:1032C000EF92FF920F931F93CF93DF93CDB7DEB7AB
:1032D000EE970FB6F894DEBF0FBECDBF83EC96E03D
:1032E000909301018093000186E990E0A0E0B0E0B6
:1032F0008093C7069093C806A093C906B093CA06E8
:103300000E94E3054B015C010E94E3056BAB7CABC3
:103310008DAB9EAB40E2242E4EE4342E412C512C3A
:103320008E010F5F1F4F0E94E305681979098A0912
:103330009B09621573058405950508F07BC40E94FE
:10334000E3052BA93CA94DA95EA9621B730B840B55
:10335000950B603C77428940910508F06BC482E090
:103360000E948602892B31F40E9499160E94E3057F
:103370004B015C0183E00E948602019721F40E94C8
:10338000E3054B015C0183EC96E00E943E0B1816AE
:1033900019064CF683EC96E00E94980A8D30910550
:1033A00049F08032910531F09C01295031092230D9
:1033B000310528F483EC96E00E94540BB4CF8F7D46
:1033C000815491094A9708F0D9C46BEE72E0CE019E
:1033D00089960E9421160E94750B97FD1AC0898359
:1033E0001A82EDA4FEA44FEFE41AF40AB701CE014D
:1033F00089960E948C13882371F329A53AA58DA57F
:103400009EA5B801820F931F0E944A34FEA6EDA626
:10341000E2CFE9A4FAA4E114F10431F06DA47EA492
:10342000670161147104B9F4E9A4FAA4E114F10488
:1034300009F44AC0F70181917F01882309F444C04F
:10344000082E000C990B0E943934F70131978083C4
:10345000F1CFCFA4D8A8C601019698AB8FA7F601EB
:103460008081082E000C990B0E94AA2E892B89F7C7
:10347000F1E06F1A71086E0C7F1CF3018081082E39
:10348000000C990B0E94AA2E892B39F06C147D0434
:1034900020F0F1E06F1A7108F0CF2FEF621A720A74
:1034A000A3014C195D095EA74DA7EC14FD0420F49F
:1034B000B601C7010E944134E9A5FAA58DA59EA5D4
:1034C000E80FF91F1082B0CF60EF72E0C8010E94D0
:1034D0002116B801CE0189960E947113F82EC801F9
:1034E0000E94B413FF2011F180913406811119C09C
:1034F000F1E0F093340660E173E086E490E00E942E
:103500005A1067E174E082E890E00E945A10198234
:1035100080E88A831B824AE550E062E0C8010E948D
:103520002110CE0189960E94B413FDCE68EF72E09F
:10353000C8010E942116B801CE0189960E9471131C
:10354000F82EC8010E94B413FF2019F0109234061F
:10355000E8CF60E073E0C8010E942116B801CE01F7
:1035600089960E947113F82EC8010E94B413FF209F
:1035700009F446C30E94E3054B015C0165E073E07A
:10358000C8010E942116B801CE0189960E947113CC
:10359000F82EC8010E94B413FF2079F08EE093E06A
:1035A0000E94CB1366E970E080E090E00E94B005D5
:1035B0008EE093E00E94CB1359C063E173E0C80131
:1035C0000E942116B801CE0189960E947113F82E2F
:1035D000C8010E94B413FF20A9F06CED75E088E7E4
:1035E00090E00E945A1060ED77E088E790E00E943A
:1035F0005A1064EC79E084EB90E00E945A108BE161
:1036000093E0D8CF62E273E0C8010E942116B801AE
:10361000CE0189960E947113F82EC8010E94B4133E
:10362000FF2029F00E94EA0E8AE293E0C3CF61E313
:1036300073E0C8010E942116B801CE0189960E944C
:103640007113F82EC8010E94B413FF20B1F08AE371
:1036500093E00E94CB1364E170E080E090E00E9470
:10366000B00562E473E081E00E94F81780E6282E3E
:103670008AEE382E412C512C54CF6BE473E0C801F4
:103680000E942116B801CE0189960E947113F82E6E
:10369000C8010E94B413FF2071F084E593E00E94FA
:1036A000CB1364E170E080E090E00E94B0056CE52F
:1036B00073E080E0D9CF65E673E0C8010E9421166F
:1036C000B801CE0189960E947113F82EC8010E949C
:1036D000B413FF2019F00E94AE17C8CF6DE673E057
:1036E000C8010E942116B801CE0189960E9471136B
:1036F000F82EC8010E94B413FF2009F413C1809171
:103700002806882309F4F9C088E296E09F938F93F6
:1037100026E733E03F932F931F9230E2F32EFF9280
:103720001F930F930E947934C8010E94CB1380919C
:1037300027061F928F938DE793E09F938F931F929D
:10374000FF921F930F930E947934C8010E94CB13FC
:103750000FB6F894DEBF0FBECDBF809123069091C7
:103760002406A0912506B0912606892B8A2B8B2B47
:1037700009F4C6C080911F0690912006A0912106F1
:10378000B0912206892B8A2B8B2B09F4B9C08FEBC1
:1037900092E09F938F9384E893E09F938F931F927F
:1037A00080E28F931F930F930E947934C8010E9487
:1037B000CB130FB6F894DEBF0FBECDBF80911B06B2
:1037C000882309F4A0C08FEB92E09F938F938DE83C
:1037D00093E09F938F931F9280E28F931F930F9399
:1037E0000E947934C8010E94CB1380911C060FB649
:1037F000F894DEBF0FBECDBF823009F487C08130A0
:1038000009F087C084ED92E09F938F9384E993E061
:103810009F938F931F9280E28F931F930F930E9429
:103820007934C8010E94CB130FB6F894DEBF0FBEE7
:10383000CDBF80911E06882309F46EC08FEB92E005
:103840009F938F938CE993E09F938F931F9280E2D5
:103850008F931F930F930E947934C8010E94CB135A
:103860000FB6F894DEBF0FBECDBF80913606882319
:1038700009F455C08FED92E09F938F9383EA93E014
:103880009F938F931F9220E2F22EFF921F930F932C
:103890000E947934C8010E94CB13809108011F92C5
:1038A0008F938CEA93E09F938F931F92FF921F93C5
:1038B0000F930E947934C8010E94CB1380911D069A
:1038C0001F928F9386EB93E09F938F931F92FF92AB
:1038D0001F930F930E947934C8010E94CB1381EC8F
:1038E00093E00E94CB138CEC93E00E94CB130FB6B5
:1038F000F894DEBF0FBECDBFB9CE85EB92E006CF08
:1039000082EC92E046CF89EC92E05FCF80ED92E0CE
:103910007BCF89ED92E078CF8BED92E091CF83EE73
:1039200092E0AACF65ED73E0C8010E942116B801AC
:10393000CE0189960E947113F82EC8010E94B4131B
:10394000FF2029F00E94D00F8FED93E033CE68EE78
:1039500073E0C8010E942116B801CE0189960E9429
:103960007113F82EC8010E94B413FF2041F1F12C0D
:10397000E12C9CE1D92EFF92EF92E1EFF3E0FF936F
:10398000EF931F92DF921F930F930E947934C80127
:103990000E94CB1366E970E080E090E00E94B005E1
:1039A0003FEFE31AF30A0FB6F894DEBF0FBECDBFA8
:1039B00055E0E516F104F9F689E094E0FBCD62E10B
:1039C00074E0C8010E942116B801CE0189960E94B8
:1039D0007113F82EC8010E94B413FF2091F089A53D
:1039E0009AA507969F938F938AE194E09F938F9374
:1039F0001F9288E28F931F930F930E947934C8011E
:103A000074CF61E274E0C8010E942116B801CE01B2
:103A100089960E947113F82EC8010E94B413FF20EA
:103A200059F061E081E993E00E94851631E030931E
:103A300037068CE294E0BECD66E374E0C8010E94D4
:103A40002116B801CE0189960E947113F82EC80183
:103A50000E94B413FF2051F060E081E993E00E94DE
:103A600085161092370682E494E0A4CD6DE474E0EC
:103A7000C8010E942116B801CE0189960E947113D7
:103A8000F82EC8010E94B413FF2009F461C085E537
:103A900094E00E94CB1360E971E080E090E00E9426
:103AA000B00564EF71E08CE594E00E94341464EF9B
:103AB00071E080E090E00E94B00583E00E94860201
:103AC000019719F484E694E075CD70E060E08AE631
:103AD00092E00E945E1468EC70E08AE792E00E9437
:103AE000341461E08FE893E00E948516809108010C
:103AF0001F928F9344E754E05F934F931F928CE0A3
:103B00008F931F930F930E9479346CE370E0C80188
:103B10000E94341468EB7BE080E090E00E94B005E6
:103B200060E08FE893E00E94851660E971E080EA2A
:103B300090E00E945A1060E971E080EA90E00E94F3
:103B40005A1060E971E080EA90E00E945A10CFCEEE
:103B50006EE774E0C8010E942116B801CE01899673
:103B60000E947113F82EC8010E94B41381EB94E0F7
:103B7000FF2009F41FCD86E894E00E94CB136CED82
:103B800075E088E790E00E945A1060ED77E088E7E2
:103B900090E00E945A1064EC79E084EB90E00E947F
:103BA0005A108BE193E00E94CB130E94EA0E8AE246
:103BB00093E00E94CB1381E994E00E94CB1362EC66
:103BC00071E081E00E94C20F8AE393E00E94CB1370
:103BD00060E971E080E090E00E94B0058DE994E03A
:103BE0000E94CB1362EC71E080E00E94C20F84E57A
:103BF00093E00E94CB130E94AE1789EA94E0DACCDE
:103C000069EB74E0C8010E942116B801CE018996C3
:103C10000E947113F82EC8010E94B413FF2019F1FD
:103C200061E070E080E090E00E94FA18CE01899691
:103C30000E94B413EE960FB6F894DEBF0FBECDBF50
:103C4000DF91CF911F910F91FF90EF90DF90CF9078
:103C5000BF90AF909F908F907F906F905F904F90AC
:103C60003F902F9008956FEB74E0C8010E942116D9
:103C7000B801CE0189960E947113F82EC8010E94E6
:103C8000B413FF2029F062E070E080E090E0CCCF38
:103C900066EC74E0C8010E942116B801CE01899635
:103CA0000E9456137C01C8010E94B413F7FC04C0A3
:103CB00081E00E946717BACF63ED74E0C8010E94EB
:103CC0002116B801CE0189960E9456137C01C801C5
:103CD0000E94B413F7FC02C080E0EBCF61EE74E009
:103CE000C8010E942116B801CE0189960E94561380
:103CF0007C01C8010E94B413F7FC16C00E94E305C2
:103D00004B015C0168E978E08CE390E00E945A1076
:103D100081E00E94C01268E770E080E090E00E94BD
:103D2000B0050E94EF13FDCB6CEE74E0C8010E9459
:103D30002116B801CE0189960E9456137C01C80154
:103D40000E94B413F7FCEDCB0E94E3054B015C012C
:103D500068E978E08CE390E00E945A106EE774E026
:103D600080E090E00E94B0050E94EF1381E00E9485
:103D7000C012D7CB83EC96E00E94540B0E94B00A8D
:103D8000FC0197FD5DC08D32910519F0C0970A972F
:103D900088F7C12CD12C7601712CE130F105D9F0D6
:103DA000ED32F10509F449C0CF01C0970A9798F4A4
:103DB000AAE0B0E0A70196010E94AE306F01FF0FAC
:103DC000EE08FF08C60ED71EE81EF91EF0E3CF1A54
:103DD000D108E108F10883EC96E00E94540B0E94A0
:103DE000B00AFC01C0970A97C0F2E130F105A9F2D0
:103DF000772041F0F094E094D094C094C11CD11C81
:103E0000E11CF11CC114D104E104F10409F48BCAD2
:103E1000D701C6010197A109B1090297A105B10512
:103E2000A0F58091270611E0CA94CD28CE28CF288E
:103E300059F4813059F010E009C077247394CBCF46
:103E4000C12CD12C7601DECF8111F5CF812F0E94BC
:103E5000BB180E94810F8111EDCE0E94E305609393
:103E60005005709351058093520590935305812F0F
:103E70000E94C0120E94E3056093500570935105A3
:103E80008093520590935305D5CEC11439EED306D5
:103E900032E0E306F104C9F40E94E3054B015C0142
:103EA00068E978E08CE390E00E945A1068E27AE0DA
:103EB0008CE390E00E945A106EE774E080E090E09E
:103EC0000E94B0050E94EF132ECA41E2C4164BE0D7
:103ED000D40640E2E406F10408F025CA0E94E30596
:103EE0004B015C010E941B2A6FAB78AF89AF9AAF80
:103EF0000E941B2A2EE037E240E050E00E948F3003
:103F00009B01AC012F5F3F4F4F4F5F4F2FA738AB47
:103F100049AB5AAB8091230690912406A0912506C7
:103F2000B0912606A7019601280F391F4A1F5B1F73
:103F30002BAF3CAF4DAF5EAF6FA978AD89AD9AADF9
:103F40002EE037E240E050E00E948F30DC01CB01F0
:103F50000196A11DB11D2BAD3CAD4DAD5EAD820FE7
:103F6000931FA41FB51F20911D06233009F04DC0DB
:103F700027EE32E0BF93AF939F938F933F932F939E
:103F80001F9280E18F931F930F930E947934C80191
:103F90000E94CB1366E970E080E090E00E94B005DB
:103FA00080911F0690912006A0912106B0912206D3
:103FB0008C0D9D1DAE1DBF1DCFA4D8A8E9A8FAA8E1
:103FC000C80ED91EEA1EFB1E0FB6F894DEBF0FBE48
:103FD000CDBF80911D068330D9F487EE92E0FF9229
:103FE000EF92DF92CF929F938F931F9280E18F93F6
:103FF0001F930F930E947934C8010E94CB130FB610
:10400000F894DEBF0FBECDBF8EC92CEE32E0B2CF2A
:104010008CEE92E0E4CF8F929F92AF92BF92DF92AC
:10402000EF92FF920F931F93CF93DF93CDB7DEB73D
:10403000E0970FB6F894DEBF0FBECDBF83E0E82E49
:1040400090E3D92E8E010F5F1F4F83EC96E00E9404
:104050003E0B892B29F083EC96E00E94540BF5CFA0
:104060006AEF74E083EC96E00E94BC13F8012D2DFA
:1040700011922A95E9F70E94E3054B015C01F12CAE
:104080000E94E305681979098A099B09623C71401D
:104090008105910598F483EC96E00E943E0B892BF4
:1040A00079F3FEE2FF1560F383EC96E00E94540B77
:1040B000F801EF0DF11D8083F394E2CF64E075E029
:1040C000C8010E945F345C01892B29F4EA94E11055
:1040D000BCCF10E01FC060ED72E0C8010E945F34E9
:1040E000892B59F581E080931C06C50104960E9436
:1040F000732A182F811101C011E010931D06612F42
:1041000080E093E00E94851660911C0683E993E0AD
:104110000E948516812FE0960FB6F894DEBF0FBE81
:10412000CDBFDF91CF911F910F91FF90EF90DF9066
:10413000BF90AF909F908F90089582E0D4CF1F9250
:104140000F920FB60F9211242F933F938F939F934B
:10415000AF93BF9380913B0690913C06A0913D06A2
:10416000B0913E0630913A0623E0230F2D3768F1D7
:1041700026E8230F0296A11DB11D20933A068093D5
:104180003B0690933C06A0933D06B0933E0680917B
:104190003F0690914006A0914106B09142060196DB
:1041A000A11DB11D80933F0690934006A093410648
:1041B000B0934206BF91AF919F918F913F912F9104
:1041C0000F900FBE0F901F9018950196A11DB11D65
:1041D000D4CF1F920F920FB60F9211242F933F93BB
:1041E0004F935F936F937F938F939F93AF93BF93FF
:1041F000EF93FF93E0910601F09107010995FF917C
:10420000EF91BF91AF919F918F917F916F915F914E
:104210004F913F912F910F900FBE0F901F901895C7
:104220001F920F920FB60F9211242F933F934F932B
:104230005F936F937F938F939F93AF93BF93EF930E
:10424000FF93E0910401F09105010995FF91EF9131
:10425000BF91AF919F918F917F916F915F914F919E
:104260003F912F910F900FBE0F901F9018951F92A6
:104270000F920FB60F9211242F933F934F935F939A
:104280006F937F938F939F93AF93BF93EF93FF931E
:104290008091790690917A06A0917B06B0917C0678
:1042A000892B8A2B8B2BD1F190917406E0917506A6
:1042B000F09176068081892780838091790690919C
:1042C0007A06A0917B06B0917C06181619061A068C
:1042D0001B069CF48091790690917A06A0917B064A
:1042E000B0917C060197A109B1098093790690935A
:1042F0007A06A0937B06B0937C06FF91EF91BF9165
:10430000AF919F918F917F916F915F914F913F916D
:104310002F910F900FBE0F901F90189580910A015A
:104320000E940F07EACF1F920F920FB60F9211242F
:104330008F930FB6F894A895809160008861809360
:104340006000109260000FBE8F910F900FBE0F9013
:104350001F9018951F920F920FB60F9211242F9352
:104360003F934F935F936F937F938F939F93AF93FD
:10437000BF93EF93FF938091B900887F803609F453
:104380004AC0F0F5883209F4A7C018F5803109F465
:104390009BC0B8F4882309F405C1883009F494C09F
:1043A000FF91EF91BF91AF919F918F917F916F910D
:1043B0005F914F913F912F910F900FBE0F901F90E3
:1043C0001895883109F488C0803251F780934D06E2
:1043D00014C0803409F4A5C040F48033B9F38833A5
:1043E000F9F680934D0685ECBCC0803509F489C090
:1043F000883509F49EC0883499F60E948A09D0CF86
:10440000883909F494C038F5883729F050F4883693
:1044100011F0803729F683E080934F061092D9057A
:1044200057C0883809F483C0803919F0803809F002
:10443000B7CF8091D905803208F079C0E091D905D5
:1044400081E08E0F8093D9058091BB00F0E0E754A6
:10445000FA4F80833DC0803B39F0E0F4803A09F4A4
:1044600085C0883A09F09CCF84E080934F06109273
:10447000B8051092B705E0911706F0911806099556
:104480008091B70581110FC081E08093B70510922C
:10449000970509C0803C09F4A6CF883C09F4A3CF56
:1044A000883B09F07DCFE091B80581E08E0F8093C5
:1044B000B805F0E0E956FA4F80818093BB009091F7
:1044C000B8058091B70531C0809148068093BB0044
:1044D00085EC8093BC0064CF90914A068091490698
:1044E0009817B8F580914B0690914C06E0914A06DA
:1044F00021E02E0F20934A06E80FF92FF11D80814D
:10450000E5CF20914B0630914C06E0914A0681E0C0
:104510008E0F80934A068091BB00E20FF32FF11DAE
:10452000808390914A0680914906981788F285E821
:10453000D0CF20914B0630914C06E0914A0681E0A5
:104540008E0F80934A068091BB00E20FF32FF11D7E
:10455000808380914E06811150CF81E08093470681
:1045600084EA8093BC0010924F061ACF85EC8093AA
:10457000BC0010924F068091D905803230F4E09152
:10458000D905F0E0E754FA4F10826091D90570E048
:10459000E0911506F091160689EB95E009951092C9
:1045A000D905FECE10924D0628CF1F920F920FB65E
:1045B0000F9211242F933F934F935F936F937F93A9
:1045C0008F939F93AF93BF93EF93FF93E091450633
:1045D000F0914606309749F0A685B7858585968D7A
:1045E00091FF14C09C918923A1F4FF91EF91BF9199
:1045F000AF919F918F917F916F915F914F913F917B
:104600002F910F900FBE0F901F9018959C918923AA
:1046100061F7A389B4899C918589809589238C93BE
:10462000868997890197F1F7608D718DA685B78589
:10463000558538E020E0CB010197F1F7822F90E01B
:1046400095958795282F4C91452309F02068315086
:1046500091F7868D81FD20958091440690E001962A
:104660008F73992730914306381799F0A09144062B
:10467000B0E0A95ABA4F2C9380934406828D938D53
:104680000197F1F7A389B4898C919589892B8C9333
:10469000ACCF868D8160868FF1CF8FEF80939A06A5
:1046A00010929C0610929B061092A6061092A506E8
:1046B0008FEF9FEFDC018093A1069093A206A09359
:1046C000A306B093A4061092AA061092A90688EE3B
:1046D00093E0A0E0B0E08093AB069093AC06A0938B
:1046E000AD06B093AE062AEA31E03093A8062093D7
:1046F000A7061092C6061092C5068093C70690932F
:10470000C806A093C906B093CA068CEB91E09093BB
:10471000C4068093C3061092DA061092D90610924E
:10472000DC061092DB061092DE061092DD06109277
:10473000E0061092DF066091E1066E7F6D7F609368
:10474000E1066695617081E0682784E00E94AF020F
:1047500061E084E00E94DD02E3EBF1E0E491E093AC
:10476000D306ECE9F1E0E491F0E0EE0FFF1FE25731
:10477000FE4F859194919093D5068093D40660E086
:1047800085E00E94DD028091E10681FD04C061E0C8
:1047900085E00E94AF0285E08093CF06E4EBF1E074
:1047A000E491E093D006EDE9F1E0E491F0E0EE0F62
:1047B000FF1FEC57FE4F859194919093D206809302
:1047C000D1061092B4061092B30685E48093B60623
:1047D0001092BB061092BC061092BD061092BE0647
:1047E0001092BF061092C0061092C1061092C20627
:1047F0000895CF93DF93CDB7DEB7E0970FB6F89467
:10480000DEBF0FBECDBF789484B5836084BD85B50F
:10481000836085BD80916E00816080936E0082E030
:1048200080938100809181008160809381008091DC
:1048300080008160809380008091B10084608093CB
:10484000B1008091B00081608093B00087E88093D0
:104850007A001092C10080E993E00E94831691E0F3
:10486000813009F090E090933606813031F48AE08F
:10487000809303018BE08093020161E086E00E9457
:10488000DD0261E0809103010E94DD0261E0809120
:1048900002010E94DD0262E082E00E94DD0260E02F
:1048A00083E00E94DD020E94B80F80916400846062
:1048B0008093640080B7806880BF80913606811144
:1048C00010C08DB1807F8DB98EB18F608EB980910F
:1048D0006400806180936400809165008D638093A3
:1048E000650068E27AE086E490E00E945A108EE06B
:1048F0000E946E056C01990FEE08FF080E948B055F
:104900008B019C01C701B60160277127822793277D
:10491000C016D106E206F30611F00E946A2A62E090
:104920008EE00E94DD0280913606882309F4E3C000
:1049300061E087E00E94DD0260E087E00E94AF0254
:1049400061E088E00E94DD0260E088E00E94AF0242
:1049500061E089E00E94DD0260E089E00E94AF0230
:1049600008E2E02E06E0F02E10E000E0C8018F5FC4
:104970009C4F0E9483169FEF980F9E3F08F438C10A
:10498000F801E85DF94F108283E090E00E94831601
:1049900080932706823010F01092270663E276E0BB
:1049A00085E090E00E945D166FE176E08FE090E098
:1049B0000E945D168091B3069091B406892BA9F4EC
:1049C00086E090E00E945232FC018091B60680831E
:1049D00087EA96E092838183138280E290E0958358
:1049E0008483F093B406E093B306E090B306F090AE
:1049F000B40610921A0610921906109251061092DF
:104A000073060E94BB098AE097E090931806809392
:104A100017068BE097E0909316068093150611E039
:104A2000F7011383C7010E94D9098111ECC01092CC
:104A30001E0680E093E00E94831680931D06893253
:104A400010F010921D0683E993E00E948316809374
:104A50001C06833010F010921C0682E993E00E943D
:104A60008316809308018450863018F088E0809384
:104A700008018FE893E00E94831691E0813009F0ED
:104A800090E090933906813029F460E08FE893E05C
:104A90000E94851681E993E00E94831691E081309F
:104AA00009F090E09093370660E875E280E090E0CE
:104AB0000E948B0180913906811169C383E00E94B5
:104AC0008602019709F002C116E080911B06811150
:104AD00048C3115009F44AC36AEF70E080E090E0E7
:104AE0000E94B0050E940B2091E0811101C090E06E
:104AF00090931B06EACF80910D06811145C010925C
:104B0000FF051092FE058FEF809302068093030647
:104B1000809304068093050680930606809307061B
:104B200081E08093080610920A06109209061092FE
:104B30000106109200068091940690919506892BAB
:104B400031F48CEF95E09093950680939406E09174
:104B5000FA05F091FB05309721F08CEF95E09583F5
:104B600084838CEF95E09093FB058093FA05109277
:104B70000C0610920B0682E891E09093FD0580935D
:104B8000FC0581E080930D06239A85E896E09093DA
:104B9000FF058093FE0583E090E090930A068093E2
:104BA000090680919D0690919E06A0919F06B09166
:104BB000A006843C29E09207A105B10520F484EC0D
:104BC00099E0A0E0B0E080939D0690939E06A093AC
:104BD0009F06B093A00682E380939A0619821A82F8
:104BE0001B82CE0101960E941B010E94EF05B8CEE8
:104BF000F70181937F0110820F5F1F4F0B3011056A
:104C000009F0B4CEC1CE80E090E1A0E0B0E08093A6
:104C1000B7069093B806A093B906B093BA068AE097
:104C200090E0A0E0B0E08093BB069093BC06A09318
:104C3000BD06B093BE0680E090E0A0E0B0E48093B3
:104C4000BF069093C006A093C106B093C2068091A0
:104C5000B3069091B40618A619A61AA61BA69A8F99
:104C6000898F1C8E1B8E1AA385E090E098A38F8FEE
:104C70001BA302E009A322E040E050E160E070E005
:104C8000CE0149960E94CE088091B3069091B40659
:104C9000188A198A1A8A1B8A9A8389831C821B8222
:104CA0001A8718861F821B87098722E04FE959E37C
:104CB00060E070E0CE0101960E94CE088093B506B8
:104CC00010931E0681E00E948312B3CE0E949114BD
:104CD0000E940B2091E0811101C090E090931B068F
:104CE000E3E07E2EF6EACF2EF1E0DF2EA8E2AA2E38
:104CF000A6E0BA2EBAEE8B2EB1E09B2E18E1612E03
:104D00008E01075E1F4F80911B068111DDCE7A94C4
:104D1000772009F4D9CE83E00E948602892B09F01E
:104D2000D3CE60EB74E082E390E00E945A1060EB17
:104D300074E082E390E00E945A1080913606882346
:104D400009F451C072E9E72E71E0F72EF701619185
:104D50007191819191917F010E948B016EE170E0D0
:104D600080E090E00E94B00566E0562E68E270E0B8
:104D70008DEC92E00E9434145A945110F7CF68E7FA
:104D800070E088ED91E00E9434146CE370E087E2FB
:104D900092E00E9434146CE370E080E392E00E94A1
:104DA00034146CE370E089E392E00E9434146CE305
:104DB00070E082E492E00E9434146CE370E08BE4D3
:104DC00092E00E94341460E570E084E592E00E9475
:104DD000341460E570E08FE592E00E943414CE1444
:104DE000DF0409F0B3CF52E9E52E51E0F52EF701CB
:104DF00061917191819191917F010E948B016EE18E
:104E000070E080E090E00E94B00568E270E08DEC18
:104E100092E00E94341468E270E08DEC92E00E940F
:104E2000341468E270E08DEC92E00E94341468E77C
:104E300070E088ED91E00E9434146AEF70E089E040
:104E400095E00E94341466E970E082E195E00E94EA
:104E5000341468E572E080E090E00E94B005CE1462
:104E6000DF0429F660E875E280E090E00E948B01A3
:104E70006CED75E080E090E00E94B00583EC96E078
:104E80000E943E0B892B29F083EC96E00E94540B84
:104E9000F5CF66E970E08BE195E00E94341466E995
:104EA00070E089E095E00E94341466E970E088EDD6
:104EB00091E00E94341466E970E08CE092E00E9478
:104EC000341466E970E086E295E00E94341466E9E5
:104ED00070E08FE295E00E94341466E970E088E3A8
:104EE00095E00E9434140E940B20809128068823AC
:104EF00009F449C0BF92AF929F928F921F926F9216
:104F00001F930F930E947934E8E1F1E0DE011196DE
:104F1000862D01900D928A95E1F7CE0101967C01D4
:104F20000FB6F894DEBF0FBECDBFF701619171914E
:104F3000819191917F010E948B016EE170E080E090
:104F400090E00E94B00562E370E08DEC92E00E9478
:104F5000341464E670E088ED91E00E94341464EB50
:104F600070E0C8010E943414E016F106F1F660E822
:104F700075E280E090E00E948B0164E670E080E0E2
:104F800090E00E94B0050E94911466E970E081E40F
:104F900095E00E94341483E00E948602019751F14B
:104FA0000E94FD13811126C083EC96E00E943E0B07
:104FB000892B29F083EC96E00E94540BF5CF6AEF21
:104FC00074E083EC96E00E94BC130E94E3051B0191
:104FD0002C010E94E3056219730984099509623C5A
:104FE00071408105910558F483EC96E00E943E0BD8
:104FF000892B79F369EC8EE893E00E94851666E9C7
:1050000070E082E195E00E9434146CED75E080E080
:1050100090E00E94B00583EC96E00E943E0B892B45
:1050200029F083EC96E00E94540BF5CF0E94911476
:105030000E940B2091E0811101C090E090931B062B
:1050400062CE60E971E080EA90E00E945A1011504F
:10505000C1F78FEF89831A821B8248EC50E062E02F
:10506000CE0101960E94211080E1E0E3F1E0DE0133
:10507000119601900D928A95E1F78E010F5F1F4FF7
:10508000F12CF80161917191819191918F010E94B0
:105090008B016EE170E080E090E00E94B0050E941C
:1050A000FD13882369F164EF71E080E090E00E94D5
:1050B000B00510E068E27AE08CE890E00E945A10B7
:1050C00064EB70E080E090E00E94B0051F5FF11695
:1050D00088F7F1100EC00E94911468EC70E080E037
:1050E00090E00E94B00560E87CE08AE590E00E94D4
:1050F0005A1060E875E280E090E00E948B0147C0A2
:105100000E940B208111CFCFF394F4E0FF12B9CFAE
:10511000F0CF809169008C7F826080936900E89A6B
:105120009092070180920601809169008C608093C3
:105130006900E99A83B7817F83BFF89483B7816060
:1051400083BF7894889583B78E7F83BFE898109348
:10515000050100930401E9981093070100930601EB
:10516000D0C069EC8EE893E00E94851680911B0602
:1051700014E0882309F465CF198280E88A831B82B2
:1051800048E750E062E0CE0101960E94211084E7DA
:10519000E82E84E0F82E9CE0592ECE0101966C0199
:1051A00020E0622E20E0722E31E0A32E37E0B32EF5
:1051B00045E0842E47E0942E09E017E04424439410
:1051C00080910901811104C080913906882331F052
:1051D00010920901109239060E9454190E94B80FCA
:1051E00080913706882389F18091360681112DC080
:1051F00083E00E948602892B41F568EC70E08CE523
:1052000094E00E94341464E670E08AE792E00E9421
:105210003414809108011F928F93FF92EF921F9296
:105220005F92DF92CF920E9479346CE370E0C60106
:105230000E94341466E970E080E090E00E94B005BE
:105240000FB6F894DEBF0FBECDBF10923506109298
:1052500038061092340683E00E948602B09205015F
:10526000A0920401892B09F054CF809169008C7FB2
:1052700080936900E89A8091680084608093680058
:1052800080916D00886080936D0030907A008091ED
:105290007A008F7780937A0083B7817F846083BFA1
:1052A000F89483E00E948602892BB9F48091380635
:1052B000811113C083EC96E00E943E0B892B69F4A8
:1052C00083B7816083BF85B7806685BF8F7D85BFCB
:1052D0007894889583B78E7F83BF789430927A00D4
:1052E00080916D00877F80936D00E8981093050191
:1052F0000093040183E00E948602019711F440921A
:1053000035068091380681110E9499160E94541921
:105310006114710409F454CF0E9400004FCF8091B2
:10532000B3069091B4060E94EE328CEB91E090931C
:10533000C4068093C3068091450690914606835C1F
:10534000964071F4E091D606F091D7069081809155
:10535000D8068095892380831092460610924506D0
:105360000895EF920F931F93CF93DF93E80134E0FA
:1053700047FD34E1042E000C550B57FF03C0519537
:1053800041955109E32E022F242FAE010E94732C68
:10539000CE01DF91CF911F910F91EF9008958F92E1
:1053A0009F92AF92BF92CF92DF92EF92FF92CF93F4
:1053B000DF93EC01688179818A819B816115710598
:1053C0008105910521F464E279ED8BE597E02DE10B
:1053D00033EF41E050E00E948F3049015A019B01B8
:1053E000AC01A7EAB1E40E94AE306B017C01ACEEE7
:1053F000B4EFA50194010E94BC30C60ED71EE81E72
:10540000F91EF7FE06C081E0C81AD108E10880E85D
:10541000F80AC882D982EA82FB82C701B6019F7767
:10542000DF91CF91FF90EF90DF90CF90BF90AF9042
:105430009F908F9008958F929F92AF92BF92CF923C
:10544000DF92EF92FF9260910B0170910C018091BD
:105450000D0190910E01611571058105910521F4F1
:1054600064E279ED8BE597E02DE133EF41E050E028
:105470000E948F3049015A019B01AC01A7EAB1E4B7
:105480000E94AE306B017C01ACEEB4EFA50194013B
:105490000E94BC30C60ED71EE81EF91EF7FE06C0DD
:1054A00081E0C81AD108E10880E8F80AC0920B012F
:1054B000D0920C01E0920D01F0920E01C701B601ED
:1054C0009F77FF90EF90DF90CF90BF90AF909F902D
:1054D0008F90089560930B0170930C0180930D01E0
:1054E00090930E010895FC0188279927E894219153
:1054F0002032E9F3293010F02E30C8F32B3241F07E
:105500002D3239F4689404C00E94912A820F911DB3
:10551000219120532A30C0F31EF4909581959F4F1E
:1055200008957AE0979F902D879F802D910D1124EB
:105530000895ABE0B0E0EFE9FAE20C94C1307C01F1
:105540003B018A01FC0117821682838181FFC8C159
:10555000CE0101965C01F7019381F30193FD8591E2
:1055600093FF81913F01882309F453C1853239F4B7
:1055700093FD859193FF81913F01853229F4B70115
:1055800090E00E94C92EE7CF912C212C312CFFE115
:10559000F31538F08B3211F190F4803209F1833237
:1055A00029F137FC3CC020ED280F2A3050F536FE9B
:1055B00020C08AE0989E200D1124922E06C08D32C4
:1055C00091F0803371F7689430F8F30193FD859181
:1055D00093FF81913F018111DACF21C0689431F8A6
:1055E000689432F8F2CF689433F8EFCF689434F8C7
:1055F000ECCFEAE02E9E200D1124222E689435F87F
:10560000E4CF8E3229F436FC04C1689436F8DDCF3D
:105610008C3619F4689437F8D8CF8836B1F2982FC1
:105620009F7D95549330E0F08336A1F18337C1F12B
:10563000833509F063C02801F2E04F0E511CF801D8
:10564000C080D180692D70E036FC02C06FEF7FEF23
:10565000C6010E94B32E4C01689437F882010AC03B
:105660000C5F1F4FFFE3F98388248394912C65011D
:10567000E89437F833FE2DC0522C8114910471F553
:10568000552009F468CFB70180E290E00E94C92E4E
:105690005A94F6CFF801808189830E5F1F4FE4CFC3
:1056A0002801F2E04F0E511CF801C080D180692D15
:1056B00070E036FC02C06FEF7FEFC6010E94BE2E85
:1056C0004C018201D5CFB70180E290E00E94C92E43
:1056D0002A942814190409F0B0F7CECFF60137FC4C
:1056E000859137FE81916F01B70190E00E94C92E2C
:1056F00051105A94F1E08F1A9108BFCF843619F0F7
:10570000893609F077C0F80137FE6BC0608171817E
:10571000828193810C5F1F4FF32DFF763F2E97FF01
:1057200009C090958095709561957F4F8F4F9F4FE1
:10573000689437F82AE030E0A5010E94F92EC82EBF
:10574000CA188C2C432C36FE0CC0E89440F8C914BF
:1057500040F434FE05C032FC03C0F32DFE7E4F2E14
:10576000892C44FE95C0FE01EC0DF11D8081803333
:1057700009F087C0242D297E422E842D8870582E52
:1057800043FC95C040FE8FC09C2C821418F42C0C56
:10579000922C981844FE91C0B70180E390E00E94DB
:1057A000C92E42FE09C088E790E041FE02C088E5AC
:1057B00090E0B7010E94C92EC91408F48AC0CA94A7
:1057C000D12C9FEFC91AD90ACA0CDB1CF6018291B1
:1057D0006F01B70190E00E94C92EAC14BD04B1F76F
:1057E0004FCF60817181072E000C880B990B0E5FE3
:1057F0001F4F92CFD32CE894D4F82AE030E08537BD
:1058000039F1232D297FD22E8F3601F148F48835C6
:10581000A9F0F701868197812B96E2E10C94DD30A7
:10582000803749F08837A9F7D4FE02C06894D2F8CF
:1058300020E130E00DC06894D4F8F6CF34FE03C008
:10584000822F8660D82E20E132E002C028E030E0CE
:10585000F801D7FE0FC060817181828193810C5F56
:105860001F4FA5010E94F92EC82ECA183D2CE8949E
:1058700037F867CF6081718190E080E00E5F1F4F45
:10588000F0CF42FC02C0839478CF8394839475CF89
:10589000842D867809F471CFF6CFB70180E290E0CD
:1058A0000E94C92E83948214C0F3512C73CF522CC2
:1058B0005818821408F46ECFF8CF842D867809F436
:1058C0007BCF8BE241FE80E247FC8DE2B70190E0A6
:1058D00071CFB70180E390E00E94C92E9A946CCFFB
:1058E0008FEF9FEF99CFA9E0B0E0E9E7FCE20C94DD
:1058F000C7306A01F22EB02E102FFBE3AF2EA01698
:1059000008F41BE31F5F012F27E0AE014F5F5F4FDD
:105910000E94D22DBC018981982F9970913009F491
:105920003FC09BE2E1FC04C09E2D9170E0FC3AC0B8
:105930005E2D5071E82FE87083FF46C084E091111E
:1059400001C083E0EF2DE81B8F1508F0E0E0D601E1
:105950008E2F20E2552351F1992329F0D6019C93F3
:10596000C60101966C0196012D5F3F4FE2FE24C0F7
:105970008EE4D6018C9391E411969C931197129624
:105980008C93D9018E2F90E281111BC0E20FF32F6F
:10599000F11D10828EEF9FEF2996ECE00C94E3301E
:1059A0009DE2C6CF90E2C4CF2D9381508111FCCFF0
:1059B000CE0ED11CE0E0D0CF8EE6D6018C9391E6DE
:1059C000DBCF9D938150E0CF482F447082FF3DC0D4
:1059D00084E0911101C083E08F1510F4EF2DE81BD6
:1059E000D6018E2F20E2552309F1992329F0D60103
:1059F0009C93C60101966C0196012D5F3F4FE2FE1C
:105A00001BC089E4D6018C938EE411968C93119778
:105A100086E412968C93D9018E2F90E2882309F4A4
:105A2000B5CF9D938150FACF2D9381508111FCCF3A
:105A3000CE0ED11CE0E0D9CF89E6D6018C938EE65C
:105A400011968C93119786E6E4CF9B0177FF02C0F5
:105A500030E020E0A1E0B0E0911102C0B0E0A0E0B1
:105A6000F9013196AE0FBF1F8B2C912CBB2009F48E
:105A700061C05401EFEFAE1ABE0AAA0DBB1DFA16A3
:105A80001B0619F014F04F2D4A1B511188C0E3FC7E
:105A900059C07601A42FB0E2A1114FC0C40ED11C91
:105AA000992309F45BC040E0D6011196F60190837A
:105AB0006D01552309F448C0012F060F9A81582F14
:105AC000507184FF03C0913309F4015010160CF09B
:105AD00047C0093008F008E0EEE2FE2E5B01A01A94
