:100000000C9414010C9408240C94E1230C94CD2539
:100010000C94CD250C94CD250C948B240C942F247A
:100020000C944C010C944C010C944C010C944C011C
:100030000C944C010C944C010C944C010C944C010C
:100040000C9497230C944C010C944C010C944C018F
:100050000C944C010C944C010C944C010C944C01EC
:100060000C94A2240C944C0100407A10F35A00A086
:10007000724E18090010A5D4E80000E87648170071
:1000800000E40B54020000CA9A3B000000E1F505B1
:10009000000080969800000040420F000000A086FB
:1000A00001000000102700000000E803000000002D
:1000B0006400000000000A000000000001000000D1
:1000C00000002C76D888DC674F0823DFC1DFAE59EB
:1000D000E1B1B796E5E3E453C63AE651997696E87E
:1000E000E6C28426EB898C9B62ED407C6FFCEFBC02
:1000F0009C9F40F2BAA56FA5F490055A2AF75C932D
:100100006B6CF9676DC11BFCE0E40D47FEF520E662
:10011000B500D0ED902E0300943577050080841E45
:10012000080000204E0A000000C80C333333330FA0
:10013000986E12831141EF8D2114893BE65516CF3D
:10014000FEE6DB18D1844B381BF77C1D901DA4BB49
:10015000E424203284725E228100C9F124ECA1E5FE
:100160003D2741544F4B3A2575005643434D494E68
:100170003A2575005643433A257500435554533A82
:10018000257500424F44533A257500424F4F545352
:100190003A2575005253543A256300555054494D41
:1001A000453A256C75004D4F534645543A25750028
:1001B0004D4F534645543A31322D4155544F00006E
:1001C000000000240027002A0000000009000302AC
:1001D000000004050800000000000000000000000E
:1001E0000200000000230026002900000000002576
:1001F0000028002B00040404040404040402020286
:1002000002020203030303030302020301020408C0
:100210001020408001020408102001020408102070
:10022000408040004526652D11241FBECFEFD8E049
:10023000DEBFCDBF84B78093000714BE14BE0FB6D7
:10024000F894A89580916000886180936000109276
:1002500060000FBE15E0A0E0B1E0E8E7F1E702C002
:1002600005900D92AC35B107D9F727E0ACE5B5E0C4
:1002700001C01D92A030B207E1F711E0C3E1D1E067
:1002800004C02197FE010E945236C231D107C9F73E
:100290000E94F1260C94AF380C940000DC01EFE9C9
:1002A000F6E02D913D914C9112972083318342834A
:1002B0002D913D914C9112972383348345838D91E9
:1002C0009D91AC9186839783A0870895282F909164
:1002D0008D0681E0913208F042C08091690681115B
:1002E000FCCF80918C0632E030936906209368063B
:1002F0002FEF209367062CE636E0309366062093B6
:1003000065061092640690936306109262069091BF
:100310006206880F892B8093620680916106813086
:1003200029F510926106809162068093BB0080914E
:10033000BC0083FDF8CF85EC8093BC0080916906FA
:100340008230E1F3809167068F3F91F080916706DC
:10035000803281F080916706803371F084E01092E2
:100360006B0610928D0610926A06089585EEE4CF12
:1003700080E0F5CF82E0F3CF83E0F1CF9B01AC01C9
:100380001092F8061092F7061092F6061092F506F3
:100390001092F4061092F30660E079E08DE390E0AD
:1003A0000E949534B901C90103972430310510F436
:1003B00081E090E09093FA068093F9068091E90637
:1003C000873108F063C0F901F695E795E431F1054E
:1003D00008F48CC07397F093F406E093F30666304C
:1003E000710508F486C0B901655071097093F6066D
:1003F0006093F506B901660F771F260F371F3695F4
:100400002795369527952D30310508F475C02C5069
:1004100031093093F8062093F7062091680094E0A4
:10042000883054F091E08E303CF092E0843124F03A
:1004300091E0863109F490E0922B909368002DE6CC
:1004400030E0883074F08E300CF459C084313CF0C8
:1004500086310CF454C030E020E0863111F42CE6F3
:1004600030E03093F1062093F00688300CF04AC05B
:1004700091E001C0990F8A95EAF7892F8093F206DF
:100480008091F9069091FA060197F1F78091F706AD
:100490009091F806892B49F1E0915F06F091600692
:1004A00086E0ED3DF80709F1309739F0A389B4896A
:1004B0009C918589809589238C938091FB068E7F02
:1004C0008093FB0610925E0610925D068DED96E01D
:1004D0009093600680935F06E091F006F091F1063C
:1004E00080819091F206892B80830895E1E0F0E00D
:1004F00072CF61E070E07ACF21E030E08ACF2BE666
:1005000030E0AFCF8E3014F48850B2CF863114F47F
:100510008E50AECF863111F480E4B0CF80E0AECF04
:10052000843081F028F48230E9F08330F9F00895C6
:10053000883071F0893091F08530B9F48091800075
:100540008F7D03C0809180008F7780938000089515
:100550008091B0008F778093B00008958091B000B3
:100560008F7DF9CF84B58F7784BD089584B58F7D55
:10057000FBCFCF93DF93282F30E0F901E753FE4FF5
:100580008491F901E45FFD4FD491F901EB50FE4FE6
:10059000C491CC23A1F081110E949002EC2FF0E0D5
:1005A000EE0FFF1FEF51FE4FA591B491EC91ED239B
:1005B00081E090E009F480E0DF91CF91089580E040
:1005C00090E0FACF1F93CF93DF93282F30E0F9010B
:1005D000E753FE4F8491F901E45FFD4FD491F90197
:1005E000EB50FE4FC491CC23A9F0162F81110E942D
:1005F0009002EC2FF0E0EE0FFF1FE551FE4FA591AA
:10060000B4918FB7F894EC91111108C0D095DE2306
:10061000DC938FBFDF91CF911F910895DE2BF8CF30
:10062000CF93DF9390E0FC01E45FFD4F24918B506A
:100630009E4FFC0184918823C9F090E0880F991F98
:10064000FC01E154FE4FA591B491FC01E551FE4F30
:10065000C591D49161110DC09FB7F8948C912095EC
:1006600082238C938881282328839FBFDF91CF9199
:100670000895623051F49FB7F8943C91822F809591
:1006800083238C93E8812E2BEFCF8FB7F894EC91D6
:100690002E2B2C938FBFEACF4F925F926F927F9257
:1006A0008F929F92AF92BF92CF92DF92EF92FF9282
:1006B0000F931F93CF93DF9300D000D01F92CDB73D
:1006C000DEB78C012A013B0180910A018630C9F016
:1006D0008F3F09F4B6C00F900F900F900F900F90BE
:1006E000DF91CF911F910F91FF90EF90DF90CF900E
:1006F000BF90AF909F908F907F906F905F904F9042
:100700000895E0EEF1E084918D8387FDE4CF61E010
:1007100086E00E9410038D81882321F09D81923014
:1007200009F04FC14801B12CA12C60E072E18AE7C9
:1007300090E0A50198010E94953429833A834B8368
:100740005C8369017A0181E0C81AD108E108F108E7
:100750009FEFC916D104E104F10409F00CF412C1B1
:1007600060E472E48FE090E0A50198010E94953466
:1007700069017A0181E0C81AD108E108F1089D8178
:10078000923009F07BC18FEFC816D104E104F10467
:1007900009F00CF4D0C160E970ED83E090E0A501B0
:1007A00098010E94953469017A0191E0C91AD10833
:1007B000E108F1088FEFC816D104E104F10409F053
:1007C0000CF4BBC168E478EE81E090E0A5019801EB
:1007D0000E94953469017A0191E0C91AD108E108B3
:1007E000F1088FEFC816D104E104F10411F00CF008
:1007F00099C084E09091B100987F892B8093B100DB
:100800002FEF3FEFA901411451046104710409F075
:10081000CAC09D81913009F4FEC0923009F41EC116
:10082000911159CFC7BC20939B0630939C064093EF
:100830009D0650939E0680916E00826080936E00AC
:100840004ACF86E080930A01E0EEF1E094919D8327
:100850009F3F09F440CF913029F158F0923009F4CC
:100860003FC08D8187FD37CF61E086E00E94100395
:1008700055CF14BC15BC84B5826084BD85B581603C
:1008800085BDEBEFF1E0E491F0E0EE0FFF1FE551E5
:10089000FE4F85919491E2E1F2E0E491E0939206BB
:1008A0001D8235CF109280001092810080918100CE
:1008B00088608093810080918100816080938100B5
:1008C000EBEFF1E0E491F0E0EE0FFF1FE551FE4F9A
:1008D00085919491E2E1F2E0E491E093910617CFE3
:1008E0001092B0001092B1008091B00082608093AD
:1008F000B0008091B10081608093B100EBEFF1E036
:10090000E491F0E0EE0FFF1FE551FE4F85919491C9
:100910009093900680938F06E2E1F2E0E491E093F9
:100920008E06F5CE64E274EF80E090E0A5019801B8
:100930000E94953469017A0191E0C91AD108E10851
:10094000F1088FEFC816D104E104F10409F008F4AE
:10095000F6C062E17AE780E090E0A50198010E948C
:10096000953469017A0191E0C91AD108E108F108CA
:100970008FEFC816D104E104F10411F008F0C9C0EA
:1009800086E038CF81E09D81911134CF95B5987F75
:10099000892B85BD2FEF3FEFA9014114510461045C
:1009A000710409F43FCFD801AA0FBB1FA301920124
:1009B0000E94B43428EE33E040E050E00E94FE3460
:1009C00028CFB12CA12C60E072E18AE790E0A5016C
:1009D00098010E94953469017A0181E0C81AD10812
:1009E000E108F108C114D10491E0E906F1042CF505
:1009F00091E08D81813009F003CF80918100887F63
:100A0000892B809381002FEF3FEFA90141145104FE
:100A10006104710441F6D0928900C092880020934D
:100A20009706309398064093990650939A068091C2
:100A30006F00826080936F004ECE68E478EE81E0B4
:100A400090E0A50198010E94953469017A0181E046
:100A5000C81AD108E108F10893E0CBCFC092B300E7
:100A600020939306309394064093950650939606F0
:100A7000809170008260809370002DCE82E09FEFA5
:100A8000C916D104E104F10409F00CF47CCF68E448
:100A900078EE81E090E0A50194010E94953469010F
:100AA0007A0191E0C91AD108E108F1088FEFC81660
:100AB000D104E104F10409F014F483E064CF62E1AD
:100AC0007AE780E090E0A50194010E9495346901E5
:100AD0007A0181E0C81AD108E108F10884E09FEFAB
:100AE000C916D104E104F10409F008F44CCFC9801F
:100AF000DA80EB80FC808AE0F594E794D794C79481
:100B00008A95D1F791E0C91AD108E108F10885E08A
:100B10003ACFC980DA80EB80FC809AE0F594E794C4
:100B2000D794C7949A95D1F781E0C81AD108E10803
:100B3000F10887E05FCE82E05DCE83E05BCE85E0AA
:100B400059CE8E50806480937C0080917A008064BE
:100B500080937A0080917A0086FDFCCF80917800A6
:100B60009091790008958230910538F0880F991F8F
:100B7000880F991F05970197F1F708953FB7F894EB
:100B80008091590690915A06A0915B06B0915C063F
:100B900026B5A89B05C02F3F19F00196A11DB11DD8
:100BA0003FBFBA2FA92F982F8827BC01CD01620F14
:100BB000711D811D911D42E0660F771F881F991FCF
:100BC0004A95D1F708958F929F92AF92BF92CF929C
:100BD000DF92EF92FF926B017C010E94BE054B01F8
:100BE0005C01C114D104E104F104B9F00E94BE0516
:100BF000681979098A099B09683E73408105910546
:100C000080F321E0C21AD108E108F10888EE880ECD
:100C100083E0981EA11CB11CE4CFFF90EF90DF9001
:100C2000CF90BF90AF909F908F9008952FB7F8947A
:100C3000609155067091560680915706909158061E
:100C40002FBF08954F925F926F927F929F92AF92C3
:100C5000BF92CF92DF92EF92FF920F931F93CF93A9
:100C6000DF9300D01F92CDB7DEB7D090B40680914D
:100C7000B7069091B806A091B906B091BA06892B33
:100C80008A2B8B2BD9F00E94BE050091B0061091E3
:100C9000B1062091B2063091B306601B710B820B36
:100CA000930B0091B7061091B8062091B9063091C8
:100CB000BA066017710782079307C8F20E94BE0543
:100CC0006093B0067093B1068093B2069093B3061A
:100CD000E091BF06F091C006309759F04091BB06F5
:100CE0005091BC066091BD067091BE068D2D099590
:100CF000D82EE090AE06F090AF064D2C512C712C02
:100D0000612CE114F10409F459C0D7011C96CC9070
:100D10001C978091B5069091B6068436910510F423
:100D20001C961C92D701ED91FC91A280B380198290
:100D30001A821B82DD2079F1F701369610E000E07F
:100D40002191222319F19280992001F130E050E0A5
:100D500040E02F5F3F4F4F4F5F4FC301B2010E94F2
:100D600013369B01AC01892D90E0B0E0A0E0BC01FE
:100D7000CD016F5F7F4F8F4F9F4F0E941336A1E0D1
:100D8000B0E0AC0FBD1FA00FB11F8C930F5F1F4FC2
:100D900003301105A9F609811A812B81F7014585D8
:100DA000568562817381C701F5010995D7011C96AB
:100DB000CC921C971496ED90FC90A3CF8091AC063A
:100DC0009091AD068C010F5F1F4F1093AD060093FD
:100DD000AC064997B4F10E941606C090A806D090C0
:100DE000A906E090AA06F090AB069B01AC012C1975
:100DF0003D094E095F0921F421E030E040E050E078
:100E000088EE93E0089FB001099F700D189F700D48
:100E10001124072E000C880B990B0E94FE3430938E
:100E2000B6062093B5061092AD061092AC060E944D
:100E300016066093A8067093A9068093AA0690935D
:100E4000AB060F900F900F90DF91CF911F910F91F4
:100E5000FF90EF90DF90CF90BF90AF909F907F90EA
:100E60006F905F904F90089581E0809352060895AF
:100E700081E080934F06089508950895089580E9CC
:100E800091E0089590910A0189130BC0E0EEF1E022
:100E9000E4919FEF90930A01E13049F028F0E230AD
:100EA00061F060E00C94E20210926E00FACF909133
:100EB0006F009D7F90936F00F4CF909170009D7FA5
:100EC0009093700091E09093B0009091B100987F62
:100ED00094609093B1001092B300E3CFAF92BF92B1
:100EE000CF92DF92EF92FF920F931F93CF93DF93F6
:100EF0006C017B018B01040F151FEB015E01AE1825
:100F0000BF08C017D10759F06991D601ED91FC9146
:100F10000190F081E02DC6010995892B79F7C50173
:100F2000DF91CF911F910F91FF90EF90DF90CF90C5
:100F3000BF90AF9008954115510529F4EAE7F0E01C
:100F400080818F7780836A307105B9F0CB01880F7B
:100F5000991F880F991F807267706860682B88E1FD
:100F60000FB6F894A895809360000FBE6093600060
:100F7000E0E6F0E0808180648083232BD9F483B79E
:100F8000817F846083BFF89483B7816083BF85B716
:100F9000806685BF8F7D85BF7894889583B78E7F67
:100FA00083BF7894452B29F4EAE7F0E080818068DC
:100FB0008083089583B7817F846083BFF89483B76B
:100FC000816083BF7894889583B78E7F83BF789440
:100FD000E9CFFC0183858F3F19F061E00C94E202B8
:100FE0000895FC0180819181892B39F0A281B38120
:100FF0009C9111968C919CBD8DBD83858F3F19F07E
:1010000060E00C94E2020895AF92BF92CF92DF921B
:10101000EF92FF920F931F93CF93DF93EC018881A0
:101020009981892B89F06EBD0DB407FEFDCFBEB44A
:101030008B2DDF91CF911F910F91FF90EF90DF905B
:10104000CF90BF90AF9008958885998511E0892B46
:1010500009F010E8AA24A394862F812309F0A12C7B
:10106000062F2C813D814E815F8160E271EA87E02D
:1010700090E00E94FE34F22EB02EE12CC22ED12C34
:10108000FF2019F0C6010E94B3058A85877F09F009
:1010900042C08D858F3F89F0902F912381E009F424
:1010A00080E08A1551F0EF85F8898F89992369F1DD
:1010B0009081892B8083AA24A394E989FA8980816D
:1010C000998D892B8083FF2019F0C6010E94B305FA
:1010D0008E858F3F39F0EB89FC898081988D89233B
:1010E00009F0E12AE989FA899081898D809589231F
:1010F00080838E858F3F09F0BE2C88859985892B4A
:10110000B9F5110F1111BCCF93CF90818095892330
:101110008083A12CD2CFE989FA898081998D892B8E
:101120008083FF2019F0C6010E94B3058D858F3F93
:1011300049F0EF85F8898F89902F9123A9F090814C
:10114000892B8083E989FA899081898D809589230B
:1011500080838E858F3F69F2EB89FC898081988D31
:10116000892339F2E12AC5CF908180958923E9CF7F
:101170001695C8CF8F929F92AF92BF92CF92DF9277
:10118000EF92FF920F931F93CF93DF937C014B015C
:101190006A01B22EA32E0E94F107E401C80CD91CEB
:1011A000CC15DD0569F4CB2DDA2D0C0F1D1FC017F2
:1011B000D10759F06FEFC7010E9404088993F7CF58
:1011C0006991C7010E940408EBCFC7010E94E9079B
:1011D00081E0DF91CF911F910F91FF90EF90DF9011
:1011E000CF90BF90AF909F908F9008958F929F92D5
:1011F000AF92BF92CF92DF92EF92FF920F931F9325
:10120000CF93DF937C01B62EA72E6A0149010E947D
:10121000F107E401080D191DC017D10761F4CB2DAA
:10122000DA2DCC0EDD1ECC15DD0551F06991C7011C
:101230000E940408F8CF6991C7010E940408ECCF0E
:10124000C7010E94E90781E0DF91CF911F910F91C3
:10125000FF90EF90DF90CF90BF90AF909F908F90D6
:1012600008951F93CF93DF93EA01122FDC011196AB
:101270008D919C91DC01ED91FC910280F381E02D38
:101280000995C817D90729F4812F0E94660191E0BA
:10129000811190E0892FDF91CF911F910895AF9236
:1012A000BF92CF92DF92EF92FF920F931F93CF9353
:1012B000DF9300D0CDB7DEB7DC01211103C0189653
:1012C0002C911897253008F043C01F964D935D93DD
:1012D0006D937C93529790E080E0E22EF12C8E1576
:1012E0009F05B4F41A962C911A9721110AC0FD019A
:1012F000E80FF91F4387452F562F672F7727019651
:10130000EECFF701E81BF90BEA0FFB1F4287F3CF83
:101310006D018BE0C80ED11C16969C9116971796FE
:101320008C91179799838A83AD90BC901197A114E3
:10133000B10409F441C019960C9110E098012E0DEA
:101340003F1DD50114968D919C918217930710F43F
:1013500080E016C0F50181819281208131E03093D7
:101360006A0620938C0610926B0610928D0601156A
:10137000110599F421E0A701B601C5010E943109C8
:101380000F900F90DF91CF911F910F91FF90EF90F1
:10139000DF90CF90BF90AF900895DC01ED91FC916C
:1013A0000280F381E02DA801BE016F5F7F4F099598
:1013B0000817190769F6DECF1296ED91FC91139785
:1013C000309731F214962D913C91159719960C9106
:1013D00010E02330310571F48E7F89839A830F5F8B
:1013E0001F4F9E012F5F3F4FA701B601CF010E9403
:1013F000F608C6CF2115310519F49F779983F1CFEF
:101400002230310511F49068F9CF2130310549F7C8
:101410009F779064F3CF85ED8093BC008091BC00F2
:1014200084FDFCCF1092690608952091D005260F07
:101430003327331F21323105ECF420916906FC017A
:1014400090E080E0243069F082E00895A091D0051A
:101450002191AC0140555A4FA40FB52FB11D2C93CB
:101460000196861798F38091D005680F6093D00598
:1014700080E0089581E008951092690681E08093EC
:1014800068061092610661E082E10E94E20261E07A
:1014900083E10E94E202E9EBF0E080818E7F8083AD
:1014A00080818D7F808388E48093B80085E4809379
:1014B000BC000895CF93DF93EC018B818823A1F0CA
:1014C000888191E090936A0680938C0610926B0657
:1014D00010928D0681E00E94660191E0811190E0FA
:1014E000892FDF91CF910895109234061092330620
:1014F00010926B0610928D060E943C0A8DE397E0D5
:1015000090933206809331068EE397E090933006F5
:1015100080932F0681E08B83CE010E945A0A982F78
:101520008111CECFDDCF0895E0913406809133064E
:10153000E81730F4F0E0ED50FA4F808190E0089524
:101540008FEF9FEF089590913406809133062FEF2F
:101550003FEF981748F4E92FF0E0ED50FA4F208163
:1015600030E09F5F90933406C9010895809133065F
:1015700090913406891B990B0895CF92DF92EF92D8
:10158000FF920F931F93CF93DF937C01CB018A01CE
:1015900020916A06222389F0EB016B01C40ED51E4F
:1015A000CC15DD0569F06991D701ED91FC910190B1
:1015B000F081E02DC7010995F3CF642F0E94150A31
:1015C000C801DF91CF911F910F91FF90EF90DF90B5
:1015D000CF900895CF93DF931F92CDB7DEB7698385
:1015E00020916A062223F9F020918D06203258F0CE
:1015F00021E030E0FC013383228390E080E00F9013
:10160000DF91CF91089580916B06E82FF0E0E459C7
:10161000F94F998190838F5F80936B0680938D063D
:1016200081E090E0ECCF61E0CE0101960E94150AC6
:10163000F7CF20915F06309160062817390771F4C3
:1016400090915D0680915E06981741F0E0915D06ED
:10165000F0E0E059FA4F808190E008958FEF9FEF1E
:1016600008950F931F930E9416066093E5067093EA
:10167000E6068093E7069093E8068DED96E00E94DB
:10168000190B97FF1DC00E9416060091E5061091E8
:10169000E6062091E7063091E806601B710B820B8D
:1016A000930B0091E1061091E2062091E306309140
:1016B000E4066017710782079307F8F28FEF9FEF38
:1016C0001F910F910895EF92FF920F931F93CF9365
:1016D000DF93DC015C96ED90FC905D97E114F104E2
:1016E00079F481E090E013969C938E93129790E0AA
:1016F00080E0DF91CF911F910F91FF90EF900895BF
:101700005196ED91FC91529750968C915097982F4D
:1017100090950FB75E962C915E97122F127021FD57
:101720006095F8942081112319F1282B2083E7017B
:101730002197F1F728E0462F50E0308160FF1AC072
:10174000382B3083E7012197F1F7BA01759567953A
:10175000215089F7112381F08081892380830FBF75
:101760005C968D919C910197F1F781E090E0C1CF5B
:101770002923DCCF3923E5CF9081892BEFCF20912E
:101780005F06309160062817390761F480915E0684
:1017900020915D0690E0805C9F4F821B91098F73C2
:1017A0009927089590E080E0089520915F06309198
:1017B000600628173907B9F490915D0680915E069E
:1017C000981789F0E0915D06F0E0E059FA4F8081CA
:1017D00020915D0630E02F5F3F4F2F73332720931A
:1017E0005D0690E008958FEF9FEF08950F931F938C
:1017F0000E9416066093E5067093E6068093E7065E
:101800009093E8068DED96E00E94D50B97FF1DC0E2
:101810000E9416060091E5061091E6062091E70663
:101820003091E806601B710B820B930B0091E1066F
:101830001091E2062091E3063091E40660177107EB
:1018400082079307F8F28FEF9FEF1F910F91089592
:1018500090E080E008950F931F93CF93DF93209142
:101860006F052F5F322F377030936F0520FF2BC02D
:1018700020E831FD2064347009F02062205FFC0113
:10188000EC01239600E011E06485662329F070E006
:10189000C8010E9423366F5F6187322F369F030E87
:1018A00030E0311D1124311110C01682662311F071
:1018B000615061873196EC17FD0731F7DF91CF91C9
:1018C0001F910F91089520E0D4CF31503683EECF91
:1018D0004F925F927F928F929F92AF92BF92CF92E0
:1018E000DF92EF92FF920F931F93CF93DF932C0120
:1018F000EB010E94BE05F20127853089621B730B44
:101900006A307105B0F3F8948A819B811816190624
:101910000CF0CBC1E881F98105B1086075B1777F22
:1019200075B9BA848F812B2D281B822F2F834F8569
:10193000042E000C550BAA81BB81ED84DC84CE847F
:10194000E394D394C3949E81388599848B841181C8
:1019500020E0F32E622F322F31811127889431112C
:10196000380F08F43FEF81958894E0FC130F17952A
:101970008894E1FC130F17958894E2FC130F1795D8
:101980008894E3FC130F17958894E4FC130F1795C4
:101990008894E5FC130F17958894E6FC130F1795B0
:1019A0008894E7FC130F17958894232FE110212FBB
:1019B0008B0D122F002C05B900C017FF75B93081AF
:1019C0002227889400C000C0002C75B93111390F4E
:1019D00000C0002C05B900C016FF75B908F43FEF30
:1019E0009195889400C000C0002C75B9D0FC230FDD
:1019F00000C0002C05B900C015FF75B92795889463
:101A0000D1FC230F00C000C0002C75B92795889425
:101A100000C0002C05B900C014FF75B9D2FC230F1B
:101A20002795889400C000C0002C75B9D3FC230F03
:101A300000C0002C05B900C013FF75B92795889424
:101A4000D4FC230F00C000C0002C75B927958894E2
:101A500000C0002C05B900C012FF75B9D5FC230FDA
:101A60002795889400C000C0002C75B9D6FC230FC0
:101A700000C0002C05B900C011FF75B927958894E6
:101A8000D7FC230F00C000C0002C75B9279588949F
:101A900000C0002C05B900C010FF75B9132FD1107C
:101AA000122F990D00C000C0002C75B900C000C0F5
:101AB000002C05B900C017FF75B932812227889420
:101AC00000C000C0002C75B931113F0D00C0002CC2
:101AD00005B900C016FF75B908F43FEFE40FF51F14
:101AE00000C000C0002C75B9C0FC230F00C0002C42
:101AF00005B900C015FF75B927958894C1FC230F5F
:101B000000C000C0002C75B92795889400C0002C37
:101B100005B900C014FF75B9C2FC230F279588943E
:101B200000C000C0002C75B9C3FC230F00C0002CFE
:101B300005B900C013FF75B927958894C4FC230F1D
:101B400000C000C0002C75B92795889400C0002CF7
:101B500005B900C012FF75B9C5FC230F27958894FD
:101B600000C000C0002C75B9C6FC230F00C0002CBB
:101B700005B900C011FF75B927958894C7FC230FDC
:101B800000C000C0002C75B92795889400C0002CB7
:101B900005B900C010FF75B9132FC110122FF194B1
:101BA00000C000C0002C75B9F80C00C000C005B919
:101BB00000C017FF75B931812227889400C000C08A
:101BC000002C75B93111380F00C0002C05B900C0C8
:101BD00016FF75B908F43FEF8195889400C000C0E6
:101BE000002C75B9E0FC230F00C0002C05B900C023
:101BF00015FF75B927958894E1FC230F00C000C03C
:101C0000002C75B92795889400C0002C05B900C038
:101C100014FF75B9E2FC230F2795889400C000C01B
:101C2000002C75B9E3FC230F00C0002C05B900C0DF
:101C300013FF75B927958894E4FC230F00C000C0FA
:101C4000002C75B92795889400C0002C05B900C0F8
:101C500012FF75B9E5FC230F2795889400C000C0DA
:101C6000002C75B9E6FC230F00C0002C05B900C09C
:101C700011FF75B927958894E7FC230F00C000C0B9
:101C8000002C75B92795889400C0002C05B900C0B8
:101C900010FF75B9132FE110122F8B0D00C000C07B
:101CA000002C75B9119709F086CE4A815B8120EE30
:101CB00031E0DA010E943736DC01CB01F4E0B69561
:101CC000A79597958795FA95D1F730E020E0B9016F
:101CD000EAE94E9F040E611D5E9F600D711D112487
:101CE000650F711D860F971FA11DB11D893E43E031
:101CF0009407A105B10508F434C0885E9340A1099A
:101D0000B10942E0B695A795979587954A95D1F781
:101D100047E0849F080E211D949F200D311D112442
:101D2000290F311D60916E0570E0860F971F820F9D
:101D3000931F409155065091560660915706709139
:101D40005806292F3327420F531F611D711D4093E1
:101D50005506509356066093570670935806809325
:101D60006E0578940E94BE05F201708B6787DF9143
:101D7000CF911F910F91FF90EF90DF90CF90BF9088
:101D8000AF909F908F907F905F904F90089581E0EB
:101D900090E00895239A08956F927F928F92CF9248
:101DA000DF92EF92FF920F931F93CF93DF93CDB704
:101DB000DEB762970FB6F894DEBF0FBECDBF6C01E1
:101DC0007A013801822EDC011C962C91CA0157FF42
:101DD00004C088279927841B950B7A8369839C8389
:101DE0008B839E838D836D867E868F86213049F519
:101DF000CE0101960E942B0C83E0888B1A8A198AE7
:101E0000F7FE02C08DEF888BD601ED91FC91068420
:101E1000F785E02DBE016F5F7F4FC6010995629681
:101E20000FB6F894DEBF0FBECDBFDF91CF911F91EB
:101E30000F91FF90EF90DF90CF908F907F906F90F9
:101E400008951C861B861A86198618861F82D4CF91
:101E5000EF92FF920F931F93CF93DF93CDB7DEB72F
:101E600062970FB6F894DEBF0FBECDBF7C01DC01D8
:101E70001C968C917A8369835C834B835E834D834C
:101E80000D871E872F878130F9F4CE0101960E94BD
:101E90002B0C188A1A8A198AD701ED91FC910684B5
:101EA000F785E02DBE016F5F7F4FC70109956296F0
:101EB0000FB6F894DEBF0FBECDBFDF91CF911F915B
:101EC0000F91FF90EF9008951C861B861A86198645
:101ED00018861F82DECFEF92FF920F931F93CF934E
:101EE000DF9300D000D000D0CDB7DEB78EE4809372
:101EF0007C0065E070E080E090E00E94E305809166
:101F00007A00806480937A0080917A0086FDFCCF0D
:101F1000809178009091790080917A00806480931C
:101F20007A0080917A0086FDFCCF809178009091B4
:101F300079008E010F5F1F4F7E0147E0E40EF11C18
:101F400080917A00806480937A0080917A0086FD87
:101F5000FCCF8091780090917900F8018193919362
:101F60008F0188EC90E00E94B305E016F10641F77E
:101F700049815A812B813C818D819E8124173507AF
:101F800018F58217930728F09A018217930708F42F
:101F90009C01C901C2978E3C9340D8F450E040E0C8
:101FA00064EB7BE281E190E00E94FE34C901269659
:101FB0000FB6F894DEBF0FBECDBFDF91CF911F915A
:101FC0000F91FF90EF90089584179507F0F69A010E
:101FD000E0CF90E080E0EBCFCF92DF92EF92FF92E4
:101FE0000F931F93CF93DF93CDB7DEB72F970FB625
:101FF000F894DEBF0FBECDBF80915106882309F44F
:1020000054C08091150190911601A0911701898308
:102010009A83AB838E010F5F1F4F6E0184E0C80E61
:10202000D11CF801F1908F0161E08F2D0E94E20236
:102030006EE571E080E090E00E94E30560E08F2DA6
:102040000E94E202C016D10661F7F98061E08F2D8F
:102050000E94E2020A8161E0802F0E94E2021B815D
:1020600061E0812F0E94E2026EE571E080E090E085
:102070000E94E30560E08F2D0E94E20260E0802F65
:102080000E94E20260E0812F0E94E2022F960FB6CA
:10209000F894DEBF0FBECDBFDF91CF911F910F919E
:1020A000FF90EF90DF90CF9008958FEF89831A8291
:1020B0001B821C8290E89D831E821F82188689875E
:1020C0008A878B878C878E010F5F1F4F7E01FDE013
:1020D000EF0EF11CC8010E944E010E9422066EE51F
:1020E00071E080E090E00E94E3050D5F1F4F0E1548
:1020F0001F0581F71D861E861F86C8010E944E019E
:102100000E942206C3CF8F929F92AF92BF92CF922E
:10211000DF92EF92FF920F931F936B017C010E945D
:1021200016060091690510916A0520916B053091A2
:102130006C050115110521053105C9F08090650573
:1021400090906605A0906705B09068058C149D047A
:10215000AE04BF0461F4AB01BC01401B510B620B28
:10216000730B81E0403A5F406105710508F080E043
:102170001F910F91FF90EF90DF90CF90BF90AF90A5
:102180009F908F900895CF9390910301C091020189
:10219000882349F061E0892F0E94E20260E08C2FE1
:1021A000CF910C94E20260E0892F0E94E20261E08C
:1021B000F6CF60E0809103010E94E20260E080912E
:1021C00002010C94E202CF93DF93EB010E94C31053
:1021D000BE0190E080E00E94E305DF91CF910C9476
:1021E000D910EF92FF920F931F93CF93DF9302E5E5
:1021F00011E08CE3E82E81E0F82EF80181919191B5
:102200008F01F701C191D1917F01009729F0AE01B3
:1022100070E060E00E944C036496BE0190E080E0B4
:102220000E94E305F1E008361F0739F786E0DF91E9
:10223000CF911F910F91FF90EF900C944207CF9395
:10224000C0915106CC23C9F0FC012081211108C0A6
:102250002181211105C0C1E08281811101C0C0E04E
:102260006C2F87E00E94E2026C2F88E00E94E2025D
:102270006C2F89E0CF910C94E2020E944E01CF9125
:102280000C942206AF92BF92CF92DF92EF92FF9210
:102290000F931F93CF93DF9300D01F92CDB7DEB77C
:1022A0005C01062F10E06A01F12CE12CC5010E94AF
:1022B0001F11C701B6010E94E30519821A821B8211
:1022C000CE0101960E941F1160E570E080E090E071
:1022D0000E94E3051F5F0113E9CF0F900F900F904D
:1022E000DF91CF911F910F91FF90EF90DF90CF90F2
:1022F000BF90AF900895CF92DF92EF92FF926C0162
:10230000CB01F12CE12CB701A6010E944C03C701BF
:10231000B6010E94E30586E0FF90EF90DF90CF903A
:102320000C94420790E080E00895FC018585968535
:1023300008950F931F93CF93DF9300D01F92CDB7D3
:10234000DEB7AB0119821A821B82DC01ED91FC9190
:102350000190F081E02D00E010E020E0BE016F5F11
:102360007F4F09950F900F900F90DF91CF911F91A4
:102370000F9108952F923F924F925F926F927F92AA
:102380008F929F92AF92BF92CF92DF92EF92FF9285
:102390000F931F93CF93DF9300D0CDB7DEB7FC012F
:1023A0004B01042F9681878199838A83C080D180D5
:1023B000C114D10409F4B8C0418550E0D601149687
:1023C0008D919C9184179507B8F4312C832D0F9033
:1023D0000F90DF91CF911F910F91FF90EF90DF90C1
:1023E000CF90BF90AF909F908F907F906F905F90B5
:1023F0004F903F902F900895F601808191E0909347
:102400006A0680938C0610926B0610928D0620E06F
:10241000BE016F5F7F4FC6010E943109382E8823AD
:10242000A1F210E0B12CA12C22242394A016B10615
:1024300068F6809169068111FCCFD60114968D91C2
:102440009C917801EA18FB088E159F0508F47C0121
:10245000F60190818E2D813208F080E2209269068B
:1024600041E098012E193F09A216B30608F440E096
:1024700040936806FFEFF093670623EF35E0309353
:10248000660620936506109264062FEF280F2093AE
:1024900063062092620620916206990F922B909318
:1024A0006206909161069130C1F51092610690919B
:1024B00062069093BB009091BC0093FDF8CF35EC81
:1024C0003093BC00909169069130E1F390916406DD
:1024D000981710F4809164061092340680933306A6
:1024E0008E151F0409F071CF34016A0C7B1C230187
:1024F000C201861997098E159F0598F4D601119689
:102500008D919C91DC01ED91FC910284F385E02D8D
:102510000995F20181932F01EBCF95EE9093BC00CA
:10252000D1CFAE0CBF1C82CFA281B381109709F42A
:102530004CCF2481358110E0418550E023303105B6
:1025400071F4816089839A834F5F5F4F9401BE016C
:102550006F5F7F4FCD010E94BA08382E37CF21150B
:10256000310519F490689983F1CF2230310511F4C7
:102570009F77F9CF2130310549F7906CF4CFEF9276
:10258000FF920F931F93CF93DF93CDB7DEB7A6973C
:102590000FB6F894DEBF0FBECDBF8091CD069091EF
:1025A000CE061BA21CA21DA21EA29D8B8C8B1F8A75
:1025B0001E8A11E01D8F85E090E09B8F8A8F1E8F11
:1025C00002E00C8F4091D1065091D2066091D30663
:1025D0007091D40622E0CE0144960E944F0980916A
:1025E000CD069091CE06188A198A1A8A1B8A9A8378
:1025F00089831C821B821A8784E090E098878F83EE
:102600001B87098742E0BE01645F7F4FCE010196C0
:102610000E94BA11882341F0EC84FD849B859923A4
:1026200019F0FE24EF24FE248093CF06C701A6965E
:102630000FB6F894DEBF0FBECDBFDF91CF911F91D3
:102640000F91FF90EF9008958F929F92AF92BF925B
:10265000EF92FF920F931F93CF93DF93EC014A0108
:102660005B01E880F980B701655F7F4FF701408526
:10267000C7010E94BA11882309F1F701608570E053
:1026800030E020E080E090E0DC0126173707CCF452
:10269000BA2FA92F982F8827F701428541110AC028
:1026A000FB01E21BF30BEE0DFF1D4285842B2F5F18
:1026B0003F4FEBCFE20FF31F4385F8CF8FEF9FEF34
:1026C000DC012A8101E010E002C0000F111F2A95F1
:1026D000E2F701501109012E000C220B330BEB81A4
:1026E000B901A8010E2E04C0440F551F661F771FA5
:1026F0000A94D2F740955095609570958423952360
:10270000A623B7230990D881C02DB901A80148217B
:1027100059216A217B2104C0440F551F661F771F72
:10272000EA95D2F7482B592B6A2B7B2B2885CE01B3
:10273000DF91CF911F910F91FF90EF90BF90AF90DD
:102740009F908F900C944F09CF93DF93CDB7DEB756
:1027500067970FB6F894DEBF0FBECDBF2091CD06B0
:102760003091CE06188A198A1A8A1B8A3A832983DD
:102770001C821B8291E09A8718861F829B8792E0B9
:1027800099879E012F5F3F4F3D8B2C8B93E09E8B53
:102790001F8A40E050E0BA01811104C047E050E0D8
:1027A00060E070E0CE0144960E9424138093CF062F
:1027B00067960FB6F894DEBF0FBECDBFDF91CF9105
:1027C00008954F925F926F927F928F929F92AF92F5
:1027D000BF92CF92DF92EF92FF92CF93DF93C82FF9
:1027E000109262051092640510926305809138067C
:1027F000811128C068EE73E08C2F0E94E310809155
:102800006205882309F4A4C068E572E080E090E0E6
:102810000E94E3050E946B0F01976AEF70E08B3C0A
:10282000904108F0A4C0DF91CF91FF90EF90DF902E
:10283000CF90BF90AF909F908F907F906F905F9060
:102840004F90089580E00E94A4138C2F0E94C31023
:102850000E9416066B017C010E9416066C197D0908
:102860008E099F09603177428105910508F06AC0A1
:10287000D9E1812C912C54010E94BF12BC01990F07
:10288000880B990B0E945F332B013C016091D506A8
:102890007091D6068091D7069091D8060E945D333C
:1028A0009B01AC01C301B2010E949C359B01AC01AC
:1028B000C501B4010E9430354B015C01D150E1F6F5
:1028C0000E9416066C197D098E099F096D327140B0
:1028D0008105910588F020E030E048EC51E4C50125
:1028E000B4010E949C359F7720E030E046E953E434
:1028F0000E940E36181634F10E9416066C197D09D6
:102900008E099F096D3271408105910508F4A4CFAD
:102910000E946B0F009771F0209163053091640560
:102920002115310519F08217930720F4909364055F
:102930008093630501978B3C904108F08DCF81E037
:10294000809362050E94D91081E00E94A41357CFA2
:102950006EE571E080E090E00E94E3050E946B0F5D
:1029600001978B3C904108F45ECF64E873E081E00E
:102970008C27DF91CF91FF90EF90DF90CF90BF90A9
:10298000AF909F908F907F906F905F904F900C943E
:10299000E3100E943A38CF93DF93DC0114962D9117
:1029A0003C911597232B79F0FB01CD91DC9160814F
:1029B0007181CE010E946538009729F08C1B9D0B18
:1029C000DF91CF9108958FEF9FEFFACFFB01448104
:1029D0005581FC01248135812417350778F08081E9
:1029E0009181009759F0FB0160817181611571053A
:1029F00029F00E94573821E0892B09F020E0822F2E
:102A000008950F931F93CF93DF93EC0188819981F1
:102A1000009759F02A813B812617370730F081E073
:102A2000DF91CF911F910F9108958B016F5F7F4FC1
:102A30000E947D37009759F0998388831B830A830E
:102A40002C813D81232B59F7FC011082E8CF80E0D7
:102A5000E7CFFC0180819181009711F00C94F4364E
:102A60000895FB0101900020E9F73197AF01461B63
:102A7000570BDC01ED91FC910280F381E02D09946C
:102A8000BC0180910001909101010E94311580915B
:102A9000000190910101DC01ED91FC910190F08128
:102AA000E02D6AE009958091000190910101DC011F
:102AB000ED91FC910680F781E02D09956CE070E0C6
:102AC00080E090E00C94E30586EC91E00E944015D4
:102AD00066E970E080E090E00E94E30586EC91E01A
:102AE0000C944015CF92DF92EF92FF92CF93C4E007
:102AF0008DED96E00E94BF0B892B29F08DED96E0BD
:102B00000E94D50BF5CF69EC71E08DED96E00E9447
:102B100031150E9416066B017C010E9416066C1985
:102B20007D098E099F096A3F71058105910540F471
:102B30008DED96E00E94BF0B892B79F381E003C0F5
:102B4000C150B1F680E0CF91FF90EF90DF90CF9031
:102B500008950F931F93CF93DF938C01EB0183E0D4
:102B60000E94B9020197A9F16DE08DED96E00E94F7
:102B7000630B6CE070E080E090E00E94E305B80138
:102B80008DED96E00E9431156DE08DED96E00E948E
:102B9000630B69E170E080E090E00E94E305B8011A
:102BA0008DED96E00E9431156DE08DED96E00E946E
:102BB000630BBE0190E080E00E94E3058DED96E09E
:102BC0000E94BF0B892B29F08DED96E00E94D50B5A
:102BD000F5CFDF91CF911F910F9108950F931F9320
:102BE000CF93DF93CDB7DEB72C970FB6F894DEBF47
:102BF0000FBECDBF7F936F939F938F938DEC91E02A
:102C00009F938F931F928CE08F938E010F5F1F4FC6
:102C10001F930F930E947F3866E970E0C8010E94FD
:102C2000A9150FB6F894DEBF0FBECDBF2C960FB618
:102C3000F894DEBF0FBECDBFDF91CF911F910F91F2
:102C400008954F925F926F927F92BF92CF92DF92E0
:102C5000EF92FF920F931F93CF93DF93CDB7DEB721
:102C6000C054D1090FB6F894DEBF0FBECDBF80911E
:102C70005106882309F445C066E970E084ED91E0CF
:102C80000E94A91566E970E08DED91E00E94A915FA
:102C900082E496E020914206222309F48EC09F939D
:102CA0008F9386EE91E09F938F931F9288E18F938D
:102CB0006E0129E2C20ED11CDF92CF920E947F38B2
:102CC0000FB6F894DEBF0FBECDBF03E088E2B82E8A
:102CD000FE0131967F0168EC70E0C6010E94A915E3
:102CE00083E00E94B902019709F467C08DED96E078
:102CF0000E94BF0B892B01F18DED96E00E94D50B50
:102D0000F5CF83E00E94B902019709F0B5CFC05C0E
:102D1000DF4F0FB6F894DEBF0FBECDBFDF91CF916E
:102D20001F910F91FF90EF90DF90CF90BF907F9019
:102D30006F905F904F90089560EF71E08DED96E099
:102D40000E943115F7012B2D11922A95E9F70E9467
:102D500016062B013C0110E00E9416066419750945
:102D600086099709603971408105910590F48DEDD0
:102D700096E00E94BF0B892B79F3173268F78DED2F
:102D800096E00E94D50BF701E10FF11D80831F5FD4
:102D9000E3CF112391F06AEF71E0C7010E9465381B
:102DA000BC0140E0892B09F086C062E476E0C701EF
:102DB0000E946538892B09F4B8C066E970E08FEF8E
:102DC00091E00E94A91566E970E088E092E00E9417
:102DD000A91566E970E081E192E00E94A91566E913
:102DE00070E08AE192E00E94A91580915106882343
:102DF00009F471C066E970E083E292E00E94A915CF
:102E000066E970E08CE292E00E94A91566E970E044
:102E100085E392E00E94A91566E970E08EE392E0F6
:102E20000E94A91566E970E087E492E00E94A91566
:102E300066E970E080E592E00E94A91566E970E01D
:102E40008BE592E00E94A91566E970E086E792E0C2
:102E50000E94A91580913606813009F458CF8091DF
:102E600037068150833008F052CF8091510681118E
:102E700005C08091080190E08C3011F486E090E06C
:102E80009F938F938FE792E09F938F931F928EE093
:102E90008F938E010F5F1F4F1F930F930E947F38F8
:102EA00066E970E0C8010E94A9150FB6F894DEBF6C
:102EB0000FBECDBF2CCF242F30E0F901EE5BF94FD0
:102EC0008081260F371FF9019481882329F1891306
:102ED0002CC04F5FF0CF8091080100E210E08C30F1
:102EE00079F09DEF980F10E000E09A3048F483509D
:102EF000990B01E010E002C0000F111F8A95E2F764
:102F0000B80186E692E00E94EE15B80168608EE690
:102F100092E00E94EE1598CF992309F44ECF9D3090
:102F200009F44BCF9A3009F448CF015009F0D3CEC1
:102F300044CFEF92FF920F931F93CF93DF93EC0157
:102F40007B01198218821B821A821D821C82FB015E
:102F500001900020E9F731978F01061B170BB8018C
:102F60000E94011528813981811113C02115310575
:102F700019F0C9010E94F436198218821D821C8240
:102F80001B821A82DF91CF911F910F91FF90EF90DA
:102F900008951D830C83B701C901DF91CF911F9163
:102FA0000F91FF90EF900C945038CF92DF92EF92F8
:102FB000FF920F931F93CF93DF93EB017B0124E0EC
:102FC000E20EF11C8B016C01C61AD70AC601800FF4
:102FD000911F0E947F34F80181938F01EE15FF0548
:102FE000A9F7CE01DF91CF911F910F91FF90EF9044
:102FF000DF90CF9008950F931F93CF93DF938C01B1
:10300000EB010E947F348883C80101960E947F34BF
:103010008983CE01DF91CF911F910F9108950C9478
:103020007F341F93CF93DF93EC01162F0E947F34E0
:10303000181739F0612FCE01DF91CF911F910C94B9
:103040008734DF91CF911F9108954F925F926F92D5
:103050007F928F929F92AF92BF92CF92DF92EF9228
:10306000FF921F93CF93DF9300D01F92CDB7DEB7AF
:103070006EE170E080E090E00E94E30582E00E9453
:10308000B902892B09F095C00E9416062B013C015C
:10309000812C912C540116E982E00E94B902892BFF
:1030A00009F069C00E941606641975098609970916
:1030B000603127E272078105910598F160E173E0C4
:1030C00088E790E00E947B1163E972E088E790E076
:1030D0000E947B116BE072E088E790E00E947B1118
:1030E00068E871E088E790E00E947B118FEF8983A8
:1030F0001A821B8248E750E063E0CE0101960E94ED
:10310000421160E08EE893E00E94111888E198E097
:103110000FB6F894A895809360000FBE909360005E
:10312000FFCF28EE33E040E050E00E94FE3469011A
:103130007A0183E0C816D104E104F104C8F0C81490
:10314000D904EA04FB0459F0129FB001139F700DDB
:10315000112460557B4F88E290E00E947B116AE069
:1031600070E080E090E00E94E3054601570194CFB3
:1031700075016401F4CF0E94160664197509860969
:103180009709603273408105910530F5F0906D0527
:1031900081E0F826F0926D0568E077E0FF2011F0FD
:1031A00060E679E082E390E00E947B118F2D0E941F
:1031B000E1130F900F900F90DF91CF911F91FF902F
:1031C000EF90DF90CF90BF90AF909F908F907F90C7
:1031D0006F905F904F90089564EF71E088E790E002
:1031E0000E947B11E6CFCF93C82F80934106682FB2
:1031F00083E090E00E94111861E084E090E00E947A
:10320000111868E27AE08CE390E00E947B1168EE8E
:1032100073E080E090E00E94E30586EC91E00E947C
:10322000401566E970E080E090E00E94E30587ECDD
:1032300091E0CC2311F08EEC92E00E94401580E0EA
:103240000E94E113CC2349F06CE271E080E090E051
:103250000E94E30581E00E94E11360ED77E080E5E4
:1032600090E00E947B1160E679E080E590E0CF91EC
:103270000C947B11FF920F931F93CF93DF93EC017C
:103280008B01FB01F0800E947F34F81621F06F2D36
:10329000CE010E948734F801F1802196CE010E9470
:1032A0007F34F81621F06F2DCE010E948734C801BB
:1032B000DF91CF911F910F91FF900895EF92FF92B0
:1032C0000F931F93CF93DF93CDB7DEB768970FB6F9
:1032D000F894DEBF0FBECDBF8FE00E94A1057E0136
:1032E00021E1E20EF11CBC01990F880B990B0E94A1
:1032F0005F3320E030E040EA5BE30E94BE338701A9
:1033000022E040E00E94872DFF92EF928BE892E04E
:103310009F938F931F9280E18F93005111091F9308
:103320000F930E947F38C8010E9440150FB6F89491
:10333000DEBF0FBECDBF68960FB6F894DEBF0FBEDE
:10334000CDBFDF91CF911F910F91FF90EF90089526
:103350002F923F924F925F926F927F928F929F92A5
:10336000AF92BF92CF92DF92EF92FF920F931F9393
:10337000CF93DF93CDB7DEB76E970FB6F894DEBF6D
:103380000FBECDBF182F1B0180913806882309F48A
:1033900098C080E00E94A413812F0E94C31068E7A8
:1033A00070E080E090E00E94E3050E9416062B0189
:1033B0003C0110E000E0C12CD12C76010E941606E1
:1033C00064197509860997096A3471408105910568
:1033D00030F50E94BF12BC01990F880B990B0E9417
:1033E0005F334B015C016091D5067091D6068091E8
:1033F000D7069091D8060E945D339B01AC01C501B0
:10340000B4010E949C359B01AC015F77C701B601F6
:103410000E9430356B017C010F5F1F4FCFCF0E94A0
:10342000D91081E00E94A41360E070E0CB01011587
:10343000110559F0B80190E080E00E945D339B01D6
:10344000AC01C701B6010E949C357E0125E1E20E68
:10345000F11C870120E040E00E94872DFF92EF924F
:1034600082E992E09F938F931F9284E18F9304519E
:1034700011091F930F930E947F38C8010E944015C5
:103480000FB6F894DEBF0FBECDBFC1010E9440153C
:103490006E960FB6F894DEBF0FBECDBFDF91CF9111
:1034A0001F910F91FF90EF90DF90CF90BF90AF9062
:1034B0009F908F907F906F905F904F903F902F9054
:1034C000089562EC71E0812F0E94E31080EA92E09F
:1034D0000E944015DACF0F931F93CF93DF93CDB7A0
:1034E000DEB760970FB6F894DEBF0FBECDBF182FC2
:1034F0008FE00E94A105BC01990F880B990B0E94D7
:103500005F3320E030E040EA5BE30E94BE339B0182
:10351000AC0160E070E08AEF94E4112321F060E0F8
:1035200070E08AE794E40E9430358E010F5F1F4FF0
:1035300022E040E00E94872DC8010E94401560965D
:103540000FB6F894DEBF0FBECDBFDF91CF911F91B4
:103550000F910895CF92DF92EF92FF921F93CF9336
:10356000DF9300D01F92CDB7DEB76B017C01809155
:10357000410611E091E0C916D104E104F10421F4FF
:10358000813021F010E002C08111FCCFC701B601EB
:103590000E948310882371F0812F0E946B1A0F9074
:1035A0000F900F90DF91CF911F91FF90EF90DF90E0
:1035B000CF9008950E9416066093690570936A057E
:1035C00080936B0590936C05C0926505D09266055B
:1035D000E0926705F0926805812F0E946B1A6CE3F8
:1035E00070E080E090E00E94E305812F0E94E113EB
:1035F0000E9416066093690570936A0580936B05B7
:1036000090936C0568E770E080E090E00E94E3052D
:10361000812F0E946B1A0E94F110198280E88A8320
:103620001B8248E750E063E0CE0101960E94421100
:10363000B6CF2F923F924F925F926F927F928F926E
:103640009F92AF92BF92CF92DF92EF92FF920F9331
:103650001F93CF93DF93CDB7DEB7C454D1090FB614
:10366000F894DEBF0FBECDBF8DED96E090930101C3
:103670008093000186E990E0A0E0B0E08093E1064D
:103680009093E206A093E306B093E4060E94160628
:103690004B015C010E94160669AF7AAF8BAF9CAFFD
:1036A00070E2272E7EE4372E412C512C8E010F5FC5
:1036B0001F4F0E941606681979098A099B0962152D
:1036C00073058405950508F098C50E94160629AD76
:1036D0003AAD4BAD5CAD621B730B840B950B603C3C
:1036E00077428940910508F088C582E00E94B902BE
:1036F000892B31F40E9425180E9416064B015C01AB
:1037000083E00E94B902019721F40E9416064B0142
:103710005C018DED96E00E94BF0B181619064CF661
:103720008DED96E00E94190B8D30910549F08032A5
:10373000910531F09C01295031092230310528F4DE
:103740008DED96E00E94D50BB4CF8F7D8154910909
:103750004A9708F0F7C563EE72E0CE0189960E94A1
:1037600099170E94F60B97FD1AC089831A82EDA45F
:10377000FEA44FEFE41AF40AB701CE0189960E9425
:103780000115882371F329A53AA58DA59EA5B80139
:10379000820F931F0E945038FEA6EDA6E2CFC9A467
:1037A000DAA4C114D10431F0EDA4FEA43601E11471
:1037B000F104B9F4E9A4FAA4E114F10409F449C04C
:1037C000F70181917F01882309F443C0082E000C82
:1037D000990B0E943F38F70131978083F1CF6DA894
:1037E0007EA8C30101969EAB8DABF3018081082EAC
:1037F000000C990B0E94B032892B89F7F1E0EF1A87
:10380000F108EC0CFD1CF7018081082E000C990BCF
:103810000E94B032892B39F0E614F70420F0F1E071
:10382000EF1AF108F0CFA7014F5F5F4F4619570914
:103830005EA74DA7C614D70420F4B301C6010E94A9
:103840004738E9A5FAA58DA59EA5E80FF91F1082B6
:10385000B1CF68EE72E0C8010E949917B801CE019D
:1038600089960E94E614F82EC8010E942915FF20AF
:1038700011F180914E06811119C0F1E0F0934E06CE
:1038800060E173E086E490E00E947B1167E174E000
:1038900082E890E00E947B11198280E88A831B8273
:1038A0004AE550E062E0C8010E944211CE018996CB
:1038B0000E942915FECE60EF72E0C8010E949917A0
:1038C000B801CE0189960E94E614F82EC8010E9424
:1038D0002915FF2019F010924E06E8CF68EF72E02C
:1038E000C8010E949917B801CE0189960E94E6147A
:1038F000F82EC8010E942915FF2009F464C40E9413
:1039000016064B015C016DEF72E0C8010E94991729
:10391000B801CE0189960E94E614F82EC8010E94D3
:103920002915FF2079F086E093E00E94401566E9B2
:1039300070E080E090E00E94E30586E093E00E9462
:10394000401559C06BE073E0C8010E949917B80197
:10395000CE0189960E94E614F82EC8010E9429150E
:10396000FF20A9F06CED75E088E790E00E947B11E4
:1039700060ED77E088E790E00E947B1164EC79E0ED
:1039800084EB90E00E947B1183E193E0D8CF6AE161
:1039900073E0C8010E949917B801CE0189960E9470
:1039A000E614F82EC8010E942915FF2029F00E9474
:1039B000EC0F82E293E0C3CF69E273E0C8010E949A
:1039C0009917B801CE0189960E94E614F82EC80115
:1039D0000E942915FF20B1F082E393E00E94401578
:1039E00064E170E080E090E00E94E3056AE373E048
:1039F00081E00E94A81980E6282E8AEE382E412CFC
:103A0000512C54CF63E473E0C8010E949917B801A8
:103A1000CE0189960E94E614F82EC8010E9429154D
:103A2000FF2071F08CE493E00E94401564E170E0A7
:103A300080E090E00E94E30564E573E080E0D9CF88
:103A40006DE573E0C8010E949917B801CE0189960F
:103A50000E94E614F82EC8010E942915FF2019F0D3
:103A60000E945E19C8CF65E673E0C8010E949917ED
:103A7000B801CE0189960E94E614F82EC8010E9472
:103A80002915FF2009F404C280914206882309F415
:103A9000D2C182E496E09F938F938EE693E09F934A
:103AA0008F931F9260E2F62EFF921F930F930E9456
:103AB0007F38C8010E944015809141061F928F9364
:103AC00085E793E09F938F931F92FF921F930F932D
:103AD0000E947F38C8010E9440150FB6F894DEBFDF
:103AE0000FBECDBF80913D0690913E06A0913F064E
:103AF000B0914006892B8A2B8B2B09F49FC18091B2
:103B0000390690913A06A0913B06B0913C06892B6C
:103B10008A2B8B2B09F492C18BEB92E09F938F93AE
:103B20008CE793E09F938F931F9280E28F931F9374
:103B30000F930E947F38C8010E9440150FB6F89479
:103B4000DEBF0FBECDBF80913506882309F479C151
:103B50008BEB92E09F938F9385E893E09F938F93F5
:103B60001F9280E28F931F930F930E947F38C801AA
:103B70000E944015809136060FB6F894DEBF0FBE46
:103B8000CDBF823009F460C1813009F060C180EDA1
:103B900092E09F938F938CE893E09F938F931F9273
:103BA00080E28F931F930F930E947F38C8010E9479
:103BB00040150FB6F894DEBF0FBECDBF809138061A
:103BC000882309F447C18BEB92E09F938F9384E99C
:103BD00093E09F938F931F9280E28F931F930F9395
:103BE0000E947F38C8010E9440150FB6F894DEBFCE
:103BF0000FBECDBF80915106882309F42EC186EBFC
:103C000093E09F938F938BE993E09F938F931F9201
:103C100050E2F52EFF921F930F930E947F38C80148
:103C20000E944015809108010FB6F894DEBF0FBEC8
:103C3000CDBF8C3009F014C180EB91E09F938F933E
:103C40001F92FF921F930F930E946F2E0F900F9061
:103C50000F900F900F900F90C8010E944015809117
:103C600037061F928F9384EA93E09F938F931F925E
:103C700040E2F42EFF921F930F930E947F38C801F9
:103C80000E9440150E94160628EE33E040E050E006
:103C90000E94FE345F934F933F932F938BE991E003
:103CA0009F938F931F92FF921F930F930E946F2EEB
:103CB000C8010E944015BE016D5C7F4F86E993E00C
:103CC0000E94FB17BE016F5C7F4F88E993E00E9462
:103CD000FB17BE01615D7F4F8AE993E00E94FB17ED
:103CE0000FB6F894DEBF0FBECDBF8BA99CA901967D
:103CF00011F41CAA1BAA89A99AA9019611F41AAA5F
:103D000019AA8FA598A9019611F418AA1FA6809147
:103D1000000782FDB7C083FDB7C081FFB7C085E44F
:103D20001F928F9384E991E09F938F931F9230E2CB
:103D3000F32EFF921F930F930E946F2EC8010E94D3
:103D400040158CA98F938BA98F938BE891E09F935B
:103D50008F931F92FF921F930F930E946F2EC801A3
:103D60000E9440158AA98F9389A98F9383E891E0D7
:103D70009F938F931F92FF921F930F930E946F2E1A
:103D8000C8010E94401588A98F938FA58F938BE758
:103D900091E09F938F931F92FF921F930F930E9426
:103DA0006F2E0FB6F894DEBF0FBECDBFC8010E94C4
:103DB00040150E946B0F9F938F9384E791E09F9330
:103DC0008F931F92FF921F930F930E946F2EC80133
:103DD0000E944015809164058F93809163058F93B5
:103DE0008AE691E09F938F931F92FF921F930F9308
:103DF0000E946F2EC8010E9440151F9282E08F938F
:103E000082E691E09F938F931F92FF921F930F93EF
:103E10000E946F2EC8010E9440158FEA93E00E9415
:103E200040158AEB93E00E9440150FB6F894DEBF70
:103E30000FBECDBFE0CD81EB92E02DCE8EEB92E0B8
:103E40006DCE85EC92E086CE8CEC92E0A2CE85ED34
:103E500092E09FCE87ED92E0B8CE8BED92E0D1CE8E
:103E60001F928F9386EA91E09F938F931F92FF9208
:103E70001F930F930E946F2E0FB6F894DEBF0FBEF4
:103E8000CDBFEACE82E44CCF87E54ACF80E548CF6C
:103E900063EC73E0C8010E949917B801CE018996BE
:103EA0000E94E614F82EC8010E942915FF2029F06F
:103EB0000E94F1108DEC93E042CD66ED73E0C801F5
:103EC0000E949917B801CE0189960E94E614F82E37
:103ED000C8010E942915FF2051F1D12CC12C9FED62
:103EE000E92E93E0F92E2CE1722EDF92CF92FF9211
:103EF000EF921F927F921F930F930E947F38C80109
:103F00000E94401566E970E080E090E00E94E305C1
:103F10005FEFC51AD50A0FB6F894DEBF0FBECDBF4E
:103F200095E0C916D10409F787EF93E008CD60E06A
:103F300074E0C8010E949917B801CE0189960E94C9
:103F4000E614F82EC8010E942915FF2091F089A5DA
:103F50009AA507969F938F9388E094E09F938F9301
:103F60001F9288E28F931F930F930E947F38C8019E
:103F70005ACF6FE074E0C8010E949917B801CE01D2
:103F800089960E94E614F82EC8010E942915FF2088
:103F900059F061E081E993E00E941118F1E0F0939B
:103FA00050068AE194E0CBCC64E274E0C8010E9440
:103FB0009917B801CE0189960E94E614F82EC8011F
:103FC0000E942915FF2051F060E081E993E00E94F2
:103FD00011181092500680E394E0B1CC6BE374E0CA
:103FE000C8010E949917B801CE0189960E94E61473
:103FF000F82EC8010E942915FF2009F468C080919D
:1040000008018C3019F483E494E099CC8CE494E0BA
:104010000E94401560E971E080E090E00E94E305B5
:1040200064EF71E083E594E00E94A91564EF71E00C
:1040300080E090E00E94E30583E00E94B9020197CE
:1040400019F48BE594E07BCC70E060E086E692E0CA
:104050000E94EE1568EC70E086E792E00E94A915D8
:1040600061E08FE893E00E941118809108011F928F
:104070008F932BE634E03F932F931F928CE08F9326
:104080001F930F930E947F386CE370E0C8010E9479
:10409000A91568EB7BE080E090E00E94E30560E01A
:1040A0008FE893E00E94111860E971E080EA90E0E7
:1040B0000E947B1160E971E080EA90E00E947B1130
:1040C00060E971E080EA90E00E947B11AECE65E786
:1040D00074E0C8010E949917B801CE0189960E9428
:1040E000E614F82EC8010E942915FF20A1F01A82BB
:1040F0001982B80186E993E00E943A19B80188E96B
:1041000093E00E943A19B8018AE993E00E943A19B3
:104110008EE794E014CC66E874E0C8010E94991719
:10412000B801CE0189960E94E614F82EC8010E94BB
:10413000291589EB94E0FF2009F401CC8EE894E086
:104140000E9440156CED75E088E790E00E947B11BD
:1041500060ED77E088E790E00E947B1164EC79E005
:1041600084EB90E00E947B1183E193E00E94401574
:104170000E94EC0F82E293E00E94401589E994E0EE
:104180000E94401562EC71E081E00E94E31082E33E
:1041900093E00E94401560E971E080E090E00E94A9
:1041A000E30585EA94E00E94401562EC71E080E04E
:1041B0000E94E3108CE493E00E9440150E945E1977
:1041C00081EB94E0BCCB61EC74E0C8010E949917CC
:1041D000B801CE0189960E94E614F82EC8010E940B
:1041E0002915FF2021F161E070E080E090E00E945D
:1041F000AA1ACE0189960E942915CC5BDF4F0FB613
:10420000F894DEBF0FBECDBFDF91CF911F910F910C
:10421000FF90EF90DF90CF90BF90AF909F908F90E6
:104220007F906F905F904F903F902F90089567EC34
:1042300074E0C8010E949917B801CE0189960E94C6
:10424000E614F82EC8010E942915FF2029F062E02B
:1042500070E080E090E0CBCF6EEC74E0C8010E948B
:104260009917B801CE0189960E94CB147C01C80130
:104270000E942915F7FC04C081E00E94F318B9CF11
:104280006BED74E0C8010E949917B801CE018996C0
:104290000E94CB147C01C8010E942915F7FC02C0C2
:1042A00080E0EBCF69EE74E0C8010E949917B80175
:1042B000CE0189960E94CB147C01C8010E94291569
:1042C000F7FC16C00E9416064B015C0168E978E015
:1042D0008CE390E00E947B1181E00E94E11368E78B
:1042E00070E080E090E00E94E3050E946415DECA61
:1042F00064EF74E0C8010E949917B801CE01899655
:104300000E94CB147C01C8010E942915F7FCCECA7B
:104310000E9416064B015C0168E978E08CE390E0AE
:104320000E947B116EE774E080E090E00E94E3055C
:104330000E94641581E00E94E113B8CA8DED96E0F9
:104340000E94D50B0E94310BFC0197FD5FC08D329E
:10435000910519F0C0970A9788F7C12CD12C7601E6
:10436000712CE130F105D9F0ED32F10509F44BC0C3
:10437000CF01C0970A9798F4AAE0B0E0A701960190
:104380000E94B4346F01FF0FEE08FF08C60ED71E5F
:10439000E81EF91E90E3C91AD108E108F1088DED75
:1043A00096E00E94D50B0E94310BFC01C0970A9742
:1043B000C0F2E130F105A9F2772041F0F094E094E9
:1043C000D094C094C11CD11CE11CF11CC114D104B7
:1043D000E104F10409F46DC9D701C6010197A109EF
:1043E000B1090297A105B10508F03FC080914106CF
:1043F00011E0E1E0CE16D104E104F10459F481307A
:1044000059F010E009C077247394C9CFC12CD12C86
:104410007601DCCF8111F5CF812F0E946B1AC70185
:10442000B6010E9483108111E8CE0E9416066093A7
:10443000690570936A0580936B0590936C05C09233
:104440006505D0926605E0926705F0926805812FB8
:104450000E94E1130E9416066093690570936A0535
:1044600080936B0590936C05C8CEC114F9EEDF06FE
:10447000F2E0EF06F104C9F40E9416064B015C015C
:1044800068E978E08CE390E00E947B1168E27AE0D2
:104490008CE390E00E947B116EE774E080E090E096
:1044A0000E94E3050E94641504C921E2C2162BE0B4
:1044B000D20620E2E206F10408F0FBC80E941606CC
:1044C0004B015C010E94F12D21966CAF7DAF8EAF48
:1044D0009FAF21970E94F12D2EE037E240E050E09F
:1044E0000E9495349B01AC012F5F3F4F4F4F5F4FB0
:1044F0002DAB3EAB4FAB58AF80913D0690913E0641
:10450000A0913F06B0914006A7019601280F391FE0
:104510004A1F5B1F25962CAF3DAF4EAF5FAF25976F
:1045200021966CAD7DAD8EAD9FAD21972EE037E22B
:1045300040E050E00E949534DC01CB010196A11DC2
:10454000B11D25962CAD3DAD4EAD5FAD2597820FCB
:10455000931FA41FB51F20913706233009F04DC0CB
:104560002FED32E0BF93AF939F938F933F932F93A1
:104570001F9280E18F931F930F930E947F38C80191
:104580000E94401566E970E080E090E00E94E3053B
:104590008091390690913A06A0913B06B0913C0675
:1045A0008C0D9D1DAE1DBF1DCDA8DEA8EFA8F8ACDB
:1045B000C80ED91EEA1EFB1E0FB6F894DEBF0FBE52
:1045C000CDBF809137068330D9F48FED92E0FF9212
:1045D000EF92DF92CF929F938F931F9280E18F9300
:1045E0001F930F930E947F38C8010E9440150FB699
:1045F000F894DEBF0FBECDBF5CC824EE32E0B2CF70
:1046000084EE92E0E4CF8F929F92AF92BF92DF92BE
:10461000EF92FF920F931F93CF93DF93CDB7DEB747
:10462000E0970FB6F894DEBF0FBECDBF83E0E82E53
:1046300090E3D92E8E010F5F1F4F8DED96E00E9403
:10464000BF0B892B29F08DED96E00E94D50BF5CF9D
:1046500062E075E08DED96E00E943115F8012D2D98
:1046600011922A95E9F70E9416064B015C01F12C84
:104670000E941606681979098A099B09623C7140F3
:104680008105910598F48DED96E00E94BF0B892B72
:1046900079F3FEE2FF1560F38DED96E00E94D50BF5
:1046A000F801EF0DF11D8083F394E2CF6CE075E02B
:1046B000C8010E9465385C01892B29F4EA94E11055
:1046C000BCCF10E01FC06CEC72E0C8010E946538DE
:1046D000892B59F581E080933606C50104960E9426
:1046E000492E182F811101C011E010933706612F58
:1046F00080E093E00E9411186091360683E993E010
:104700000E941118812FE0960FB6F894DEBF0FBEFD
:10471000CDBFDF91CF911F910F91FF90EF90DF9070
:10472000BF90AF909F908F90089582E0D4CF1F925A
:104730000F920FB60F9211242F933F938F939F9355
:10474000AF93BF938091550690915606A09157065E
:10475000B09158063091540623E0230F2D3768F1AD
:1047600026E8230F0296A11DB11D209354068093C5
:10477000550690935606A0935706B093580680911D
:10478000590690915A06A0915B06B0915C0601967D
:10479000A11DB11D8093590690935A06A0935B0604
:1047A000B0935C06BF91AF919F918F913F912F91F4
:1047B0000F900FBE0F901F9018950196A11DB11D6F
:1047C000D4CF1F920F920FB60F9211242F933F93C5
:1047D0004F935F936F937F938F939F93AF93BF9309
:1047E000EF93FF93E0910601F09107010995FF9186
:1047F000EF91BF91AF919F918F917F916F915F9159
:104800004F913F912F910F900FBE0F901F901895D1
:104810001F920F920FB60F9211242F933F934F9335
:104820005F936F937F938F939F93AF93BF93EF9318
:10483000FF93E0910401F09105010995FF91EF913B
:10484000BF91AF919F918F917F916F915F914F91A8
:104850003F912F910F900FBE0F901F9018951F92B0
:104860000F920FB60F9211242F933F934F935F93A4
:104870006F937F938F939F93AF93BF93EF93FF9328
:104880008091930690919406A0919506B09196061A
:10489000892B8A2B8B2BD1F190918E06E0918F067C
:1048A000F091900680818927808380919306909172
:1048B0009406A0919506B0919606181619061A0648
:1048C0001B069CF48091930690919406A091950606
:1048D000B09196060197A109B10980939306909330
:1048E0009406A0939506B0939606FF91EF91BF9121
:1048F000AF919F918F917F916F915F914F913F9178
:104900002F910F900FBE0F901F90189580910A0164
:104910000E944207EACF1F920F920FB60F92112406
:104920008F930FB6F894A89580916000886180936A
:104930006000109260000FBE8F910F900FBE0F901D
:104940001F9018951F920F920FB60F9211242F935C
:104950003F934F935F936F937F938F939F93AF9307
:10496000BF93EF93FF938091B900887F803609F45D
:104970004AC0F0F5883209F4A7C018F5803109F46F
:104980009BC0B8F4882309F405C1883009F494C0A9
:10499000FF91EF91BF91AF919F918F917F916F9117
:1049A0005F914F913F912F910F900FBE0F901F90ED
:1049B0001895883109F488C0803251F780936706D2
:1049C00014C0803409F4A5C040F48033B9F38833AF
:1049D000F9F68093670685ECBCC0803509F489C080
:1049E000883509F49EC0883499F60E940B0AD0CF0E
:1049F000883909F494C038F5883729F050F488369E
:104A000011F0803729F683E0809369061092F20551
:104A100057C0883809F483C0803919F0803809F00C
:104A2000B7CF8091F205803208F079C0E091F205AD
:104A300081E08E0F8093F2058091BB00F0E0EE5292
:104A4000FA4F80833DC0803B39F0E0F4803A09F4AE
:104A500085C0883A09F09CCF84E080936906109263
:104A6000D1051092D005E0913106F09132060995FA
:104A70008091D00581110FC081E08093D005109204
:104A8000B00509C0803C09F4A6CF883C09F4A3CF47
:104A9000883B09F07DCFE091D10581E08E0F8093B6
:104AA000D105F0E0E055FA4F80818093BB009091F2
:104AB000D1058091D00531C0809162068093BB0002
:104AC00085EC8093BC0064CF90916406809163066E
:104AD0009817B8F58091650690916606E091640696
:104AE00021E02E0F20936406E80FF92FF11D80813D
:104AF000E5CF2091650630916606E091640681E07D
:104B00008E0F809364068091BB00E20FF32FF11D9E
:104B100080839091640680916306981788F285E8F7
:104B2000D0CF2091650630916606E091640681E061
:104B30008E0F809364068091BB00E20FF32FF11D6E
:104B4000808380916806811150CF81E08093610657
:104B500084EA8093BC00109269061ACF85EC80939A
:104B6000BC00109269068091F205803230F4E09129
:104B7000F205F0E0EE52FA4F10826091F20570E01B
:104B8000E0912F06F091300682ED95E009951092A4
:104B9000F205FECE1092670628CF1F920F920FB635
:104BA0000F9211242F933F934F935F936F937F93B3
:104BB0008F939F93AF93BF93EF93FF93E0915F0623
:104BC000F0916006309749F0A685B7858585968D6A
:104BD00091FF14C09C918923A1F4FF91EF91BF91A3
:104BE000AF919F918F917F916F915F914F913F9185
:104BF0002F910F900FBE0F901F9018959C918923B5
:104C000061F7A389B4899C918589809589238C93C8
:104C1000868997890197F1F7608D718DA685B78593
:104C2000558538E020E0CB010197F1F7822F90E025
:104C300095958795282F4C91452309F02068315090
:104C400091F7868D81FD209580915E0690E001961A
:104C50008F73992730915D06381799F0A0915E0601
:104C6000B0E0A059BA4F2C9380935E06828D938D4D
:104C70000197F1F7A389B4898C919589892B8C933D
:104C8000ACCF868D8160868FF1CF8FEF8093B40695
:104C90001092B6061092B5061092C0061092BF068A
:104CA0008FEF9FEFDC018093BB069093BC06A0932F
:104CB000BD06B093BE061092C4061092C30688EEDD
:104CC00093E0A0E0B0E08093C5069093C606A09361
:104CD000C706B093C80626EA31E03093C206209397
:104CE000C1061092E0061092DF068093E1069093D1
:104CF000E206A093E306B093E40688EB91E090937C
:104D0000DE068093DD061092F4061092F3061092F0
:104D1000F6061092F5061092F8061092F706109219
:104D2000FA061092F9066091FB066E7F6D7F609324
:104D3000FB066695617081E0682784E00E94E202CC
:104D400061E084E00E941003E0E1F2E0E491E0938E
:104D5000ED06E9EFF1E0E491F0E0EE0FFF1FE55121
:104D6000FE4F859194919093EF068093EE0660E05C
:104D700085E00E9410038091FB0681FD04C061E084
:104D800085E00E94E20285E08093E906E1E1F2E03D
:104D9000E491E093EA06EAEFF1E0E491F0E0EE0F4F
:104DA000FF1FEF51FE4F859194919093EC068093F5
:104DB000EB061092CE061092CD0685E48093D006C5
:104DC0001092D5061092D6061092D7061092D806E9
:104DD0001092D9061092DA061092DB061092DC06C9
:104DE0000895CF93DF93CDB7DEB7AD970FB6F894A4
:104DF000DEBF0FBECDBF789484B5836084BD85B51A
:104E0000836085BD80916E00816080936E0082E03A
:104E100080938100809181008160809381008091E6
:104E200080008160809380008091B10084608093D5
:104E3000B1008091B00081608093B00087E88093DA
:104E40007A001092C10080E993E00E940F1891E06F
:104E5000813009F090E090935106813031F48AE07E
:104E6000809303018BE08093020161E086E00E9461
:104E7000100361E0809103010E94100361E08091C2
:104E800002010E94100362E082E00E94100360E0D1
:104E900083E00E9410030E94D91080916400846016
:104EA0008093640080B7806880BF80915106811133
:104EB00010C08DB1807F8DB98EB18F608EB9809119
:104EC0006400806180936400809165008D638093AD
:104ED000650081E993E00E940F188130E9F461E0F8
:104EE0008BE00E94100360E08BE00E94E2020CE283
:104EF00011E00E946B0F01978736904168F430E013
:104F000020E050E040E066E070E083E196E00E943F
:104F10009B070150110969F78E010F5F1F4FB80100
:104F200086E993E00E94FB1789819A81019611F42A
:104F30001A82198289819A8101969A838983B8019C
:104F400086E993E00E943A198091000782FF15C01C
:104F5000B80188E993E00E94FB1789819A81019644
:104F600011F41A82198289819A8101969A83898320
:104F7000B80188E993E00E943A1968E27AE086E491
:104F800090E00E947B118EE00E94A1056C01990FB8
:104F9000EE08FF080E94BE054B015C01C701B60187
:104FA000682579258A259B25C814D904EA04FB04C1
:104FB00011F00E94402E62E08EE00E94100380916A
:104FC0005106882309F4F5C061E087E00E941003D0
:104FD00060E087E00E94E20261E088E00E94100346
:104FE00060E088E00E94E20261E089E00E94100334
:104FF00060E089E00E94E20222E4C22E26E0D22E86
:10500000F12CE12CC7018F5F9C4F0E940F189FEF7E
:10501000980F9E3F08F449C1F701EE5BF94F1082EB
:1050200083E090E00E940F1880934106823010F0D8
:10503000109241066DE376E085E090E00E94D5177E
:1050400069E376E08FE090E00E94D5178091CD066D
:105050009091CE06892BA9F486E090E00E94583604
:10506000FC018091D006808381EC96E0928381835D
:10507000138280E290E095838483F093CE06E093E0
:10508000CD06C090CD06D090CE0610923406109278
:10509000330610926B0610928D060E943C0A8DE337
:1050A00097E090933206809331068EE397E09093D9
:1050B000300680932F06FF24F394F601F382C60195
:1050C0000E945A0A8111FEC01092380680E093E0D7
:1050D0000E940F1880933706893210F0109237061D
:1050E00083E993E00E940F1880933606833010F016
:1050F0001092360682E993E00E940F18809308010F
:105100009CEF980F963028F08C3019F088E080934F
:1051100008018FE893E00E940F1891E0813009F0B8
:1051200090E090935306813029F460E08FE893E09B
:105130000E94111883E00E94B902019719F481E0DE
:105140008093530681E993E00E940F1891E081302B
:1051500009F090E09093500660E679E080E090E0FE
:105160000E94BE01809153068111A8C38EE893E08E
:105170000E940F18893C09F008C181E08093350630
:1051800086E0F82E80913506811184C3FA94FF20C1
:1051900009F485C36AEF70E080E090E00E94E305C7
:1051A0000E94032391E0811101C090E090933506A5
:1051B000E9CF80912706811145C0109219061092FF
:1051C00018068FEF80931C0680931D0680931E06A1
:1051D00080931F06809320068093210681E08093B0
:1051E0002206109224061092230610921B0610929B
:1051F0001A068091AE069091AF06892B31F486E1B4
:1052000096E09093AF068093AE06E0911406F0917D
:105210001506309721F086E196E09583848386E138
:1052200096E090931506809314061092260610922D
:1052300025068EE791E0909317068093160681E08D
:1052400080932706239A8FE996E09093190680931E
:10525000180683E090E090932406809323068091C3
:10526000B7069091B806A091B906B091BA06843CF1
:1052700029E09207A105B10520F484EC99E0A0E0B3
:10528000B0E08093B7069093B806A093B906B093A8
:10529000BA0682E38093B40619821A821B82C8017F
:1052A0000E944E010E942206A7CEF60181936F0153
:1052B0001082FFEFEF1AFF0A2BE0E216F10409F06B
:1052C000A1CEAECE80E090E1A0E0B0E08093D10628
:1052D0009093D206A093D306B093D4068AE090E0D0
:1052E000A0E0B0E08093D5069093D606A093D706B1
:1052F000B093D80680E090E0A0E0B0E48093D906B7
:105300009093DA06A093DB06B093DC068091CD067D
:105310009091CE0618A619A61AA61BA69A8F898F59
:105320001C8E1B8EFAA285E090E098A38F8FFBA2C3
:1053300092E0E92EE9A222E040E050E160E070E076
:10534000CE0149960E944F098091CD069091CE06DC
:10535000188A198A1A8A1B8A9A8389831C821B825B
:10536000FA8618861F82FB86E98622E04FE959E318
:1053700060E070E0C8010E944F098093CF06F09270
:10538000380681E00E94A413A1CE83E00E94B902F6
:10539000019709F4F5CE0E9421160E94032391E0A3
:1053A000811101C090E0909335068EE893E00E9451
:1053B0000F188DA785E993E00E940F18782EFFEF54
:1053C0008F1301C0712CA2E06A2E670CB6EECB2EB3
:1053D000B1E0DB2ECE0101965C014E019DE2890E0B
:1053E000911C8091350681114FC2EDA5E93C09F46D
:1053F000C7CEF2E0F71508F4C3CE761409F4C0CE98
:1054000083E00E94B902892B09F0BACE7394672D0C
:1054100085E993E00E94111860EB74E082E390E06C
:105420000E947B1160EB74E082E390E00E947B11AC
:1054300080915106882309F453C0FEE8EF2EF1E075
:10544000FF2EF70161917191819191917F010E94ED
:10545000BE016EE170E080E090E00E94E305E6E0CE
:105460005E2E68E270E089EC92E00E94A9155A94E1
:105470005110F7CF68E770E081E195E00E94A9152F
:105480006CE370E083E292E00E94A9156CE370E0A7
:105490008CE292E00E94A9156CE370E085E392E053
:1054A0000E94A9156CE370E08EE392E00E94A915BA
:1054B0006CE370E087E492E00E94A91560E570E07B
:1054C00080E592E00E94A91560E570E08BE592E02E
:1054D0000E94A915F2EAEF16F1E0FF0609F0B1CF3C
:1054E0007EE8E72E71E0F72EF701619171918191CD
:1054F00091917F010E94BE016EE170E080E090E03A
:105500000E94E30568E270E089EC92E00E94A91530
:1055100068E270E089EC92E00E94A91568E270E010
:1055200089EC92E00E94A91568E770E081E195E0BE
:105530000E94A9156AEF70E08AE195E00E94A91522
:1055400066E970E083E295E00E94A91568E572E0E3
:1055500080E090E00E94E305F2EAEF16F1E0FF063A
:1055600019F660E679E080E090E00E94BE016CED03
:1055700075E080E090E00E94E3058DED96E00E94EA
:10558000BF0B892B29F08DED96E00E94D50BF5CF4E
:1055900066E970E08CE295E00E94A91566E970E08A
:1055A0008AE195E00E94A91566E970E084ED91E03A
:1055B0000E94A91566E970E088E092E00E94A915B2
:1055C00066E970E087E395E00E94A91566E970E05E
:1055D00080E495E00E94A91566E970E089E495E011
:1055E0000E94A9150E94032380914206882309F492
:1055F0004DC082E496E09F938F93DF92CF921F92EB
:10560000F8E1FF93BF92AF920E947F3884E1E8E116
:10561000F1E0DE01599601900D928A95E1F77E0145
:1056200029E1E20EF11C0FB6F894DEBF0FBECDBF2C
:10563000F70161917191819191917F010E94BE0169
:105640006EE170E080E090E00E94E30562E370E0CC
:1056500089EC92E00E94A91564E670E081E195E092
:105660000E94A91564EB70E0C5010E94A915E81419
:10567000F904F1F660E679E080E090E00E94BE0176
:1056800064E670E080E090E00E94E3050E9421164D
:1056900066E970E082E595E00E94A91583E00E942A
:1056A000B902019751F10E947215811126C08DED4A
:1056B00096E00E94BF0B892B29F08DED96E00E94A9
:1056C000D50BF5CF62E075E08DED96E00E943115C7
:1056D0000E9416061B012C010E941606621973090E
:1056E00084099509623C71408105910558F48DED5E
:1056F00096E00E94BF0B892B79F369EC8EE893E06A
:105700000E94111866E970E083E295E00E94A915F5
:105710006CED75E080E090E00E94E3058DED96E091
:105720000E94BF0B892B29F08DED96E00E94D50BCE
:10573000F5CF0E9421160E94032391E0811101C040
:1057400090E0909335064DCE8EE893E00E940F18BE
:10575000893C09F4A9C084E0F82E60E971E080EA90
:1057600090E00E947B11FA94F110F7CF8FEF8983BC
:105770001A821B8248EC50E062E0C8010E9442118C
:1057800080E1ECE2F1E0D80101900D928A95E1F719
:105790006801F60161917191819191916F010E946F
:1057A000BE016EE170E080E090E00E94E3050E949F
:1057B0007215882369F164EF71E080E090E00E9447
:1057C000E305E12C68E27AE08CE890E00E947B112E
:1057D00064EB70E080E090E00E94E305E394FE1447
:1057E00088F7F1100EC00E94211668EC70E080E08E
:1057F00090E00E94E30560E87CE08AE590E00E948A
:105800007B1160E679E080E090E00E94BE0156C026
:105810000E9403238111CFCFF394F4E0FF12B9CF9C
:10582000F0CF60E087E00E94E20260E088E00E9442
:10583000E20260E089E07AC0809169008C7F82603A
:1058400080936900E89A9092070180920601809106
:1058500069008C6080936900E99A83B7817F83BF78
:10586000F89483B7816083BF7894889583B78E7FDF
:1058700083BFE898F0920501E0920401E998F09264
:105880000701E092060113C160E085E993E00E9400
:10589000111876CC69EC8EE893E00E941118809183
:1058A0003506882309F450CF198280E88A831B8249
:1058B00048E750E062E0C8010E9442119BE6C92E11
:1058C00094E0D92E2CE0522E30E0632E30E0732E7F
:1058D00044E3A42E47E0B42E58E3852E57E0952EDE
:1058E0006CE3E62E67E0F62E80910901811104C079
:1058F00080915306882331F01092090110925306CB
:105900000E94191B0E94D91080915106811189CFE4
:1059100019821A821B82C8010E944E010E9422062F
:1059200061E08BE00E94100360E08BE00E94E202E5
:1059300080915006882309F45DC080915106811141
:1059400059C0809108018C3009F454C083E00E9452
:10595000B902892B09F04EC0B8018AE993E00E9490
:10596000FB1789819A81019611F41A821982898123
:105970009A8101969A838983B8018AE993E00E940B
:105980003A1968EC70E083E594E00E94A91568E795
:1059900070E080E090E00E94E30564E670E086E756
:1059A00092E00E94A915809108011F928F93DF92C7
:1059B000CF921F925F921F930F930E947F386CE3E8
:1059C00070E0C8010E94A91568EC70E080E090E0EA
:1059D0000E94E3056CE370E0C8010E94A91568EC21
:1059E00070E080E090E00E94E3050FB6F894DEBF1F
:1059F0000FBECDBF10924F061092520610924E0667
:105A000083E00E94B902B0920501A0920401892BA3
:105A100009F012CF809169008C7F80936900E89A29
:105A20008091680084608093680080916D00886038
:105A300080936D0040907A0080917A008F778093F8
:105A40007A0083B7817F846083BFF89483E00E94EB
:105A5000B902892BB9F480915206811113C08DEDE2
:105A600096E00E94BF0B892B69F483B7816083BFE6
:105A700085B7806685BF8F7D85BF7894889583B70D
:105A80008E7F83BF789440927A0080916D00877FEB
:105A900080936D00E898F0920501E092040183E0A4
:105AA0000E94B902019719F481E080934F0680911A
:105AB000520681110E9425180E94191B611471045D
:105AC00009F412CF0E9400000FCF8091CD06909173
:105AD000CE060E94F43688EB91E09093DE06809328
